{"abi":[{"type":"constructor","inputs":[],"stateMutability":"nonpayable"},{"type":"function","name":"UPGRADE_INTERFACE_VERSION","inputs":[],"outputs":[{"name":"","type":"string","internalType":"string"}],"stateMutability":"view"},{"type":"function","name":"abortKeyGen","inputs":[{"name":"oprfKeyId","type":"uint160","internalType":"uint160"}],"outputs":[],"stateMutability":"nonpayable"},{"type":"function","name":"acceptOwnership","inputs":[],"outputs":[],"stateMutability":"nonpayable"},{"type":"function","name":"addKeyGenAdmin","inputs":[{"name":"_keygenAdmin","type":"address","internalType":"address"}],"outputs":[],"stateMutability":"nonpayable"},{"type":"function","name":"addRound1KeyGenContribution","inputs":[{"name":"oprfKeyId","type":"uint160","internalType":"uint160"},{"name":"data","type":"tuple","internalType":"struct OprfKeyGen.Round1Contribution","components":[{"name":"commShare","type":"tuple","internalType":"struct BabyJubJub.Affine","components":[{"name":"x","type":"uint256","internalType":"uint256"},{"name":"y","type":"uint256","internalType":"uint256"}]},{"name":"commCoeffs","type":"uint256","internalType":"uint256"},{"name":"ephPubKey","type":"tuple","internalType":"struct BabyJubJub.Affine","components":[{"name":"x","type":"uint256","internalType":"uint256"},{"name":"y","type":"uint256","internalType":"uint256"}]}]}],"outputs":[],"stateMutability":"nonpayable"},{"type":"function","name":"addRound1ReshareContribution","inputs":[{"name":"oprfKeyId","type":"uint160","internalType":"uint160"},{"name":"data","type":"tuple","internalType":"struct OprfKeyGen.Round1Contribution","components":[{"name":"commShare","type":"tuple","internalType":"struct BabyJubJub.Affine","components":[{"name":"x","type":"uint256","internalType":"uint256"},{"name":"y","type":"uint256","internalType":"uint256"}]},{"name":"commCoeffs","type":"uint256","internalType":"uint256"},{"name":"ephPubKey","type":"tuple","internalType":"struct BabyJubJub.Affine","components":[{"name":"x","type":"uint256","internalType":"uint256"},{"name":"y","type":"uint256","internalType":"uint256"}]}]}],"outputs":[],"stateMutability":"nonpayable"},{"type":"function","name":"addRound2Contribution","inputs":[{"name":"oprfKeyId","type":"uint160","internalType":"uint160"},{"name":"data","type":"tuple","internalType":"struct OprfKeyGen.Round2Contribution","components":[{"name":"compressedProof","type":"uint256[4]","internalType":"uint256[4]"},{"name":"ciphers","type":"tuple[]","internalType":"struct OprfKeyGen.SecretGenCiphertext[]","components":[{"name":"nonce","type":"uint256","internalType":"uint256"},{"name":"cipher","type":"uint256","internalType":"uint256"},{"name":"commitment","type":"tuple","internalType":"struct BabyJubJub.Affine","components":[{"name":"x","type":"uint256","internalType":"uint256"},{"name":"y","type":"uint256","internalType":"uint256"}]}]}]}],"outputs":[],"stateMutability":"nonpayable"},{"type":"function","name":"addRound3Contribution","inputs":[{"name":"oprfKeyId","type":"uint160","internalType":"uint160"}],"outputs":[],"stateMutability":"nonpayable"},{"type":"function","name":"amountKeygenAdmins","inputs":[],"outputs":[{"name":"","type":"uint256","internalType":"uint256"}],"stateMutability":"view"},{"type":"function","name":"changeVerifierContract","inputs":[{"name":"newKeyGenVerifier","type":"address","internalType":"address"}],"outputs":[],"stateMutability":"nonpayable"},{"type":"function","name":"checkIsParticipantAndReturnRound2Ciphers","inputs":[{"name":"oprfKeyId","type":"uint160","internalType":"uint160"}],"outputs":[{"name":"","type":"tuple[]","internalType":"struct OprfKeyGen.SecretGenCiphertext[]","components":[{"name":"nonce","type":"uint256","internalType":"uint256"},{"name":"cipher","type":"uint256","internalType":"uint256"},{"name":"commitment","type":"tuple","internalType":"struct BabyJubJub.Affine","components":[{"name":"x","type":"uint256","internalType":"uint256"},{"name":"y","type":"uint256","internalType":"uint256"}]}]}],"stateMutability":"view"},{"type":"function","name":"deleteOprfPublicKey","inputs":[{"name":"oprfKeyId","type":"uint160","internalType":"uint160"}],"outputs":[],"stateMutability":"nonpayable"},{"type":"function","name":"getOprfPublicKey","inputs":[{"name":"oprfKeyId","type":"uint160","internalType":"uint160"}],"outputs":[{"name":"","type":"tuple","internalType":"struct BabyJubJub.Affine","components":[{"name":"x","type":"uint256","internalType":"uint256"},{"name":"y","type":"uint256","internalType":"uint256"}]}],"stateMutability":"view"},{"type":"function","name":"getOprfPublicKeyAndEpoch","inputs":[{"name":"oprfKeyId","type":"uint160","internalType":"uint160"}],"outputs":[{"name":"","type":"tuple","internalType":"struct OprfKeyGen.RegisteredOprfPublicKey","components":[{"name":"key","type":"tuple","internalType":"struct BabyJubJub.Affine","components":[{"name":"x","type":"uint256","internalType":"uint256"},{"name":"y","type":"uint256","internalType":"uint256"}]},{"name":"epoch","type":"uint32","internalType":"uint32"}]}],"stateMutability":"view"},{"type":"function","name":"getPartyIdForParticipant","inputs":[{"name":"participant","type":"address","internalType":"address"}],"outputs":[{"name":"","type":"uint256","internalType":"uint256"}],"stateMutability":"view"},{"type":"function","name":"initKeyGen","inputs":[{"name":"oprfKeyId","type":"uint160","internalType":"uint160"}],"outputs":[],"stateMutability":"nonpayable"},{"type":"function","name":"initReshare","inputs":[{"name":"oprfKeyId","type":"uint160","internalType":"uint160"}],"outputs":[],"stateMutability":"nonpayable"},{"type":"function","name":"initialize","inputs":[{"name":"_owner","type":"address","internalType":"address"},{"name":"_keygenAdmin","type":"address","internalType":"address"},{"name":"_keyGenVerifierAddress","type":"address","internalType":"address"},{"name":"_threshold","type":"uint16","internalType":"uint16"},{"name":"_numPeers","type":"uint16","internalType":"uint16"}],"outputs":[],"stateMutability":"nonpayable"},{"type":"function","name":"isContractReady","inputs":[],"outputs":[{"name":"","type":"bool","internalType":"bool"}],"stateMutability":"view"},{"type":"function","name":"keyGenVerifier","inputs":[],"outputs":[{"name":"","type":"address","internalType":"address"}],"stateMutability":"view"},{"type":"function","name":"keygenAdmins","inputs":[{"name":"","type":"address","internalType":"address"}],"outputs":[{"name":"","type":"bool","internalType":"bool"}],"stateMutability":"view"},{"type":"function","name":"loadPeerPublicKeysForConsumers","inputs":[{"name":"oprfKeyId","type":"uint160","internalType":"uint160"}],"outputs":[{"name":"","type":"tuple[]","internalType":"struct BabyJubJub.Affine[]","components":[{"name":"x","type":"uint256","internalType":"uint256"},{"name":"y","type":"uint256","internalType":"uint256"}]}],"stateMutability":"view"},{"type":"function","name":"loadPeerPublicKeysForProducers","inputs":[{"name":"oprfKeyId","type":"uint160","internalType":"uint160"}],"outputs":[{"name":"","type":"tuple[]","internalType":"struct BabyJubJub.Affine[]","components":[{"name":"x","type":"uint256","internalType":"uint256"},{"name":"y","type":"uint256","internalType":"uint256"}]}],"stateMutability":"view"},{"type":"function","name":"numPeers","inputs":[],"outputs":[{"name":"","type":"uint16","internalType":"uint16"}],"stateMutability":"view"},{"type":"function","name":"owner","inputs":[],"outputs":[{"name":"","type":"address","internalType":"address"}],"stateMutability":"view"},{"type":"function","name":"peerAddresses","inputs":[{"name":"","type":"uint256","internalType":"uint256"}],"outputs":[{"name":"","type":"address","internalType":"address"}],"stateMutability":"view"},{"type":"function","name":"pendingOwner","inputs":[],"outputs":[{"name":"","type":"address","internalType":"address"}],"stateMutability":"view"},{"type":"function","name":"proxiableUUID","inputs":[],"outputs":[{"name":"","type":"bytes32","internalType":"bytes32"}],"stateMutability":"view"},{"type":"function","name":"registerOprfPeers","inputs":[{"name":"_peerAddresses","type":"address[]","internalType":"address[]"}],"outputs":[],"stateMutability":"nonpayable"},{"type":"function","name":"renounceOwnership","inputs":[],"outputs":[],"stateMutability":"nonpayable"},{"type":"function","name":"revokeKeyGenAdmin","inputs":[{"name":"_keygenAdmin","type":"address","internalType":"address"}],"outputs":[],"stateMutability":"nonpayable"},{"type":"function","name":"threshold","inputs":[],"outputs":[{"name":"","type":"uint16","internalType":"uint16"}],"stateMutability":"view"},{"type":"function","name":"transferOwnership","inputs":[{"name":"newOwner","type":"address","internalType":"address"}],"outputs":[],"stateMutability":"nonpayable"},{"type":"function","name":"upgradeToAndCall","inputs":[{"name":"newImplementation","type":"address","internalType":"address"},{"name":"data","type":"bytes","internalType":"bytes"}],"outputs":[],"stateMutability":"payable"},{"type":"event","name":"Initialized","inputs":[{"name":"version","type":"uint64","indexed":false,"internalType":"uint64"}],"anonymous":false},{"type":"event","name":"KeyDeletion","inputs":[{"name":"oprfKeyId","type":"uint160","indexed":true,"internalType":"uint160"}],"anonymous":false},{"type":"event","name":"KeyGenAbort","inputs":[{"name":"oprfKeyId","type":"uint160","indexed":true,"internalType":"uint160"}],"anonymous":false},{"type":"event","name":"KeyGenAdminRegistered","inputs":[{"name":"admin","type":"address","indexed":true,"internalType":"address"}],"anonymous":false},{"type":"event","name":"KeyGenAdminRevoked","inputs":[{"name":"admin","type":"address","indexed":true,"internalType":"address"}],"anonymous":false},{"type":"event","name":"KeyGenConfirmation","inputs":[{"name":"oprfKeyId","type":"uint160","indexed":true,"internalType":"uint160"},{"name":"partyId","type":"uint16","indexed":true,"internalType":"uint16"},{"name":"round","type":"uint8","indexed":false,"internalType":"uint8"},{"name":"epoch","type":"uint32","indexed":false,"internalType":"uint32"}],"anonymous":false},{"type":"event","name":"NotEnoughProducers","inputs":[{"name":"oprfKeyId","type":"uint160","indexed":true,"internalType":"uint160"}],"anonymous":false},{"type":"event","name":"OprfPeerChanged","inputs":[{"name":"partyId","type":"uint16","indexed":true,"internalType":"uint16"},{"name":"oldPeer","type":"address","indexed":true,"internalType":"address"},{"name":"newPeer","type":"address","indexed":true,"internalType":"address"}],"anonymous":false},{"type":"event","name":"OwnershipTransferStarted","inputs":[{"name":"previousOwner","type":"address","indexed":true,"internalType":"address"},{"name":"newOwner","type":"address","indexed":true,"internalType":"address"}],"anonymous":false},{"type":"event","name":"OwnershipTransferred","inputs":[{"name":"previousOwner","type":"address","indexed":true,"internalType":"address"},{"name":"newOwner","type":"address","indexed":true,"internalType":"address"}],"anonymous":false},{"type":"event","name":"ReshareRound1","inputs":[{"name":"oprfKeyId","type":"uint160","indexed":true,"internalType":"uint160"},{"name":"threshold","type":"uint256","indexed":false,"internalType":"uint256"},{"name":"epoch","type":"uint32","indexed":true,"internalType":"uint32"}],"anonymous":false},{"type":"event","name":"ReshareRound3","inputs":[{"name":"oprfKeyId","type":"uint160","indexed":true,"internalType":"uint160"},{"name":"lagrange","type":"uint256[]","indexed":false,"internalType":"uint256[]"},{"name":"epoch","type":"uint32","indexed":true,"internalType":"uint32"}],"anonymous":false},{"type":"event","name":"SecretGenFinalize","inputs":[{"name":"oprfKeyId","type":"uint160","indexed":true,"internalType":"uint160"},{"name":"epoch","type":"uint32","indexed":true,"internalType":"uint32"}],"anonymous":false},{"type":"event","name":"SecretGenRound1","inputs":[{"name":"oprfKeyId","type":"uint160","indexed":true,"internalType":"uint160"},{"name":"threshold","type":"uint256","indexed":false,"internalType":"uint256"}],"anonymous":false},{"type":"event","name":"SecretGenRound2","inputs":[{"name":"oprfKeyId","type":"uint160","indexed":true,"internalType":"uint160"},{"name":"epoch","type":"uint32","indexed":true,"internalType":"uint32"}],"anonymous":false},{"type":"event","name":"SecretGenRound3","inputs":[{"name":"oprfKeyId","type":"uint160","indexed":true,"internalType":"uint160"}],"anonymous":false},{"type":"event","name":"Upgraded","inputs":[{"name":"implementation","type":"address","indexed":true,"internalType":"address"}],"anonymous":false},{"type":"event","name":"VerifierContractChanged","inputs":[{"name":"oldContract","type":"address","indexed":true,"internalType":"address"},{"name":"newContract","type":"address","indexed":true,"internalType":"address"}],"anonymous":false},{"type":"error","name":"AddressEmptyCode","inputs":[{"name":"target","type":"address","internalType":"address"}]},{"type":"error","name":"AlreadySubmitted","inputs":[]},{"type":"error","name":"BadContribution","inputs":[]},{"type":"error","name":"DeletedId","inputs":[{"name":"id","type":"uint160","internalType":"uint160"}]},{"type":"error","name":"ERC1967InvalidImplementation","inputs":[{"name":"implementation","type":"address","internalType":"address"}]},{"type":"error","name":"ERC1967NonPayable","inputs":[]},{"type":"error","name":"FailedCall","inputs":[]},{"type":"error","name":"ImplementationNotInitialized","inputs":[]},{"type":"error","name":"InvalidInitialization","inputs":[]},{"type":"error","name":"LastAdmin","inputs":[]},{"type":"error","name":"NotAParticipant","inputs":[]},{"type":"error","name":"NotAProducer","inputs":[]},{"type":"error","name":"NotInitializing","inputs":[]},{"type":"error","name":"NotReady","inputs":[]},{"type":"error","name":"OnlyAdmin","inputs":[]},{"type":"error","name":"OwnableInvalidOwner","inputs":[{"name":"owner","type":"address","internalType":"address"}]},{"type":"error","name":"OwnableUnauthorizedAccount","inputs":[{"name":"account","type":"address","internalType":"address"}]},{"type":"error","name":"PartiesNotDistinct","inputs":[]},{"type":"error","name":"UUPSUnauthorizedCallContext","inputs":[]},{"type":"error","name":"UUPSUnsupportedProxiableUUID","inputs":[{"name":"slot","type":"bytes32","internalType":"bytes32"}]},{"type":"error","name":"UnexpectedAmountPeers","inputs":[{"name":"expectedParties","type":"uint256","internalType":"uint256"}]},{"type":"error","name":"UnknownId","inputs":[{"name":"id","type":"uint160","internalType":"uint160"}]},{"type":"error","name":"UnsupportedNumPeersThreshold","inputs":[]},{"type":"error","name":"WrongRound","inputs":[{"name":"","type":"uint8","internalType":"enum OprfKeyGen.Round"}]}],"bytecode":{"object":"0x60a080604052346100c257306080525f5160206156285f395f51905f525460ff8160401c166100b3576002600160401b03196001600160401b03821601610060575b60405161556190816100c78239608051818181612a0c01526144780152f35b6001600160401b0319166001600160401b039081175f5160206156285f395f51905f525581527fc7f505b2f371ae2175ee4913f4499e1f2633a7b5936321eed1cdaeb6115181d290602090a15f80610041565b63f92ee8a960e01b5f5260045ffd5b5f80fdfe60806040526004361015610011575f80fd5b5f5f3560e01c80631acc6e091461362c57806321fe366e1461359d578063222c211e1461348a57806332c7e3b6146131165780633892750a14612f195780633a02230d14612ef85780633bcc163014612d7057806342cde4e814612d4c5780634f1ef28614612ac1578063513c72f114612a8457806352d1902d146129f257806353fac9ad1461295c5780635fd5991914611de457806364a9788914611c5b578063715018a614611b445780637488e8e714611a6157806379a4753c14611a3c57806379ad89e8146119f957806379ba50971461197f5780638da5cb5b146119395780638f065f8d146117ab57806390ea46f51461176a5780639d49d672146116605780639f24904414611639578063ad3cb1cc146115c5578063b13590ec146113fe578063be28b7a814610e27578063d46a3ac614610e09578063e30c397814610dc3578063ea2ca96314610cde578063f2fde38b14610bf9578063f720fce314610b58578063fd1bae58146108145763ffb9667314610190575f80fd5b346108115760c0600319360112610811576101a9613af8565b60a07fffffffffffffffffffffffffffffffffffffffffffffffffffffffffffffffdc36011261080f576101db61446e565b6101e36144df565b6101eb6149b4565b9061ffff8216916101fc8383614ea0565b600881019163ffffffff835460201c161561076257859061021c36614188565b6040517f8a9088a300000000000000000000000000000000000000000000000000000000815281516004820152602091820151602482015273__$fd1bbc507ebce9bb0449be7c85ea578f4f$__9181604481855af49081156108045784916107e5575b50606435159080806107de575b80156107c4575b15610334575050507f8a1df8d1089dbf7577f56d95c8833f55846e6aeced87f49135c725f9f177c0fc9361031c6040946001600160a01b0394600261030863ffffffff968833165f5284602052895f208360ff198254161790558285015f60016102fd8484614285565b508281550155614285565b5001555b61ffff60035460a01c1688615076565b5460201c16938251946001865260208601521692a380f35b91935090151514610367576004877f497231a7000000000000000000000000000000000000000000000000000000008152fd5b61038861038e9161037f61037a36614188565b614a39565b6005850161421e565b50613bef565b6020604051917f2ba6bab9000000000000000000000000000000000000000000000000000000008352805160048401520151602482015260243560448201526044356064820152602081608481855af49081156107b957879161078a575b5015610762576001600160a01b0333165f528160205260405f20600160ff1982541617905563ffffffff61042281855416613c25565b167fffffffffffffffffffffffffffffffffffffffffffffffffffffffff0000000084541617835563ffffffff835416906003549161ffff8360a01c168091146104a4575b5050506001600160a01b0363ffffffff7f8a1df8d1089dbf7577f56d95c8833f55846e6aeced87f49135c725f9f177c0fc9361031c60409461030c565b9187916104b084613e59565b916104be6040519384613b46565b8483526104ca85613e59565b90601f1960208501920136833760b01c61ffff1684805b8281106106bf5750506040519586947f37d2224c00000000000000000000000000000000000000000000000000000000865260648601906060600488015251809152608486019390875b8181106106a357505050602485015260448401528290039082905af49081156106985786916105fb575b506001820181519167ffffffffffffffff83116105e7576801000000000000000083116105d35760209082548484558085106105b8575b500190875260208720875b8381106105a45750610467565b600190602084519401938184015501610597565b6105cd90845f5285845f209182019101613c6e565b5f61058c565b634e487b7160e01b5f52604160045260245ffd5b602488634e487b7160e01b81526041600452fd5b90503d8087833e61060c8183613b46565b8101906020818303126106905780519067ffffffffffffffff821161069457019080601f8301121561069057815161064381613e59565b926106516040519485613b46565b81845260208085019260051b82010192831161068c57602001905b82821061067c575050505f610555565b815181526020918201910161066c565b8880fd5b8680fd5b8780fd5b6040513d88823e3d90fd5b825186528e98508997506020958601959092019160010161052b565b90919395506001600160a01b036106d98298949698613b69565b90549060031b1c166001600160a01b0381165f528860205260ff60405f205416600381101561074e57600192918e918414610720575b505001908b959391969492966104e1565b81526005602052604090205460081c61ffff1661074661073f85613f15565b948a613f23565b528c5f61070f565b60248e634e487b7160e01b81526021600452fd5b6004867f497231a7000000000000000000000000000000000000000000000000000000008152fd5b6107ac915060203d6020116107b2575b6107a48183613b46565b810190613c0d565b5f6103ec565b503d61079a565b6040513d89823e3d90fd5b5063ffffffff87541661ffff60035460a01c161115610293565b508161028c565b6107fe915060203d6020116107b2576107a48183613b46565b5f61027f565b6040513d86823e3d90fd5b505b80fd5b50346108115760a06003193601126108115761082e613af8565b6024356001600160a01b038116809103610b54576044356001600160a01b038116809103610b54576064359061ffff82168203610b54576084359261ffff84168403610b54577ff0c57e16840df040f15088dc2f81fe391c3923bec73e23a9662efc9c229c6a00549460ff8660401c16159567ffffffffffffffff811680159081610b4c575b6001149081610b42575b159081610b39575b50610b11578660017fffffffffffffffffffffffffffffffffffffffffffffffff00000000000000008316177ff0c57e16840df040f15088dc2f81fe391c3923bec73e23a9662efc9c229c6a0055610abc575b5061092261541a565b61092a61541a565b6001600160a01b03811615610a905761094290615193565b61094a61541a565b8552600160205260408520600160ff1982541617905560025460018101809111610a7c579075ffff0000000000000000000000000000000000000000916002557fffffffffffffffff00000000000000000000000000000000000000000000000077ffff000000000000000000000000000000000000000000006003549560b01b169416179160a01b16171760035560ff1982541682556109e85780f35b7fffffffffffffffffffffffffffffffffffffffffffffff00ffffffffffffffff7ff0c57e16840df040f15088dc2f81fe391c3923bec73e23a9662efc9c229c6a0054167ff0c57e16840df040f15088dc2f81fe391c3923bec73e23a9662efc9c229c6a00557fc7f505b2f371ae2175ee4913f4499e1f2633a7b5936321eed1cdaeb6115181d2602060405160018152a180f35b602486634e487b7160e01b81526011600452fd5b6024877f1e4fbdf700000000000000000000000000000000000000000000000000000000815280600452fd5b7fffffffffffffffffffffffffffffffffffffffffffffff0000000000000000001668010000000000000001177ff0c57e16840df040f15088dc2f81fe391c3923bec73e23a9662efc9c229c6a00555f610919565b6004887ff92ee8a9000000000000000000000000000000000000000000000000000000008152fd5b9050155f6108c6565b303b1591506108be565b8891506108b4565b5f80fd5b5034610811576020600319360112610811576001600160a01b03610b7a613af8565b610b826144df565b610b8a61446e565b1681526005602052604081209060405191610ba483613b0e565b549161ffff602060ff8516159283158152019360081c168352610bd157602061ffff835116604051908152f35b807f179e806d0000000000000000000000000000000000000000000000000000000060049252fd5b5034610811576020600319360112610811576001600160a01b03610c1b613af8565b610c23614955565b16807fffffffffffffffffffffffff00000000000000000000000000000000000000007f237e158222e3e6968b72b9db0d8043aacf074ad9f650f0d1606b4d82ee432c005416177f237e158222e3e6968b72b9db0d8043aacf074ad9f650f0d1606b4d82ee432c00556001600160a01b037f9016d09d72d40fdae2fd8ceac6b6234c7706214fd39c1cd1e609a0528c19930054167f38d16b8cac22d99fc7c124b9cd0de2d3fa1faef420bfe791d8c362d765e227008380a380f35b5034610811576020600319360112610811576001600160a01b03610d00613af8565b610d0861446e565b610d106148fa565b610d18614513565b16808252600160205260ff604083205416610d31575080f35b600160025414610d9b5780825260016020526040822060ff1981541690556002545f198101908111610d87576002557f91a41cb54dfb87bb7e56c71460111884f994581486eee7500b246b87ff23543a8280a280f35b602483634e487b7160e01b81526011600452fd5b6004827fdf0e465e000000000000000000000000000000000000000000000000000000008152fd5b503461081157806003193601126108115760206001600160a01b037f237e158222e3e6968b72b9db0d8043aacf074ad9f650f0d1606b4d82ee432c005416604051908152f35b50346108115780600319360112610811576020600254604051908152f35b5034610811576020600319360112610811576001600160a01b03610e49613af8565b610e5161446e565b610e596144df565b610e61614513565b1680156113d65780825260076020526040822081835260066020526040832090600b82019060ff82541660068110156113c257600514611396576020610ea9610eed92613bef565b6040517f8a9088a300000000000000000000000000000000000000000000000000000000815281516004820152602090910151602482015291829081906044820190565b038173__$fd1bbc507ebce9bb0449be7c85ea578f4f$__5af490811561138b57859161136c575b50158015611342575b61131a5761ffff60035460b01c1690600160ff19825416179055600882017fffffffffffffffffffffffffffffffffffffffffffffffff00000000ffffffff8154169055610f6a8161452a565b600283016020825192610f7d84846145b0565b019086526020862086915b8383106112dc5750505050610f9c8161462a565b60038301906020815191610fb083856146e1565b018287526020872087915b8383106112bf5750505050845b82811061129a575050610fda81614318565b600483016020825192610fed8484613d04565b019086526020862086915b83831061127a575050505061100c81614318565b60058301602082519261101f8484613d04565b019086526020862086915b83831061125a575050505061103e8161483c565b8051600984019167ffffffffffffffff8211611246576020906110618385614894565b01918652602086208160051c91875b8381106112015750601f1981169003806111b5575b50505050611094600a9161483c565b91019080519067ffffffffffffffff82116111a1576020906110b68385614894565b01918452602084208160051c91855b83811061115c5750601f198116900380611113575b85857f26f21388e5d2b26dd079f0818b44f6f37c89dbf5950f6e4bfc2bd54301eb6103602061ffff60035460a01c16604051908152a280f35b928593865b81811061112d5750505001555f8080806110da565b90919460206111526001928489511515919060ff809160031b9316831b921b19161790565b9601929101611118565b86875b602081106111745750838201556001016110c5565b959060206111986001928985511515919060ff809160031b9316831b921b19161790565b9201960161115f565b602485634e487b7160e01b81526041600452fd5b928793885b8181106111d2575050500155611094600a5f80611085565b90919460206111f76001928489511515919060ff809160031b9316831b921b19161790565b96019291016111ba565b88895b60208110611219575083820155600101611070565b9590602061123d6001928985511515919060ff809160031b9316831b921b19161790565b92019601611204565b602487634e487b7160e01b81526041600452fd5b60026020828160019451805187550151848601550192019201919061102a565b600260208281600194518051875501518486015501920192019190610ff8565b6001906112b96112a985613e89565b6112b38386613b95565b9061482d565b01610fc8565b60016020826112d08394518661472d565b01920192019190610fbb565b60056020828160406001955182815180518a550151878901558281015160028901550151805160038801550151600486015501920192019190610f88565b6004847f9fbfc589000000000000000000000000000000000000000000000000000000008152fd5b5060ff8154166006811015611358571515610f1d565b602485634e487b7160e01b81526021600452fd5b611385915060203d6020116107b2576107a48183613b46565b5f610f14565b6040513d87823e3d90fd5b602485857f1b02ded7000000000000000000000000000000000000000000000000000000008252600452fd5b602486634e487b7160e01b81526021600452fd5b6004827f497231a7000000000000000000000000000000000000000000000000000000008152fd5b503461081157602060031936011261081157611418613af8565b6114206144df565b61142861446e565b3382526005602052604082206040519061144182613b0e565b5490602061ffff60ff841615938415845260081c1691015261159d576001600160a01b031681526006602052604081209060ff600b830154166006811015611589576003810361155d575061149f63ffffffff600884015416614318565b9080928161ffff60035460b01c16925b8381106114c857604051806114c48782613baa565b0390f35b6001600160a01b03806114da83613b69565b90549060031b1c16165f528260205260ff60405f20541660038110156115495790600191821461150b575b016114af565b61154361151b8260028701614285565b5097611532600361152b83613f15565b9a01613bef565b61153c828a613f23565b5287613f23565b50611505565b602483634e487b7160e01b81526021600452fd5b602492507f642fee6e000000000000000000000000000000000000000000000000000000008252600452fd5b602482634e487b7160e01b81526021600452fd5b6004827f179e806d000000000000000000000000000000000000000000000000000000008152fd5b5034610811578060031936011261081157604080516115e48282613b46565b60058152601f19601f602083017f352e302e3000000000000000000000000000000000000000000000000000000081528451958694602086525180928160208801528787015e85828601015201168101030190f35b503461081157806003193601126108115760206001600160a01b0360035416604051908152f35b5034610811576020600319360112610811576001600160a01b03611682613af8565b61168a61446e565b6116926144df565b61169a614513565b16808252600660205260408220600b81019060ff825416600681101561135857801561173e57600514611712576116e39061ffff60035460b01c166116dd613e06565b91615295565b60ff1981541690557fdf933a8df15dc090bc507418777d1c44e6926238d8e2e6594bde03c1da3cfa778280a280f35b602484847f1b02ded7000000000000000000000000000000000000000000000000000000008252600452fd5b602485857ffbf20062000000000000000000000000000000000000000000000000000000008252600452fd5b5034610811576020600319360112610811576114c461179f61178a613af8565b6117926144df565b61179a61446e565b614372565b60405191829182613baa565b5034610811576020600319360112610811576001600160a01b036117cd613af8565b8260206040516117dc81613b0e565b6040516117e881613b0e565b5f81525f83820152815201526117fc61446e565b6118046144df565b1690818152600660205260ff600b6040832001541660068110156115895760051461190e57818152600760205260408120916118446020610ea985613bef565b038173__$fd1bbc507ebce9bb0449be7c85ea578f4f$__5af49081156119035783916118e4575b506118b85760608363ffffffff60405161188481613b0e565b602082600261189286613bef565b958685520154169101908152602060405193805185520151602084015251166040820152f35b602492507ffbf20062000000000000000000000000000000000000000000000000000000008252600452fd5b6118fd915060203d6020116107b2576107a48183613b46565b5f61186b565b6040513d85823e3d90fd5b6024917f1b02ded7000000000000000000000000000000000000000000000000000000008252600452fd5b503461081157806003193601126108115760206001600160a01b037f9016d09d72d40fdae2fd8ceac6b6234c7706214fd39c1cd1e609a0528c1993005416604051908152f35b5034610811578060031936011261081157336001600160a01b037f237e158222e3e6968b72b9db0d8043aacf074ad9f650f0d1606b4d82ee432c005416036119cd576119ca33615193565b80f35b807f118cdaa7000000000000000000000000000000000000000000000000000000006024925233600452fd5b503461081157602060031936011261081157600435906004548210156108115760206001600160a01b03611a2c84613b69565b90549060031b1c16604051908152f35b5034610811578060031936011261081157602061ffff60035460b01c16604051908152f35b5034610811576020600319360112610811576001600160a01b03611a83613af8565b611a8b613e71565b50611a9461446e565b611a9c6144df565b1690818152600660205260ff600b6040832001541660068110156115895760051461190e5781815260076020526040812091611adc6020610ea985613bef565b038173__$fd1bbc507ebce9bb0449be7c85ea578f4f$__5af4908115611903578391611b25575b506118b8576040611b1384613bef565b60208251918051835201516020820152f35b611b3e915060203d6020116107b2576107a48183613b46565b5f611b03565b5034610811578060031936011261081157611b5d614955565b7fffffffffffffffffffffffff00000000000000000000000000000000000000007f237e158222e3e6968b72b9db0d8043aacf074ad9f650f0d1606b4d82ee432c0054167f237e158222e3e6968b72b9db0d8043aacf074ad9f650f0d1606b4d82ee432c00555f6001600160a01b037f9016d09d72d40fdae2fd8ceac6b6234c7706214fd39c1cd1e609a0528c199300547fffffffffffffffffffffffff000000000000000000000000000000000000000081167f9016d09d72d40fdae2fd8ceac6b6234c7706214fd39c1cd1e609a0528c19930055167f8be0079c531659141344cd1fd0a4f28419497f9722a3daafe3b4186f6b6457e08280a380f35b50346108115760c060031936011261081157611c75613af8565b60a07fffffffffffffffffffffffffffffffffffffffffffffffffffffffffffffffdc36011261080f57611ca761446e565b611caf6144df565b611cb76149b4565b611cc361037a36614188565b60643515611dbc5761ffff1690611cda8282614ea0565b600881019063ffffffff825460201c16611d94576001600160a01b0363ffffffff7f8a1df8d1089dbf7577f56d95c8833f55846e6aeced87f49135c725f9f177c0fc9361031c6040948433165f5280602052855f20600160ff1982541617905583611d4781855416613c25565b167fffffffffffffffffffffffffffffffffffffffffffffffffffffffff00000000845416178355611d84611d7b36614188565b60068301614bc8565b61ffff60035460b01c1688615076565b6004857f497231a7000000000000000000000000000000000000000000000000000000008152fd5b6004837f497231a7000000000000000000000000000000000000000000000000000000008152fd5b5034610b54576040600319360112610b5457611dfe613af8565b6024359167ffffffffffffffff8311610b5457826004019260a06003198236030112610b5457608490611e2f61446e565b611e376144df565b01611e428185614124565b905061ffff60035460b01c16036128cd576001600160a01b03831693845f52600660205260405f209360ff600b8601541660068110156128f557600281036129315750611e8d6149b4565b93600986019660ff611e9f878a613c84565b90549060031b1c16612909576001600160a01b0333165f528660205260ff60405f20541660038110156128f5576001036128cd5760088701805460201c63ffffffff166126bc5760038801989760048101945f5b61ffff60035460b01c16811015611f8e5780611f888d611f828d611f7c858f8f988f828b611f6b611f518560019f95611f4c61037a836040611f46611f3e611f769e611f709d614124565b369491614178565b016141ce565b61421e565b50611f65866040611f46611f3e8888614124565b90614bc8565b614124565b90614178565b94613b95565b50613efc565b90614237565b01611ef3565b50945094919697611fbe919693995088611fa791613c84565b819291549060031b9060ff6001831b921b19161790565b90556003549061ffff8260b01c169260038414806126ab575b1561238e576040516001600160a01b03841691610300611ff78184613b46565b3683378a602061202261ffff61200c8c614d04565b93166120188185613f23565b5151865283613f23565b5101516020840152600261205d8d828c0161203d8282614285565b5054604088015260016120508383614285565b5001546060880152614285565b500154608084015261ffff612076818860a01c1661429e565b1661209561ffff61208e6120898b6142b2565b6142e0565b1685614307565b528c915b8783106121b757505050813b156121b357908a92916080604051937f04bb1c1b000000000000000000000000000000000000000000000000000000008552600485013783608484015b6018821061219957505050816103848185935afa801561218e57612170575b50509361214c60409461ffff948563ffffffff957f8a1df8d1089dbf7577f56d95c8833f55846e6aeced87f49135c725f9f177c0fc995b865460201c881661216457505b1690614d5f565b5460201c16948251956002875260208701521693a380f35b82915060a01c16612145565b9061217e9196929396613b46565b875f12610694579390875f612101565b6040513d84823e3d90fd5b825181528d955060209283019260019290920191016120e2565b8a80fd5b90919c8d60206121cb82611f70868b614124565b01359060050180600511610d8757908f92916121e79087614307565b5260406121f883611f70868b614124565b0135906122048a6142e0565b8360011b938085046002149015171561237a576122268461ffff849316613c3d565b9161236657508f60609261223d6122489389614307565b52611f70858a614124565b01356122608261ffff61225a8c6142e0565b16613c3d565b9060018201809211612352578f916122789087614307565b526122839084613f23565b51519d816122908a6142b2565b612299906142e0565b6122a2906142f3565b61ffff16906122b091613c3d565b9e5f9f6122bd9087614307565b526122c88185613f23565b5160200151916122d78a6142b2565b6122e0906142e0565b6122e9906142f3565b61ffff16906122f791613c3d565b60018101809111612352576123496123438361ffff61225a61233e8f966123378f611f708f88928f919e60019f6120899761233191614307565b52614124565b35976142c9565b6142f3565b87614307565b52019190612099565b634e487b7160e01b5f52601160045260245ffd5b80634e487b7160e01b602492526011600452fd5b602482634e487b7160e01b81526011600452fd5b600584148061269a575b15612672576040516001600160a01b038416916104806123b88184613b46565b3683378a60206123cd61ffff61200c8c614d04565b510151602084015260026123e88d828c0161203d8282614285565b500154608084015261ffff612401818860a01c1661429e565b1661241b61ffff6124146120898b6142b2565b1685614274565b525f915b8783106124fa57505050813b156121b357908a92916080604051937f95a1463f000000000000000000000000000000000000000000000000000000008552600485013783608484015b602482106124e057505050816105048185935afa801561218e576124c2575b50509361214c60409461ffff948563ffffffff957f8a1df8d1089dbf7577f56d95c8833f55846e6aeced87f49135c725f9f177c0fc99612138565b906124d09196929396613b46565b875f12610694579390875f612487565b825181528d95506020928301926001929092019101612468565b90919c8d602061250e82611f70868b614124565b01359060050180600511610d8757908f929161252a9087614274565b52604061253b83611f70868b614124565b0135906125478a6142e0565b8360011b938085046002149015171561237a576125698461ffff849316613c3d565b9161236657508f60609261223d6125809389614274565b01356125928261ffff61225a8c6142e0565b9060018201809211612352578f916125aa9087614274565b526125b59084613f23565b51519d816125c28a6142b2565b6125cb906142e0565b6125d4906142f3565b61ffff16906125e291613c3d565b9e5f9f6125ef9087614274565b526125fa8185613f23565b5160200151916126098a6142b2565b612612906142e0565b61261b906142f3565b61ffff169061262991613c3d565b60018101809111612352576126696126638361ffff61225a61233e8f966123378f611f708f88928f919e60019f6120899761233191614274565b87614274565b5201919061241f565b7f05f7fa12000000000000000000000000000000000000000000000000000000005f5260045ffd5b50600361ffff8460a01c1614612398565b50600261ffff8460a01c1614611fd7565b969794916126d08760018b99969901613b95565b90549060031b1c91821561282357959873__$fd1bbc507ebce9bb0449be7c85ea578f4f$__986004820198600383019892905f5b61ffff60035460b01c1681101561280a579b8c6040829f9e61273d81611f708f808f9161037a889788611f46611f3e87611f6b96614124565b0160648251809581937fe0d29faa0000000000000000000000000000000000000000000000000000000083528d600484015260208060248501928035845201359101525af49182156127ff578c611f828f611f7c8f8f928f611f708993918492611f6b611f769560019e866127c49e5f926127cd575b506127be919261421e565b50614bc8565b019c9b9c612704565b6127be92506127f29060403d81116127f8575b6127ea8183613b46565b8101906141f6565b916127b3565b503d6127e0565b6040513d5f823e3d90fd5b50969a509693509650965097611fa788611fbe92613c84565b60a46040517f08c379a000000000000000000000000000000000000000000000000000000000815260206004820152604160248201527f53414645545920434845434b3a20746869732073686f756c64206e657665722060448201527f68617070656e2e2054686973206d65616e73207468657265206973206120627560648201527f67000000000000000000000000000000000000000000000000000000000000006084820152fd5b7f497231a7000000000000000000000000000000000000000000000000000000005f5260045ffd5b634e487b7160e01b5f52602160045260245ffd5b7f9fbfc589000000000000000000000000000000000000000000000000000000005f5260045ffd5b7f642fee6e000000000000000000000000000000000000000000000000000000005f5260045260245ffd5b34610b54576020600319360112610b545761298d612978613af8565b61298061446e565b6129886144df565b613f66565b6040518091602082016020835281518091526020604084019201905f5b8181106129b8575050500390f35b91935091602060806001928260408851805184528281015183850152015180516040840152015160608201520194019101918493926129aa565b34610b54575f600319360112610b54576001600160a01b037f0000000000000000000000000000000000000000000000000000000000000000163003612a5c5760206040517f360894a13ba1a3210667c828492db98dca3e2076cc3735a920a3ca505d382bbc8152f35b7fe07c8dba000000000000000000000000000000000000000000000000000000005f5260045ffd5b34610b54576020600319360112610b54576001600160a01b03612aa5613af8565b165f526001602052602060ff60405f2054166040519015158152f35b6040600319360112610b5457612ad5613af8565b6024359067ffffffffffffffff8211610b545736602383011215610b5457816004013567ffffffffffffffff81116105d35760405192612b1f601f8301601f191660200185613b46565b8184523660248383010111610b5457815f926024602093018387013784010152612b4761446e565b612b4f614955565b6001600160a01b038116916040517f52d1902d000000000000000000000000000000000000000000000000000000008152602081600481875afa5f9181612d18575b50612bc257837f4c9c8ce3000000000000000000000000000000000000000000000000000000005f5260045260245ffd5b807f360894a13ba1a3210667c828492db98dca3e2076cc3735a920a3ca505d382bbc859203612ced5750823b15612cc257807fffffffffffffffffffffffff00000000000000000000000000000000000000007f360894a13ba1a3210667c828492db98dca3e2076cc3735a920a3ca505d382bbc5416177f360894a13ba1a3210667c828492db98dca3e2076cc3735a920a3ca505d382bbc557fbc7cd75a20ee27fd9adebab32041f755214dbc6bffa90cc0225b39da2e5c2d3b5f80a2805115612c9157612c8f91615471565b005b505034612c9a57005b7fb398979f000000000000000000000000000000000000000000000000000000005f5260045ffd5b7f4c9c8ce3000000000000000000000000000000000000000000000000000000005f5260045260245ffd5b7faa1d49a4000000000000000000000000000000000000000000000000000000005f5260045260245ffd5b9091506020813d602011612d44575b81612d3460209383613b46565b81010312610b5457519085612b91565b3d9150612d27565b34610b54575f600319360112610b5457602061ffff60035460a01c16604051908152f35b34610b54576020600319360112610b54576001600160a01b03612d91613af8565b612d9961446e565b612da16144df565b612da9614513565b16805f52600760205260405f20815f52600660205260405f20600b81019160ff83541660068110156128f557806129315750612de96020610ea983613bef565b038173__$fd1bbc507ebce9bb0449be7c85ea578f4f$__5af49081156127ff575f91612ed9575b50612ead57612e7c9160026005925f81555f6001820155017fffffffffffffffffffffffffffffffffffffffffffffffffffffffff000000008154169055612e6a61ffff60035460b01c16612e63613e06565b9083615295565b612e766001820161444d565b01613ca2565b600560ff198254161790557f80289566e41bae426a6ba7392c3b723699ac38c2b5bbeab84f247b0d5a44a9bd5f80a2005b837ffbf20062000000000000000000000000000000000000000000000000000000005f5260045260245ffd5b612ef2915060203d6020116107b2576107a48183613b46565b85612e10565b34610b54575f600319360112610b5457602060ff5f54166040519015158152f35b34610b54576020600319360112610b54576001600160a01b03612f3a613af8565b612f4261446e565b612f4a6144df565b16805f52600660205260405f2090600b820160ff81541660068110156128f557600381036129315750612f7b6149b4565b90600a840160ff612f8c8483613c84565b90549060031b1c166129095782604092612fcd611fa77f8a1df8d1089dbf7577f56d95c8833f55846e6aeced87f49135c725f9f177c0fc9661ffff95613c84565b90556008870163ffffffff815460201c1697612fe8816149f2565b613001575b5050508251956003875260208701521693a3005b63ffffffff6130c9928a155f146130d957875161301d81613b0e565b61302960068501613bef565b8152826002818d60208501905f82525f52600760205260208d5f20955180518755015160018601555116920191167fffffffffffffffffffffffffffffffffffffffffffffffffffffffff000000008254161790555b61308f6004840160058501613da6565b5460201c16887feca0bbf88a7c4e57f429bd1e6f708ad696c4dd4bd2ec9a50e916868f14abf5a45f80a38460035460b01c166116dd613e06565b60ff198154169055868080612fed565b895f5260076020526002885f2001828c167fffffffffffffffffffffffffffffffffffffffffffffffffffffffff0000000082541617905561307f565b34610b54576020600319360112610b545760043567ffffffffffffffff8111610b545736602382011215610b5457806004013567ffffffffffffffff8111610b54576024820191602436918360051b010111610b545761317461446e565b61317c6148fa565b613184614955565b61ffff60035460b01c1680820361345f57505f5b8181106133df57506004545f5b8281106133445750505f5b6004548110156131e957806001600160a01b036131ce600193613b69565b90549060031b1c165f5260056020525f6040812055016131b0565b505f5b61ffff8116828110156132915760405161ffff929161320a82613b0e565b600182526001600160a01b0361323061322b6020850193808552888a613c4a565b613c5a565b165f52600560205260405f209151151560ff60ff198454169116178255517fffffffffffffffffffffffffffffffffffffffffffffffffffffffffff0000ff62ffff0083549260081b1691161790551661ffff8114612352576001016131ec565b82846801000000000000000082116105d3576004548260045580831061330a575b509060045f525f5b8181106132cf575f805460ff19166001179055005b60019060206132dd85613c5a565b940193817f8a35acfbc15ff81a39ae7d344fd709f28e8600b4aa8c65c6b64bfe7fe36bd19b0155016132ba565b60045f5261333e907f8a35acfbc15ff81a39ae7d344fd709f28e8600b4aa8c65c6b64bfe7fe36bd19b908101908401613c6e565b826132b2565b600190808311156133d9576001600160a01b0361336082613b69565b90549060031b1c165b6001600160a01b038061338061322b85898b613c4a565b169116908103613392575b50016131a5565b6001600160a01b036133a861322b84888a613c4a565b169061ffff83167f32d8bdd3774d2fdfb6cdfb8ba11ad024564aaaeea77accaac61c584aded4c2535f80a48561338b565b5f613369565b60018101808211612352575b8281106133fb5750600101613198565b61340c61322b838587959697613c4a565b6001600160a01b038061342361322b858988613c4a565b1691161461343757600101929190926133eb565b7f06c849db000000000000000000000000000000000000000000000000000000005f5260045ffd5b7fa3b5ca39000000000000000000000000000000000000000000000000000000005f5260045260245ffd5b34610b54576020600319360112610b54576134a3613af8565b6134ab61446e565b6134b36148fa565b335f52600160205260ff60405f205416336001600160a01b037f9016d09d72d40fdae2fd8ceac6b6234c7706214fd39c1cd1e609a0528c19930054161490159081613594575b5061356c576001600160a01b0316805f52600160205260ff60405f2054161561351e57005b805f52600160205260405f20600160ff1982541617905560025460018101809111612352576002557fd0b2dc01fde9dadcf94234b55ed077e429dfd7b35d12816e25bae4fcbe2d083c5f80a2005b7f47556579000000000000000000000000000000000000000000000000000000005f5260045ffd5b905015826134f9565b34610b54576020600319360112610b54576135b6613af8565b6135be61446e565b6135c66148fa565b6135ce614955565b6001600160a01b0380600354921691827fffffffffffffffffffffffff0000000000000000000000000000000000000000821617600355167f4caa2f0b6436d44d51dd220c974535ca1ee23334685580038c72d58152b16d455f80a3005b34610b54576020600319360112610b54576001600160a01b0361364d613af8565b61365561446e565b61365d6144df565b613665614513565b16805f52600660205260405f2090600b82019160ff83541660068110156128f55760058114613acc5761290957815f52600760205260405f206136ac6020610ea983613bef565b038173__$fd1bbc507ebce9bb0449be7c85ea578f4f$__5af49081156127ff575f91613aad575b50613a81576136f563ffffffff600261ffff60035460b01c1693015416613c25565b936137026001840161444d565b600160ff1982541617905560088201937fffffffffffffffffffffffffffffffffffffffffffffffff00000000ffffffff67ffffffff0000000086549260201b1691161784556137518161452a565b60028301602082519261376484846145b0565b01905f5260205f205f915b838310613a4357505050506137838161462a565b6003830190602081519161379783856146e1565b01825f5260205f205f915b838310613a2657505050505f5b828110613a115750506137c181614318565b6004830160208251926137d48484613d04565b01905f5260205f205f915b8383106139f157505050506137f38161483c565b8051600984019167ffffffffffffffff82116105d3576020906138168385614894565b01915f5260205f208160051c915f5b8381106139ac5750601f198116900380613960575b50505050613849600a9161483c565b91019080519067ffffffffffffffff82116105d35760209061386b8385614894565b01915f5260205f208160051c915f5b83811061391b5750601f1981169003806138d2575b85857f14eaa713eb50a295c5ed8153c207f61790d7389b647d65e96ea38b199f4d79fe602063ffffffff61ffff60035460a01c169454821c1693604051908152a3005b925f935f5b8181106138ec5750505001558280808061388f565b90919460206139116001928489511515919060ff809160031b9316831b921b19161790565b96019291016138d7565b5f5f5b6020811061393357508382015560010161387a565b959060206139576001928985511515919060ff809160031b9316831b921b19161790565b9201960161391e565b925f935f5b81811061397d575050500155613849600a868061383a565b90919460206139a26001928489511515919060ff809160031b9316831b921b19161790565b9601929101613965565b5f5f5b602081106139c4575083820155600101613825565b959060206139e86001928985511515919060ff809160031b9316831b921b19161790565b920196016139af565b6002602082816001945180518755015184860155019201920191906137df565b600190613a206112a985613e89565b016137af565b6001602082613a378394518661472d565b019201920191906137a2565b60056020828160406001955182815180518a55015187890155828101516002890155015180516003880155015160048601550192019201919061376f565b827ffbf20062000000000000000000000000000000000000000000000000000000005f5260045260245ffd5b613ac6915060203d6020116107b2576107a48183613b46565b856136d3565b827f1b02ded7000000000000000000000000000000000000000000000000000000005f5260045260245ffd5b600435906001600160a01b0382168203610b5457565b6040810190811067ffffffffffffffff8211176105d357604052565b6060810190811067ffffffffffffffff8211176105d357604052565b90601f601f19910116810190811067ffffffffffffffff8211176105d357604052565b600454811015613b815760045f5260205f2001905f90565b634e487b7160e01b5f52603260045260245ffd5b8054821015613b81575f5260205f2001905f90565b60206040818301928281528451809452019201905f5b818110613bcd5750505090565b8251805185526020908101518186015260409094019390920191600101613bc0565b90604051613bfc81613b0e565b602060018294805484520154910152565b90816020910312610b5457518015158103610b545790565b63ffffffff60019116019063ffffffff821161235257565b9190820180921161235257565b9190811015613b815760051b0190565b356001600160a01b0381168103610b545790565b818110613c79575050565b5f8155600101613c6e565b9190918054831015613b81575f52601f60205f208360051c01921690565b8054905f815581613cb1575050565b7f7fffffffffffffffffffffffffffffffffffffffffffffffffffffffffffffff82168203612352575f5260205f209060011b8101905b818110613cf3575050565b5f8082556001820155600201613ce8565b6801000000000000000082116105d357805490828155818310613d2657505050565b7f7fffffffffffffffffffffffffffffffffffffffffffffffffffffffffffffff82168203612352577f7fffffffffffffffffffffffffffffffffffffffffffffffffffffffffffffff83168303612352575f5260205f209060011b81019160011b015b818110613d95575050565b5f8082556001820155600201613d8a565b818114613e0257815491613dba8383613d04565b5f5260205f20905f5260205f205f915b838310613dd75750505050565b600280826001938503613df1575b01920192019190613dca565b805485558381015484860155613de5565b5050565b60405190600454808352826020810160045f5260205f20925f5b818110613e37575050613e3592500383613b46565b565b84546001600160a01b0316835260019485019487945060209093019201613e20565b67ffffffffffffffff81116105d35760051b60200190565b60405190613e7e82613b0e565b5f6020838281520152565b90613e9382613e59565b613ea06040519182613b46565b828152601f19613eb08294613e59565b01905f5b828110613ec057505050565b602090604051613ecf81613b2a565b5f81525f83820152604051613ee381613b0e565b5f81525f84820152604082015282828501015201613eb4565b8054821015613b81575f5260205f209060021b01905f90565b5f1981146123525760010190565b8051821015613b815760209160051b010190565b90604051613f4481613b2a565b6040613f6160028395805485526001810154602086015201613bef565b910152565b335f52600560205260405f209060405191613f8083613b0e565b549161ffff602060ff8516159283158152019360081c1683526140fc576001600160a01b03165f52600660205260405f2060ff600b8201541660068110156128f557600381036129315750600881015460201c63ffffffff1661404657600361ffff613fef9351169101613b95565b508054613ffb81613e59565b916140096040519384613b46565b81835260208301905f5260205f205f915b838310614028575050505090565b6004602060019261403885613f37565b81520192019201919061401a565b60035461405961ffff8260a01c16613e89565b925f61ffff5f9360b01c16925b83811061407557505050505090565b6001600160a01b038061408783613b69565b90549060031b1c16165f528460205260ff60405f2054169060038210156128f55760019182146140b8575b01614066565b6140f66140d182611f7c61ffff88511660038b01613b95565b50936140e56140df82613f15565b95613f37565b6140ef828b613f23565b5288613f23565b506140b2565b7f179e806d000000000000000000000000000000000000000000000000000000005f5260045ffd5b9035907fffffffffffffffffffffffffffffffffffffffffffffffffffffffffffffffe181360301821215610b54570180359067ffffffffffffffff8211610b5457602001918160071b36038313610b5457565b9190811015613b815760071b0190565b7fffffffffffffffffffffffffffffffffffffffffffffffffffffffffffffffdc6040910112610b5457604051906141bf82613b0e565b60243582526044356020830152565b9190826040910312610b54576040516141e681613b0e565b6020808294803584520135910152565b90816040910312610b545760206040519161421083613b0e565b805183520151602082015290565b8054821015613b81575f5260205f209060011b01905f90565b91906142615760608160039235845560208101356001850155604081013560028501550135910155565b634e487b7160e01b5f525f60045260245ffd5b906024811015613b815760051b0190565b8054821015613b81575f52600560205f20910201905f90565b61ffff5f199116019061ffff821161235257565b61ffff60039116029061ffff821691820361235257565b61ffff60059116029061ffff821691820361235257565b61ffff166005019061ffff821161235257565b61ffff60019116019061ffff821161235257565b906018811015613b815760051b0190565b9061432282613e59565b61432f6040519182613b46565b828152601f1961433f8294613e59565b01905f5b82811061434f57505050565b60209060405161435e81613b0e565b5f81525f8382015282828501015201614343565b335f52600560205260405f206040519061438b82613b0e565b5490602061ffff60ff841615938415845260081c169101526140fc576001600160a01b03165f52600660205260405f2060ff600b8201541660068110156128f5576002810361293157506001600160a01b0333165f528060205260ff60405f20541660038110156128f5576001036144095761440690614d04565b90565b50604051614418602082613b46565b5f81525f805b81811061442a57505090565b60209060405161443981613b0e565b5f81525f838201528282860101520161441e565b80545f82558061445b575050565b613e35915f5260205f2090810190613c6e565b6001600160a01b037f0000000000000000000000000000000000000000000000000000000000000000168030149081156144aa575b50612a5c57565b90506001600160a01b037f360894a13ba1a3210667c828492db98dca3e2076cc3735a920a3ca505d382bbc541614155f6144a3565b60ff5f5416156144eb57565b7f9488aaa6000000000000000000000000000000000000000000000000000000005f5260045ffd5b335f52600160205260ff60405f2054161561356c57565b9061453482613e59565b6145416040519182613b46565b828152601f196145518294613e59565b01905f5b82811061456157505050565b60209060405161457081613b2a565b60405161457c81613b0e565b5f81525f8482015281525f8382015260405161459781613b0e565b5f81525f84820152604082015282828501015201614555565b906801000000000000000081116105d3578154918181558282106145d357505050565b826005029260058404036123525781600502916005830403612352575f5260205f2091820191015b818110614606575050565b6005905f81555f60018201555f60028201555f60038201555f6004820155016145fb565b9061463482613e59565b6146416040519182613b46565b828152601f196146518294613e59565b01905f5b82811061466157505050565b806060602080938501015201614655565b8054905f815581614681575050565b7f3fffffffffffffffffffffffffffffffffffffffffffffffffffffffffffffff82168203612352575f5260205f209060021b8101905b8181106146c3575050565b805f600492555f60018201555f60028201555f6003820155016146b8565b906801000000000000000081116105d35781549181815582821061470457505050565b5f5260205f2091820191015b81811061471b575050565b80614727600192614672565b01614710565b8151916801000000000000000083116105d357815483835580841061479c575b50602001905f5260205f205f915b8383106147685750505050565b600460208281604060019551805188558281015187890155015180516002880155015160038601550192019201919061475b565b7f3fffffffffffffffffffffffffffffffffffffffffffffffffffffffffffffff81168103612352577f3fffffffffffffffffffffffffffffffffffffffffffffffffffffffffffffff8416840361235257825f5260205f209060021b8101908460021b015b81811061480f575061474d565b805f600492555f60018201555f60028201555f600382015501614802565b919061426157613e359161472d565b9061484682613e59565b6148536040519182613b46565b828152601f196148638294613e59565b0190602036910137565b80545f82558061487b575050565b613e35915f52601f60205f20910160051c810190613c6e565b906801000000000000000081116105d35781548183558082106148b657505050565b613e35925f52601f60205f20918180850160051c84019416806148e0575b500160051c0190613c6e565b5f198501905f1982549160200360031b1c1690555f6148d4565b67ffffffffffffffff7ff0c57e16840df040f15088dc2f81fe391c3923bec73e23a9662efc9c229c6a0054161561492d57565b7f0206032a000000000000000000000000000000000000000000000000000000005f5260045ffd5b6001600160a01b037f9016d09d72d40fdae2fd8ceac6b6234c7706214fd39c1cd1e609a0528c1993005416330361498857565b7f118cdaa7000000000000000000000000000000000000000000000000000000005f523360045260245ffd5b335f52600560205260405f20604051906149cd82613b0e565b549061ffff602060ff8416159283158152019260081c1682526140fc575161ffff1690565b60035460b01c61ffff16905f5b828110614a0e57505050600190565b60ff614a1d82600a8501613c84565b90549060031b1c1615614a32576001016149ff565b5050505f90565b6040517fe8c8742800000000000000000000000000000000000000000000000000000000815281516004820152602080830151602483015290919073__$fd1bbc507ebce9bb0449be7c85ea578f4f$__9083604481845af49283156127ff575f93614ba7575b508215614b2f575b8215614ab6575b50506128cd57565b6040517fe128c1aa0000000000000000000000000000000000000000000000000000000081528251600482015260209283015160248201529250829060449082905af49081156127ff575f91614b10575b50155f80614aae565b614b29915060203d6020116107b2576107a48183613b46565b5f614b07565b6040517f8071469c0000000000000000000000000000000000000000000000000000000081528251600482015260208084015160248301529193509081604481865af49081156127ff575f91614b88575b501591614aa7565b614ba1915060203d6020116107b2576107a48183613b46565b5f614b80565b614bc191935060203d6020116107b2576107a48183613b46565b915f614a9f565b90614bd282613bef565b6040517f8a9088a300000000000000000000000000000000000000000000000000000000815281516004820152602091820151602482015273__$fd1bbc507ebce9bb0449be7c85ea578f4f$__929181604481865af49081156127ff575f91614ce5575b50614cd35760206084604092835194859384927f9679db0d000000000000000000000000000000000000000000000000000000008452614c84600485018a6001602091805484520154910152565b80516044850152015160648301525af49081156127ff576001916020915f91614cb4575b50805184550151910155565b614ccd915060403d6040116127f8576127ea8183613b46565b5f614ca8565b60019150806020915184550151910155565b614cfe915060203d6020116107b2576107a48183613b46565b5f614c36565b61ffff60035460b01c16614d1781614318565b915f5b828110614d275750505090565b80614d436003614d3c60019460028701614285565b5001613bef565b614d4d8287613f23565b52614d588186613f23565b5001614d1a565b90600b83019060ff82541660068110156128f557600203614e9a576003545f9060b01c61ffff1660098601825b828110614e675750505003614e6257805460ff19166003179055600882015460201c63ffffffff169182614dec57506001600160a01b039150167f7f44e24aecdf5952e755e1b91c7a7e576343b3764b9e08161a629f2898b4d80f5f80a2565b60010190604051906020820160208352835480915260408301935f5260205f20905f5b818110614e4c5750505090806001600160a01b037f76a6be7fc584ce6005b8f9e767f06b6684986dd5768e774c15d9c5af5a45a3049316930390a3565b8254865260209095019460019283019201614e0f565b505050565b60ff614e738284613c84565b90549060031b1c16614e88575b600101614d8c565b92600181018091116123525792614e80565b50505050565b6001600160a01b0390614eb761037a3660846141ce565b165f52600660205260405f209060ff600b8301541660068110156128f557600181036129315750915f9073__$fd1bbc507ebce9bb0449be7c85ea578f4f$__9060028401906084359460a435945b61ffff60035460b01c16811015614fb157614f208185614285565b50614f63604051917f2ba6bab900000000000000000000000000000000000000000000000000000000835260036004840191016001602091805484520154910152565b876044820152866064820152602081608481895af49081156127ff575f91614f93575b506128cd57600101614f05565b614fab915060203d81116107b2576107a48183613b46565b5f614f86565b509492602061501091979297614fca6103888587614285565b9060405180809581947f8a9088a3000000000000000000000000000000000000000000000000000000008352600483019190916020806040830194805184520151910152565b03915af49081156127ff575f91615057575b50156129095761503191614285565b614261576004916024358255604435600183015560643560028301556003820155015590565b615070915060203d6020116107b2576107a48183613b46565b5f615022565b90600b83019260ff84541660068110156128f557600103614e9a5761509a816153bf565b15614e9a57600881019163ffffffff835416105f146150ef5750506001600160a01b03167ffc3b5c81fbd3f5eaaf811aef4c5147873723d4d017233e4a5513fc05f02da9435f80a2600460ff19825416179055565b909192600260ff19825416179055600461511161ffff60035460b01c16614318565b910160208251926151228484613d04565b01905f5260205f205f915b838310615173575050505063ffffffff6001600160a01b03915460201c1691167fa5af724b9b00615e3776eacfb6aaed5a999936645a0d9486067ebaaaf1f746085f80a3565b60026020828160019451805187550151848601550192019201919061512d565b7fffffffffffffffffffffffff00000000000000000000000000000000000000007f237e158222e3e6968b72b9db0d8043aacf074ad9f650f0d1606b4d82ee432c0054167f237e158222e3e6968b72b9db0d8043aacf074ad9f650f0d1606b4d82ee432c00556001600160a01b03807f9016d09d72d40fdae2fd8ceac6b6234c7706214fd39c1cd1e609a0528c19930054921691827fffffffffffffffffffffffff00000000000000000000000000000000000000008216177f9016d09d72d40fdae2fd8ceac6b6234c7706214fd39c1cd1e609a0528c19930055167f8be0079c531659141344cd1fd0a4f28419497f9722a3daafe3b4186f6b6457e05f80a3565b909291925f60068301555f60078301556152b16009830161486d565b6152bd600a830161486d565b600282018054905f81558161537a575b5050600382018054905f815581615355575b5050600882017fffffffffffffffffffffffffffffffffffffffffffffffff000000000000000081541690555f5b818110615324575050613e35919250600401613ca2565b806001600160a01b038061533a60019489613f23565b5116165f528360205260405f2060ff1981541690550161530d565b5f5260205f20908101905b818110156152df5780615374600192614672565b01615360565b81600502916005830403612352575f5260205f20908101905b818110156152cd576005905f81555f60018201555f60028201555f60038201555f600482015501615393565b60035460b01c61ffff16905f5b8281106153db57505050600190565b6001600160a01b03806153ed83613b69565b90549060031b1c16165f528160205260ff60405f20541660038110156128f55715614a32576001016153cc565b60ff7ff0c57e16840df040f15088dc2f81fe391c3923bec73e23a9662efc9c229c6a005460401c161561544957565b7fd7e6bcf8000000000000000000000000000000000000000000000000000000005f5260045ffd5b905f8091602081519101845af48080615518575b156154a55750506040513d81523d5f602083013e60203d82010160405290565b156154df576001600160a01b03907f9996b315000000000000000000000000000000000000000000000000000000005f521660045260245ffd5b3d156154f0576040513d5f823e3d90fd5b7fd6bda275000000000000000000000000000000000000000000000000000000005f5260045ffd5b503d1515806154855750813b151561548556fea2646970667358221220cc9f91f6bc378aeb07917f185d047fddef860f178a03ff056f4880c1306a58eb64736f6c634300081e0033f0c57e16840df040f15088dc2f81fe391c3923bec73e23a9662efc9c229c6a00","linkReferences":{"lib/babyjubjub-solidity/src/BabyJubJub.sol":{"BabyJubJub":[{"start":797,"length":20},{"start":4024,"length":20},{"start":6415,"length":20},{"start":7079,"length":20},{"start":10153,"length":20},{"start":11956,"length":20},{"start":14199,"length":20},{"start":19261,"length":20},{"start":19667,"length":20},{"start":20394,"length":20}]}}},"methodIdentifiers":{"UPGRADE_INTERFACE_VERSION()":"ad3cb1cc","abortKeyGen(uint160)":"9d49d672","acceptOwnership()":"79ba5097","addKeyGenAdmin(address)":"222c211e","addRound1KeyGenContribution(uint160,((uint256,uint256),uint256,(uint256,uint256)))":"64a97889","addRound1ReshareContribution(uint160,((uint256,uint256),uint256,(uint256,uint256)))":"ffb96673","addRound2Contribution(uint160,(uint256[4],(uint256,uint256,(uint256,uint256))[]))":"5fd59919","addRound3Contribution(uint160)":"3892750a","amountKeygenAdmins()":"d46a3ac6","changeVerifierContract(address)":"21fe366e","checkIsParticipantAndReturnRound2Ciphers(uint160)":"53fac9ad","deleteOprfPublicKey(uint160)":"3bcc1630","getOprfPublicKey(uint160)":"7488e8e7","getOprfPublicKeyAndEpoch(uint160)":"8f065f8d","getPartyIdForParticipant(address)":"f720fce3","initKeyGen(uint160)":"be28b7a8","initReshare(uint160)":"1acc6e09","initialize(address,address,address,uint16,uint16)":"fd1bae58","isContractReady()":"3a02230d","keyGenVerifier()":"9f249044","keygenAdmins(address)":"513c72f1","loadPeerPublicKeysForConsumers(uint160)":"b13590ec","loadPeerPublicKeysForProducers(uint160)":"90ea46f5","numPeers()":"79a4753c","owner()":"8da5cb5b","peerAddresses(uint256)":"79ad89e8","pendingOwner()":"e30c3978","proxiableUUID()":"52d1902d","registerOprfPeers(address[])":"32c7e3b6","renounceOwnership()":"715018a6","revokeKeyGenAdmin(address)":"ea2ca963","threshold()":"42cde4e8","transferOwnership(address)":"f2fde38b","upgradeToAndCall(address,bytes)":"4f1ef286"},"storageLayout":{"storage":[{"astId":39913,"contract":"src/OprfKeyRegistry.sol:OprfKeyRegistry","label":"isContractReady","offset":0,"slot":"0","type":"t_bool"},{"astId":39917,"contract":"src/OprfKeyRegistry.sol:OprfKeyRegistry","label":"keygenAdmins","offset":0,"slot":"1","type":"t_mapping(t_address,t_bool)"},{"astId":39919,"contract":"src/OprfKeyRegistry.sol:OprfKeyRegistry","label":"amountKeygenAdmins","offset":0,"slot":"2","type":"t_uint256"},{"astId":39921,"contract":"src/OprfKeyRegistry.sol:OprfKeyRegistry","label":"keyGenVerifier","offset":0,"slot":"3","type":"t_address"},{"astId":39923,"contract":"src/OprfKeyRegistry.sol:OprfKeyRegistry","label":"threshold","offset":20,"slot":"3","type":"t_uint16"},{"astId":39925,"contract":"src/OprfKeyRegistry.sol:OprfKeyRegistry","label":"numPeers","offset":22,"slot":"3","type":"t_uint16"},{"astId":39928,"contract":"src/OprfKeyRegistry.sol:OprfKeyRegistry","label":"peerAddresses","offset":0,"slot":"4","type":"t_array(t_address)dyn_storage"},{"astId":39933,"contract":"src/OprfKeyRegistry.sol:OprfKeyRegistry","label":"addressToPeer","offset":0,"slot":"5","type":"t_mapping(t_address,t_struct(OprfPeer)39304_storage)"},{"astId":39938,"contract":"src/OprfKeyRegistry.sol:OprfKeyRegistry","label":"runningKeyGens","offset":0,"slot":"6","type":"t_mapping(t_uint160,t_struct(OprfKeyGenState)39378_storage)"},{"astId":39943,"contract":"src/OprfKeyRegistry.sol:OprfKeyRegistry","label":"oprfKeyRegistry","offset":0,"slot":"7","type":"t_mapping(t_uint160,t_struct(RegisteredOprfPublicKey)39310_storage)"}],"types":{"t_address":{"encoding":"inplace","label":"address","numberOfBytes":"20"},"t_array(t_address)dyn_storage":{"encoding":"dynamic_array","label":"address[]","numberOfBytes":"32","base":"t_address"},"t_array(t_array(t_struct(SecretGenCiphertext)39336_storage)dyn_storage)dyn_storage":{"encoding":"dynamic_array","label":"struct OprfKeyGen.SecretGenCiphertext[][]","numberOfBytes":"32","base":"t_array(t_struct(SecretGenCiphertext)39336_storage)dyn_storage"},"t_array(t_bool)dyn_storage":{"encoding":"dynamic_array","label":"bool[]","numberOfBytes":"32","base":"t_bool"},"t_array(t_struct(Affine)25_storage)dyn_storage":{"encoding":"dynamic_array","label":"struct BabyJubJub.Affine[]","numberOfBytes":"32","base":"t_struct(Affine)25_storage"},"t_array(t_struct(Round1Contribution)39319_storage)dyn_storage":{"encoding":"dynamic_array","label":"struct OprfKeyGen.Round1Contribution[]","numberOfBytes":"32","base":"t_struct(Round1Contribution)39319_storage"},"t_array(t_struct(SecretGenCiphertext)39336_storage)dyn_storage":{"encoding":"dynamic_array","label":"struct OprfKeyGen.SecretGenCiphertext[]","numberOfBytes":"32","base":"t_struct(SecretGenCiphertext)39336_storage"},"t_array(t_uint256)dyn_storage":{"encoding":"dynamic_array","label":"uint256[]","numberOfBytes":"32","base":"t_uint256"},"t_bool":{"encoding":"inplace","label":"bool","numberOfBytes":"1"},"t_enum(KeyGenRole)39292":{"encoding":"inplace","label":"enum OprfKeyGen.KeyGenRole","numberOfBytes":"1"},"t_enum(Round)39299":{"encoding":"inplace","label":"enum OprfKeyGen.Round","numberOfBytes":"1"},"t_mapping(t_address,t_bool)":{"encoding":"mapping","key":"t_address","label":"mapping(address => bool)","numberOfBytes":"32","value":"t_bool"},"t_mapping(t_address,t_enum(KeyGenRole)39292)":{"encoding":"mapping","key":"t_address","label":"mapping(address => enum OprfKeyGen.KeyGenRole)","numberOfBytes":"32","value":"t_enum(KeyGenRole)39292"},"t_mapping(t_address,t_struct(OprfPeer)39304_storage)":{"encoding":"mapping","key":"t_address","label":"mapping(address => struct OprfKeyGen.OprfPeer)","numberOfBytes":"32","value":"t_struct(OprfPeer)39304_storage"},"t_mapping(t_uint160,t_struct(OprfKeyGenState)39378_storage)":{"encoding":"mapping","key":"t_uint160","label":"mapping(uint160 => struct OprfKeyGen.OprfKeyGenState)","numberOfBytes":"32","value":"t_struct(OprfKeyGenState)39378_storage"},"t_mapping(t_uint160,t_struct(RegisteredOprfPublicKey)39310_storage)":{"encoding":"mapping","key":"t_uint160","label":"mapping(uint160 => struct OprfKeyGen.RegisteredOprfPublicKey)","numberOfBytes":"32","value":"t_struct(RegisteredOprfPublicKey)39310_storage"},"t_struct(Affine)25_storage":{"encoding":"inplace","label":"struct BabyJubJub.Affine","numberOfBytes":"64","members":[{"astId":22,"contract":"src/OprfKeyRegistry.sol:OprfKeyRegistry","label":"x","offset":0,"slot":"0","type":"t_uint256"},{"astId":24,"contract":"src/OprfKeyRegistry.sol:OprfKeyRegistry","label":"y","offset":0,"slot":"1","type":"t_uint256"}]},"t_struct(OprfKeyGenState)39378_storage":{"encoding":"inplace","label":"struct OprfKeyGen.OprfKeyGenState","numberOfBytes":"384","members":[{"astId":39341,"contract":"src/OprfKeyRegistry.sol:OprfKeyRegistry","label":"nodeRoles","offset":0,"slot":"0","type":"t_mapping(t_address,t_enum(KeyGenRole)39292)"},{"astId":39344,"contract":"src/OprfKeyRegistry.sol:OprfKeyRegistry","label":"lagrangeCoeffs","offset":0,"slot":"1","type":"t_array(t_uint256)dyn_storage"},{"astId":39348,"contract":"src/OprfKeyRegistry.sol:OprfKeyRegistry","label":"round1","offset":0,"slot":"2","type":"t_array(t_struct(Round1Contribution)39319_storage)dyn_storage"},{"astId":39353,"contract":"src/OprfKeyRegistry.sol:OprfKeyRegistry","label":"round2","offset":0,"slot":"3","type":"t_array(t_array(t_struct(SecretGenCiphertext)39336_storage)dyn_storage)dyn_storage"},{"astId":39357,"contract":"src/OprfKeyRegistry.sol:OprfKeyRegistry","label":"shareCommitments","offset":0,"slot":"4","type":"t_array(t_struct(Affine)25_storage)dyn_storage"},{"astId":39361,"contract":"src/OprfKeyRegistry.sol:OprfKeyRegistry","label":"prevShareCommitments","offset":0,"slot":"5","type":"t_array(t_struct(Affine)25_storage)dyn_storage"},{"astId":39364,"contract":"src/OprfKeyRegistry.sol:OprfKeyRegistry","label":"keyAggregate","offset":0,"slot":"6","type":"t_struct(Affine)25_storage"},{"astId":39366,"contract":"src/OprfKeyRegistry.sol:OprfKeyRegistry","label":"numProducers","offset":0,"slot":"8","type":"t_uint32"},{"astId":39368,"contract":"src/OprfKeyRegistry.sol:OprfKeyRegistry","label":"generatedEpoch","offset":4,"slot":"8","type":"t_uint32"},{"astId":39371,"contract":"src/OprfKeyRegistry.sol:OprfKeyRegistry","label":"round2Done","offset":0,"slot":"9","type":"t_array(t_bool)dyn_storage"},{"astId":39374,"contract":"src/OprfKeyRegistry.sol:OprfKeyRegistry","label":"round3Done","offset":0,"slot":"10","type":"t_array(t_bool)dyn_storage"},{"astId":39377,"contract":"src/OprfKeyRegistry.sol:OprfKeyRegistry","label":"currentRound","offset":0,"slot":"11","type":"t_enum(Round)39299"}]},"t_struct(OprfPeer)39304_storage":{"encoding":"inplace","label":"struct OprfKeyGen.OprfPeer","numberOfBytes":"32","members":[{"astId":39301,"contract":"src/OprfKeyRegistry.sol:OprfKeyRegistry","label":"isParticipant","offset":0,"slot":"0","type":"t_bool"},{"astId":39303,"contract":"src/OprfKeyRegistry.sol:OprfKeyRegistry","label":"partyId","offset":1,"slot":"0","type":"t_uint16"}]},"t_struct(RegisteredOprfPublicKey)39310_storage":{"encoding":"inplace","label":"struct OprfKeyGen.RegisteredOprfPublicKey","numberOfBytes":"96","members":[{"astId":39307,"contract":"src/OprfKeyRegistry.sol:OprfKeyRegistry","label":"key","offset":0,"slot":"0","type":"t_struct(Affine)25_storage"},{"astId":39309,"contract":"src/OprfKeyRegistry.sol:OprfKeyRegistry","label":"epoch","offset":0,"slot":"2","type":"t_uint32"}]},"t_struct(Round1Contribution)39319_storage":{"encoding":"inplace","label":"struct OprfKeyGen.Round1Contribution","numberOfBytes":"160","members":[{"astId":39313,"contract":"src/OprfKeyRegistry.sol:OprfKeyRegistry","label":"commShare","offset":0,"slot":"0","type":"t_struct(Affine)25_storage"},{"astId":39315,"contract":"src/OprfKeyRegistry.sol:OprfKeyRegistry","label":"commCoeffs","offset":0,"slot":"2","type":"t_uint256"},{"astId":39318,"contract":"src/OprfKeyRegistry.sol:OprfKeyRegistry","label":"ephPubKey","offset":0,"slot":"3","type":"t_struct(Affine)25_storage"}]},"t_struct(SecretGenCiphertext)39336_storage":{"encoding":"inplace","label":"struct OprfKeyGen.SecretGenCiphertext","numberOfBytes":"128","members":[{"astId":39330,"contract":"src/OprfKeyRegistry.sol:OprfKeyRegistry","label":"nonce","offset":0,"slot":"0","type":"t_uint256"},{"astId":39332,"contract":"src/OprfKeyRegistry.sol:OprfKeyRegistry","label":"cipher","offset":0,"slot":"1","type":"t_uint256"},{"astId":39335,"contract":"src/OprfKeyRegistry.sol:OprfKeyRegistry","label":"commitment","offset":0,"slot":"2","type":"t_struct(Affine)25_storage"}]},"t_uint16":{"encoding":"inplace","label":"uint16","numberOfBytes":"2"},"t_uint160":{"encoding":"inplace","label":"uint160","numberOfBytes":"20"},"t_uint256":{"encoding":"inplace","label":"uint256","numberOfBytes":"32"},"t_uint32":{"encoding":"inplace","label":"uint32","numberOfBytes":"4"}}},"id":35}