{"abi":[{"type":"function","name":"UPGRADE_INTERFACE_VERSION","inputs":[],"outputs":[{"name":"","type":"string","internalType":"string"}],"stateMutability":"view"},{"type":"function","name":"abortKeyGen","inputs":[{"name":"oprfKeyId","type":"uint160","internalType":"uint160"}],"outputs":[],"stateMutability":"nonpayable"},{"type":"function","name":"acceptOwnership","inputs":[],"outputs":[],"stateMutability":"nonpayable"},{"type":"function","name":"addKeyGenAdmin","inputs":[{"name":"_keygenAdmin","type":"address","internalType":"address"}],"outputs":[],"stateMutability":"nonpayable"},{"type":"function","name":"addRound1KeyGenContribution","inputs":[{"name":"oprfKeyId","type":"uint160","internalType":"uint160"},{"name":"data","type":"tuple","internalType":"struct OprfKeyGen.Round1Contribution","components":[{"name":"commShare","type":"tuple","internalType":"struct BabyJubJub.Affine","components":[{"name":"x","type":"uint256","internalType":"uint256"},{"name":"y","type":"uint256","internalType":"uint256"}]},{"name":"commCoeffs","type":"uint256","internalType":"uint256"},{"name":"ephPubKey","type":"tuple","internalType":"struct BabyJubJub.Affine","components":[{"name":"x","type":"uint256","internalType":"uint256"},{"name":"y","type":"uint256","internalType":"uint256"}]}]}],"outputs":[],"stateMutability":"nonpayable"},{"type":"function","name":"addRound1ReshareContribution","inputs":[{"name":"oprfKeyId","type":"uint160","internalType":"uint160"},{"name":"data","type":"tuple","internalType":"struct OprfKeyGen.Round1Contribution","components":[{"name":"commShare","type":"tuple","internalType":"struct BabyJubJub.Affine","components":[{"name":"x","type":"uint256","internalType":"uint256"},{"name":"y","type":"uint256","internalType":"uint256"}]},{"name":"commCoeffs","type":"uint256","internalType":"uint256"},{"name":"ephPubKey","type":"tuple","internalType":"struct BabyJubJub.Affine","components":[{"name":"x","type":"uint256","internalType":"uint256"},{"name":"y","type":"uint256","internalType":"uint256"}]}]}],"outputs":[],"stateMutability":"nonpayable"},{"type":"function","name":"addRound2Contribution","inputs":[{"name":"oprfKeyId","type":"uint160","internalType":"uint160"},{"name":"data","type":"tuple","internalType":"struct OprfKeyGen.Round2Contribution","components":[{"name":"compressedProof","type":"uint256[4]","internalType":"uint256[4]"},{"name":"ciphers","type":"tuple[]","internalType":"struct OprfKeyGen.SecretGenCiphertext[]","components":[{"name":"nonce","type":"uint256","internalType":"uint256"},{"name":"cipher","type":"uint256","internalType":"uint256"},{"name":"commitment","type":"tuple","internalType":"struct BabyJubJub.Affine","components":[{"name":"x","type":"uint256","internalType":"uint256"},{"name":"y","type":"uint256","internalType":"uint256"}]}]}]}],"outputs":[],"stateMutability":"nonpayable"},{"type":"function","name":"addRound3Contribution","inputs":[{"name":"oprfKeyId","type":"uint160","internalType":"uint160"}],"outputs":[],"stateMutability":"nonpayable"},{"type":"function","name":"amountKeygenAdmins","inputs":[],"outputs":[{"name":"","type":"uint256","internalType":"uint256"}],"stateMutability":"view"},{"type":"function","name":"changeVerifierContract","inputs":[{"name":"newKeyGenVerifier","type":"address","internalType":"address"}],"outputs":[],"stateMutability":"nonpayable"},{"type":"function","name":"checkIsParticipantAndReturnRound2Ciphers","inputs":[{"name":"oprfKeyId","type":"uint160","internalType":"uint160"}],"outputs":[{"name":"","type":"tuple[]","internalType":"struct OprfKeyGen.SecretGenCiphertext[]","components":[{"name":"nonce","type":"uint256","internalType":"uint256"},{"name":"cipher","type":"uint256","internalType":"uint256"},{"name":"commitment","type":"tuple","internalType":"struct BabyJubJub.Affine","components":[{"name":"x","type":"uint256","internalType":"uint256"},{"name":"y","type":"uint256","internalType":"uint256"}]}]}],"stateMutability":"view"},{"type":"function","name":"deleteOprfPublicKey","inputs":[{"name":"oprfKeyId","type":"uint160","internalType":"uint160"}],"outputs":[],"stateMutability":"nonpayable"},{"type":"function","name":"emitDeleteEvent","inputs":[{"name":"oprfKeyId","type":"uint160","internalType":"uint160"}],"outputs":[],"stateMutability":"nonpayable"},{"type":"function","name":"emitSecretGenFinalize","inputs":[{"name":"oprfKeyId","type":"uint160","internalType":"uint160"},{"name":"epoch","type":"uint32","internalType":"uint32"}],"outputs":[],"stateMutability":"nonpayable"},{"type":"function","name":"getOprfPublicKey","inputs":[{"name":"oprfKeyId","type":"uint160","internalType":"uint160"}],"outputs":[{"name":"","type":"tuple","internalType":"struct BabyJubJub.Affine","components":[{"name":"x","type":"uint256","internalType":"uint256"},{"name":"y","type":"uint256","internalType":"uint256"}]}],"stateMutability":"view"},{"type":"function","name":"getOprfPublicKeyAndEpoch","inputs":[{"name":"oprfKeyId","type":"uint160","internalType":"uint160"}],"outputs":[{"name":"","type":"tuple","internalType":"struct OprfKeyGen.RegisteredOprfPublicKey","components":[{"name":"key","type":"tuple","internalType":"struct BabyJubJub.Affine","components":[{"name":"x","type":"uint256","internalType":"uint256"},{"name":"y","type":"uint256","internalType":"uint256"}]},{"name":"epoch","type":"uint32","internalType":"uint32"}]}],"stateMutability":"view"},{"type":"function","name":"getPartyIdForParticipant","inputs":[{"name":"participant","type":"address","internalType":"address"}],"outputs":[{"name":"","type":"uint256","internalType":"uint256"}],"stateMutability":"view"},{"type":"function","name":"initKeyGen","inputs":[{"name":"oprfKeyId","type":"uint160","internalType":"uint160"}],"outputs":[],"stateMutability":"nonpayable"},{"type":"function","name":"initReshare","inputs":[{"name":"oprfKeyId","type":"uint160","internalType":"uint160"}],"outputs":[],"stateMutability":"nonpayable"},{"type":"function","name":"initialize","inputs":[{"name":"_owner","type":"address","internalType":"address"},{"name":"_keygenAdmin","type":"address","internalType":"address"},{"name":"_keyGenVerifierAddress","type":"address","internalType":"address"},{"name":"_threshold","type":"uint16","internalType":"uint16"},{"name":"_numPeers","type":"uint16","internalType":"uint16"}],"outputs":[],"stateMutability":"nonpayable"},{"type":"function","name":"isContractReady","inputs":[],"outputs":[{"name":"","type":"bool","internalType":"bool"}],"stateMutability":"view"},{"type":"function","name":"keyGenVerifier","inputs":[],"outputs":[{"name":"","type":"address","internalType":"address"}],"stateMutability":"view"},{"type":"function","name":"keygenAdmins","inputs":[{"name":"","type":"address","internalType":"address"}],"outputs":[{"name":"","type":"bool","internalType":"bool"}],"stateMutability":"view"},{"type":"function","name":"loadPeerPublicKeysForConsumers","inputs":[{"name":"oprfKeyId","type":"uint160","internalType":"uint160"}],"outputs":[{"name":"","type":"tuple[]","internalType":"struct BabyJubJub.Affine[]","components":[{"name":"x","type":"uint256","internalType":"uint256"},{"name":"y","type":"uint256","internalType":"uint256"}]}],"stateMutability":"view"},{"type":"function","name":"loadPeerPublicKeysForProducers","inputs":[{"name":"oprfKeyId","type":"uint160","internalType":"uint160"}],"outputs":[{"name":"","type":"tuple[]","internalType":"struct BabyJubJub.Affine[]","components":[{"name":"x","type":"uint256","internalType":"uint256"},{"name":"y","type":"uint256","internalType":"uint256"}]}],"stateMutability":"view"},{"type":"function","name":"numPeers","inputs":[],"outputs":[{"name":"","type":"uint16","internalType":"uint16"}],"stateMutability":"view"},{"type":"function","name":"owner","inputs":[],"outputs":[{"name":"","type":"address","internalType":"address"}],"stateMutability":"view"},{"type":"function","name":"peerAddresses","inputs":[{"name":"","type":"uint256","internalType":"uint256"}],"outputs":[{"name":"","type":"address","internalType":"address"}],"stateMutability":"view"},{"type":"function","name":"pendingOwner","inputs":[],"outputs":[{"name":"","type":"address","internalType":"address"}],"stateMutability":"view"},{"type":"function","name":"proxiableUUID","inputs":[],"outputs":[{"name":"","type":"bytes32","internalType":"bytes32"}],"stateMutability":"view"},{"type":"function","name":"registerOprfPeers","inputs":[{"name":"_peerAddresses","type":"address[]","internalType":"address[]"}],"outputs":[],"stateMutability":"nonpayable"},{"type":"function","name":"renounceOwnership","inputs":[],"outputs":[],"stateMutability":"nonpayable"},{"type":"function","name":"revokeKeyGenAdmin","inputs":[{"name":"_keygenAdmin","type":"address","internalType":"address"}],"outputs":[],"stateMutability":"nonpayable"},{"type":"function","name":"threshold","inputs":[],"outputs":[{"name":"","type":"uint16","internalType":"uint16"}],"stateMutability":"view"},{"type":"function","name":"transferOwnership","inputs":[{"name":"newOwner","type":"address","internalType":"address"}],"outputs":[],"stateMutability":"nonpayable"},{"type":"function","name":"upgradeToAndCall","inputs":[{"name":"newImplementation","type":"address","internalType":"address"},{"name":"data","type":"bytes","internalType":"bytes"}],"outputs":[],"stateMutability":"payable"},{"type":"event","name":"Initialized","inputs":[{"name":"version","type":"uint64","indexed":false,"internalType":"uint64"}],"anonymous":false},{"type":"event","name":"KeyDeletion","inputs":[{"name":"oprfKeyId","type":"uint160","indexed":true,"internalType":"uint160"}],"anonymous":false},{"type":"event","name":"KeyGenAbort","inputs":[{"name":"oprfKeyId","type":"uint160","indexed":true,"internalType":"uint160"}],"anonymous":false},{"type":"event","name":"KeyGenAdminRegistered","inputs":[{"name":"admin","type":"address","indexed":true,"internalType":"address"}],"anonymous":false},{"type":"event","name":"KeyGenAdminRevoked","inputs":[{"name":"admin","type":"address","indexed":true,"internalType":"address"}],"anonymous":false},{"type":"event","name":"KeyGenConfirmation","inputs":[{"name":"oprfKeyId","type":"uint160","indexed":true,"internalType":"uint160"},{"name":"partyId","type":"uint16","indexed":true,"internalType":"uint16"},{"name":"round","type":"uint8","indexed":false,"internalType":"uint8"},{"name":"epoch","type":"uint32","indexed":false,"internalType":"uint32"}],"anonymous":false},{"type":"event","name":"NotEnoughProducers","inputs":[{"name":"oprfKeyId","type":"uint160","indexed":true,"internalType":"uint160"}],"anonymous":false},{"type":"event","name":"OprfPeerChanged","inputs":[{"name":"partyId","type":"uint16","indexed":true,"internalType":"uint16"},{"name":"oldPeer","type":"address","indexed":true,"internalType":"address"},{"name":"newPeer","type":"address","indexed":true,"internalType":"address"}],"anonymous":false},{"type":"event","name":"OwnershipTransferStarted","inputs":[{"name":"previousOwner","type":"address","indexed":true,"internalType":"address"},{"name":"newOwner","type":"address","indexed":true,"internalType":"address"}],"anonymous":false},{"type":"event","name":"OwnershipTransferred","inputs":[{"name":"previousOwner","type":"address","indexed":true,"internalType":"address"},{"name":"newOwner","type":"address","indexed":true,"internalType":"address"}],"anonymous":false},{"type":"event","name":"ReshareRound1","inputs":[{"name":"oprfKeyId","type":"uint160","indexed":true,"internalType":"uint160"},{"name":"threshold","type":"uint256","indexed":false,"internalType":"uint256"},{"name":"epoch","type":"uint32","indexed":true,"internalType":"uint32"}],"anonymous":false},{"type":"event","name":"ReshareRound3","inputs":[{"name":"oprfKeyId","type":"uint160","indexed":true,"internalType":"uint160"},{"name":"lagrange","type":"uint256[]","indexed":false,"internalType":"uint256[]"},{"name":"epoch","type":"uint32","indexed":true,"internalType":"uint32"}],"anonymous":false},{"type":"event","name":"SecretGenFinalize","inputs":[{"name":"oprfKeyId","type":"uint160","indexed":true,"internalType":"uint160"},{"name":"epoch","type":"uint32","indexed":true,"internalType":"uint32"}],"anonymous":false},{"type":"event","name":"SecretGenRound1","inputs":[{"name":"oprfKeyId","type":"uint160","indexed":true,"internalType":"uint160"},{"name":"threshold","type":"uint256","indexed":false,"internalType":"uint256"}],"anonymous":false},{"type":"event","name":"SecretGenRound2","inputs":[{"name":"oprfKeyId","type":"uint160","indexed":true,"internalType":"uint160"},{"name":"epoch","type":"uint32","indexed":true,"internalType":"uint32"}],"anonymous":false},{"type":"event","name":"SecretGenRound3","inputs":[{"name":"oprfKeyId","type":"uint160","indexed":true,"internalType":"uint160"}],"anonymous":false},{"type":"event","name":"Upgraded","inputs":[{"name":"implementation","type":"address","indexed":true,"internalType":"address"}],"anonymous":false},{"type":"event","name":"VerifierContractChanged","inputs":[{"name":"oldContract","type":"address","indexed":true,"internalType":"address"},{"name":"newContract","type":"address","indexed":true,"internalType":"address"}],"anonymous":false},{"type":"error","name":"AddressEmptyCode","inputs":[{"name":"target","type":"address","internalType":"address"}]},{"type":"error","name":"AlreadySubmitted","inputs":[]},{"type":"error","name":"BadContribution","inputs":[]},{"type":"error","name":"DeletedId","inputs":[{"name":"id","type":"uint160","internalType":"uint160"}]},{"type":"error","name":"ERC1967InvalidImplementation","inputs":[{"name":"implementation","type":"address","internalType":"address"}]},{"type":"error","name":"ERC1967NonPayable","inputs":[]},{"type":"error","name":"FailedCall","inputs":[]},{"type":"error","name":"ImplementationNotInitialized","inputs":[]},{"type":"error","name":"InvalidInitialization","inputs":[]},{"type":"error","name":"LastAdmin","inputs":[]},{"type":"error","name":"NotAParticipant","inputs":[]},{"type":"error","name":"NotAProducer","inputs":[]},{"type":"error","name":"NotInitializing","inputs":[]},{"type":"error","name":"NotReady","inputs":[]},{"type":"error","name":"OnlyAdmin","inputs":[]},{"type":"error","name":"OwnableInvalidOwner","inputs":[{"name":"owner","type":"address","internalType":"address"}]},{"type":"error","name":"OwnableUnauthorizedAccount","inputs":[{"name":"account","type":"address","internalType":"address"}]},{"type":"error","name":"PartiesNotDistinct","inputs":[]},{"type":"error","name":"UUPSUnauthorizedCallContext","inputs":[]},{"type":"error","name":"UUPSUnsupportedProxiableUUID","inputs":[{"name":"slot","type":"bytes32","internalType":"bytes32"}]},{"type":"error","name":"UnexpectedAmountPeers","inputs":[{"name":"expectedParties","type":"uint256","internalType":"uint256"}]},{"type":"error","name":"UnknownId","inputs":[{"name":"id","type":"uint160","internalType":"uint160"}]},{"type":"error","name":"UnsupportedNumPeersThreshold","inputs":[]},{"type":"error","name":"WrongRound","inputs":[{"name":"","type":"uint8","internalType":"enum OprfKeyGen.Round"}]}],"bytecode":{"object":"0x60a080604052346100c257306080525f5160206159fc5f395f51905f525460ff8160401c166100b3576002600160401b03196001600160401b03821601610060575b60405161593590816100c78239608051818181612b9801526146310152f35b6001600160401b0319166001600160401b039081175f5160206159fc5f395f51905f525581527fc7f505b2f371ae2175ee4913f4499e1f2633a7b5936321eed1cdaeb6115181d290602090a15f80610041565b63f92ee8a960e01b5f5260045ffd5b5f80fdfe60806040526004361015610011575f80fd5b5f5f3560e01c80631acc6e09146137b857806321fe366e14613729578063222c211e1461361657806332c7e3b6146132a25780633892750a146130a55780633a02230d146130845780633bcc163014612efc57806342cde4e814612ed85780634f1ef28614612c4d578063513c72f114612c1057806352d1902d14612b7e57806353fac9ad14612ae85780635fd5991914611ea457806364a9788914611d1b578063715018a614611c045780637488e8e714611b2157806379a4753c14611afc57806379ad89e814611ab957806379ba509714611a3f5780638da5cb5b146119f95780638f065f8d1461186b57806390ea46f51461182a5780639d49d672146117205780639f249044146116f9578063ad3cb1cc14611685578063afb915d814611625578063b13590ec1461145e578063be28b7a814610e87578063d46a3ac614610e69578063e30c397814610e23578063ea2ca96314610d3e578063f2fde38b14610c59578063f720fce314610bb8578063fd1bae5814610874578063ff3a35881461082a5763ffb96673146101a6575f80fd5b346108275760c0600319360112610827576101bf613c84565b60a07fffffffffffffffffffffffffffffffffffffffffffffffffffffffffffffffdc360112610825576101f1614627565b6101f9614698565b610201614b80565b9061ffff8216916102128383614ec4565b600881019163ffffffff835460201c161561077857859061023236614325565b6040517f8a9088a300000000000000000000000000000000000000000000000000000000815281516004820152602091820151602482015273__$cd8e5b0fce2a2098a77e7e270995adb554$__9181604481855af490811561081a5784916107fb575b50606435159080806107f4575b80156107da575b1561034a575050507f8a1df8d1089dbf7577f56d95c8833f55846e6aeced87f49135c725f9f177c0fc936103326040946001600160a01b0394600261031e63ffffffff968833165f5284602052895f208360ff198254161790558285015f6001610313848461460e565b50828155015561460e565b5001555b61ffff60035460a01c16886151d6565b5460201c16938251946001865260208601521692a380f35b9193509015151461037d576004877f497231a7000000000000000000000000000000000000000000000000000000008152fd5b61039e6103a49161039561039036614325565b614d35565b600585016145d4565b50613d7b565b6020604051917f2ba6bab9000000000000000000000000000000000000000000000000000000008352805160048401520151602482015260243560448201526044356064820152602081608481855af49081156107cf5787916107a0575b5015610778576001600160a01b0333165f528160205260405f20600160ff1982541617905563ffffffff61043881855416613db1565b167fffffffffffffffffffffffffffffffffffffffffffffffffffffffff0000000084541617835563ffffffff835416906003549161ffff8360a01c168091146104ba575b5050506001600160a01b0363ffffffff7f8a1df8d1089dbf7577f56d95c8833f55846e6aeced87f49135c725f9f177c0fc93610332604094610322565b9187916104c684613fe5565b916104d46040519384613cd2565b8483526104e085613fe5565b90601f1960208501920136833760b01c61ffff1684805b8281106106d55750506040519586947f37d2224c00000000000000000000000000000000000000000000000000000000865260648601906060600488015251809152608486019390875b8181106106b957505050602485015260448401528290039082905af49081156106ae578691610611575b506001820181519167ffffffffffffffff83116105fd576801000000000000000083116105e95760209082548484558085106105ce575b500190875260208720875b8381106105ba575061047d565b6001906020845194019381840155016105ad565b6105e390845f5285845f209182019101613dfa565b5f6105a2565b634e487b7160e01b5f52604160045260245ffd5b602488634e487b7160e01b81526041600452fd5b90503d8087833e6106228183613cd2565b8101906020818303126106a65780519067ffffffffffffffff82116106aa57019080601f830112156106a657815161065981613fe5565b926106676040519485613cd2565b81845260208085019260051b8201019283116106a257602001905b828210610692575050505f61056b565b8151815260209182019101610682565b8880fd5b8680fd5b8780fd5b6040513d88823e3d90fd5b825186528e985089975060209586019590920191600101610541565b90919395506001600160a01b036106ef8298949698613cf5565b90549060031b1c166001600160a01b0381165f528860205260ff60405f205416600381101561076457600192918e918414610736575b505001908b959391969492966104f7565b81526005602052604090205460081c61ffff1661075c610755856140a1565b948a6140dc565b528c5f610725565b60248e634e487b7160e01b81526021600452fd5b6004867f497231a7000000000000000000000000000000000000000000000000000000008152fd5b6107c2915060203d6020116107c8575b6107ba8183613cd2565b810190613d99565b5f610402565b503d6107b0565b6040513d89823e3d90fd5b5063ffffffff87541661ffff60035460a01c1611156102a9565b50816102a2565b610814915060203d6020116107c8576107ba8183613cd2565b5f610295565b6040513d86823e3d90fd5b505b80fd5b5034610827576020600319360112610827576001600160a01b0361084c613c84565b167f80289566e41bae426a6ba7392c3b723699ac38c2b5bbeab84f247b0d5a44a9bd8280a280f35b50346108275760a06003193601126108275761088e613c84565b6024356001600160a01b038116809103610bb4576044356001600160a01b038116809103610bb4576064359061ffff82168203610bb4576084359261ffff84168403610bb4577ff0c57e16840df040f15088dc2f81fe391c3923bec73e23a9662efc9c229c6a00549460ff8660401c16159567ffffffffffffffff811680159081610bac575b6001149081610ba2575b159081610b99575b50610b71578660017fffffffffffffffffffffffffffffffffffffffffffffffff00000000000000008316177ff0c57e16840df040f15088dc2f81fe391c3923bec73e23a9662efc9c229c6a0055610b1c575b506109826157ee565b61098a6157ee565b6001600160a01b03811615610af0576109a2906152f9565b6109aa6157ee565b8552600160205260408520600160ff1982541617905560025460018101809111610adc579075ffff0000000000000000000000000000000000000000916002557fffffffffffffffff00000000000000000000000000000000000000000000000077ffff000000000000000000000000000000000000000000006003549560b01b169416179160a01b16171760035560ff198254168255610a485780f35b7fffffffffffffffffffffffffffffffffffffffffffffff00ffffffffffffffff7ff0c57e16840df040f15088dc2f81fe391c3923bec73e23a9662efc9c229c6a0054167ff0c57e16840df040f15088dc2f81fe391c3923bec73e23a9662efc9c229c6a00557fc7f505b2f371ae2175ee4913f4499e1f2633a7b5936321eed1cdaeb6115181d2602060405160018152a180f35b602486634e487b7160e01b81526011600452fd5b6024877f1e4fbdf700000000000000000000000000000000000000000000000000000000815280600452fd5b7fffffffffffffffffffffffffffffffffffffffffffffff0000000000000000001668010000000000000001177ff0c57e16840df040f15088dc2f81fe391c3923bec73e23a9662efc9c229c6a00555f610979565b6004887ff92ee8a9000000000000000000000000000000000000000000000000000000008152fd5b9050155f610926565b303b15915061091e565b889150610914565b5f80fd5b5034610827576020600319360112610827576001600160a01b03610bda613c84565b610be2614698565b610bea614627565b1681526005602052604081209060405191610c0483613c9a565b549161ffff602060ff8516159283158152019360081c168352610c3157602061ffff835116604051908152f35b807f179e806d0000000000000000000000000000000000000000000000000000000060049252fd5b5034610827576020600319360112610827576001600160a01b03610c7b613c84565b610c83614b21565b16807fffffffffffffffffffffffff00000000000000000000000000000000000000007f237e158222e3e6968b72b9db0d8043aacf074ad9f650f0d1606b4d82ee432c005416177f237e158222e3e6968b72b9db0d8043aacf074ad9f650f0d1606b4d82ee432c00556001600160a01b037f9016d09d72d40fdae2fd8ceac6b6234c7706214fd39c1cd1e609a0528c19930054167f38d16b8cac22d99fc7c124b9cd0de2d3fa1faef420bfe791d8c362d765e227008380a380f35b5034610827576020600319360112610827576001600160a01b03610d60613c84565b610d68614627565b610d70614ac6565b610d786146cc565b16808252600160205260ff604083205416610d91575080f35b600160025414610dfb5780825260016020526040822060ff1981541690556002545f198101908111610de7576002557f91a41cb54dfb87bb7e56c71460111884f994581486eee7500b246b87ff23543a8280a280f35b602483634e487b7160e01b81526011600452fd5b6004827fdf0e465e000000000000000000000000000000000000000000000000000000008152fd5b503461082757806003193601126108275760206001600160a01b037f237e158222e3e6968b72b9db0d8043aacf074ad9f650f0d1606b4d82ee432c005416604051908152f35b50346108275780600319360112610827576020600254604051908152f35b5034610827576020600319360112610827576001600160a01b03610ea9613c84565b610eb1614627565b610eb9614698565b610ec16146cc565b1680156114365780825260076020526040822081835260066020526040832090600b82019060ff8254166006811015611422576005146113f6576020610f09610f4d92613d7b565b6040517f8a9088a300000000000000000000000000000000000000000000000000000000815281516004820152602090910151602482015291829081906044820190565b038173__$cd8e5b0fce2a2098a77e7e270995adb554$__5af49081156113eb5785916113cc575b501580156113a2575b61137a5761ffff60035460b01c1690600160ff19825416179055600882017fffffffffffffffffffffffffffffffffffffffffffffffff00000000ffffffff8154169055610fca816146e3565b600283016020825192610fdd8484614769565b019086526020862086915b83831061133c5750505050610ffc816147e3565b60038301906020815191611010838561489a565b018287526020872087915b83831061131f5750505050845b8281106112fa57505061103a81614393565b60048301602082519261104d8484613e90565b019086526020862086915b8383106112da575050505061106c81614393565b60058301602082519261107f8484613e90565b019086526020862086915b8383106112ba575050505061109e81614a08565b8051600984019167ffffffffffffffff82116112a6576020906110c18385614a60565b01918652602086208160051c91875b8381106112615750601f198116900380611215575b505050506110f4600a91614a08565b91019080519067ffffffffffffffff8211611201576020906111168385614a60565b01918452602084208160051c91855b8381106111bc5750601f198116900380611173575b85857f26f21388e5d2b26dd079f0818b44f6f37c89dbf5950f6e4bfc2bd54301eb6103602061ffff60035460a01c16604051908152a280f35b928593865b81811061118d5750505001555f80808061113a565b90919460206111b26001928489511515919060ff809160031b9316831b921b19161790565b9601929101611178565b86875b602081106111d4575083820155600101611125565b959060206111f86001928985511515919060ff809160031b9316831b921b19161790565b920196016111bf565b602485634e487b7160e01b81526041600452fd5b928793885b8181106112325750505001556110f4600a5f806110e5565b90919460206112576001928489511515919060ff809160031b9316831b921b19161790565b960192910161121a565b88895b602081106112795750838201556001016110d0565b9590602061129d6001928985511515919060ff809160031b9316831b921b19161790565b92019601611264565b602487634e487b7160e01b81526041600452fd5b60026020828160019451805187550151848601550192019201919061108a565b600260208281600194518051875501518486015501920192019190611058565b60019061131961130985614015565b6113138386613d21565b906149e6565b01611028565b6001602082611330839451866148e6565b0192019201919061101b565b60056020828160406001955182815180518a550151878901558281015160028901550151805160038801550151600486015501920192019190610fe8565b6004847f9fbfc589000000000000000000000000000000000000000000000000000000008152fd5b5060ff81541660068110156113b8571515610f7d565b602485634e487b7160e01b81526021600452fd5b6113e5915060203d6020116107c8576107ba8183613cd2565b5f610f74565b6040513d87823e3d90fd5b602485857f1b02ded7000000000000000000000000000000000000000000000000000000008252600452fd5b602486634e487b7160e01b81526021600452fd5b6004827f497231a7000000000000000000000000000000000000000000000000000000008152fd5b503461082757602060031936011261082757611478613c84565b611480614698565b611488614627565b338252600560205260408220604051906114a182613c9a565b5490602061ffff60ff841615938415845260081c169101526115fd576001600160a01b031681526006602052604081209060ff600b8301541660068110156115e957600381036115bd57506114ff63ffffffff600884015416614393565b9080928161ffff60035460b01c16925b83811061152857604051806115248782613d36565b0390f35b6001600160a01b038061153a83613cf5565b90549060031b1c16165f528260205260ff60405f20541660038110156115a95790600191821461156b575b0161150f565b6115a361157b826002870161460e565b5097611592600361158b836140a1565b9a01613d7b565b61159c828a6140dc565b52876140dc565b50611565565b602483634e487b7160e01b81526021600452fd5b602492507f642fee6e000000000000000000000000000000000000000000000000000000008252600452fd5b602482634e487b7160e01b81526021600452fd5b6004827f179e806d000000000000000000000000000000000000000000000000000000008152fd5b50346108275760406003193601126108275761163f613c84565b6024359063ffffffff8216809203611681576001600160a01b03167feca0bbf88a7c4e57f429bd1e6f708ad696c4dd4bd2ec9a50e916868f14abf5a48380a380f35b8280fd5b5034610827578060031936011261082757604080516116a48282613cd2565b60058152601f19601f602083017f352e302e3000000000000000000000000000000000000000000000000000000081528451958694602086525180928160208801528787015e85828601015201168101030190f35b503461082757806003193601126108275760206001600160a01b0360035416604051908152f35b5034610827576020600319360112610827576001600160a01b03611742613c84565b61174a614627565b611752614698565b61175a6146cc565b16808252600660205260408220600b81019060ff82541660068110156113b85780156117fe576005146117d2576117a39061ffff60035460b01c1661179d613f92565b916154d3565b60ff1981541690557fdf933a8df15dc090bc507418777d1c44e6926238d8e2e6594bde03c1da3cfa778280a280f35b602484847f1b02ded7000000000000000000000000000000000000000000000000000000008252600452fd5b602485857ffbf20062000000000000000000000000000000000000000000000000000000008252600452fd5b50346108275760206003193601126108275761152461185f61184a613c84565b611852614698565b61185a614627565b6143ed565b60405191829182613d36565b5034610827576020600319360112610827576001600160a01b0361188d613c84565b82602060405161189c81613c9a565b6040516118a881613c9a565b5f81525f83820152815201526118bc614627565b6118c4614698565b1690818152600660205260ff600b6040832001541660068110156115e9576005146119ce57818152600760205260408120916119046020610f0985613d7b565b038173__$cd8e5b0fce2a2098a77e7e270995adb554$__5af49081156119c35783916119a4575b506119785760608363ffffffff60405161194481613c9a565b602082600261195286613d7b565b958685520154169101908152602060405193805185520151602084015251166040820152f35b602492507ffbf20062000000000000000000000000000000000000000000000000000000008252600452fd5b6119bd915060203d6020116107c8576107ba8183613cd2565b5f61192b565b6040513d85823e3d90fd5b6024917f1b02ded7000000000000000000000000000000000000000000000000000000008252600452fd5b503461082757806003193601126108275760206001600160a01b037f9016d09d72d40fdae2fd8ceac6b6234c7706214fd39c1cd1e609a0528c1993005416604051908152f35b5034610827578060031936011261082757336001600160a01b037f237e158222e3e6968b72b9db0d8043aacf074ad9f650f0d1606b4d82ee432c00541603611a8d57611a8a336152f9565b80f35b807f118cdaa7000000000000000000000000000000000000000000000000000000006024925233600452fd5b503461082757602060031936011261082757600435906004548210156108275760206001600160a01b03611aec84613cf5565b90549060031b1c16604051908152f35b5034610827578060031936011261082757602061ffff60035460b01c16604051908152f35b5034610827576020600319360112610827576001600160a01b03611b43613c84565b611b4b613ffd565b50611b54614627565b611b5c614698565b1690818152600660205260ff600b6040832001541660068110156115e9576005146119ce5781815260076020526040812091611b9c6020610f0985613d7b565b038173__$cd8e5b0fce2a2098a77e7e270995adb554$__5af49081156119c3578391611be5575b50611978576040611bd384613d7b565b60208251918051835201516020820152f35b611bfe915060203d6020116107c8576107ba8183613cd2565b5f611bc3565b5034610827578060031936011261082757611c1d614b21565b7fffffffffffffffffffffffff00000000000000000000000000000000000000007f237e158222e3e6968b72b9db0d8043aacf074ad9f650f0d1606b4d82ee432c0054167f237e158222e3e6968b72b9db0d8043aacf074ad9f650f0d1606b4d82ee432c00555f6001600160a01b037f9016d09d72d40fdae2fd8ceac6b6234c7706214fd39c1cd1e609a0528c199300547fffffffffffffffffffffffff000000000000000000000000000000000000000081167f9016d09d72d40fdae2fd8ceac6b6234c7706214fd39c1cd1e609a0528c19930055167f8be0079c531659141344cd1fd0a4f28419497f9722a3daafe3b4186f6b6457e08280a380f35b50346108275760c060031936011261082757611d35613c84565b60a07fffffffffffffffffffffffffffffffffffffffffffffffffffffffffffffffdc36011261082557611d67614627565b611d6f614698565b611d77614b80565b611d8361039036614325565b60643515611e7c5761ffff1690611d9a8282614ec4565b600881019063ffffffff825460201c16611e54576001600160a01b0363ffffffff7f8a1df8d1089dbf7577f56d95c8833f55846e6aeced87f49135c725f9f177c0fc936103326040948433165f5280602052855f20600160ff1982541617905583611e0781855416613db1565b167fffffffffffffffffffffffffffffffffffffffffffffffffffffffff00000000845416178355611e44611e3b36614325565b6006830161509a565b61ffff60035460b01c16886151d6565b6004857f497231a7000000000000000000000000000000000000000000000000000000008152fd5b6004837f497231a7000000000000000000000000000000000000000000000000000000008152fd5b5034610bb4576040600319360112610bb457611ebe613c84565b60243567ffffffffffffffff8111610bb457806004019160a06003198336030112610bb457611eeb614627565b611ef3614698565b6001600160a01b03811691602b8303611fc757505050816001600160a01b03600354169161030060405190611f288183613cd2565b368237825b60188110611fab5750833b1561168157611f789383926040518096819482937f04bb1c1b000000000000000000000000000000000000000000000000000000008452600484016142ee565b03915afa8015611f9e57611f8b57505080f35b611f9491613cd2565b805f126108275780f35b50604051903d90823e3d90fd5b8192935080611fbc816001946142dd565b520190849291611f2d565b608490611fd8959395949294614627565b611fe0614698565b0190611fec8282614c05565b905061ffff60035460b01c1603612a5957845f52600660205260405f209360ff600b860154166006811015612a815760028103612abd575061202c614b80565b93600986019660ff61203e878a613e10565b90549060031b1c16612a95576001600160a01b0333165f528660205260ff60405f2054166003811015612a8157600103612a595760088701805460201c63ffffffff166128475760038801989760048101945f5b61ffff60035460b01c1681101561212d57806121278d6121218d61211b858f8f988f828b61210a6120f08560019f956120eb6103908360406120e56120dd6121159e61210f9d614c05565b369491614c59565b0161436b565b6145d4565b506121048660406120e56120dd8888614c05565b9061509a565b614c05565b90614c59565b94613d21565b50614088565b90614c91565b01612092565b50945094929850949095966121458861215c92613e10565b819291549060031b9060ff6001831b921b19161790565b90556003549061ffff8260b01c16926003841480612836575b15612509576040516001600160a01b038416926103006121958184613cd2565b3683378a60206121c061ffff6121aa8c6155fd565b93166121b681856140dc565b51518652836140dc565b510151602084015260026121fb8d828c016121db828261460e565b5054604088015260016121ee838361460e565b500154606088015261460e565b500154608084015261ffff612214818860a01c16614ccc565b1661223361ffff61222c6122278b614ce0565b614d0e565b16856142dd565b528c915b878310612332575050509082918b933b1561232e576122879284926040518095819482937f04bb1c1b000000000000000000000000000000000000000000000000000000008452600484016142ee565b03915afa801561232357612305575b5050936122e160409461ffff948563ffffffff957f8a1df8d1089dbf7577f56d95c8833f55846e6aeced87f49135c725f9f177c0fc995b865460201c88166122f957505b1690615658565b5460201c16948251956002875260208701521693a380f35b82915060a01c166122da565b906123139196929396613cd2565b875f126106aa579390875f612296565b6040513d84823e3d90fd5b8380fd5b90919c8d60206123468261210f868a614c05565b01359060050180600511610de757908f929161236290876142dd565b5260406123738361210f868a614c05565b01359061237f8a614d0e565b8360011b93808504600214901517156124f5576123a18461ffff849316613dc9565b916124e157508f6060926123b86123c393896142dd565b5261210f8589614c05565b01356123db8261ffff6123d58c614d0e565b16613dc9565b90600182018092116124cd578f916123f390876142dd565b526123fe90846140dc565b51519d8161240b8a614ce0565b61241490614d0e565b61241d90614d21565b61ffff169061242b91613dc9565b9e5f9f61243890876142dd565b5261244381856140dc565b5160200151916124528a614ce0565b61245b90614d0e565b61246490614d21565b61ffff169061247291613dc9565b600181018091116124cd576124c46124be8361ffff6123d56124b98f966124b2858f8f61210f918f919e60019f612227976124ac916142dd565b52614c05565b3597614cf7565b614d21565b876142dd565b52019190612237565b634e487b7160e01b5f52601160045260245ffd5b80634e487b7160e01b602492526011600452fd5b602482634e487b7160e01b81526011600452fd5b906005841480612825575b156127fd576040516001600160a01b038416916104806125348184613cd2565b3683378a602061254961ffff6121aa8c6155fd565b510151602084015260026125648d828c016121db828261460e565b500154608084015261ffff61257d818860a01c16614ccc565b1661259761ffff6125906122278b614ce0565b1685614cbb565b525f915b87831061267a57505050813b1561267657908a92916080604051937f95a1463f000000000000000000000000000000000000000000000000000000008552600485013783608484015b6024821061265c57505050816105048185935afa80156123235761263e575b5050936122e160409461ffff948563ffffffff957f8a1df8d1089dbf7577f56d95c8833f55846e6aeced87f49135c725f9f177c0fc996122cd565b9061264c9196929396613cd2565b875f126106aa579390875f612603565b825181528d955060209283019260019290920191016125e4565b8a80fd5b90919c8d602061268e8261210f868b614c05565b01359060050180600511610de757908f92916126aa9087614cbb565b5260406126bb8361210f868b614c05565b0135906126c78a614d0e565b8360011b93808504600214901517156124f5576126e98461ffff849316613dc9565b916124e157508f60609261270061270b9389614cbb565b5261210f858a614c05565b013561271d8261ffff6123d58c614d0e565b90600182018092116124cd578f916127359087614cbb565b5261274090846140dc565b51519d8161274d8a614ce0565b61275690614d0e565b61275f90614d21565b61ffff169061276d91613dc9565b9e5f9f61277a9087614cbb565b5261278581856140dc565b5160200151916127948a614ce0565b61279d90614d0e565b6127a690614d21565b61ffff16906127b491613dc9565b600181018091116124cd576127f46127ee8361ffff6123d56124b98f966124b28f61210f8f88928f919e60019f612227976124ac91614cbb565b87614cbb565b5201919061259b565b7f05f7fa12000000000000000000000000000000000000000000000000000000005f5260045ffd5b50600361ffff8460a01c1614612514565b50600261ffff8460a01c1614612175565b9697949161285b8760018b99969901613d21565b90549060031b1c9182156129af57959873__$cd8e5b0fce2a2098a77e7e270995adb554$__986004820198600383019892905f5b61ffff60035460b01c16811015612995579b8c6040829f9e6128c88161210f8f808f916103908897886120e56120dd8761210a96614c05565b0160648251809581937fe0d29faa0000000000000000000000000000000000000000000000000000000083528d600484015260208060248501928035845201359101525af491821561298a578c6121218f61211b8f8f928f61210f899391849261210a6121159560019e8661294f9e5f92612958575b5061294991926145d4565b5061509a565b019c9b9c61288f565b612949925061297d9060403d8111612983575b6129758183613cd2565b810190614c69565b9161293e565b503d61296b565b6040513d5f823e3d90fd5b50969a509694935096509650976121458861215c92613e10565b60a46040517f08c379a000000000000000000000000000000000000000000000000000000000815260206004820152604160248201527f53414645545920434845434b3a20746869732073686f756c64206e657665722060448201527f68617070656e2e2054686973206d65616e73207468657265206973206120627560648201527f67000000000000000000000000000000000000000000000000000000000000006084820152fd5b7f497231a7000000000000000000000000000000000000000000000000000000005f5260045ffd5b634e487b7160e01b5f52602160045260245ffd5b7f9fbfc589000000000000000000000000000000000000000000000000000000005f5260045ffd5b7f642fee6e000000000000000000000000000000000000000000000000000000005f5260045260245ffd5b34610bb4576020600319360112610bb457612b19612b04613c84565b612b0c614627565b612b14614698565b61411f565b6040518091602082016020835281518091526020604084019201905f5b818110612b44575050500390f35b9193509160206080600192826040885180518452828101518385015201518051604084015201516060820152019401910191849392612b36565b34610bb4575f600319360112610bb4576001600160a01b037f0000000000000000000000000000000000000000000000000000000000000000163003612be85760206040517f360894a13ba1a3210667c828492db98dca3e2076cc3735a920a3ca505d382bbc8152f35b7fe07c8dba000000000000000000000000000000000000000000000000000000005f5260045ffd5b34610bb4576020600319360112610bb4576001600160a01b03612c31613c84565b165f526001602052602060ff60405f2054166040519015158152f35b6040600319360112610bb457612c61613c84565b6024359067ffffffffffffffff8211610bb45736602383011215610bb457816004013567ffffffffffffffff81116105e95760405192612cab601f8301601f191660200185613cd2565b8184523660248383010111610bb457815f926024602093018387013784010152612cd3614627565b612cdb614b21565b6001600160a01b038116916040517f52d1902d000000000000000000000000000000000000000000000000000000008152602081600481875afa5f9181612ea4575b50612d4e57837f4c9c8ce3000000000000000000000000000000000000000000000000000000005f5260045260245ffd5b807f360894a13ba1a3210667c828492db98dca3e2076cc3735a920a3ca505d382bbc859203612e795750823b15612e4e57807fffffffffffffffffffffffff00000000000000000000000000000000000000007f360894a13ba1a3210667c828492db98dca3e2076cc3735a920a3ca505d382bbc5416177f360894a13ba1a3210667c828492db98dca3e2076cc3735a920a3ca505d382bbc557fbc7cd75a20ee27fd9adebab32041f755214dbc6bffa90cc0225b39da2e5c2d3b5f80a2805115612e1d57612e1b91615845565b005b505034612e2657005b7fb398979f000000000000000000000000000000000000000000000000000000005f5260045ffd5b7f4c9c8ce3000000000000000000000000000000000000000000000000000000005f5260045260245ffd5b7faa1d49a4000000000000000000000000000000000000000000000000000000005f5260045260245ffd5b9091506020813d602011612ed0575b81612ec060209383613cd2565b81010312610bb457519085612d1d565b3d9150612eb3565b34610bb4575f600319360112610bb457602061ffff60035460a01c16604051908152f35b34610bb4576020600319360112610bb4576001600160a01b03612f1d613c84565b612f25614627565b612f2d614698565b612f356146cc565b16805f52600760205260405f20815f52600660205260405f20600b81019160ff8354166006811015612a815780612abd5750612f756020610f0983613d7b565b038173__$cd8e5b0fce2a2098a77e7e270995adb554$__5af490811561298a575f91613065575b50613039576130089160026005925f81555f6001820155017fffffffffffffffffffffffffffffffffffffffffffffffffffffffff000000008154169055612ff661ffff60035460b01c16612fef613f92565b90836154d3565b613002600182016145ed565b01613e2e565b600560ff198254161790557f80289566e41bae426a6ba7392c3b723699ac38c2b5bbeab84f247b0d5a44a9bd5f80a2005b837ffbf20062000000000000000000000000000000000000000000000000000000005f5260045260245ffd5b61307e915060203d6020116107c8576107ba8183613cd2565b85612f9c565b34610bb4575f600319360112610bb457602060ff5f54166040519015158152f35b34610bb4576020600319360112610bb4576001600160a01b036130c6613c84565b6130ce614627565b6130d6614698565b16805f52600660205260405f2090600b820160ff8154166006811015612a815760038103612abd5750613107614b80565b90600a840160ff6131188483613e10565b90549060031b1c16612a9557826040926131596121457f8a1df8d1089dbf7577f56d95c8833f55846e6aeced87f49135c725f9f177c0fc9661ffff95613e10565b90556008870163ffffffff815460201c169761317481614bbe565b61318d575b5050508251956003875260208701521693a3005b63ffffffff613255928a155f146132655787516131a981613c9a565b6131b560068501613d7b565b8152826002818d60208501905f82525f52600760205260208d5f20955180518755015160018601555116920191167fffffffffffffffffffffffffffffffffffffffffffffffffffffffff000000008254161790555b61321b6004840160058501613f32565b5460201c16887feca0bbf88a7c4e57f429bd1e6f708ad696c4dd4bd2ec9a50e916868f14abf5a45f80a38460035460b01c1661179d613f92565b60ff198154169055868080613179565b895f5260076020526002885f2001828c167fffffffffffffffffffffffffffffffffffffffffffffffffffffffff0000000082541617905561320b565b34610bb4576020600319360112610bb45760043567ffffffffffffffff8111610bb45736602382011215610bb457806004013567ffffffffffffffff8111610bb4576024820191602436918360051b010111610bb457613300614627565b613308614ac6565b613310614b21565b61ffff60035460b01c168082036135eb57505f5b81811061356b57506004545f5b8281106134d05750505f5b60045481101561337557806001600160a01b0361335a600193613cf5565b90549060031b1c165f5260056020525f60408120550161333c565b505f5b61ffff81168281101561341d5760405161ffff929161339682613c9a565b600182526001600160a01b036133bc6133b76020850193808552888a613dd6565b613de6565b165f52600560205260405f209151151560ff60ff198454169116178255517fffffffffffffffffffffffffffffffffffffffffffffffffffffffffff0000ff62ffff0083549260081b1691161790551661ffff81146124cd57600101613378565b82846801000000000000000082116105e95760045482600455808310613496575b509060045f525f5b81811061345b575f805460ff19166001179055005b600190602061346985613de6565b940193817f8a35acfbc15ff81a39ae7d344fd709f28e8600b4aa8c65c6b64bfe7fe36bd19b015501613446565b60045f526134ca907f8a35acfbc15ff81a39ae7d344fd709f28e8600b4aa8c65c6b64bfe7fe36bd19b908101908401613dfa565b8261343e565b60019080831115613565576001600160a01b036134ec82613cf5565b90549060031b1c165b6001600160a01b038061350c6133b785898b613dd6565b16911690810361351e575b5001613331565b6001600160a01b036135346133b784888a613dd6565b169061ffff83167f32d8bdd3774d2fdfb6cdfb8ba11ad024564aaaeea77accaac61c584aded4c2535f80a485613517565b5f6134f5565b600181018082116124cd575b8281106135875750600101613324565b6135986133b7838587959697613dd6565b6001600160a01b03806135af6133b7858988613dd6565b169116146135c35760010192919092613577565b7f06c849db000000000000000000000000000000000000000000000000000000005f5260045ffd5b7fa3b5ca39000000000000000000000000000000000000000000000000000000005f5260045260245ffd5b34610bb4576020600319360112610bb45761362f613c84565b613637614627565b61363f614ac6565b335f52600160205260ff60405f205416336001600160a01b037f9016d09d72d40fdae2fd8ceac6b6234c7706214fd39c1cd1e609a0528c19930054161490159081613720575b506136f8576001600160a01b0316805f52600160205260ff60405f205416156136aa57005b805f52600160205260405f20600160ff19825416179055600254600181018091116124cd576002557fd0b2dc01fde9dadcf94234b55ed077e429dfd7b35d12816e25bae4fcbe2d083c5f80a2005b7f47556579000000000000000000000000000000000000000000000000000000005f5260045ffd5b90501582613685565b34610bb4576020600319360112610bb457613742613c84565b61374a614627565b613752614ac6565b61375a614b21565b6001600160a01b0380600354921691827fffffffffffffffffffffffff0000000000000000000000000000000000000000821617600355167f4caa2f0b6436d44d51dd220c974535ca1ee23334685580038c72d58152b16d455f80a3005b34610bb4576020600319360112610bb4576001600160a01b036137d9613c84565b6137e1614627565b6137e9614698565b6137f16146cc565b16805f52600660205260405f2090600b82019160ff8354166006811015612a815760058114613c5857612a9557815f52600760205260405f206138386020610f0983613d7b565b038173__$cd8e5b0fce2a2098a77e7e270995adb554$__5af490811561298a575f91613c39575b50613c0d5761388163ffffffff600261ffff60035460b01c1693015416613db1565b9361388e600184016145ed565b600160ff1982541617905560088201937fffffffffffffffffffffffffffffffffffffffffffffffff00000000ffffffff67ffffffff0000000086549260201b1691161784556138dd816146e3565b6002830160208251926138f08484614769565b01905f5260205f205f915b838310613bcf575050505061390f816147e3565b60038301906020815191613923838561489a565b01825f5260205f205f915b838310613bb257505050505f5b828110613b9d57505061394d81614393565b6004830160208251926139608484613e90565b01905f5260205f205f915b838310613b7d575050505061397f81614a08565b8051600984019167ffffffffffffffff82116105e9576020906139a28385614a60565b01915f5260205f208160051c915f5b838110613b385750601f198116900380613aec575b505050506139d5600a91614a08565b91019080519067ffffffffffffffff82116105e9576020906139f78385614a60565b01915f5260205f208160051c915f5b838110613aa75750601f198116900380613a5e575b85857f14eaa713eb50a295c5ed8153c207f61790d7389b647d65e96ea38b199f4d79fe602063ffffffff61ffff60035460a01c169454821c1693604051908152a3005b925f935f5b818110613a7857505050015582808080613a1b565b9091946020613a9d6001928489511515919060ff809160031b9316831b921b19161790565b9601929101613a63565b5f5f5b60208110613abf575083820155600101613a06565b95906020613ae36001928985511515919060ff809160031b9316831b921b19161790565b92019601613aaa565b925f935f5b818110613b095750505001556139d5600a86806139c6565b9091946020613b2e6001928489511515919060ff809160031b9316831b921b19161790565b9601929101613af1565b5f5f5b60208110613b505750838201556001016139b1565b95906020613b746001928985511515919060ff809160031b9316831b921b19161790565b92019601613b3b565b60026020828160019451805187550151848601550192019201919061396b565b600190613bac61130985614015565b0161393b565b6001602082613bc3839451866148e6565b0192019201919061392e565b60056020828160406001955182815180518a5501518789015582810151600289015501518051600388015501516004860155019201920191906138fb565b827ffbf20062000000000000000000000000000000000000000000000000000000005f5260045260245ffd5b613c52915060203d6020116107c8576107ba8183613cd2565b8561385f565b827f1b02ded7000000000000000000000000000000000000000000000000000000005f5260045260245ffd5b600435906001600160a01b0382168203610bb457565b6040810190811067ffffffffffffffff8211176105e957604052565b6060810190811067ffffffffffffffff8211176105e957604052565b90601f601f19910116810190811067ffffffffffffffff8211176105e957604052565b600454811015613d0d5760045f5260205f2001905f90565b634e487b7160e01b5f52603260045260245ffd5b8054821015613d0d575f5260205f2001905f90565b60206040818301928281528451809452019201905f5b818110613d595750505090565b8251805185526020908101518186015260409094019390920191600101613d4c565b90604051613d8881613c9a565b602060018294805484520154910152565b90816020910312610bb457518015158103610bb45790565b63ffffffff60019116019063ffffffff82116124cd57565b919082018092116124cd57565b9190811015613d0d5760051b0190565b356001600160a01b0381168103610bb45790565b818110613e05575050565b5f8155600101613dfa565b9190918054831015613d0d575f52601f60205f208360051c01921690565b8054905f815581613e3d575050565b7f7fffffffffffffffffffffffffffffffffffffffffffffffffffffffffffffff821682036124cd575f5260205f209060011b8101905b818110613e7f575050565b5f8082556001820155600201613e74565b6801000000000000000082116105e957805490828155818310613eb257505050565b7f7fffffffffffffffffffffffffffffffffffffffffffffffffffffffffffffff821682036124cd577f7fffffffffffffffffffffffffffffffffffffffffffffffffffffffffffffff831683036124cd575f5260205f209060011b81019160011b015b818110613f21575050565b5f8082556001820155600201613f16565b818114613f8e57815491613f468383613e90565b5f5260205f20905f5260205f205f915b838310613f635750505050565b600280826001938503613f7d575b01920192019190613f56565b805485558381015484860155613f71565b5050565b60405190600454808352826020810160045f5260205f20925f5b818110613fc3575050613fc192500383613cd2565b565b84546001600160a01b0316835260019485019487945060209093019201613fac565b67ffffffffffffffff81116105e95760051b60200190565b6040519061400a82613c9a565b5f6020838281520152565b9061401f82613fe5565b61402c6040519182613cd2565b828152601f1961403c8294613fe5565b01905f5b82811061404c57505050565b60209060405161405b81613cb6565b5f81525f8382015260405161406f81613c9a565b5f81525f84820152604082015282828501015201614040565b8054821015613d0d575f5260205f209060021b01905f90565b5f1981146124cd5760010190565b805115613d0d5760200190565b805160011015613d0d5760400190565b805160021015613d0d5760600190565b8051821015613d0d5760209160051b010190565b906040516140fd81613cb6565b604061411a60028395805485526001810154602086015201613d7b565b910152565b335f52600560205260405f20906040519161413983613c9a565b549161ffff602060ff8516159283158152019360081c1683526142b5576001600160a01b03165f52600660205260405f2060ff600b820154166006811015612a815760038103612abd5750600881015460201c63ffffffff166141ff57600361ffff6141a89351169101613d21565b5080546141b481613fe5565b916141c26040519384613cd2565b81835260208301905f5260205f205f915b8383106141e1575050505090565b600460206001926141f1856140f0565b8152019201920191906141d3565b60035461421261ffff8260a01c16614015565b925f61ffff5f9360b01c16925b83811061422e57505050505090565b6001600160a01b038061424083613cf5565b90549060031b1c16165f528460205260ff60405f205416906003821015612a81576001918214614271575b0161421f565b6142af61428a8261211b61ffff88511660038b01613d21565b509361429e614298826140a1565b956140f0565b6142a8828b6140dc565b52886140dc565b5061426b565b7f179e806d000000000000000000000000000000000000000000000000000000005f5260045ffd5b906018811015613d0d5760051b0190565b60809093929193816103808201958237015f905b6018821061430f57505050565b6020806001928551815201930191019091614302565b7fffffffffffffffffffffffffffffffffffffffffffffffffffffffffffffffdc6040910112610bb4576040519061435c82613c9a565b60243582526044356020830152565b9190826040910312610bb45760405161438381613c9a565b6020808294803584520135910152565b9061439d82613fe5565b6143aa6040519182613cd2565b828152601f196143ba8294613fe5565b01905f5b8281106143ca57505050565b6020906040516143d981613c9a565b5f81525f83820152828285010152016143be565b6001600160a01b03811680602c146145a757602b0361458b575060405161441381613c9a565b7f1c58c52bbf3356d04d8f4c4182392de66a28aaf9a5cdab1f3e0f8cd47c14886881527f25bc1adf6b8cb4b6eff334b2b164df876bdf124c621ee8de555c9085d344dde8602082015260405161446881613c9a565b7f03bb75e80a39e8afcee4f396477440968975a58b1a5f2222f48e7895bf4d553781527f2d21805332ed46c9a5b57834e87c0395bc07a7c4ded911184427cc0c1cae8e376020820152604051906144be82613c9a565b7e66c9114c24ee2c19d1f994df7870948a33058ed2d8cbef9c2e4dac58fc154e82527f24f24561eb1defd2913e752e1deeef1aacfef6ef46a4a0360e2a0ed5a3b84a0b60208301526040519260806145168186613cd2565b60038552601f19015f5b818110614568575050614532846140af565b5261453c836140af565b50614546836140bc565b52614550826140bc565b5061455a826140cc565b52614564816140cc565b5090565b60209060405161457781613c9a565b5f81525f8382015282828901015201614520565b6145a490614597614698565b61459f614627565b6153fb565b90565b7f642fee6e000000000000000000000000000000000000000000000000000000005f52600360045260245ffd5b8054821015613d0d575f5260205f209060011b01905f90565b80545f8255806145fb575050565b613fc1915f5260205f2090810190613dfa565b8054821015613d0d575f52600560205f20910201905f90565b6001600160a01b037f000000000000000000000000000000000000000000000000000000000000000016803014908115614663575b50612be857565b90506001600160a01b037f360894a13ba1a3210667c828492db98dca3e2076cc3735a920a3ca505d382bbc541614155f61465c565b60ff5f5416156146a457565b7f9488aaa6000000000000000000000000000000000000000000000000000000005f5260045ffd5b335f52600160205260ff60405f205416156136f857565b906146ed82613fe5565b6146fa6040519182613cd2565b828152601f1961470a8294613fe5565b01905f5b82811061471a57505050565b60209060405161472981613cb6565b60405161473581613c9a565b5f81525f8482015281525f8382015260405161475081613c9a565b5f81525f8482015260408201528282850101520161470e565b906801000000000000000081116105e95781549181815582821061478c57505050565b826005029260058404036124cd57816005029160058304036124cd575f5260205f2091820191015b8181106147bf575050565b6005905f81555f60018201555f60028201555f60038201555f6004820155016147b4565b906147ed82613fe5565b6147fa6040519182613cd2565b828152601f1961480a8294613fe5565b01905f5b82811061481a57505050565b80606060208093850101520161480e565b8054905f81558161483a575050565b7f3fffffffffffffffffffffffffffffffffffffffffffffffffffffffffffffff821682036124cd575f5260205f209060021b8101905b81811061487c575050565b805f600492555f60018201555f60028201555f600382015501614871565b906801000000000000000081116105e9578154918181558282106148bd57505050565b5f5260205f2091820191015b8181106148d4575050565b806148e060019261482b565b016148c9565b8151916801000000000000000083116105e9578154838355808410614955575b50602001905f5260205f205f915b8383106149215750505050565b6004602082816040600195518051885582810151878901550151805160028801550151600386015501920192019190614914565b7f3fffffffffffffffffffffffffffffffffffffffffffffffffffffffffffffff811681036124cd577f3fffffffffffffffffffffffffffffffffffffffffffffffffffffffffffffff841684036124cd57825f5260205f209060021b8101908460021b015b8181106149c85750614906565b805f600492555f60018201555f60028201555f6003820155016149bb565b91906149f557613fc1916148e6565b634e487b7160e01b5f525f60045260245ffd5b90614a1282613fe5565b614a1f6040519182613cd2565b828152601f19614a2f8294613fe5565b0190602036910137565b80545f825580614a47575050565b613fc1915f52601f60205f20910160051c810190613dfa565b906801000000000000000081116105e9578154818355808210614a8257505050565b613fc1925f52601f60205f20918180850160051c8401941680614aac575b500160051c0190613dfa565b5f198501905f1982549160200360031b1c1690555f614aa0565b67ffffffffffffffff7ff0c57e16840df040f15088dc2f81fe391c3923bec73e23a9662efc9c229c6a00541615614af957565b7f0206032a000000000000000000000000000000000000000000000000000000005f5260045ffd5b6001600160a01b037f9016d09d72d40fdae2fd8ceac6b6234c7706214fd39c1cd1e609a0528c19930054163303614b5457565b7f118cdaa7000000000000000000000000000000000000000000000000000000005f523360045260245ffd5b335f52600560205260405f2060405190614b9982613c9a565b549061ffff602060ff8416159283158152019260081c1682526142b5575161ffff1690565b60035460b01c61ffff16905f5b828110614bda57505050600190565b60ff614be982600a8501613e10565b90549060031b1c1615614bfe57600101614bcb565b5050505f90565b9035907fffffffffffffffffffffffffffffffffffffffffffffffffffffffffffffffe181360301821215610bb4570180359067ffffffffffffffff8211610bb457602001918160071b36038313610bb457565b9190811015613d0d5760071b0190565b90816040910312610bb457602060405191614c8383613c9a565b805183520151602082015290565b91906149f55760608160039235845560208101356001850155604081013560028501550135910155565b906024811015613d0d5760051b0190565b61ffff5f199116019061ffff82116124cd57565b61ffff60039116029061ffff82169182036124cd57565b61ffff60059116029061ffff82169182036124cd57565b61ffff166005019061ffff82116124cd57565b61ffff60019116019061ffff82116124cd57565b6040517fe8c8742800000000000000000000000000000000000000000000000000000000815281516004820152602080830151602483015290919073__$cd8e5b0fce2a2098a77e7e270995adb554$__9083604481845af492831561298a575f93614ea3575b508215614e2b575b8215614db2575b5050612a5957565b6040517fe128c1aa0000000000000000000000000000000000000000000000000000000081528251600482015260209283015160248201529250829060449082905af490811561298a575f91614e0c575b50155f80614daa565b614e25915060203d6020116107c8576107ba8183613cd2565b5f614e03565b6040517f8071469c0000000000000000000000000000000000000000000000000000000081528251600482015260208084015160248301529193509081604481865af490811561298a575f91614e84575b501591614da3565b614e9d915060203d6020116107c8576107ba8183613cd2565b5f614e7c565b614ebd91935060203d6020116107c8576107ba8183613cd2565b915f614d9b565b6001600160a01b0390614edb61039036608461436b565b165f52600660205260405f209060ff600b830154166006811015612a815760018103612abd5750915f9073__$cd8e5b0fce2a2098a77e7e270995adb554$__9060028401906084359460a435945b61ffff60035460b01c16811015614fd557614f44818561460e565b50614f87604051917f2ba6bab900000000000000000000000000000000000000000000000000000000835260036004840191016001602091805484520154910152565b876044820152866064820152602081608481895af490811561298a575f91614fb7575b50612a5957600101614f29565b614fcf915060203d81116107c8576107ba8183613cd2565b5f614faa565b509492602061503491979297614fee61039e858761460e565b9060405180809581947f8a9088a3000000000000000000000000000000000000000000000000000000008352600483019190916020806040830194805184520151910152565b03915af490811561298a575f9161507b575b5015612a95576150559161460e565b6149f5576004916024358255604435600183015560643560028301556003820155015590565b615094915060203d6020116107c8576107ba8183613cd2565b5f615046565b906150a482613d7b565b6040517f8a9088a300000000000000000000000000000000000000000000000000000000815281516004820152602091820151602482015273__$cd8e5b0fce2a2098a77e7e270995adb554$__929181604481865af490811561298a575f916151b7575b506151a55760206084604092835194859384927f9679db0d000000000000000000000000000000000000000000000000000000008452615156600485018a6001602091805484520154910152565b80516044850152015160648301525af490811561298a576001916020915f91615186575b50805184550151910155565b61519f915060403d604011612983576129758183613cd2565b5f61517a565b60019150806020915184550151910155565b6151d0915060203d6020116107c8576107ba8183613cd2565b5f615108565b90600b83019260ff8454166006811015612a81576001036152f3576151fa81615793565b156152f357600881019163ffffffff835416105f1461524f5750506001600160a01b03167ffc3b5c81fbd3f5eaaf811aef4c5147873723d4d017233e4a5513fc05f02da9435f80a2600460ff19825416179055565b909192600260ff19825416179055600461527161ffff60035460b01c16614393565b910160208251926152828484613e90565b01905f5260205f205f915b8383106152d3575050505063ffffffff6001600160a01b03915460201c1691167fa5af724b9b00615e3776eacfb6aaed5a999936645a0d9486067ebaaaf1f746085f80a3565b60026020828160019451805187550151848601550192019201919061528d565b50505050565b7fffffffffffffffffffffffff00000000000000000000000000000000000000007f237e158222e3e6968b72b9db0d8043aacf074ad9f650f0d1606b4d82ee432c0054167f237e158222e3e6968b72b9db0d8043aacf074ad9f650f0d1606b4d82ee432c00556001600160a01b03807f9016d09d72d40fdae2fd8ceac6b6234c7706214fd39c1cd1e609a0528c19930054921691827fffffffffffffffffffffffff00000000000000000000000000000000000000008216177f9016d09d72d40fdae2fd8ceac6b6234c7706214fd39c1cd1e609a0528c19930055167f8be0079c531659141344cd1fd0a4f28419497f9722a3daafe3b4186f6b6457e05f80a3565b335f52600560205260405f206040519061541482613c9a565b5490602061ffff60ff841615938415845260081c169101526142b5576001600160a01b03165f52600660205260405f2060ff600b820154166006811015612a815760028103612abd57506001600160a01b0333165f528060205260ff60405f2054166003811015612a815760010361548f576145a4906155fd565b5060405161549e602082613cd2565b5f81525f805b8181106154b057505090565b6020906040516154bf81613c9a565b5f81525f83820152828286010152016154a4565b909291925f60068301555f60078301556154ef60098301614a39565b6154fb600a8301614a39565b600282018054905f8155816155b8575b5050600382018054905f815581615593575b5050600882017fffffffffffffffffffffffffffffffffffffffffffffffff000000000000000081541690555f5b818110615562575050613fc1919250600401613e2e565b806001600160a01b0380615578600194896140dc565b5116165f528360205260405f2060ff1981541690550161554b565b5f5260205f20908101905b8181101561551d57806155b260019261482b565b0161559e565b816005029160058304036124cd575f5260205f20908101905b8181101561550b576005905f81555f60018201555f60028201555f60038201555f6004820155016155d1565b61ffff60035460b01c1661561081614393565b915f5b8281106156205750505090565b8061563c60036156356001946002870161460e565b5001613d7b565b61564682876140dc565b5261565181866140dc565b5001615613565b90600b83019060ff8254166006811015612a81576002036152f3576003545f9060b01c61ffff1660098601825b828110615760575050500361575b57805460ff19166003179055600882015460201c63ffffffff1691826156e557506001600160a01b039150167f7f44e24aecdf5952e755e1b91c7a7e576343b3764b9e08161a629f2898b4d80f5f80a2565b60010190604051906020820160208352835480915260408301935f5260205f20905f5b8181106157455750505090806001600160a01b037f76a6be7fc584ce6005b8f9e767f06b6684986dd5768e774c15d9c5af5a45a3049316930390a3565b8254865260209095019460019283019201615708565b505050565b60ff61576c8284613e10565b90549060031b1c16615781575b600101615685565b92600181018091116124cd5792615779565b60035460b01c61ffff16905f5b8281106157af57505050600190565b6001600160a01b03806157c183613cf5565b90549060031b1c16165f528160205260ff60405f2054166003811015612a815715614bfe576001016157a0565b60ff7ff0c57e16840df040f15088dc2f81fe391c3923bec73e23a9662efc9c229c6a005460401c161561581d57565b7fd7e6bcf8000000000000000000000000000000000000000000000000000000005f5260045ffd5b905f8091602081519101845af480806158ec575b156158795750506040513d81523d5f602083013e60203d82010160405290565b156158b3576001600160a01b03907f9996b315000000000000000000000000000000000000000000000000000000005f521660045260245ffd5b3d156158c4576040513d5f823e3d90fd5b7fd6bda275000000000000000000000000000000000000000000000000000000005f5260045ffd5b503d1515806158595750813b151561585956fea26469706673582212206350ebd01c7d092e8bc2800fe112f446e89534605efe43e4ad9002aa732feb6264736f6c634300081e0033f0c57e16840df040f15088dc2f81fe391c3923bec73e23a9662efc9c229c6a00","linkReferences":{"src/BabyJubJub.sol":{"BabyJubJub":[{"start":819,"length":20},{"start":4120,"length":20},{"start":6607,"length":20},{"start":7271,"length":20},{"start":10548,"length":20},{"start":12352,"length":20},{"start":14595,"length":20},{"start":20025,"length":20},{"start":20430,"length":20},{"start":20901,"length":20}]}}},"methodIdentifiers":{"UPGRADE_INTERFACE_VERSION()":"ad3cb1cc","abortKeyGen(uint160)":"9d49d672","acceptOwnership()":"79ba5097","addKeyGenAdmin(address)":"222c211e","addRound1KeyGenContribution(uint160,((uint256,uint256),uint256,(uint256,uint256)))":"64a97889","addRound1ReshareContribution(uint160,((uint256,uint256),uint256,(uint256,uint256)))":"ffb96673","addRound2Contribution(uint160,(uint256[4],(uint256,uint256,(uint256,uint256))[]))":"5fd59919","addRound3Contribution(uint160)":"3892750a","amountKeygenAdmins()":"d46a3ac6","changeVerifierContract(address)":"21fe366e","checkIsParticipantAndReturnRound2Ciphers(uint160)":"53fac9ad","deleteOprfPublicKey(uint160)":"3bcc1630","emitDeleteEvent(uint160)":"ff3a3588","emitSecretGenFinalize(uint160,uint32)":"afb915d8","getOprfPublicKey(uint160)":"7488e8e7","getOprfPublicKeyAndEpoch(uint160)":"8f065f8d","getPartyIdForParticipant(address)":"f720fce3","initKeyGen(uint160)":"be28b7a8","initReshare(uint160)":"1acc6e09","initialize(address,address,address,uint16,uint16)":"fd1bae58","isContractReady()":"3a02230d","keyGenVerifier()":"9f249044","keygenAdmins(address)":"513c72f1","loadPeerPublicKeysForConsumers(uint160)":"b13590ec","loadPeerPublicKeysForProducers(uint160)":"90ea46f5","numPeers()":"79a4753c","owner()":"8da5cb5b","peerAddresses(uint256)":"79ad89e8","pendingOwner()":"e30c3978","proxiableUUID()":"52d1902d","registerOprfPeers(address[])":"32c7e3b6","renounceOwnership()":"715018a6","revokeKeyGenAdmin(address)":"ea2ca963","threshold()":"42cde4e8","transferOwnership(address)":"f2fde38b","upgradeToAndCall(address,bytes)":"4f1ef286"},"storageLayout":{"storage":[{"astId":45560,"contract":"test/TestOprfKeyRegistry.sol:TestOprfKeyRegistry","label":"isContractReady","offset":0,"slot":"0","type":"t_bool"},{"astId":45564,"contract":"test/TestOprfKeyRegistry.sol:TestOprfKeyRegistry","label":"keygenAdmins","offset":0,"slot":"1","type":"t_mapping(t_address,t_bool)"},{"astId":45566,"contract":"test/TestOprfKeyRegistry.sol:TestOprfKeyRegistry","label":"amountKeygenAdmins","offset":0,"slot":"2","type":"t_uint256"},{"astId":45568,"contract":"test/TestOprfKeyRegistry.sol:TestOprfKeyRegistry","label":"keyGenVerifier","offset":0,"slot":"3","type":"t_address"},{"astId":45570,"contract":"test/TestOprfKeyRegistry.sol:TestOprfKeyRegistry","label":"threshold","offset":20,"slot":"3","type":"t_uint16"},{"astId":45572,"contract":"test/TestOprfKeyRegistry.sol:TestOprfKeyRegistry","label":"numPeers","offset":22,"slot":"3","type":"t_uint16"},{"astId":45575,"contract":"test/TestOprfKeyRegistry.sol:TestOprfKeyRegistry","label":"peerAddresses","offset":0,"slot":"4","type":"t_array(t_address)dyn_storage"},{"astId":45580,"contract":"test/TestOprfKeyRegistry.sol:TestOprfKeyRegistry","label":"addressToPeer","offset":0,"slot":"5","type":"t_mapping(t_address,t_struct(OprfPeer)44951_storage)"},{"astId":45585,"contract":"test/TestOprfKeyRegistry.sol:TestOprfKeyRegistry","label":"runningKeyGens","offset":0,"slot":"6","type":"t_mapping(t_uint160,t_struct(OprfKeyGenState)45025_storage)"},{"astId":45590,"contract":"test/TestOprfKeyRegistry.sol:TestOprfKeyRegistry","label":"oprfKeyRegistry","offset":0,"slot":"7","type":"t_mapping(t_uint160,t_struct(RegisteredOprfPublicKey)44957_storage)"}],"types":{"t_address":{"encoding":"inplace","label":"address","numberOfBytes":"20"},"t_array(t_address)dyn_storage":{"encoding":"dynamic_array","label":"address[]","numberOfBytes":"32","base":"t_address"},"t_array(t_array(t_struct(SecretGenCiphertext)44983_storage)dyn_storage)dyn_storage":{"encoding":"dynamic_array","label":"struct OprfKeyGen.SecretGenCiphertext[][]","numberOfBytes":"32","base":"t_array(t_struct(SecretGenCiphertext)44983_storage)dyn_storage"},"t_array(t_bool)dyn_storage":{"encoding":"dynamic_array","label":"bool[]","numberOfBytes":"32","base":"t_bool"},"t_array(t_struct(Affine)43447_storage)dyn_storage":{"encoding":"dynamic_array","label":"struct BabyJubJub.Affine[]","numberOfBytes":"32","base":"t_struct(Affine)43447_storage"},"t_array(t_struct(Round1Contribution)44966_storage)dyn_storage":{"encoding":"dynamic_array","label":"struct OprfKeyGen.Round1Contribution[]","numberOfBytes":"32","base":"t_struct(Round1Contribution)44966_storage"},"t_array(t_struct(SecretGenCiphertext)44983_storage)dyn_storage":{"encoding":"dynamic_array","label":"struct OprfKeyGen.SecretGenCiphertext[]","numberOfBytes":"32","base":"t_struct(SecretGenCiphertext)44983_storage"},"t_array(t_uint256)dyn_storage":{"encoding":"dynamic_array","label":"uint256[]","numberOfBytes":"32","base":"t_uint256"},"t_bool":{"encoding":"inplace","label":"bool","numberOfBytes":"1"},"t_enum(KeyGenRole)44939":{"encoding":"inplace","label":"enum OprfKeyGen.KeyGenRole","numberOfBytes":"1"},"t_enum(Round)44946":{"encoding":"inplace","label":"enum OprfKeyGen.Round","numberOfBytes":"1"},"t_mapping(t_address,t_bool)":{"encoding":"mapping","key":"t_address","label":"mapping(address => bool)","numberOfBytes":"32","value":"t_bool"},"t_mapping(t_address,t_enum(KeyGenRole)44939)":{"encoding":"mapping","key":"t_address","label":"mapping(address => enum OprfKeyGen.KeyGenRole)","numberOfBytes":"32","value":"t_enum(KeyGenRole)44939"},"t_mapping(t_address,t_struct(OprfPeer)44951_storage)":{"encoding":"mapping","key":"t_address","label":"mapping(address => struct OprfKeyGen.OprfPeer)","numberOfBytes":"32","value":"t_struct(OprfPeer)44951_storage"},"t_mapping(t_uint160,t_struct(OprfKeyGenState)45025_storage)":{"encoding":"mapping","key":"t_uint160","label":"mapping(uint160 => struct OprfKeyGen.OprfKeyGenState)","numberOfBytes":"32","value":"t_struct(OprfKeyGenState)45025_storage"},"t_mapping(t_uint160,t_struct(RegisteredOprfPublicKey)44957_storage)":{"encoding":"mapping","key":"t_uint160","label":"mapping(uint160 => struct OprfKeyGen.RegisteredOprfPublicKey)","numberOfBytes":"32","value":"t_struct(RegisteredOprfPublicKey)44957_storage"},"t_struct(Affine)43447_storage":{"encoding":"inplace","label":"struct BabyJubJub.Affine","numberOfBytes":"64","members":[{"astId":43444,"contract":"test/TestOprfKeyRegistry.sol:TestOprfKeyRegistry","label":"x","offset":0,"slot":"0","type":"t_uint256"},{"astId":43446,"contract":"test/TestOprfKeyRegistry.sol:TestOprfKeyRegistry","label":"y","offset":0,"slot":"1","type":"t_uint256"}]},"t_struct(OprfKeyGenState)45025_storage":{"encoding":"inplace","label":"struct OprfKeyGen.OprfKeyGenState","numberOfBytes":"384","members":[{"astId":44988,"contract":"test/TestOprfKeyRegistry.sol:TestOprfKeyRegistry","label":"nodeRoles","offset":0,"slot":"0","type":"t_mapping(t_address,t_enum(KeyGenRole)44939)"},{"astId":44991,"contract":"test/TestOprfKeyRegistry.sol:TestOprfKeyRegistry","label":"lagrangeCoeffs","offset":0,"slot":"1","type":"t_array(t_uint256)dyn_storage"},{"astId":44995,"contract":"test/TestOprfKeyRegistry.sol:TestOprfKeyRegistry","label":"round1","offset":0,"slot":"2","type":"t_array(t_struct(Round1Contribution)44966_storage)dyn_storage"},{"astId":45000,"contract":"test/TestOprfKeyRegistry.sol:TestOprfKeyRegistry","label":"round2","offset":0,"slot":"3","type":"t_array(t_array(t_struct(SecretGenCiphertext)44983_storage)dyn_storage)dyn_storage"},{"astId":45004,"contract":"test/TestOprfKeyRegistry.sol:TestOprfKeyRegistry","label":"shareCommitments","offset":0,"slot":"4","type":"t_array(t_struct(Affine)43447_storage)dyn_storage"},{"astId":45008,"contract":"test/TestOprfKeyRegistry.sol:TestOprfKeyRegistry","label":"prevShareCommitments","offset":0,"slot":"5","type":"t_array(t_struct(Affine)43447_storage)dyn_storage"},{"astId":45011,"contract":"test/TestOprfKeyRegistry.sol:TestOprfKeyRegistry","label":"keyAggregate","offset":0,"slot":"6","type":"t_struct(Affine)43447_storage"},{"astId":45013,"contract":"test/TestOprfKeyRegistry.sol:TestOprfKeyRegistry","label":"numProducers","offset":0,"slot":"8","type":"t_uint32"},{"astId":45015,"contract":"test/TestOprfKeyRegistry.sol:TestOprfKeyRegistry","label":"generatedEpoch","offset":4,"slot":"8","type":"t_uint32"},{"astId":45018,"contract":"test/TestOprfKeyRegistry.sol:TestOprfKeyRegistry","label":"round2Done","offset":0,"slot":"9","type":"t_array(t_bool)dyn_storage"},{"astId":45021,"contract":"test/TestOprfKeyRegistry.sol:TestOprfKeyRegistry","label":"round3Done","offset":0,"slot":"10","type":"t_array(t_bool)dyn_storage"},{"astId":45024,"contract":"test/TestOprfKeyRegistry.sol:TestOprfKeyRegistry","label":"currentRound","offset":0,"slot":"11","type":"t_enum(Round)44946"}]},"t_struct(OprfPeer)44951_storage":{"encoding":"inplace","label":"struct OprfKeyGen.OprfPeer","numberOfBytes":"32","members":[{"astId":44948,"contract":"test/TestOprfKeyRegistry.sol:TestOprfKeyRegistry","label":"isParticipant","offset":0,"slot":"0","type":"t_bool"},{"astId":44950,"contract":"test/TestOprfKeyRegistry.sol:TestOprfKeyRegistry","label":"partyId","offset":1,"slot":"0","type":"t_uint16"}]},"t_struct(RegisteredOprfPublicKey)44957_storage":{"encoding":"inplace","label":"struct OprfKeyGen.RegisteredOprfPublicKey","numberOfBytes":"96","members":[{"astId":44954,"contract":"test/TestOprfKeyRegistry.sol:TestOprfKeyRegistry","label":"key","offset":0,"slot":"0","type":"t_struct(Affine)43447_storage"},{"astId":44956,"contract":"test/TestOprfKeyRegistry.sol:TestOprfKeyRegistry","label":"epoch","offset":0,"slot":"2","type":"t_uint32"}]},"t_struct(Round1Contribution)44966_storage":{"encoding":"inplace","label":"struct OprfKeyGen.Round1Contribution","numberOfBytes":"160","members":[{"astId":44960,"contract":"test/TestOprfKeyRegistry.sol:TestOprfKeyRegistry","label":"commShare","offset":0,"slot":"0","type":"t_struct(Affine)43447_storage"},{"astId":44962,"contract":"test/TestOprfKeyRegistry.sol:TestOprfKeyRegistry","label":"commCoeffs","offset":0,"slot":"2","type":"t_uint256"},{"astId":44965,"contract":"test/TestOprfKeyRegistry.sol:TestOprfKeyRegistry","label":"ephPubKey","offset":0,"slot":"3","type":"t_struct(Affine)43447_storage"}]},"t_struct(SecretGenCiphertext)44983_storage":{"encoding":"inplace","label":"struct OprfKeyGen.SecretGenCiphertext","numberOfBytes":"128","members":[{"astId":44977,"contract":"test/TestOprfKeyRegistry.sol:TestOprfKeyRegistry","label":"nonce","offset":0,"slot":"0","type":"t_uint256"},{"astId":44979,"contract":"test/TestOprfKeyRegistry.sol:TestOprfKeyRegistry","label":"cipher","offset":0,"slot":"1","type":"t_uint256"},{"astId":44982,"contract":"test/TestOprfKeyRegistry.sol:TestOprfKeyRegistry","label":"commitment","offset":0,"slot":"2","type":"t_struct(Affine)43447_storage"}]},"t_uint16":{"encoding":"inplace","label":"uint16","numberOfBytes":"2"},"t_uint160":{"encoding":"inplace","label":"uint160","numberOfBytes":"20"},"t_uint256":{"encoding":"inplace","label":"uint256","numberOfBytes":"32"},"t_uint32":{"encoding":"inplace","label":"uint32","numberOfBytes":"4"}}},"id":67}