{"abi":[{"type":"function","name":"UPGRADE_INTERFACE_VERSION","inputs":[],"outputs":[{"name":"","type":"string","internalType":"string"}],"stateMutability":"view"},{"type":"function","name":"abortKeyGen","inputs":[{"name":"oprfKeyId","type":"uint160","internalType":"uint160"}],"outputs":[],"stateMutability":"nonpayable"},{"type":"function","name":"acceptOwnership","inputs":[],"outputs":[],"stateMutability":"nonpayable"},{"type":"function","name":"addKeyGenAdmin","inputs":[{"name":"_keygenAdmin","type":"address","internalType":"address"}],"outputs":[],"stateMutability":"nonpayable"},{"type":"function","name":"addRound1KeyGenContribution","inputs":[{"name":"oprfKeyId","type":"uint160","internalType":"uint160"},{"name":"data","type":"tuple","internalType":"struct OprfKeyGen.Round1Contribution","components":[{"name":"commShare","type":"tuple","internalType":"struct BabyJubJub.Affine","components":[{"name":"x","type":"uint256","internalType":"uint256"},{"name":"y","type":"uint256","internalType":"uint256"}]},{"name":"commCoeffs","type":"uint256","internalType":"uint256"},{"name":"ephPubKey","type":"tuple","internalType":"struct BabyJubJub.Affine","components":[{"name":"x","type":"uint256","internalType":"uint256"},{"name":"y","type":"uint256","internalType":"uint256"}]}]}],"outputs":[],"stateMutability":"nonpayable"},{"type":"function","name":"addRound1ReshareContribution","inputs":[{"name":"oprfKeyId","type":"uint160","internalType":"uint160"},{"name":"data","type":"tuple","internalType":"struct OprfKeyGen.Round1Contribution","components":[{"name":"commShare","type":"tuple","internalType":"struct BabyJubJub.Affine","components":[{"name":"x","type":"uint256","internalType":"uint256"},{"name":"y","type":"uint256","internalType":"uint256"}]},{"name":"commCoeffs","type":"uint256","internalType":"uint256"},{"name":"ephPubKey","type":"tuple","internalType":"struct BabyJubJub.Affine","components":[{"name":"x","type":"uint256","internalType":"uint256"},{"name":"y","type":"uint256","internalType":"uint256"}]}]}],"outputs":[],"stateMutability":"nonpayable"},{"type":"function","name":"addRound2Contribution","inputs":[{"name":"oprfKeyId","type":"uint160","internalType":"uint160"},{"name":"data","type":"tuple","internalType":"struct OprfKeyGen.Round2Contribution","components":[{"name":"compressedProof","type":"uint256[4]","internalType":"uint256[4]"},{"name":"ciphers","type":"tuple[]","internalType":"struct OprfKeyGen.SecretGenCiphertext[]","components":[{"name":"nonce","type":"uint256","internalType":"uint256"},{"name":"cipher","type":"uint256","internalType":"uint256"},{"name":"commitment","type":"tuple","internalType":"struct BabyJubJub.Affine","components":[{"name":"x","type":"uint256","internalType":"uint256"},{"name":"y","type":"uint256","internalType":"uint256"}]}]}]}],"outputs":[],"stateMutability":"nonpayable"},{"type":"function","name":"addRound3Contribution","inputs":[{"name":"oprfKeyId","type":"uint160","internalType":"uint160"}],"outputs":[],"stateMutability":"nonpayable"},{"type":"function","name":"amountKeygenAdmins","inputs":[],"outputs":[{"name":"","type":"uint256","internalType":"uint256"}],"stateMutability":"view"},{"type":"function","name":"checkIsParticipantAndReturnRound2Ciphers","inputs":[{"name":"oprfKeyId","type":"uint160","internalType":"uint160"}],"outputs":[{"name":"","type":"tuple[]","internalType":"struct OprfKeyGen.SecretGenCiphertext[]","components":[{"name":"nonce","type":"uint256","internalType":"uint256"},{"name":"cipher","type":"uint256","internalType":"uint256"},{"name":"commitment","type":"tuple","internalType":"struct BabyJubJub.Affine","components":[{"name":"x","type":"uint256","internalType":"uint256"},{"name":"y","type":"uint256","internalType":"uint256"}]}]}],"stateMutability":"view"},{"type":"function","name":"deleteOprfPublicKey","inputs":[{"name":"oprfKeyId","type":"uint160","internalType":"uint160"}],"outputs":[],"stateMutability":"nonpayable"},{"type":"function","name":"emitDeleteEvent","inputs":[{"name":"oprfKeyId","type":"uint160","internalType":"uint160"}],"outputs":[],"stateMutability":"nonpayable"},{"type":"function","name":"getOprfPublicKey","inputs":[{"name":"oprfKeyId","type":"uint160","internalType":"uint160"}],"outputs":[{"name":"","type":"tuple","internalType":"struct BabyJubJub.Affine","components":[{"name":"x","type":"uint256","internalType":"uint256"},{"name":"y","type":"uint256","internalType":"uint256"}]}],"stateMutability":"view"},{"type":"function","name":"getOprfPublicKeyAndEpoch","inputs":[{"name":"oprfKeyId","type":"uint160","internalType":"uint160"}],"outputs":[{"name":"","type":"tuple","internalType":"struct OprfKeyGen.RegisteredOprfPublicKey","components":[{"name":"key","type":"tuple","internalType":"struct BabyJubJub.Affine","components":[{"name":"x","type":"uint256","internalType":"uint256"},{"name":"y","type":"uint256","internalType":"uint256"}]},{"name":"epoch","type":"uint32","internalType":"uint32"}]}],"stateMutability":"view"},{"type":"function","name":"getPartyIdForParticipant","inputs":[{"name":"participant","type":"address","internalType":"address"}],"outputs":[{"name":"","type":"uint256","internalType":"uint256"}],"stateMutability":"view"},{"type":"function","name":"initKeyGen","inputs":[{"name":"oprfKeyId","type":"uint160","internalType":"uint160"}],"outputs":[],"stateMutability":"nonpayable"},{"type":"function","name":"initReshare","inputs":[{"name":"oprfKeyId","type":"uint160","internalType":"uint160"}],"outputs":[],"stateMutability":"nonpayable"},{"type":"function","name":"initialize","inputs":[{"name":"_owner","type":"address","internalType":"address"},{"name":"_keygenAdmin","type":"address","internalType":"address"},{"name":"_keyGenVerifierAddress","type":"address","internalType":"address"},{"name":"_threshold","type":"uint16","internalType":"uint16"},{"name":"_numPeers","type":"uint16","internalType":"uint16"}],"outputs":[],"stateMutability":"nonpayable"},{"type":"function","name":"isContractReady","inputs":[],"outputs":[{"name":"","type":"bool","internalType":"bool"}],"stateMutability":"view"},{"type":"function","name":"keyGenVerifier","inputs":[],"outputs":[{"name":"","type":"address","internalType":"address"}],"stateMutability":"view"},{"type":"function","name":"keygenAdmins","inputs":[{"name":"","type":"address","internalType":"address"}],"outputs":[{"name":"","type":"bool","internalType":"bool"}],"stateMutability":"view"},{"type":"function","name":"loadPeerPublicKeysForConsumers","inputs":[{"name":"oprfKeyId","type":"uint160","internalType":"uint160"}],"outputs":[{"name":"","type":"tuple[]","internalType":"struct BabyJubJub.Affine[]","components":[{"name":"x","type":"uint256","internalType":"uint256"},{"name":"y","type":"uint256","internalType":"uint256"}]}],"stateMutability":"view"},{"type":"function","name":"loadPeerPublicKeysForProducers","inputs":[{"name":"oprfKeyId","type":"uint160","internalType":"uint160"}],"outputs":[{"name":"","type":"tuple[]","internalType":"struct BabyJubJub.Affine[]","components":[{"name":"x","type":"uint256","internalType":"uint256"},{"name":"y","type":"uint256","internalType":"uint256"}]}],"stateMutability":"view"},{"type":"function","name":"numPeers","inputs":[],"outputs":[{"name":"","type":"uint16","internalType":"uint16"}],"stateMutability":"view"},{"type":"function","name":"owner","inputs":[],"outputs":[{"name":"","type":"address","internalType":"address"}],"stateMutability":"view"},{"type":"function","name":"peerAddresses","inputs":[{"name":"","type":"uint256","internalType":"uint256"}],"outputs":[{"name":"","type":"address","internalType":"address"}],"stateMutability":"view"},{"type":"function","name":"pendingOwner","inputs":[],"outputs":[{"name":"","type":"address","internalType":"address"}],"stateMutability":"view"},{"type":"function","name":"proxiableUUID","inputs":[],"outputs":[{"name":"","type":"bytes32","internalType":"bytes32"}],"stateMutability":"view"},{"type":"function","name":"registerOprfPeers","inputs":[{"name":"_peerAddresses","type":"address[]","internalType":"address[]"}],"outputs":[],"stateMutability":"nonpayable"},{"type":"function","name":"renounceOwnership","inputs":[],"outputs":[],"stateMutability":"nonpayable"},{"type":"function","name":"revokeKeyGenAdmin","inputs":[{"name":"_keygenAdmin","type":"address","internalType":"address"}],"outputs":[],"stateMutability":"nonpayable"},{"type":"function","name":"threshold","inputs":[],"outputs":[{"name":"","type":"uint16","internalType":"uint16"}],"stateMutability":"view"},{"type":"function","name":"transferOwnership","inputs":[{"name":"newOwner","type":"address","internalType":"address"}],"outputs":[],"stateMutability":"nonpayable"},{"type":"function","name":"upgradeToAndCall","inputs":[{"name":"newImplementation","type":"address","internalType":"address"},{"name":"data","type":"bytes","internalType":"bytes"}],"outputs":[],"stateMutability":"payable"},{"type":"event","name":"Initialized","inputs":[{"name":"version","type":"uint64","indexed":false,"internalType":"uint64"}],"anonymous":false},{"type":"event","name":"KeyDeletion","inputs":[{"name":"oprfKeyId","type":"uint160","indexed":true,"internalType":"uint160"}],"anonymous":false},{"type":"event","name":"KeyGenAbort","inputs":[{"name":"oprfKeyId","type":"uint160","indexed":true,"internalType":"uint160"}],"anonymous":false},{"type":"event","name":"KeyGenAdminRegistered","inputs":[{"name":"admin","type":"address","indexed":true,"internalType":"address"}],"anonymous":false},{"type":"event","name":"KeyGenAdminRevoked","inputs":[{"name":"admin","type":"address","indexed":true,"internalType":"address"}],"anonymous":false},{"type":"event","name":"KeyGenConfirmation","inputs":[{"name":"oprfKeyId","type":"uint160","indexed":true,"internalType":"uint160"},{"name":"partyId","type":"uint16","indexed":true,"internalType":"uint16"},{"name":"round","type":"uint8","indexed":false,"internalType":"uint8"},{"name":"epoch","type":"uint32","indexed":false,"internalType":"uint32"}],"anonymous":false},{"type":"event","name":"NotEnoughProducers","inputs":[{"name":"oprfKeyId","type":"uint160","indexed":true,"internalType":"uint160"}],"anonymous":false},{"type":"event","name":"OprfPeerChanged","inputs":[{"name":"partyId","type":"uint16","indexed":true,"internalType":"uint16"},{"name":"oldPeer","type":"address","indexed":true,"internalType":"address"},{"name":"newPeer","type":"address","indexed":true,"internalType":"address"}],"anonymous":false},{"type":"event","name":"OwnershipTransferStarted","inputs":[{"name":"previousOwner","type":"address","indexed":true,"internalType":"address"},{"name":"newOwner","type":"address","indexed":true,"internalType":"address"}],"anonymous":false},{"type":"event","name":"OwnershipTransferred","inputs":[{"name":"previousOwner","type":"address","indexed":true,"internalType":"address"},{"name":"newOwner","type":"address","indexed":true,"internalType":"address"}],"anonymous":false},{"type":"event","name":"ReshareRound1","inputs":[{"name":"oprfKeyId","type":"uint160","indexed":true,"internalType":"uint160"},{"name":"threshold","type":"uint256","indexed":false,"internalType":"uint256"},{"name":"epoch","type":"uint32","indexed":true,"internalType":"uint32"}],"anonymous":false},{"type":"event","name":"ReshareRound3","inputs":[{"name":"oprfKeyId","type":"uint160","indexed":true,"internalType":"uint160"},{"name":"lagrange","type":"uint256[]","indexed":false,"internalType":"uint256[]"},{"name":"epoch","type":"uint32","indexed":true,"internalType":"uint32"}],"anonymous":false},{"type":"event","name":"SecretGenFinalize","inputs":[{"name":"oprfKeyId","type":"uint160","indexed":true,"internalType":"uint160"},{"name":"epoch","type":"uint32","indexed":true,"internalType":"uint32"}],"anonymous":false},{"type":"event","name":"SecretGenRound1","inputs":[{"name":"oprfKeyId","type":"uint160","indexed":true,"internalType":"uint160"},{"name":"threshold","type":"uint256","indexed":false,"internalType":"uint256"}],"anonymous":false},{"type":"event","name":"SecretGenRound2","inputs":[{"name":"oprfKeyId","type":"uint160","indexed":true,"internalType":"uint160"},{"name":"epoch","type":"uint32","indexed":true,"internalType":"uint32"}],"anonymous":false},{"type":"event","name":"SecretGenRound3","inputs":[{"name":"oprfKeyId","type":"uint160","indexed":true,"internalType":"uint160"}],"anonymous":false},{"type":"event","name":"Upgraded","inputs":[{"name":"implementation","type":"address","indexed":true,"internalType":"address"}],"anonymous":false},{"type":"error","name":"AddressEmptyCode","inputs":[{"name":"target","type":"address","internalType":"address"}]},{"type":"error","name":"AlreadySubmitted","inputs":[]},{"type":"error","name":"BadContribution","inputs":[]},{"type":"error","name":"DeletedId","inputs":[{"name":"id","type":"uint160","internalType":"uint160"}]},{"type":"error","name":"ERC1967InvalidImplementation","inputs":[{"name":"implementation","type":"address","internalType":"address"}]},{"type":"error","name":"ERC1967NonPayable","inputs":[]},{"type":"error","name":"FailedCall","inputs":[]},{"type":"error","name":"ImplementationNotInitialized","inputs":[]},{"type":"error","name":"InvalidInitialization","inputs":[]},{"type":"error","name":"LastAdmin","inputs":[]},{"type":"error","name":"NotAParticipant","inputs":[]},{"type":"error","name":"NotAProducer","inputs":[]},{"type":"error","name":"NotInitializing","inputs":[]},{"type":"error","name":"NotReady","inputs":[]},{"type":"error","name":"OnlyAdmin","inputs":[]},{"type":"error","name":"OwnableInvalidOwner","inputs":[{"name":"owner","type":"address","internalType":"address"}]},{"type":"error","name":"OwnableUnauthorizedAccount","inputs":[{"name":"account","type":"address","internalType":"address"}]},{"type":"error","name":"PartiesNotDistinct","inputs":[]},{"type":"error","name":"UUPSUnauthorizedCallContext","inputs":[]},{"type":"error","name":"UUPSUnsupportedProxiableUUID","inputs":[{"name":"slot","type":"bytes32","internalType":"bytes32"}]},{"type":"error","name":"UnexpectedAmountPeers","inputs":[{"name":"expectedParties","type":"uint256","internalType":"uint256"}]},{"type":"error","name":"UnknownId","inputs":[{"name":"id","type":"uint160","internalType":"uint160"}]},{"type":"error","name":"UnsupportedNumPeersThreshold","inputs":[]},{"type":"error","name":"WrongRound","inputs":[{"name":"","type":"uint8","internalType":"enum OprfKeyGen.Round"}]}],"bytecode":{"object":"0x60a080604052346100c257306080525f5160206157be5f395f51905f525460ff8160401c166100b3576002600160401b03196001600160401b03821601610060575b6040516156f790816100c78239608051818181612af201526144fc0152f35b6001600160401b0319166001600160401b039081175f5160206157be5f395f51905f525581527fc7f505b2f371ae2175ee4913f4499e1f2633a7b5936321eed1cdaeb6115181d290602090a15f80610041565b63f92ee8a960e01b5f5260045ffd5b5f80fdfe60806040526004361015610011575f80fd5b5f5f3560e01c80631acc6e0914613683578063222c211e1461357057806332c7e3b6146131fc5780633892750a14612fff5780633a02230d14612fde5780633bcc163014612e5657806342cde4e814612e325780634f1ef28614612ba7578063513c72f114612b6a57806352d1902d14612ad857806353fac9ad14612a425780635fd5991914611dfa57806364a9788914611c71578063715018a614611b5a5780637488e8e714611a7757806379a4753c14611a5257806379ad89e814611a0f57806379ba5097146119955780638da5cb5b1461194f5780638f065f8d146117c157806390ea46f5146117805780639d49d672146116aa5780639f24904414611683578063ad3cb1cc1461160f578063b13590ec14611448578063be28b7a814610e71578063d46a3ac614610e53578063e30c397814610e0d578063ea2ca96314610d28578063f2fde38b14610c43578063f720fce314610ba2578063fd1bae581461085e578063ff3a3588146108145763ffb9667314610190575f80fd5b346108115760c0600319360112610811576101a9613b4f565b60a07fffffffffffffffffffffffffffffffffffffffffffffffffffffffffffffffdc36011261080f576101db6144f2565b6101e3614563565b6101eb614a4b565b9061ffff8216916101fc8383614d8f565b600881019163ffffffff835460201c161561076257859061021c366141f0565b6040517f8a9088a300000000000000000000000000000000000000000000000000000000815281516004820152602091820151602482015273__$cd8e5b0fce2a2098a77e7e270995adb554$__9181604481855af49081156108045784916107e5575b50606435159080806107de575b80156107c4575b15610334575050507f8a1df8d1089dbf7577f56d95c8833f55846e6aeced87f49135c725f9f177c0fc9361031c6040946001600160a01b0394600261030863ffffffff968833165f5284602052895f208360ff198254161790558285015f60016102fd84846144d9565b5082815501556144d9565b5001555b61ffff60035460a01c1688614f98565b5460201c16938251946001865260208601521692a380f35b91935090151514610367576004877f497231a7000000000000000000000000000000000000000000000000000000008152fd5b61038861038e9161037f61037a366141f0565b614c00565b6005850161449f565b50613c46565b6020604051917f2ba6bab9000000000000000000000000000000000000000000000000000000008352805160048401520151602482015260243560448201526044356064820152602081608481855af49081156107b957879161078a575b5015610762576001600160a01b0333165f528160205260405f20600160ff1982541617905563ffffffff61042281855416613c7c565b167fffffffffffffffffffffffffffffffffffffffffffffffffffffffff0000000084541617835563ffffffff835416906003549161ffff8360a01c168091146104a4575b5050506001600160a01b0363ffffffff7f8a1df8d1089dbf7577f56d95c8833f55846e6aeced87f49135c725f9f177c0fc9361031c60409461030c565b9187916104b084613eb0565b916104be6040519384613b9d565b8483526104ca85613eb0565b90601f1960208501920136833760b01c61ffff1684805b8281106106bf5750506040519586947f37d2224c00000000000000000000000000000000000000000000000000000000865260648601906060600488015251809152608486019390875b8181106106a357505050602485015260448401528290039082905af49081156106985786916105fb575b506001820181519167ffffffffffffffff83116105e7576801000000000000000083116105d35760209082548484558085106105b8575b500190875260208720875b8381106105a45750610467565b600190602084519401938184015501610597565b6105cd90845f5285845f209182019101613cc5565b5f61058c565b634e487b7160e01b5f52604160045260245ffd5b602488634e487b7160e01b81526041600452fd5b90503d8087833e61060c8183613b9d565b8101906020818303126106905780519067ffffffffffffffff821161069457019080601f8301121561069057815161064381613eb0565b926106516040519485613b9d565b81845260208085019260051b82010192831161068c57602001905b82821061067c575050505f610555565b815181526020918201910161066c565b8880fd5b8680fd5b8780fd5b6040513d88823e3d90fd5b825186528e98508997506020958601959092019160010161052b565b90919395506001600160a01b036106d98298949698613bc0565b90549060031b1c166001600160a01b0381165f528860205260ff60405f205416600381101561074e57600192918e918414610720575b505001908b959391969492966104e1565b81526005602052604090205460081c61ffff1661074661073f85613f6c565b948a613fa7565b528c5f61070f565b60248e634e487b7160e01b81526021600452fd5b6004867f497231a7000000000000000000000000000000000000000000000000000000008152fd5b6107ac915060203d6020116107b2575b6107a48183613b9d565b810190613c64565b5f6103ec565b503d61079a565b6040513d89823e3d90fd5b5063ffffffff87541661ffff60035460a01c161115610293565b508161028c565b6107fe915060203d6020116107b2576107a48183613b9d565b5f61027f565b6040513d86823e3d90fd5b505b80fd5b5034610811576020600319360112610811576001600160a01b03610836613b4f565b167f80289566e41bae426a6ba7392c3b723699ac38c2b5bbeab84f247b0d5a44a9bd8280a280f35b50346108115760a060031936011261081157610878613b4f565b6024356001600160a01b038116809103610b9e576044356001600160a01b038116809103610b9e576064359061ffff82168203610b9e576084359261ffff84168403610b9e577ff0c57e16840df040f15088dc2f81fe391c3923bec73e23a9662efc9c229c6a00549460ff8660401c16159567ffffffffffffffff811680159081610b96575b6001149081610b8c575b159081610b83575b50610b5b578660017fffffffffffffffffffffffffffffffffffffffffffffffff00000000000000008316177ff0c57e16840df040f15088dc2f81fe391c3923bec73e23a9662efc9c229c6a0055610b06575b5061096c6155b0565b6109746155b0565b6001600160a01b03811615610ada5761098c906150bb565b6109946155b0565b8552600160205260408520600160ff1982541617905560025460018101809111610ac6579075ffff0000000000000000000000000000000000000000916002557fffffffffffffffff00000000000000000000000000000000000000000000000077ffff000000000000000000000000000000000000000000006003549560b01b169416179160a01b16171760035560ff198254168255610a325780f35b7fffffffffffffffffffffffffffffffffffffffffffffff00ffffffffffffffff7ff0c57e16840df040f15088dc2f81fe391c3923bec73e23a9662efc9c229c6a0054167ff0c57e16840df040f15088dc2f81fe391c3923bec73e23a9662efc9c229c6a00557fc7f505b2f371ae2175ee4913f4499e1f2633a7b5936321eed1cdaeb6115181d2602060405160018152a180f35b602486634e487b7160e01b81526011600452fd5b6024877f1e4fbdf700000000000000000000000000000000000000000000000000000000815280600452fd5b7fffffffffffffffffffffffffffffffffffffffffffffff0000000000000000001668010000000000000001177ff0c57e16840df040f15088dc2f81fe391c3923bec73e23a9662efc9c229c6a00555f610963565b6004887ff92ee8a9000000000000000000000000000000000000000000000000000000008152fd5b9050155f610910565b303b159150610908565b8891506108fe565b5f80fd5b5034610811576020600319360112610811576001600160a01b03610bc4613b4f565b610bcc614563565b610bd46144f2565b1681526005602052604081209060405191610bee83613b65565b549161ffff602060ff8516159283158152019360081c168352610c1b57602061ffff835116604051908152f35b807f179e806d0000000000000000000000000000000000000000000000000000000060049252fd5b5034610811576020600319360112610811576001600160a01b03610c65613b4f565b610c6d6149ec565b16807fffffffffffffffffffffffff00000000000000000000000000000000000000007f237e158222e3e6968b72b9db0d8043aacf074ad9f650f0d1606b4d82ee432c005416177f237e158222e3e6968b72b9db0d8043aacf074ad9f650f0d1606b4d82ee432c00556001600160a01b037f9016d09d72d40fdae2fd8ceac6b6234c7706214fd39c1cd1e609a0528c19930054167f38d16b8cac22d99fc7c124b9cd0de2d3fa1faef420bfe791d8c362d765e227008380a380f35b5034610811576020600319360112610811576001600160a01b03610d4a613b4f565b610d526144f2565b610d5a614991565b610d62614597565b16808252600160205260ff604083205416610d7b575080f35b600160025414610de55780825260016020526040822060ff1981541690556002545f198101908111610dd1576002557f91a41cb54dfb87bb7e56c71460111884f994581486eee7500b246b87ff23543a8280a280f35b602483634e487b7160e01b81526011600452fd5b6004827fdf0e465e000000000000000000000000000000000000000000000000000000008152fd5b503461081157806003193601126108115760206001600160a01b037f237e158222e3e6968b72b9db0d8043aacf074ad9f650f0d1606b4d82ee432c005416604051908152f35b50346108115780600319360112610811576020600254604051908152f35b5034610811576020600319360112610811576001600160a01b03610e93613b4f565b610e9b6144f2565b610ea3614563565b610eab614597565b1680156114205780825260076020526040822081835260066020526040832090600b82019060ff825416600681101561140c576005146113e0576020610ef3610f3792613c46565b6040517f8a9088a300000000000000000000000000000000000000000000000000000000815281516004820152602090910151602482015291829081906044820190565b038173__$cd8e5b0fce2a2098a77e7e270995adb554$__5af49081156113d55785916113b6575b5015801561138c575b6113645761ffff60035460b01c1690600160ff19825416179055600882017fffffffffffffffffffffffffffffffffffffffffffffffff00000000ffffffff8154169055610fb4816145ae565b600283016020825192610fc78484614634565b019086526020862086915b8383106113265750505050610fe6816146ae565b60038301906020815191610ffa8385614765565b018287526020872087915b8383106113095750505050845b8281106112e45750506110248161425e565b6004830160208251926110378484613d5b565b019086526020862086915b8383106112c457505050506110568161425e565b6005830160208251926110698484613d5b565b019086526020862086915b8383106112a45750505050611088816148d3565b8051600984019167ffffffffffffffff8211611290576020906110ab838561492b565b01918652602086208160051c91875b83811061124b5750601f1981169003806111ff575b505050506110de600a916148d3565b91019080519067ffffffffffffffff82116111eb57602090611100838561492b565b01918452602084208160051c91855b8381106111a65750601f19811690038061115d575b85857f26f21388e5d2b26dd079f0818b44f6f37c89dbf5950f6e4bfc2bd54301eb6103602061ffff60035460a01c16604051908152a280f35b928593865b8181106111775750505001555f808080611124565b909194602061119c6001928489511515919060ff809160031b9316831b921b19161790565b9601929101611162565b86875b602081106111be57508382015560010161110f565b959060206111e26001928985511515919060ff809160031b9316831b921b19161790565b920196016111a9565b602485634e487b7160e01b81526041600452fd5b928793885b81811061121c5750505001556110de600a5f806110cf565b90919460206112416001928489511515919060ff809160031b9316831b921b19161790565b9601929101611204565b88895b602081106112635750838201556001016110ba565b959060206112876001928985511515919060ff809160031b9316831b921b19161790565b9201960161124e565b602487634e487b7160e01b81526041600452fd5b600260208281600194518051875501518486015501920192019190611074565b600260208281600194518051875501518486015501920192019190611042565b6001906113036112f385613ee0565b6112fd8386613bec565b906148b1565b01611012565b600160208261131a839451866147b1565b01920192019190611005565b60056020828160406001955182815180518a550151878901558281015160028901550151805160038801550151600486015501920192019190610fd2565b6004847f9fbfc589000000000000000000000000000000000000000000000000000000008152fd5b5060ff81541660068110156113a2571515610f67565b602485634e487b7160e01b81526021600452fd5b6113cf915060203d6020116107b2576107a48183613b9d565b5f610f5e565b6040513d87823e3d90fd5b602485857f1b02ded7000000000000000000000000000000000000000000000000000000008252600452fd5b602486634e487b7160e01b81526021600452fd5b6004827f497231a7000000000000000000000000000000000000000000000000000000008152fd5b503461081157602060031936011261081157611462613b4f565b61146a614563565b6114726144f2565b3382526005602052604082206040519061148b82613b65565b5490602061ffff60ff841615938415845260081c169101526115e7576001600160a01b031681526006602052604081209060ff600b8301541660068110156115d357600381036115a757506114e963ffffffff60088401541661425e565b9080928161ffff60035460b01c16925b838110611512576040518061150e8782613c01565b0390f35b6001600160a01b038061152483613bc0565b90549060031b1c16165f528260205260ff60405f205416600381101561159357906001918214611555575b016114f9565b61158d61156582600287016144d9565b509761157c600361157583613f6c565b9a01613c46565b611586828a613fa7565b5287613fa7565b5061154f565b602483634e487b7160e01b81526021600452fd5b602492507f642fee6e000000000000000000000000000000000000000000000000000000008252600452fd5b602482634e487b7160e01b81526021600452fd5b6004827f179e806d000000000000000000000000000000000000000000000000000000008152fd5b50346108115780600319360112610811576040805161162e8282613b9d565b60058152601f19601f602083017f352e302e3000000000000000000000000000000000000000000000000000000081528451958694602086525180928160208801528787015e85828601015201168101030190f35b503461081157806003193601126108115760206001600160a01b0360035416604051908152f35b5034610811576020600319360112610811576001600160a01b036116cc613b4f565b6116d46144f2565b6116dc614563565b6116e4614597565b16808252600660205260408220600b81019060ff82541660068110156113a25715611754576117259061ffff60035460b01c1661171f613e5d565b91615295565b60ff1981541690557fdf933a8df15dc090bc507418777d1c44e6926238d8e2e6594bde03c1da3cfa778280a280f35b602484847ffbf20062000000000000000000000000000000000000000000000000000000008252600452fd5b50346108115760206003193601126108115761150e6117b56117a0613b4f565b6117a8614563565b6117b06144f2565b6142b8565b60405191829182613c01565b5034610811576020600319360112610811576001600160a01b036117e3613b4f565b8260206040516117f281613b65565b6040516117fe81613b65565b5f81525f83820152815201526118126144f2565b61181a614563565b1690818152600660205260ff600b6040832001541660068110156115d357600514611924578181526007602052604081209161185a6020610ef385613c46565b038173__$cd8e5b0fce2a2098a77e7e270995adb554$__5af49081156119195783916118fa575b506118ce5760608363ffffffff60405161189a81613b65565b60208260026118a886613c46565b958685520154169101908152602060405193805185520151602084015251166040820152f35b602492507ffbf20062000000000000000000000000000000000000000000000000000000008252600452fd5b611913915060203d6020116107b2576107a48183613b9d565b5f611881565b6040513d85823e3d90fd5b6024917f1b02ded7000000000000000000000000000000000000000000000000000000008252600452fd5b503461081157806003193601126108115760206001600160a01b037f9016d09d72d40fdae2fd8ceac6b6234c7706214fd39c1cd1e609a0528c1993005416604051908152f35b5034610811578060031936011261081157336001600160a01b037f237e158222e3e6968b72b9db0d8043aacf074ad9f650f0d1606b4d82ee432c005416036119e3576119e0336150bb565b80f35b807f118cdaa7000000000000000000000000000000000000000000000000000000006024925233600452fd5b503461081157602060031936011261081157600435906004548210156108115760206001600160a01b03611a4284613bc0565b90549060031b1c16604051908152f35b5034610811578060031936011261081157602061ffff60035460b01c16604051908152f35b5034610811576020600319360112610811576001600160a01b03611a99613b4f565b611aa1613ec8565b50611aaa6144f2565b611ab2614563565b1690818152600660205260ff600b6040832001541660068110156115d3576005146119245781815260076020526040812091611af26020610ef385613c46565b038173__$cd8e5b0fce2a2098a77e7e270995adb554$__5af4908115611919578391611b3b575b506118ce576040611b2984613c46565b60208251918051835201516020820152f35b611b54915060203d6020116107b2576107a48183613b9d565b5f611b19565b5034610811578060031936011261081157611b736149ec565b7fffffffffffffffffffffffff00000000000000000000000000000000000000007f237e158222e3e6968b72b9db0d8043aacf074ad9f650f0d1606b4d82ee432c0054167f237e158222e3e6968b72b9db0d8043aacf074ad9f650f0d1606b4d82ee432c00555f6001600160a01b037f9016d09d72d40fdae2fd8ceac6b6234c7706214fd39c1cd1e609a0528c199300547fffffffffffffffffffffffff000000000000000000000000000000000000000081167f9016d09d72d40fdae2fd8ceac6b6234c7706214fd39c1cd1e609a0528c19930055167f8be0079c531659141344cd1fd0a4f28419497f9722a3daafe3b4186f6b6457e08280a380f35b50346108115760c060031936011261081157611c8b613b4f565b60a07fffffffffffffffffffffffffffffffffffffffffffffffffffffffffffffffdc36011261080f57611cbd6144f2565b611cc5614563565b611ccd614a4b565b611cd961037a366141f0565b60643515611dd25761ffff1690611cf08282614d8f565b600881019063ffffffff825460201c16611daa576001600160a01b0363ffffffff7f8a1df8d1089dbf7577f56d95c8833f55846e6aeced87f49135c725f9f177c0fc9361031c6040948433165f5280602052855f20600160ff1982541617905583611d5d81855416613c7c565b167fffffffffffffffffffffffffffffffffffffffffffffffffffffffff00000000845416178355611d9a611d91366141f0565b60068301614e65565b61ffff60035460b01c1688614f98565b6004857f497231a7000000000000000000000000000000000000000000000000000000008152fd5b6004837f497231a7000000000000000000000000000000000000000000000000000000008152fd5b5034610b9e576040600319360112610b9e57611e14613b4f565b60243567ffffffffffffffff8111610b9e57806004019160a06003198336030112610b9e57611e416144f2565b611e49614563565b6001600160a01b03811691602b8303611f2157505050816001600160a01b03600354169161030060405190611e7e8183613b9d565b368237825b60188110611f055750833b15611f0157611ece9383926040518096819482937f04bb1c1b000000000000000000000000000000000000000000000000000000008452600484016141b9565b03915afa8015611ef457611ee157505080f35b611eea91613b9d565b805f126108115780f35b50604051903d90823e3d90fd5b8280fd5b8192935080611f16816001946141a8565b520190849291611e83565b608490611f329593959492946144f2565b611f3a614563565b0190611f468282614ad0565b905061ffff60035460b01c16036129b357845f52600660205260405f209360ff600b8601541660068110156129db5760028103612a175750611f86614a4b565b93600986019660ff611f98878a613cdb565b90549060031b1c166129ef576001600160a01b0333165f528660205260ff60405f20541660038110156129db576001036129b35760088701805460201c63ffffffff166127a15760038801989760048101945f5b61ffff60035460b01c1681101561208757806120818d61207b8d612075858f8f988f828b61206461204a8560019f9561204561037a83604061203f61203761206f9e6120699d614ad0565b369491614b24565b01614236565b61449f565b5061205e86604061203f6120378888614ad0565b90614e65565b614ad0565b90614b24565b94613bec565b50613f53565b90614b5c565b01611fec565b509450949298509490959661209f886120b692613cdb565b819291549060031b9060ff6001831b921b19161790565b90556003549061ffff8260b01c16926003841480612790575b15612463576040516001600160a01b038416926103006120ef8184613b9d565b3683378a602061211a61ffff6121048c6153bf565b93166121108185613fa7565b5151865283613fa7565b510151602084015260026121558d828c0161213582826144d9565b50546040880152600161214883836144d9565b50015460608801526144d9565b500154608084015261ffff61216e818860a01c16614b97565b1661218d61ffff6121866121818b614bab565b614bd9565b16856141a8565b528c915b87831061228c575050509082918b933b15612288576121e19284926040518095819482937f04bb1c1b000000000000000000000000000000000000000000000000000000008452600484016141b9565b03915afa801561227d5761225f575b50509361223b60409461ffff948563ffffffff957f8a1df8d1089dbf7577f56d95c8833f55846e6aeced87f49135c725f9f177c0fc995b865460201c881661225357505b169061541a565b5460201c16948251956002875260208701521693a380f35b82915060a01c16612234565b9061226d9196929396613b9d565b875f12610694579390875f6121f0565b6040513d84823e3d90fd5b8380fd5b90919c8d60206122a082612069868a614ad0565b01359060050180600511610dd157908f92916122bc90876141a8565b5260406122cd83612069868a614ad0565b0135906122d98a614bd9565b8360011b938085046002149015171561244f576122fb8461ffff849316613c94565b9161243b57508f60609261231261231d93896141a8565b526120698589614ad0565b01356123358261ffff61232f8c614bd9565b16613c94565b9060018201809211612427578f9161234d90876141a8565b526123589084613fa7565b51519d816123658a614bab565b61236e90614bd9565b61237790614bec565b61ffff169061238591613c94565b9e5f9f61239290876141a8565b5261239d8185613fa7565b5160200151916123ac8a614bab565b6123b590614bd9565b6123be90614bec565b61ffff16906123cc91613c94565b600181018091116124275761241e6124188361ffff61232f6124138f9661240c858f8f612069918f919e60019f61218197612406916141a8565b52614ad0565b3597614bc2565b614bec565b876141a8565b52019190612191565b634e487b7160e01b5f52601160045260245ffd5b80634e487b7160e01b602492526011600452fd5b602482634e487b7160e01b81526011600452fd5b90600584148061277f575b15612757576040516001600160a01b0384169161048061248e8184613b9d565b3683378a60206124a361ffff6121048c6153bf565b510151602084015260026124be8d828c0161213582826144d9565b500154608084015261ffff6124d7818860a01c16614b97565b166124f161ffff6124ea6121818b614bab565b1685614b86565b525f915b8783106125d457505050813b156125d057908a92916080604051937f95a1463f000000000000000000000000000000000000000000000000000000008552600485013783608484015b602482106125b657505050816105048185935afa801561227d57612598575b50509361223b60409461ffff948563ffffffff957f8a1df8d1089dbf7577f56d95c8833f55846e6aeced87f49135c725f9f177c0fc99612227565b906125a69196929396613b9d565b875f12610694579390875f61255d565b825181528d9550602092830192600192909201910161253e565b8a80fd5b90919c8d60206125e882612069868b614ad0565b01359060050180600511610dd157908f92916126049087614b86565b52604061261583612069868b614ad0565b0135906126218a614bd9565b8360011b938085046002149015171561244f576126438461ffff849316613c94565b9161243b57508f60609261265a6126659389614b86565b52612069858a614ad0565b01356126778261ffff61232f8c614bd9565b9060018201809211612427578f9161268f9087614b86565b5261269a9084613fa7565b51519d816126a78a614bab565b6126b090614bd9565b6126b990614bec565b61ffff16906126c791613c94565b9e5f9f6126d49087614b86565b526126df8185613fa7565b5160200151916126ee8a614bab565b6126f790614bd9565b61270090614bec565b61ffff169061270e91613c94565b600181018091116124275761274e6127488361ffff61232f6124138f9661240c8f6120698f88928f919e60019f6121819761240691614b86565b87614b86565b520191906124f5565b7f05f7fa12000000000000000000000000000000000000000000000000000000005f5260045ffd5b50600361ffff8460a01c161461246e565b50600261ffff8460a01c16146120cf565b9096959294916127b48460018901613bec565b90549060031b1c908115612909575f9896989673__$cd8e5b0fce2a2098a77e7e270995adb554$__9360048a019960038101995b61ffff60035460b01c168110156128ed5761281061037a82604061203f6120378f8e90614ad0565b61281e816120698a8d614ad0565b906060604051927fe0d29faa00000000000000000000000000000000000000000000000000000000845288600485015260408101356024850152013560448301526040826064818b5af49182156128e2578c61207b8f6120758f8f928f612069899391849261206461206f9560019e866128aa9e5f926128b0575b506128a4919261449f565b50614e65565b016127e8565b6128a492506128d59060403d81116128db575b6128cd8183613b9d565b810190614b34565b91612899565b503d6128c3565b6040513d5f823e3d90fd5b509795945097509750986120b691508461209f91999599613cdb565b60a46040517f08c379a000000000000000000000000000000000000000000000000000000000815260206004820152604160248201527f53414645545920434845434b3a20746869732073686f756c64206e657665722060448201527f68617070656e2e2054686973206d65616e73207468657265206973206120627560648201527f67000000000000000000000000000000000000000000000000000000000000006084820152fd5b7f497231a7000000000000000000000000000000000000000000000000000000005f5260045ffd5b634e487b7160e01b5f52602160045260245ffd5b7f9fbfc589000000000000000000000000000000000000000000000000000000005f5260045ffd5b7f642fee6e000000000000000000000000000000000000000000000000000000005f5260045260245ffd5b34610b9e576020600319360112610b9e57612a73612a5e613b4f565b612a666144f2565b612a6e614563565b613fea565b6040518091602082016020835281518091526020604084019201905f5b818110612a9e575050500390f35b9193509160206080600192826040885180518452828101518385015201518051604084015201516060820152019401910191849392612a90565b34610b9e575f600319360112610b9e576001600160a01b037f0000000000000000000000000000000000000000000000000000000000000000163003612b425760206040517f360894a13ba1a3210667c828492db98dca3e2076cc3735a920a3ca505d382bbc8152f35b7fe07c8dba000000000000000000000000000000000000000000000000000000005f5260045ffd5b34610b9e576020600319360112610b9e576001600160a01b03612b8b613b4f565b165f526001602052602060ff60405f2054166040519015158152f35b6040600319360112610b9e57612bbb613b4f565b6024359067ffffffffffffffff8211610b9e5736602383011215610b9e57816004013567ffffffffffffffff81116105d35760405192612c05601f8301601f191660200185613b9d565b8184523660248383010111610b9e57815f926024602093018387013784010152612c2d6144f2565b612c356149ec565b6001600160a01b038116916040517f52d1902d000000000000000000000000000000000000000000000000000000008152602081600481875afa5f9181612dfe575b50612ca857837f4c9c8ce3000000000000000000000000000000000000000000000000000000005f5260045260245ffd5b807f360894a13ba1a3210667c828492db98dca3e2076cc3735a920a3ca505d382bbc859203612dd35750823b15612da857807fffffffffffffffffffffffff00000000000000000000000000000000000000007f360894a13ba1a3210667c828492db98dca3e2076cc3735a920a3ca505d382bbc5416177f360894a13ba1a3210667c828492db98dca3e2076cc3735a920a3ca505d382bbc557fbc7cd75a20ee27fd9adebab32041f755214dbc6bffa90cc0225b39da2e5c2d3b5f80a2805115612d7757612d7591615607565b005b505034612d8057005b7fb398979f000000000000000000000000000000000000000000000000000000005f5260045ffd5b7f4c9c8ce3000000000000000000000000000000000000000000000000000000005f5260045260245ffd5b7faa1d49a4000000000000000000000000000000000000000000000000000000005f5260045260245ffd5b9091506020813d602011612e2a575b81612e1a60209383613b9d565b81010312610b9e57519085612c77565b3d9150612e0d565b34610b9e575f600319360112610b9e57602061ffff60035460a01c16604051908152f35b34610b9e576020600319360112610b9e576001600160a01b03612e77613b4f565b612e7f6144f2565b612e87614563565b612e8f614597565b16805f52600760205260405f20815f52600660205260405f20600b81019160ff83541660068110156129db5780612a175750612ecf6020610ef383613c46565b038173__$cd8e5b0fce2a2098a77e7e270995adb554$__5af49081156128e2575f91612fbf575b50612f9357612f629160026005925f81555f6001820155017fffffffffffffffffffffffffffffffffffffffffffffffffffffffff000000008154169055612f5061ffff60035460b01c16612f49613e5d565b9083615295565b612f5c600182016144b8565b01613cf9565b600560ff198254161790557f80289566e41bae426a6ba7392c3b723699ac38c2b5bbeab84f247b0d5a44a9bd5f80a2005b837ffbf20062000000000000000000000000000000000000000000000000000000005f5260045260245ffd5b612fd8915060203d6020116107b2576107a48183613b9d565b85612ef6565b34610b9e575f600319360112610b9e57602060ff5f54166040519015158152f35b34610b9e576020600319360112610b9e576001600160a01b03613020613b4f565b6130286144f2565b613030614563565b16805f52600660205260405f2090600b820160ff81541660068110156129db5760038103612a175750613061614a4b565b90600a840160ff6130728483613cdb565b90549060031b1c166129ef57826040926130b361209f7f8a1df8d1089dbf7577f56d95c8833f55846e6aeced87f49135c725f9f177c0fc9661ffff95613cdb565b90556008870163ffffffff815460201c16976130ce81614a89565b6130e7575b5050508251956003875260208701521693a3005b63ffffffff6131af928a155f146131bf57875161310381613b65565b61310f60068501613c46565b8152826002818d60208501905f82525f52600760205260208d5f20955180518755015160018601555116920191167fffffffffffffffffffffffffffffffffffffffffffffffffffffffff000000008254161790555b6131756004840160058501613dfd565b5460201c16887feca0bbf88a7c4e57f429bd1e6f708ad696c4dd4bd2ec9a50e916868f14abf5a45f80a38460035460b01c1661171f613e5d565b60ff1981541690558680806130d3565b895f5260076020526002885f2001828c167fffffffffffffffffffffffffffffffffffffffffffffffffffffffff00000000825416179055613165565b34610b9e576020600319360112610b9e5760043567ffffffffffffffff8111610b9e5736602382011215610b9e57806004013567ffffffffffffffff8111610b9e576024820191602436918360051b010111610b9e5761325a6144f2565b613262614991565b61326a6149ec565b61ffff60035460b01c1680820361354557505f5b8181106134c557506004545f5b82811061342a5750505f5b6004548110156132cf57806001600160a01b036132b4600193613bc0565b90549060031b1c165f5260056020525f604081205501613296565b505f5b61ffff8116828110156133775760405161ffff92916132f082613b65565b600182526001600160a01b036133166133116020850193808552888a613ca1565b613cb1565b165f52600560205260405f209151151560ff60ff198454169116178255517fffffffffffffffffffffffffffffffffffffffffffffffffffffffffff0000ff62ffff0083549260081b1691161790551661ffff8114612427576001016132d2565b82846801000000000000000082116105d357600454826004558083106133f0575b509060045f525f5b8181106133b5575f805460ff19166001179055005b60019060206133c385613cb1565b940193817f8a35acfbc15ff81a39ae7d344fd709f28e8600b4aa8c65c6b64bfe7fe36bd19b0155016133a0565b60045f52613424907f8a35acfbc15ff81a39ae7d344fd709f28e8600b4aa8c65c6b64bfe7fe36bd19b908101908401613cc5565b82613398565b600190808311156134bf576001600160a01b0361344682613bc0565b90549060031b1c165b6001600160a01b038061346661331185898b613ca1565b169116908103613478575b500161328b565b6001600160a01b0361348e61331184888a613ca1565b169061ffff83167f32d8bdd3774d2fdfb6cdfb8ba11ad024564aaaeea77accaac61c584aded4c2535f80a485613471565b5f61344f565b60018101808211612427575b8281106134e1575060010161327e565b6134f2613311838587959697613ca1565b6001600160a01b0380613509613311858988613ca1565b1691161461351d57600101929190926134d1565b7f06c849db000000000000000000000000000000000000000000000000000000005f5260045ffd5b7fa3b5ca39000000000000000000000000000000000000000000000000000000005f5260045260245ffd5b34610b9e576020600319360112610b9e57613589613b4f565b6135916144f2565b613599614991565b335f52600160205260ff60405f205416336001600160a01b037f9016d09d72d40fdae2fd8ceac6b6234c7706214fd39c1cd1e609a0528c1993005416149015908161367a575b50613652576001600160a01b0316805f52600160205260ff60405f2054161561360457005b805f52600160205260405f20600160ff1982541617905560025460018101809111612427576002557fd0b2dc01fde9dadcf94234b55ed077e429dfd7b35d12816e25bae4fcbe2d083c5f80a2005b7f47556579000000000000000000000000000000000000000000000000000000005f5260045ffd5b905015826135df565b34610b9e576020600319360112610b9e576001600160a01b036136a4613b4f565b6136ac6144f2565b6136b4614563565b6136bc614597565b16805f52600660205260405f2090600b82019160ff83541660068110156129db5760058114613b23576129ef57815f52600760205260405f206137036020610ef383613c46565b038173__$cd8e5b0fce2a2098a77e7e270995adb554$__5af49081156128e2575f91613b04575b50613ad85761374c63ffffffff600261ffff60035460b01c1693015416613c7c565b93613759600184016144b8565b600160ff1982541617905560088201937fffffffffffffffffffffffffffffffffffffffffffffffff00000000ffffffff67ffffffff0000000086549260201b1691161784556137a8816145ae565b6002830160208251926137bb8484614634565b01905f5260205f205f915b838310613a9a57505050506137da816146ae565b600383019060208151916137ee8385614765565b01825f5260205f205f915b838310613a7d57505050505f5b828110613a685750506138188161425e565b60048301602082519261382b8484613d5b565b01905f5260205f205f915b838310613a48575050505061384a816148d3565b8051600984019167ffffffffffffffff82116105d35760209061386d838561492b565b01915f5260205f208160051c915f5b838110613a035750601f1981169003806139b7575b505050506138a0600a916148d3565b91019080519067ffffffffffffffff82116105d3576020906138c2838561492b565b01915f5260205f208160051c915f5b8381106139725750601f198116900380613929575b85857f14eaa713eb50a295c5ed8153c207f61790d7389b647d65e96ea38b199f4d79fe602063ffffffff61ffff60035460a01c169454821c1693604051908152a3005b925f935f5b818110613943575050500155828080806138e6565b90919460206139686001928489511515919060ff809160031b9316831b921b19161790565b960192910161392e565b5f5f5b6020811061398a5750838201556001016138d1565b959060206139ae6001928985511515919060ff809160031b9316831b921b19161790565b92019601613975565b925f935f5b8181106139d45750505001556138a0600a8680613891565b90919460206139f96001928489511515919060ff809160031b9316831b921b19161790565b96019291016139bc565b5f5f5b60208110613a1b57508382015560010161387c565b95906020613a3f6001928985511515919060ff809160031b9316831b921b19161790565b92019601613a06565b600260208281600194518051875501518486015501920192019190613836565b600190613a776112f385613ee0565b01613806565b6001602082613a8e839451866147b1565b019201920191906137f9565b60056020828160406001955182815180518a5501518789015582810151600289015501518051600388015501516004860155019201920191906137c6565b827ffbf20062000000000000000000000000000000000000000000000000000000005f5260045260245ffd5b613b1d915060203d6020116107b2576107a48183613b9d565b8561372a565b827f1b02ded7000000000000000000000000000000000000000000000000000000005f5260045260245ffd5b600435906001600160a01b0382168203610b9e57565b6040810190811067ffffffffffffffff8211176105d357604052565b6060810190811067ffffffffffffffff8211176105d357604052565b90601f601f19910116810190811067ffffffffffffffff8211176105d357604052565b600454811015613bd85760045f5260205f2001905f90565b634e487b7160e01b5f52603260045260245ffd5b8054821015613bd8575f5260205f2001905f90565b60206040818301928281528451809452019201905f5b818110613c245750505090565b8251805185526020908101518186015260409094019390920191600101613c17565b90604051613c5381613b65565b602060018294805484520154910152565b90816020910312610b9e57518015158103610b9e5790565b63ffffffff60019116019063ffffffff821161242757565b9190820180921161242757565b9190811015613bd85760051b0190565b356001600160a01b0381168103610b9e5790565b818110613cd0575050565b5f8155600101613cc5565b9190918054831015613bd8575f52601f60205f208360051c01921690565b8054905f815581613d08575050565b7f7fffffffffffffffffffffffffffffffffffffffffffffffffffffffffffffff82168203612427575f5260205f209060011b8101905b818110613d4a575050565b5f8082556001820155600201613d3f565b6801000000000000000082116105d357805490828155818310613d7d57505050565b7f7fffffffffffffffffffffffffffffffffffffffffffffffffffffffffffffff82168203612427577f7fffffffffffffffffffffffffffffffffffffffffffffffffffffffffffffff83168303612427575f5260205f209060011b81019160011b015b818110613dec575050565b5f8082556001820155600201613de1565b818114613e5957815491613e118383613d5b565b5f5260205f20905f5260205f205f915b838310613e2e5750505050565b600280826001938503613e48575b01920192019190613e21565b805485558381015484860155613e3c565b5050565b60405190600454808352826020810160045f5260205f20925f5b818110613e8e575050613e8c92500383613b9d565b565b84546001600160a01b0316835260019485019487945060209093019201613e77565b67ffffffffffffffff81116105d35760051b60200190565b60405190613ed582613b65565b5f6020838281520152565b90613eea82613eb0565b613ef76040519182613b9d565b828152601f19613f078294613eb0565b01905f5b828110613f1757505050565b602090604051613f2681613b81565b5f81525f83820152604051613f3a81613b65565b5f81525f84820152604082015282828501015201613f0b565b8054821015613bd8575f5260205f209060021b01905f90565b5f1981146124275760010190565b805115613bd85760200190565b805160011015613bd85760400190565b805160021015613bd85760600190565b8051821015613bd85760209160051b010190565b90604051613fc881613b81565b6040613fe560028395805485526001810154602086015201613c46565b910152565b335f52600560205260405f20906040519161400483613b65565b549161ffff602060ff8516159283158152019360081c168352614180576001600160a01b03165f52600660205260405f2060ff600b8201541660068110156129db5760038103612a175750600881015460201c63ffffffff166140ca57600361ffff6140739351169101613bec565b50805461407f81613eb0565b9161408d6040519384613b9d565b81835260208301905f5260205f205f915b8383106140ac575050505090565b600460206001926140bc85613fbb565b81520192019201919061409e565b6003546140dd61ffff8260a01c16613ee0565b925f61ffff5f9360b01c16925b8381106140f957505050505090565b6001600160a01b038061410b83613bc0565b90549060031b1c16165f528460205260ff60405f2054169060038210156129db57600191821461413c575b016140ea565b61417a6141558261207561ffff88511660038b01613bec565b509361416961416382613f6c565b95613fbb565b614173828b613fa7565b5288613fa7565b50614136565b7f179e806d000000000000000000000000000000000000000000000000000000005f5260045ffd5b906018811015613bd85760051b0190565b60809093929193816103808201958237015f905b601882106141da57505050565b60208060019285518152019301910190916141cd565b7fffffffffffffffffffffffffffffffffffffffffffffffffffffffffffffffdc6040910112610b9e576040519061422782613b65565b60243582526044356020830152565b9190826040910312610b9e5760405161424e81613b65565b6020808294803584520135910152565b9061426882613eb0565b6142756040519182613b9d565b828152601f196142858294613eb0565b01905f5b82811061429557505050565b6020906040516142a481613b65565b5f81525f8382015282828501015201614289565b6001600160a01b03811680602c1461447257602b0361445657506040516142de81613b65565b7f1c58c52bbf3356d04d8f4c4182392de66a28aaf9a5cdab1f3e0f8cd47c14886881527f25bc1adf6b8cb4b6eff334b2b164df876bdf124c621ee8de555c9085d344dde8602082015260405161433381613b65565b7f03bb75e80a39e8afcee4f396477440968975a58b1a5f2222f48e7895bf4d553781527f2d21805332ed46c9a5b57834e87c0395bc07a7c4ded911184427cc0c1cae8e3760208201526040519061438982613b65565b7e66c9114c24ee2c19d1f994df7870948a33058ed2d8cbef9c2e4dac58fc154e82527f24f24561eb1defd2913e752e1deeef1aacfef6ef46a4a0360e2a0ed5a3b84a0b60208301526040519260806143e18186613b9d565b60038552601f19015f5b8181106144335750506143fd84613f7a565b5261440783613f7a565b5061441183613f87565b5261441b82613f87565b5061442582613f97565b5261442f81613f97565b5090565b60209060405161444281613b65565b5f81525f83820152828289010152016143eb565b61446f90614462614563565b61446a6144f2565b6151bd565b90565b7f642fee6e000000000000000000000000000000000000000000000000000000005f52600360045260245ffd5b8054821015613bd8575f5260205f209060011b01905f90565b80545f8255806144c6575050565b613e8c915f5260205f2090810190613cc5565b8054821015613bd8575f52600560205f20910201905f90565b6001600160a01b037f00000000000000000000000000000000000000000000000000000000000000001680301490811561452e575b50612b4257565b90506001600160a01b037f360894a13ba1a3210667c828492db98dca3e2076cc3735a920a3ca505d382bbc541614155f614527565b60ff5f54161561456f57565b7f9488aaa6000000000000000000000000000000000000000000000000000000005f5260045ffd5b335f52600160205260ff60405f2054161561365257565b906145b882613eb0565b6145c56040519182613b9d565b828152601f196145d58294613eb0565b01905f5b8281106145e557505050565b6020906040516145f481613b81565b60405161460081613b65565b5f81525f8482015281525f8382015260405161461b81613b65565b5f81525f848201526040820152828285010152016145d9565b906801000000000000000081116105d35781549181815582821061465757505050565b826005029260058404036124275781600502916005830403612427575f5260205f2091820191015b81811061468a575050565b6005905f81555f60018201555f60028201555f60038201555f60048201550161467f565b906146b882613eb0565b6146c56040519182613b9d565b828152601f196146d58294613eb0565b01905f5b8281106146e557505050565b8060606020809385010152016146d9565b8054905f815581614705575050565b7f3fffffffffffffffffffffffffffffffffffffffffffffffffffffffffffffff82168203612427575f5260205f209060021b8101905b818110614747575050565b805f600492555f60018201555f60028201555f60038201550161473c565b906801000000000000000081116105d35781549181815582821061478857505050565b5f5260205f2091820191015b81811061479f575050565b806147ab6001926146f6565b01614794565b8151916801000000000000000083116105d3578154838355808410614820575b50602001905f5260205f205f915b8383106147ec5750505050565b60046020828160406001955180518855828101518789015501518051600288015501516003860155019201920191906147df565b7f3fffffffffffffffffffffffffffffffffffffffffffffffffffffffffffffff81168103612427577f3fffffffffffffffffffffffffffffffffffffffffffffffffffffffffffffff8416840361242757825f5260205f209060021b8101908460021b015b81811061489357506147d1565b805f600492555f60018201555f60028201555f600382015501614886565b91906148c057613e8c916147b1565b634e487b7160e01b5f525f60045260245ffd5b906148dd82613eb0565b6148ea6040519182613b9d565b828152601f196148fa8294613eb0565b0190602036910137565b80545f825580614912575050565b613e8c915f52601f60205f20910160051c810190613cc5565b906801000000000000000081116105d357815481835580821061494d57505050565b613e8c925f52601f60205f20918180850160051c8401941680614977575b500160051c0190613cc5565b5f198501905f1982549160200360031b1c1690555f61496b565b67ffffffffffffffff7ff0c57e16840df040f15088dc2f81fe391c3923bec73e23a9662efc9c229c6a005416156149c457565b7f0206032a000000000000000000000000000000000000000000000000000000005f5260045ffd5b6001600160a01b037f9016d09d72d40fdae2fd8ceac6b6234c7706214fd39c1cd1e609a0528c19930054163303614a1f57565b7f118cdaa7000000000000000000000000000000000000000000000000000000005f523360045260245ffd5b335f52600560205260405f2060405190614a6482613b65565b549061ffff602060ff8416159283158152019260081c168252614180575161ffff1690565b60035460b01c61ffff16905f5b828110614aa557505050600190565b60ff614ab482600a8501613cdb565b90549060031b1c1615614ac957600101614a96565b5050505f90565b9035907fffffffffffffffffffffffffffffffffffffffffffffffffffffffffffffffe181360301821215610b9e570180359067ffffffffffffffff8211610b9e57602001918160071b36038313610b9e57565b9190811015613bd85760071b0190565b90816040910312610b9e57602060405191614b4e83613b65565b805183520151602082015290565b91906148c05760608160039235845560208101356001850155604081013560028501550135910155565b906024811015613bd85760051b0190565b61ffff5f199116019061ffff821161242757565b61ffff60039116029061ffff821691820361242757565b61ffff60059116029061ffff821691820361242757565b61ffff166005019061ffff821161242757565b61ffff60019116019061ffff821161242757565b6040517fe8c8742800000000000000000000000000000000000000000000000000000000815281516004820152602080830151602483015290919073__$cd8e5b0fce2a2098a77e7e270995adb554$__9083604481845af49283156128e2575f93614d6e575b508215614cf6575b8215614c7d575b50506129b357565b6040517fe128c1aa0000000000000000000000000000000000000000000000000000000081528251600482015260209283015160248201529250829060449082905af49081156128e2575f91614cd7575b50155f80614c75565b614cf0915060203d6020116107b2576107a48183613b9d565b5f614cce565b6040517f8071469c0000000000000000000000000000000000000000000000000000000081528251600482015260208084015160248301529193509081604481865af49081156128e2575f91614d4f575b501591614c6e565b614d68915060203d6020116107b2576107a48183613b9d565b5f614d47565b614d8891935060203d6020116107b2576107a48183613b9d565b915f614c66565b6001600160a01b0390614da661037a366084614236565b165f52600660205260405f209060ff600b8301541660068110156129db5760018103612a1757506002820190614de46020610ef361038884866144d9565b038173__$cd8e5b0fce2a2098a77e7e270995adb554$__5af49081156128e2575f91614e46575b50156129ef57614e1a916144d9565b6148c0576024358155604435600182015560643560028201556084356003820155600460a43591015590565b614e5f915060203d6020116107b2576107a48183613b9d565b5f614e0b565b614e6e81613c46565b6040517f8a9088a300000000000000000000000000000000000000000000000000000000815281516004820152602091820151602482015273__$cd8e5b0fce2a2098a77e7e270995adb554$__9181604481855af49081156128e2575f91614f79575b50614f67579060406084928151938480927f9679db0d00000000000000000000000000000000000000000000000000000000825285546004830152602060018701988954602485015280516044850152015160648301525af49081156128e2576020925f92614f46575b508151905501519055565b614f6091925060403d6040116128db576128cd8183613b9d565b905f614f3b565b50906020816001925184550151910155565b614f92915060203d6020116107b2576107a48183613b9d565b5f614ed1565b90600b83019260ff84541660068110156129db576001036150b557614fbc81615555565b156150b557600881019163ffffffff835416105f146150115750506001600160a01b03167ffc3b5c81fbd3f5eaaf811aef4c5147873723d4d017233e4a5513fc05f02da9435f80a2600460ff19825416179055565b909192600260ff19825416179055600461503361ffff60035460b01c1661425e565b910160208251926150448484613d5b565b01905f5260205f205f915b838310615095575050505063ffffffff6001600160a01b03915460201c1691167fa5af724b9b00615e3776eacfb6aaed5a999936645a0d9486067ebaaaf1f746085f80a3565b60026020828160019451805187550151848601550192019201919061504f565b50505050565b7fffffffffffffffffffffffff00000000000000000000000000000000000000007f237e158222e3e6968b72b9db0d8043aacf074ad9f650f0d1606b4d82ee432c0054167f237e158222e3e6968b72b9db0d8043aacf074ad9f650f0d1606b4d82ee432c00556001600160a01b03807f9016d09d72d40fdae2fd8ceac6b6234c7706214fd39c1cd1e609a0528c19930054921691827fffffffffffffffffffffffff00000000000000000000000000000000000000008216177f9016d09d72d40fdae2fd8ceac6b6234c7706214fd39c1cd1e609a0528c19930055167f8be0079c531659141344cd1fd0a4f28419497f9722a3daafe3b4186f6b6457e05f80a3565b335f52600560205260405f20604051906151d682613b65565b5490602061ffff60ff841615938415845260081c16910152614180576001600160a01b03165f52600660205260405f2060ff600b8201541660068110156129db5760028103612a1757506001600160a01b0333165f528060205260ff60405f20541660038110156129db576001036152515761446f906153bf565b50604051615260602082613b9d565b5f81525f805b81811061527257505090565b60209060405161528181613b65565b5f81525f8382015282828601015201615266565b909291925f60068301555f60078301556152b160098301614904565b6152bd600a8301614904565b600282018054905f81558161537a575b5050600382018054905f815581615355575b5050600882017fffffffffffffffffffffffffffffffffffffffffffffffff000000000000000081541690555f5b818110615324575050613e8c919250600401613cf9565b806001600160a01b038061533a60019489613fa7565b5116165f528360205260405f2060ff1981541690550161530d565b5f5260205f20908101905b818110156152df57806153746001926146f6565b01615360565b81600502916005830403612427575f5260205f20908101905b818110156152cd576005905f81555f60018201555f60028201555f60038201555f600482015501615393565b61ffff60035460b01c166153d28161425e565b915f5b8281106153e25750505090565b806153fe60036153f7600194600287016144d9565b5001613c46565b6154088287613fa7565b526154138186613fa7565b50016153d5565b90600b83019060ff82541660068110156129db576002036150b5576003545f9060b01c61ffff1660098601825b828110615522575050500361551d57805460ff19166003179055600882015460201c63ffffffff1691826154a757506001600160a01b039150167f7f44e24aecdf5952e755e1b91c7a7e576343b3764b9e08161a629f2898b4d80f5f80a2565b60010190604051906020820160208352835480915260408301935f5260205f20905f5b8181106155075750505090806001600160a01b037f76a6be7fc584ce6005b8f9e767f06b6684986dd5768e774c15d9c5af5a45a3049316930390a3565b82548652602090950194600192830192016154ca565b505050565b60ff61552e8284613cdb565b90549060031b1c16615543575b600101615447565b9260018101809111612427579261553b565b60035460b01c61ffff16905f5b82811061557157505050600190565b6001600160a01b038061558383613bc0565b90549060031b1c16165f528160205260ff60405f20541660038110156129db5715614ac957600101615562565b60ff7ff0c57e16840df040f15088dc2f81fe391c3923bec73e23a9662efc9c229c6a005460401c16156155df57565b7fd7e6bcf8000000000000000000000000000000000000000000000000000000005f5260045ffd5b905f8091602081519101845af480806156ae575b1561563b5750506040513d81523d5f602083013e60203d82010160405290565b15615675576001600160a01b03907f9996b315000000000000000000000000000000000000000000000000000000005f521660045260245ffd5b3d15615686576040513d5f823e3d90fd5b7fd6bda275000000000000000000000000000000000000000000000000000000005f5260045ffd5b503d15158061561b5750813b151561561b56fea264697066735822122096225a916eeb1d1c8c26bf18aed65618f3cd4aa92800bec13f7c3eff1823d05064736f6c634300081e0033f0c57e16840df040f15088dc2f81fe391c3923bec73e23a9662efc9c229c6a00","linkReferences":{"src/BabyJubJub.sol":{"BabyJubJub":[{"start":797,"length":20},{"start":4098,"length":20},{"start":6437,"length":20},{"start":7101,"length":20},{"start":10384,"length":20},{"start":12186,"length":20},{"start":14286,"length":20},{"start":19716,"length":20},{"start":20143,"length":20},{"start":20335,"length":20}]}}},"methodIdentifiers":{"UPGRADE_INTERFACE_VERSION()":"ad3cb1cc","abortKeyGen(uint160)":"9d49d672","acceptOwnership()":"79ba5097","addKeyGenAdmin(address)":"222c211e","addRound1KeyGenContribution(uint160,((uint256,uint256),uint256,(uint256,uint256)))":"64a97889","addRound1ReshareContribution(uint160,((uint256,uint256),uint256,(uint256,uint256)))":"ffb96673","addRound2Contribution(uint160,(uint256[4],(uint256,uint256,(uint256,uint256))[]))":"5fd59919","addRound3Contribution(uint160)":"3892750a","amountKeygenAdmins()":"d46a3ac6","checkIsParticipantAndReturnRound2Ciphers(uint160)":"53fac9ad","deleteOprfPublicKey(uint160)":"3bcc1630","emitDeleteEvent(uint160)":"ff3a3588","getOprfPublicKey(uint160)":"7488e8e7","getOprfPublicKeyAndEpoch(uint160)":"8f065f8d","getPartyIdForParticipant(address)":"f720fce3","initKeyGen(uint160)":"be28b7a8","initReshare(uint160)":"1acc6e09","initialize(address,address,address,uint16,uint16)":"fd1bae58","isContractReady()":"3a02230d","keyGenVerifier()":"9f249044","keygenAdmins(address)":"513c72f1","loadPeerPublicKeysForConsumers(uint160)":"b13590ec","loadPeerPublicKeysForProducers(uint160)":"90ea46f5","numPeers()":"79a4753c","owner()":"8da5cb5b","peerAddresses(uint256)":"79ad89e8","pendingOwner()":"e30c3978","proxiableUUID()":"52d1902d","registerOprfPeers(address[])":"32c7e3b6","renounceOwnership()":"715018a6","revokeKeyGenAdmin(address)":"ea2ca963","threshold()":"42cde4e8","transferOwnership(address)":"f2fde38b","upgradeToAndCall(address,bytes)":"4f1ef286"},"id":18}