{"abi":[{"type":"function","name":"UPGRADE_INTERFACE_VERSION","inputs":[],"outputs":[{"name":"","type":"string","internalType":"string"}],"stateMutability":"view"},{"type":"function","name":"abortKeyGen","inputs":[{"name":"oprfKeyId","type":"uint160","internalType":"uint160"}],"outputs":[],"stateMutability":"nonpayable"},{"type":"function","name":"acceptOwnership","inputs":[],"outputs":[],"stateMutability":"nonpayable"},{"type":"function","name":"addKeyGenAdmin","inputs":[{"name":"_keygenAdmin","type":"address","internalType":"address"}],"outputs":[],"stateMutability":"nonpayable"},{"type":"function","name":"addRound1KeyGenContribution","inputs":[{"name":"oprfKeyId","type":"uint160","internalType":"uint160"},{"name":"data","type":"tuple","internalType":"struct OprfKeyGen.Round1Contribution","components":[{"name":"commShare","type":"tuple","internalType":"struct BabyJubJub.Affine","components":[{"name":"x","type":"uint256","internalType":"uint256"},{"name":"y","type":"uint256","internalType":"uint256"}]},{"name":"commCoeffs","type":"uint256","internalType":"uint256"},{"name":"ephPubKey","type":"tuple","internalType":"struct BabyJubJub.Affine","components":[{"name":"x","type":"uint256","internalType":"uint256"},{"name":"y","type":"uint256","internalType":"uint256"}]}]}],"outputs":[],"stateMutability":"nonpayable"},{"type":"function","name":"addRound1ReshareContribution","inputs":[{"name":"oprfKeyId","type":"uint160","internalType":"uint160"},{"name":"data","type":"tuple","internalType":"struct OprfKeyGen.Round1Contribution","components":[{"name":"commShare","type":"tuple","internalType":"struct BabyJubJub.Affine","components":[{"name":"x","type":"uint256","internalType":"uint256"},{"name":"y","type":"uint256","internalType":"uint256"}]},{"name":"commCoeffs","type":"uint256","internalType":"uint256"},{"name":"ephPubKey","type":"tuple","internalType":"struct BabyJubJub.Affine","components":[{"name":"x","type":"uint256","internalType":"uint256"},{"name":"y","type":"uint256","internalType":"uint256"}]}]}],"outputs":[],"stateMutability":"nonpayable"},{"type":"function","name":"addRound2Contribution","inputs":[{"name":"oprfKeyId","type":"uint160","internalType":"uint160"},{"name":"data","type":"tuple","internalType":"struct OprfKeyGen.Round2Contribution","components":[{"name":"compressedProof","type":"uint256[4]","internalType":"uint256[4]"},{"name":"ciphers","type":"tuple[]","internalType":"struct OprfKeyGen.SecretGenCiphertext[]","components":[{"name":"nonce","type":"uint256","internalType":"uint256"},{"name":"cipher","type":"uint256","internalType":"uint256"},{"name":"commitment","type":"tuple","internalType":"struct BabyJubJub.Affine","components":[{"name":"x","type":"uint256","internalType":"uint256"},{"name":"y","type":"uint256","internalType":"uint256"}]}]}]}],"outputs":[],"stateMutability":"nonpayable"},{"type":"function","name":"addRound3Contribution","inputs":[{"name":"oprfKeyId","type":"uint160","internalType":"uint160"}],"outputs":[],"stateMutability":"nonpayable"},{"type":"function","name":"amountKeygenAdmins","inputs":[],"outputs":[{"name":"","type":"uint256","internalType":"uint256"}],"stateMutability":"view"},{"type":"function","name":"checkIsParticipantAndReturnRound2Ciphers","inputs":[{"name":"oprfKeyId","type":"uint160","internalType":"uint160"}],"outputs":[{"name":"","type":"tuple[]","internalType":"struct OprfKeyGen.SecretGenCiphertext[]","components":[{"name":"nonce","type":"uint256","internalType":"uint256"},{"name":"cipher","type":"uint256","internalType":"uint256"},{"name":"commitment","type":"tuple","internalType":"struct BabyJubJub.Affine","components":[{"name":"x","type":"uint256","internalType":"uint256"},{"name":"y","type":"uint256","internalType":"uint256"}]}]}],"stateMutability":"view"},{"type":"function","name":"deleteOprfPublicKey","inputs":[{"name":"oprfKeyId","type":"uint160","internalType":"uint160"}],"outputs":[],"stateMutability":"nonpayable"},{"type":"function","name":"emitDeleteEvent","inputs":[{"name":"oprfKeyId","type":"uint160","internalType":"uint160"}],"outputs":[],"stateMutability":"nonpayable"},{"type":"function","name":"emitSecretGenFinalize","inputs":[{"name":"oprfKeyId","type":"uint160","internalType":"uint160"},{"name":"epoch","type":"uint32","internalType":"uint32"}],"outputs":[],"stateMutability":"nonpayable"},{"type":"function","name":"getOprfPublicKey","inputs":[{"name":"oprfKeyId","type":"uint160","internalType":"uint160"}],"outputs":[{"name":"","type":"tuple","internalType":"struct BabyJubJub.Affine","components":[{"name":"x","type":"uint256","internalType":"uint256"},{"name":"y","type":"uint256","internalType":"uint256"}]}],"stateMutability":"view"},{"type":"function","name":"getOprfPublicKeyAndEpoch","inputs":[{"name":"oprfKeyId","type":"uint160","internalType":"uint160"}],"outputs":[{"name":"","type":"tuple","internalType":"struct OprfKeyGen.RegisteredOprfPublicKey","components":[{"name":"key","type":"tuple","internalType":"struct BabyJubJub.Affine","components":[{"name":"x","type":"uint256","internalType":"uint256"},{"name":"y","type":"uint256","internalType":"uint256"}]},{"name":"epoch","type":"uint32","internalType":"uint32"}]}],"stateMutability":"view"},{"type":"function","name":"getPartyIdForParticipant","inputs":[{"name":"participant","type":"address","internalType":"address"}],"outputs":[{"name":"","type":"uint256","internalType":"uint256"}],"stateMutability":"view"},{"type":"function","name":"initKeyGen","inputs":[{"name":"oprfKeyId","type":"uint160","internalType":"uint160"}],"outputs":[],"stateMutability":"nonpayable"},{"type":"function","name":"initReshare","inputs":[{"name":"oprfKeyId","type":"uint160","internalType":"uint160"}],"outputs":[],"stateMutability":"nonpayable"},{"type":"function","name":"initialize","inputs":[{"name":"_owner","type":"address","internalType":"address"},{"name":"_keygenAdmin","type":"address","internalType":"address"},{"name":"_keyGenVerifierAddress","type":"address","internalType":"address"},{"name":"_threshold","type":"uint16","internalType":"uint16"},{"name":"_numPeers","type":"uint16","internalType":"uint16"}],"outputs":[],"stateMutability":"nonpayable"},{"type":"function","name":"isContractReady","inputs":[],"outputs":[{"name":"","type":"bool","internalType":"bool"}],"stateMutability":"view"},{"type":"function","name":"keyGenVerifier","inputs":[],"outputs":[{"name":"","type":"address","internalType":"address"}],"stateMutability":"view"},{"type":"function","name":"keygenAdmins","inputs":[{"name":"","type":"address","internalType":"address"}],"outputs":[{"name":"","type":"bool","internalType":"bool"}],"stateMutability":"view"},{"type":"function","name":"loadPeerPublicKeysForConsumers","inputs":[{"name":"oprfKeyId","type":"uint160","internalType":"uint160"}],"outputs":[{"name":"","type":"tuple[]","internalType":"struct BabyJubJub.Affine[]","components":[{"name":"x","type":"uint256","internalType":"uint256"},{"name":"y","type":"uint256","internalType":"uint256"}]}],"stateMutability":"view"},{"type":"function","name":"loadPeerPublicKeysForProducers","inputs":[{"name":"oprfKeyId","type":"uint160","internalType":"uint160"}],"outputs":[{"name":"","type":"tuple[]","internalType":"struct BabyJubJub.Affine[]","components":[{"name":"x","type":"uint256","internalType":"uint256"},{"name":"y","type":"uint256","internalType":"uint256"}]}],"stateMutability":"view"},{"type":"function","name":"numPeers","inputs":[],"outputs":[{"name":"","type":"uint16","internalType":"uint16"}],"stateMutability":"view"},{"type":"function","name":"owner","inputs":[],"outputs":[{"name":"","type":"address","internalType":"address"}],"stateMutability":"view"},{"type":"function","name":"peerAddresses","inputs":[{"name":"","type":"uint256","internalType":"uint256"}],"outputs":[{"name":"","type":"address","internalType":"address"}],"stateMutability":"view"},{"type":"function","name":"pendingOwner","inputs":[],"outputs":[{"name":"","type":"address","internalType":"address"}],"stateMutability":"view"},{"type":"function","name":"proxiableUUID","inputs":[],"outputs":[{"name":"","type":"bytes32","internalType":"bytes32"}],"stateMutability":"view"},{"type":"function","name":"registerOprfPeers","inputs":[{"name":"_peerAddresses","type":"address[]","internalType":"address[]"}],"outputs":[],"stateMutability":"nonpayable"},{"type":"function","name":"renounceOwnership","inputs":[],"outputs":[],"stateMutability":"nonpayable"},{"type":"function","name":"revokeKeyGenAdmin","inputs":[{"name":"_keygenAdmin","type":"address","internalType":"address"}],"outputs":[],"stateMutability":"nonpayable"},{"type":"function","name":"threshold","inputs":[],"outputs":[{"name":"","type":"uint16","internalType":"uint16"}],"stateMutability":"view"},{"type":"function","name":"transferOwnership","inputs":[{"name":"newOwner","type":"address","internalType":"address"}],"outputs":[],"stateMutability":"nonpayable"},{"type":"function","name":"upgradeToAndCall","inputs":[{"name":"newImplementation","type":"address","internalType":"address"},{"name":"data","type":"bytes","internalType":"bytes"}],"outputs":[],"stateMutability":"payable"},{"type":"event","name":"Initialized","inputs":[{"name":"version","type":"uint64","indexed":false,"internalType":"uint64"}],"anonymous":false},{"type":"event","name":"KeyDeletion","inputs":[{"name":"oprfKeyId","type":"uint160","indexed":true,"internalType":"uint160"}],"anonymous":false},{"type":"event","name":"KeyGenAbort","inputs":[{"name":"oprfKeyId","type":"uint160","indexed":true,"internalType":"uint160"}],"anonymous":false},{"type":"event","name":"KeyGenAdminRegistered","inputs":[{"name":"admin","type":"address","indexed":true,"internalType":"address"}],"anonymous":false},{"type":"event","name":"KeyGenAdminRevoked","inputs":[{"name":"admin","type":"address","indexed":true,"internalType":"address"}],"anonymous":false},{"type":"event","name":"KeyGenConfirmation","inputs":[{"name":"oprfKeyId","type":"uint160","indexed":true,"internalType":"uint160"},{"name":"partyId","type":"uint16","indexed":true,"internalType":"uint16"},{"name":"round","type":"uint8","indexed":false,"internalType":"uint8"},{"name":"epoch","type":"uint32","indexed":false,"internalType":"uint32"}],"anonymous":false},{"type":"event","name":"NotEnoughProducers","inputs":[{"name":"oprfKeyId","type":"uint160","indexed":true,"internalType":"uint160"}],"anonymous":false},{"type":"event","name":"OprfPeerChanged","inputs":[{"name":"partyId","type":"uint16","indexed":true,"internalType":"uint16"},{"name":"oldPeer","type":"address","indexed":true,"internalType":"address"},{"name":"newPeer","type":"address","indexed":true,"internalType":"address"}],"anonymous":false},{"type":"event","name":"OwnershipTransferStarted","inputs":[{"name":"previousOwner","type":"address","indexed":true,"internalType":"address"},{"name":"newOwner","type":"address","indexed":true,"internalType":"address"}],"anonymous":false},{"type":"event","name":"OwnershipTransferred","inputs":[{"name":"previousOwner","type":"address","indexed":true,"internalType":"address"},{"name":"newOwner","type":"address","indexed":true,"internalType":"address"}],"anonymous":false},{"type":"event","name":"ReshareRound1","inputs":[{"name":"oprfKeyId","type":"uint160","indexed":true,"internalType":"uint160"},{"name":"threshold","type":"uint256","indexed":false,"internalType":"uint256"},{"name":"epoch","type":"uint32","indexed":true,"internalType":"uint32"}],"anonymous":false},{"type":"event","name":"ReshareRound3","inputs":[{"name":"oprfKeyId","type":"uint160","indexed":true,"internalType":"uint160"},{"name":"lagrange","type":"uint256[]","indexed":false,"internalType":"uint256[]"},{"name":"epoch","type":"uint32","indexed":true,"internalType":"uint32"}],"anonymous":false},{"type":"event","name":"SecretGenFinalize","inputs":[{"name":"oprfKeyId","type":"uint160","indexed":true,"internalType":"uint160"},{"name":"epoch","type":"uint32","indexed":true,"internalType":"uint32"}],"anonymous":false},{"type":"event","name":"SecretGenRound1","inputs":[{"name":"oprfKeyId","type":"uint160","indexed":true,"internalType":"uint160"},{"name":"threshold","type":"uint256","indexed":false,"internalType":"uint256"}],"anonymous":false},{"type":"event","name":"SecretGenRound2","inputs":[{"name":"oprfKeyId","type":"uint160","indexed":true,"internalType":"uint160"},{"name":"epoch","type":"uint32","indexed":true,"internalType":"uint32"}],"anonymous":false},{"type":"event","name":"SecretGenRound3","inputs":[{"name":"oprfKeyId","type":"uint160","indexed":true,"internalType":"uint160"}],"anonymous":false},{"type":"event","name":"Upgraded","inputs":[{"name":"implementation","type":"address","indexed":true,"internalType":"address"}],"anonymous":false},{"type":"error","name":"AddressEmptyCode","inputs":[{"name":"target","type":"address","internalType":"address"}]},{"type":"error","name":"AlreadySubmitted","inputs":[]},{"type":"error","name":"BadContribution","inputs":[]},{"type":"error","name":"DeletedId","inputs":[{"name":"id","type":"uint160","internalType":"uint160"}]},{"type":"error","name":"ERC1967InvalidImplementation","inputs":[{"name":"implementation","type":"address","internalType":"address"}]},{"type":"error","name":"ERC1967NonPayable","inputs":[]},{"type":"error","name":"FailedCall","inputs":[]},{"type":"error","name":"ImplementationNotInitialized","inputs":[]},{"type":"error","name":"InvalidInitialization","inputs":[]},{"type":"error","name":"LastAdmin","inputs":[]},{"type":"error","name":"NotAParticipant","inputs":[]},{"type":"error","name":"NotAProducer","inputs":[]},{"type":"error","name":"NotInitializing","inputs":[]},{"type":"error","name":"NotReady","inputs":[]},{"type":"error","name":"OnlyAdmin","inputs":[]},{"type":"error","name":"OwnableInvalidOwner","inputs":[{"name":"owner","type":"address","internalType":"address"}]},{"type":"error","name":"OwnableUnauthorizedAccount","inputs":[{"name":"account","type":"address","internalType":"address"}]},{"type":"error","name":"PartiesNotDistinct","inputs":[]},{"type":"error","name":"UUPSUnauthorizedCallContext","inputs":[]},{"type":"error","name":"UUPSUnsupportedProxiableUUID","inputs":[{"name":"slot","type":"bytes32","internalType":"bytes32"}]},{"type":"error","name":"UnexpectedAmountPeers","inputs":[{"name":"expectedParties","type":"uint256","internalType":"uint256"}]},{"type":"error","name":"UnknownId","inputs":[{"name":"id","type":"uint160","internalType":"uint160"}]},{"type":"error","name":"UnsupportedNumPeersThreshold","inputs":[]},{"type":"error","name":"WrongRound","inputs":[{"name":"","type":"uint8","internalType":"enum OprfKeyGen.Round"}]}],"bytecode":{"object":"0x60a080604052346100c257306080525f5160206158255f395f51905f525460ff8160401c166100b3576002600160401b03196001600160401b03821601610060575b60405161575e90816100c78239608051818181612b5901526145630152f35b6001600160401b0319166001600160401b039081175f5160206158255f395f51905f525581527fc7f505b2f371ae2175ee4913f4499e1f2633a7b5936321eed1cdaeb6115181d290602090a15f80610041565b63f92ee8a960e01b5f5260045ffd5b5f80fdfe60806040526004361015610011575f80fd5b5f5f3560e01c80631acc6e09146136ea578063222c211e146135d757806332c7e3b6146132635780633892750a146130665780633a02230d146130455780633bcc163014612ebd57806342cde4e814612e995780634f1ef28614612c0e578063513c72f114612bd157806352d1902d14612b3f57806353fac9ad14612aa95780635fd5991914611e6557806364a9788914611cdc578063715018a614611bc55780637488e8e714611ae257806379a4753c14611abd57806379ad89e814611a7a57806379ba509714611a005780638da5cb5b146119ba5780638f065f8d1461182c57806390ea46f5146117eb5780639d49d672146117155780639f249044146116ee578063ad3cb1cc1461167a578063afb915d81461161a578063b13590ec14611453578063be28b7a814610e7c578063d46a3ac614610e5e578063e30c397814610e18578063ea2ca96314610d33578063f2fde38b14610c4e578063f720fce314610bad578063fd1bae5814610869578063ff3a35881461081f5763ffb966731461019b575f80fd5b3461081c5760c060031936011261081c576101b4613bb6565b60a07fffffffffffffffffffffffffffffffffffffffffffffffffffffffffffffffdc36011261081a576101e6614559565b6101ee6145ca565b6101f6614ab2565b9061ffff8216916102078383614df6565b600881019163ffffffff835460201c161561076d57859061022736614257565b6040517f8a9088a300000000000000000000000000000000000000000000000000000000815281516004820152602091820151602482015273__$cd8e5b0fce2a2098a77e7e270995adb554$__9181604481855af490811561080f5784916107f0575b50606435159080806107e9575b80156107cf575b1561033f575050507f8a1df8d1089dbf7577f56d95c8833f55846e6aeced87f49135c725f9f177c0fc936103276040946001600160a01b0394600261031363ffffffff968833165f5284602052895f208360ff198254161790558285015f60016103088484614540565b508281550155614540565b5001555b61ffff60035460a01c1688614fff565b5460201c16938251946001865260208601521692a380f35b91935090151514610372576004877f497231a7000000000000000000000000000000000000000000000000000000008152fd5b6103936103999161038a61038536614257565b614c67565b60058501614506565b50613cad565b6020604051917f2ba6bab9000000000000000000000000000000000000000000000000000000008352805160048401520151602482015260243560448201526044356064820152602081608481855af49081156107c4578791610795575b501561076d576001600160a01b0333165f528160205260405f20600160ff1982541617905563ffffffff61042d81855416613ce3565b167fffffffffffffffffffffffffffffffffffffffffffffffffffffffff0000000084541617835563ffffffff835416906003549161ffff8360a01c168091146104af575b5050506001600160a01b0363ffffffff7f8a1df8d1089dbf7577f56d95c8833f55846e6aeced87f49135c725f9f177c0fc93610327604094610317565b9187916104bb84613f17565b916104c96040519384613c04565b8483526104d585613f17565b90601f1960208501920136833760b01c61ffff1684805b8281106106ca5750506040519586947f37d2224c00000000000000000000000000000000000000000000000000000000865260648601906060600488015251809152608486019390875b8181106106ae57505050602485015260448401528290039082905af49081156106a3578691610606575b506001820181519167ffffffffffffffff83116105f2576801000000000000000083116105de5760209082548484558085106105c3575b500190875260208720875b8381106105af5750610472565b6001906020845194019381840155016105a2565b6105d890845f5285845f209182019101613d2c565b5f610597565b634e487b7160e01b5f52604160045260245ffd5b602488634e487b7160e01b81526041600452fd5b90503d8087833e6106178183613c04565b81019060208183031261069b5780519067ffffffffffffffff821161069f57019080601f8301121561069b57815161064e81613f17565b9261065c6040519485613c04565b81845260208085019260051b82010192831161069757602001905b828210610687575050505f610560565b8151815260209182019101610677565b8880fd5b8680fd5b8780fd5b6040513d88823e3d90fd5b825186528e985089975060209586019590920191600101610536565b90919395506001600160a01b036106e48298949698613c27565b90549060031b1c166001600160a01b0381165f528860205260ff60405f205416600381101561075957600192918e91841461072b575b505001908b959391969492966104ec565b81526005602052604090205460081c61ffff1661075161074a85613fd3565b948a61400e565b528c5f61071a565b60248e634e487b7160e01b81526021600452fd5b6004867f497231a7000000000000000000000000000000000000000000000000000000008152fd5b6107b7915060203d6020116107bd575b6107af8183613c04565b810190613ccb565b5f6103f7565b503d6107a5565b6040513d89823e3d90fd5b5063ffffffff87541661ffff60035460a01c16111561029e565b5081610297565b610809915060203d6020116107bd576107af8183613c04565b5f61028a565b6040513d86823e3d90fd5b505b80fd5b503461081c57602060031936011261081c576001600160a01b03610841613bb6565b167f80289566e41bae426a6ba7392c3b723699ac38c2b5bbeab84f247b0d5a44a9bd8280a280f35b503461081c5760a060031936011261081c57610883613bb6565b6024356001600160a01b038116809103610ba9576044356001600160a01b038116809103610ba9576064359061ffff82168203610ba9576084359261ffff84168403610ba9577ff0c57e16840df040f15088dc2f81fe391c3923bec73e23a9662efc9c229c6a00549460ff8660401c16159567ffffffffffffffff811680159081610ba1575b6001149081610b97575b159081610b8e575b50610b66578660017fffffffffffffffffffffffffffffffffffffffffffffffff00000000000000008316177ff0c57e16840df040f15088dc2f81fe391c3923bec73e23a9662efc9c229c6a0055610b11575b50610977615617565b61097f615617565b6001600160a01b03811615610ae55761099790615122565b61099f615617565b8552600160205260408520600160ff1982541617905560025460018101809111610ad1579075ffff0000000000000000000000000000000000000000916002557fffffffffffffffff00000000000000000000000000000000000000000000000077ffff000000000000000000000000000000000000000000006003549560b01b169416179160a01b16171760035560ff198254168255610a3d5780f35b7fffffffffffffffffffffffffffffffffffffffffffffff00ffffffffffffffff7ff0c57e16840df040f15088dc2f81fe391c3923bec73e23a9662efc9c229c6a0054167ff0c57e16840df040f15088dc2f81fe391c3923bec73e23a9662efc9c229c6a00557fc7f505b2f371ae2175ee4913f4499e1f2633a7b5936321eed1cdaeb6115181d2602060405160018152a180f35b602486634e487b7160e01b81526011600452fd5b6024877f1e4fbdf700000000000000000000000000000000000000000000000000000000815280600452fd5b7fffffffffffffffffffffffffffffffffffffffffffffff0000000000000000001668010000000000000001177ff0c57e16840df040f15088dc2f81fe391c3923bec73e23a9662efc9c229c6a00555f61096e565b6004887ff92ee8a9000000000000000000000000000000000000000000000000000000008152fd5b9050155f61091b565b303b159150610913565b889150610909565b5f80fd5b503461081c57602060031936011261081c576001600160a01b03610bcf613bb6565b610bd76145ca565b610bdf614559565b1681526005602052604081209060405191610bf983613bcc565b549161ffff602060ff8516159283158152019360081c168352610c2657602061ffff835116604051908152f35b807f179e806d0000000000000000000000000000000000000000000000000000000060049252fd5b503461081c57602060031936011261081c576001600160a01b03610c70613bb6565b610c78614a53565b16807fffffffffffffffffffffffff00000000000000000000000000000000000000007f237e158222e3e6968b72b9db0d8043aacf074ad9f650f0d1606b4d82ee432c005416177f237e158222e3e6968b72b9db0d8043aacf074ad9f650f0d1606b4d82ee432c00556001600160a01b037f9016d09d72d40fdae2fd8ceac6b6234c7706214fd39c1cd1e609a0528c19930054167f38d16b8cac22d99fc7c124b9cd0de2d3fa1faef420bfe791d8c362d765e227008380a380f35b503461081c57602060031936011261081c576001600160a01b03610d55613bb6565b610d5d614559565b610d656149f8565b610d6d6145fe565b16808252600160205260ff604083205416610d86575080f35b600160025414610df05780825260016020526040822060ff1981541690556002545f198101908111610ddc576002557f91a41cb54dfb87bb7e56c71460111884f994581486eee7500b246b87ff23543a8280a280f35b602483634e487b7160e01b81526011600452fd5b6004827fdf0e465e000000000000000000000000000000000000000000000000000000008152fd5b503461081c578060031936011261081c5760206001600160a01b037f237e158222e3e6968b72b9db0d8043aacf074ad9f650f0d1606b4d82ee432c005416604051908152f35b503461081c578060031936011261081c576020600254604051908152f35b503461081c57602060031936011261081c576001600160a01b03610e9e613bb6565b610ea6614559565b610eae6145ca565b610eb66145fe565b16801561142b5780825260076020526040822081835260066020526040832090600b82019060ff8254166006811015611417576005146113eb576020610efe610f4292613cad565b6040517f8a9088a300000000000000000000000000000000000000000000000000000000815281516004820152602090910151602482015291829081906044820190565b038173__$cd8e5b0fce2a2098a77e7e270995adb554$__5af49081156113e05785916113c1575b50158015611397575b61136f5761ffff60035460b01c1690600160ff19825416179055600882017fffffffffffffffffffffffffffffffffffffffffffffffff00000000ffffffff8154169055610fbf81614615565b600283016020825192610fd2848461469b565b019086526020862086915b8383106113315750505050610ff181614715565b6003830190602081519161100583856147cc565b018287526020872087915b8383106113145750505050845b8281106112ef57505061102f816142c5565b6004830160208251926110428484613dc2565b019086526020862086915b8383106112cf5750505050611061816142c5565b6005830160208251926110748484613dc2565b019086526020862086915b8383106112af57505050506110938161493a565b8051600984019167ffffffffffffffff821161129b576020906110b68385614992565b01918652602086208160051c91875b8381106112565750601f19811690038061120a575b505050506110e9600a9161493a565b91019080519067ffffffffffffffff82116111f65760209061110b8385614992565b01918452602084208160051c91855b8381106111b15750601f198116900380611168575b85857f26f21388e5d2b26dd079f0818b44f6f37c89dbf5950f6e4bfc2bd54301eb6103602061ffff60035460a01c16604051908152a280f35b928593865b8181106111825750505001555f80808061112f565b90919460206111a76001928489511515919060ff809160031b9316831b921b19161790565b960192910161116d565b86875b602081106111c957508382015560010161111a565b959060206111ed6001928985511515919060ff809160031b9316831b921b19161790565b920196016111b4565b602485634e487b7160e01b81526041600452fd5b928793885b8181106112275750505001556110e9600a5f806110da565b909194602061124c6001928489511515919060ff809160031b9316831b921b19161790565b960192910161120f565b88895b6020811061126e5750838201556001016110c5565b959060206112926001928985511515919060ff809160031b9316831b921b19161790565b92019601611259565b602487634e487b7160e01b81526041600452fd5b60026020828160019451805187550151848601550192019201919061107f565b60026020828160019451805187550151848601550192019201919061104d565b60019061130e6112fe85613f47565b6113088386613c53565b90614918565b0161101d565b600160208261132583945186614818565b01920192019190611010565b60056020828160406001955182815180518a550151878901558281015160028901550151805160038801550151600486015501920192019190610fdd565b6004847f9fbfc589000000000000000000000000000000000000000000000000000000008152fd5b5060ff81541660068110156113ad571515610f72565b602485634e487b7160e01b81526021600452fd5b6113da915060203d6020116107bd576107af8183613c04565b5f610f69565b6040513d87823e3d90fd5b602485857f1b02ded7000000000000000000000000000000000000000000000000000000008252600452fd5b602486634e487b7160e01b81526021600452fd5b6004827f497231a7000000000000000000000000000000000000000000000000000000008152fd5b503461081c57602060031936011261081c5761146d613bb6565b6114756145ca565b61147d614559565b3382526005602052604082206040519061149682613bcc565b5490602061ffff60ff841615938415845260081c169101526115f2576001600160a01b031681526006602052604081209060ff600b8301541660068110156115de57600381036115b257506114f463ffffffff6008840154166142c5565b9080928161ffff60035460b01c16925b83811061151d57604051806115198782613c68565b0390f35b6001600160a01b038061152f83613c27565b90549060031b1c16165f528260205260ff60405f205416600381101561159e57906001918214611560575b01611504565b6115986115708260028701614540565b5097611587600361158083613fd3565b9a01613cad565b611591828a61400e565b528761400e565b5061155a565b602483634e487b7160e01b81526021600452fd5b602492507f642fee6e000000000000000000000000000000000000000000000000000000008252600452fd5b602482634e487b7160e01b81526021600452fd5b6004827f179e806d000000000000000000000000000000000000000000000000000000008152fd5b503461081c57604060031936011261081c57611634613bb6565b6024359063ffffffff8216809203611676576001600160a01b03167feca0bbf88a7c4e57f429bd1e6f708ad696c4dd4bd2ec9a50e916868f14abf5a48380a380f35b8280fd5b503461081c578060031936011261081c57604080516116998282613c04565b60058152601f19601f602083017f352e302e3000000000000000000000000000000000000000000000000000000081528451958694602086525180928160208801528787015e85828601015201168101030190f35b503461081c578060031936011261081c5760206001600160a01b0360035416604051908152f35b503461081c57602060031936011261081c576001600160a01b03611737613bb6565b61173f614559565b6117476145ca565b61174f6145fe565b16808252600660205260408220600b81019060ff82541660068110156113ad57156117bf576117909061ffff60035460b01c1661178a613ec4565b916152fc565b60ff1981541690557fdf933a8df15dc090bc507418777d1c44e6926238d8e2e6594bde03c1da3cfa778280a280f35b602484847ffbf20062000000000000000000000000000000000000000000000000000000008252600452fd5b503461081c57602060031936011261081c5761151961182061180b613bb6565b6118136145ca565b61181b614559565b61431f565b60405191829182613c68565b503461081c57602060031936011261081c576001600160a01b0361184e613bb6565b82602060405161185d81613bcc565b60405161186981613bcc565b5f81525f838201528152015261187d614559565b6118856145ca565b1690818152600660205260ff600b6040832001541660068110156115de5760051461198f57818152600760205260408120916118c56020610efe85613cad565b038173__$cd8e5b0fce2a2098a77e7e270995adb554$__5af4908115611984578391611965575b506119395760608363ffffffff60405161190581613bcc565b602082600261191386613cad565b958685520154169101908152602060405193805185520151602084015251166040820152f35b602492507ffbf20062000000000000000000000000000000000000000000000000000000008252600452fd5b61197e915060203d6020116107bd576107af8183613c04565b5f6118ec565b6040513d85823e3d90fd5b6024917f1b02ded7000000000000000000000000000000000000000000000000000000008252600452fd5b503461081c578060031936011261081c5760206001600160a01b037f9016d09d72d40fdae2fd8ceac6b6234c7706214fd39c1cd1e609a0528c1993005416604051908152f35b503461081c578060031936011261081c57336001600160a01b037f237e158222e3e6968b72b9db0d8043aacf074ad9f650f0d1606b4d82ee432c00541603611a4e57611a4b33615122565b80f35b807f118cdaa7000000000000000000000000000000000000000000000000000000006024925233600452fd5b503461081c57602060031936011261081c576004359060045482101561081c5760206001600160a01b03611aad84613c27565b90549060031b1c16604051908152f35b503461081c578060031936011261081c57602061ffff60035460b01c16604051908152f35b503461081c57602060031936011261081c576001600160a01b03611b04613bb6565b611b0c613f2f565b50611b15614559565b611b1d6145ca565b1690818152600660205260ff600b6040832001541660068110156115de5760051461198f5781815260076020526040812091611b5d6020610efe85613cad565b038173__$cd8e5b0fce2a2098a77e7e270995adb554$__5af4908115611984578391611ba6575b50611939576040611b9484613cad565b60208251918051835201516020820152f35b611bbf915060203d6020116107bd576107af8183613c04565b5f611b84565b503461081c578060031936011261081c57611bde614a53565b7fffffffffffffffffffffffff00000000000000000000000000000000000000007f237e158222e3e6968b72b9db0d8043aacf074ad9f650f0d1606b4d82ee432c0054167f237e158222e3e6968b72b9db0d8043aacf074ad9f650f0d1606b4d82ee432c00555f6001600160a01b037f9016d09d72d40fdae2fd8ceac6b6234c7706214fd39c1cd1e609a0528c199300547fffffffffffffffffffffffff000000000000000000000000000000000000000081167f9016d09d72d40fdae2fd8ceac6b6234c7706214fd39c1cd1e609a0528c19930055167f8be0079c531659141344cd1fd0a4f28419497f9722a3daafe3b4186f6b6457e08280a380f35b503461081c5760c060031936011261081c57611cf6613bb6565b60a07fffffffffffffffffffffffffffffffffffffffffffffffffffffffffffffffdc36011261081a57611d28614559565b611d306145ca565b611d38614ab2565b611d4461038536614257565b60643515611e3d5761ffff1690611d5b8282614df6565b600881019063ffffffff825460201c16611e15576001600160a01b0363ffffffff7f8a1df8d1089dbf7577f56d95c8833f55846e6aeced87f49135c725f9f177c0fc936103276040948433165f5280602052855f20600160ff1982541617905583611dc881855416613ce3565b167fffffffffffffffffffffffffffffffffffffffffffffffffffffffff00000000845416178355611e05611dfc36614257565b60068301614ecc565b61ffff60035460b01c1688614fff565b6004857f497231a7000000000000000000000000000000000000000000000000000000008152fd5b6004837f497231a7000000000000000000000000000000000000000000000000000000008152fd5b5034610ba9576040600319360112610ba957611e7f613bb6565b60243567ffffffffffffffff8111610ba957806004019160a06003198336030112610ba957611eac614559565b611eb46145ca565b6001600160a01b03811691602b8303611f8857505050816001600160a01b03600354169161030060405190611ee98183613c04565b368237825b60188110611f6c5750833b1561167657611f399383926040518096819482937f04bb1c1b00000000000000000000000000000000000000000000000000000000845260048401614220565b03915afa8015611f5f57611f4c57505080f35b611f5591613c04565b805f1261081c5780f35b50604051903d90823e3d90fd5b8192935080611f7d8160019461420f565b520190849291611eee565b608490611f99959395949294614559565b611fa16145ca565b0190611fad8282614b37565b905061ffff60035460b01c1603612a1a57845f52600660205260405f209360ff600b860154166006811015612a425760028103612a7e5750611fed614ab2565b93600986019660ff611fff878a613d42565b90549060031b1c16612a56576001600160a01b0333165f528660205260ff60405f2054166003811015612a4257600103612a1a5760088701805460201c63ffffffff166128085760038801989760048101945f5b61ffff60035460b01c168110156120ee57806120e88d6120e28d6120dc858f8f988f828b6120cb6120b18560019f956120ac6103858360406120a661209e6120d69e6120d09d614b37565b369491614b8b565b0161429d565b614506565b506120c58660406120a661209e8888614b37565b90614ecc565b614b37565b90614b8b565b94613c53565b50613fba565b90614bc3565b01612053565b50945094929850949095966121068861211d92613d42565b819291549060031b9060ff6001831b921b19161790565b90556003549061ffff8260b01c169260038414806127f7575b156124ca576040516001600160a01b038416926103006121568184613c04565b3683378a602061218161ffff61216b8c615426565b9316612177818561400e565b515186528361400e565b510151602084015260026121bc8d828c0161219c8282614540565b5054604088015260016121af8383614540565b5001546060880152614540565b500154608084015261ffff6121d5818860a01c16614bfe565b166121f461ffff6121ed6121e88b614c12565b614c40565b168561420f565b528c915b8783106122f3575050509082918b933b156122ef576122489284926040518095819482937f04bb1c1b00000000000000000000000000000000000000000000000000000000845260048401614220565b03915afa80156122e4576122c6575b5050936122a260409461ffff948563ffffffff957f8a1df8d1089dbf7577f56d95c8833f55846e6aeced87f49135c725f9f177c0fc995b865460201c88166122ba57505b1690615481565b5460201c16948251956002875260208701521693a380f35b82915060a01c1661229b565b906122d49196929396613c04565b875f1261069f579390875f612257565b6040513d84823e3d90fd5b8380fd5b90919c8d6020612307826120d0868a614b37565b01359060050180600511610ddc57908f9291612323908761420f565b526040612334836120d0868a614b37565b0135906123408a614c40565b8360011b93808504600214901517156124b6576123628461ffff849316613cfb565b916124a257508f606092612379612384938961420f565b526120d08589614b37565b013561239c8261ffff6123968c614c40565b16613cfb565b906001820180921161248e578f916123b4908761420f565b526123bf908461400e565b51519d816123cc8a614c12565b6123d590614c40565b6123de90614c53565b61ffff16906123ec91613cfb565b9e5f9f6123f9908761420f565b52612404818561400e565b5160200151916124138a614c12565b61241c90614c40565b61242590614c53565b61ffff169061243391613cfb565b6001810180911161248e5761248561247f8361ffff61239661247a8f96612473858f8f6120d0918f919e60019f6121e89761246d9161420f565b52614b37565b3597614c29565b614c53565b8761420f565b520191906121f8565b634e487b7160e01b5f52601160045260245ffd5b80634e487b7160e01b602492526011600452fd5b602482634e487b7160e01b81526011600452fd5b9060058414806127e6575b156127be576040516001600160a01b038416916104806124f58184613c04565b3683378a602061250a61ffff61216b8c615426565b510151602084015260026125258d828c0161219c8282614540565b500154608084015261ffff61253e818860a01c16614bfe565b1661255861ffff6125516121e88b614c12565b1685614bed565b525f915b87831061263b57505050813b1561263757908a92916080604051937f95a1463f000000000000000000000000000000000000000000000000000000008552600485013783608484015b6024821061261d57505050816105048185935afa80156122e4576125ff575b5050936122a260409461ffff948563ffffffff957f8a1df8d1089dbf7577f56d95c8833f55846e6aeced87f49135c725f9f177c0fc9961228e565b9061260d9196929396613c04565b875f1261069f579390875f6125c4565b825181528d955060209283019260019290920191016125a5565b8a80fd5b90919c8d602061264f826120d0868b614b37565b01359060050180600511610ddc57908f929161266b9087614bed565b52604061267c836120d0868b614b37565b0135906126888a614c40565b8360011b93808504600214901517156124b6576126aa8461ffff849316613cfb565b916124a257508f6060926126c16126cc9389614bed565b526120d0858a614b37565b01356126de8261ffff6123968c614c40565b906001820180921161248e578f916126f69087614bed565b52612701908461400e565b51519d8161270e8a614c12565b61271790614c40565b61272090614c53565b61ffff169061272e91613cfb565b9e5f9f61273b9087614bed565b52612746818561400e565b5160200151916127558a614c12565b61275e90614c40565b61276790614c53565b61ffff169061277591613cfb565b6001810180911161248e576127b56127af8361ffff61239661247a8f966124738f6120d08f88928f919e60019f6121e89761246d91614bed565b87614bed565b5201919061255c565b7f05f7fa12000000000000000000000000000000000000000000000000000000005f5260045ffd5b50600361ffff8460a01c16146124d5565b50600261ffff8460a01c1614612136565b90969592949161281b8460018901613c53565b90549060031b1c908115612970575f9896989673__$cd8e5b0fce2a2098a77e7e270995adb554$__9360048a019960038101995b61ffff60035460b01c16811015612954576128776103858260406120a661209e8f8e90614b37565b612885816120d08a8d614b37565b906060604051927fe0d29faa00000000000000000000000000000000000000000000000000000000845288600485015260408101356024850152013560448301526040826064818b5af4918215612949578c6120e28f6120dc8f8f928f6120d089939184926120cb6120d69560019e866129119e5f92612917575b5061290b9192614506565b50614ecc565b0161284f565b61290b925061293c9060403d8111612942575b6129348183613c04565b810190614b9b565b91612900565b503d61292a565b6040513d5f823e3d90fd5b5097959450975097509861211d91508461210691999599613d42565b60a46040517f08c379a000000000000000000000000000000000000000000000000000000000815260206004820152604160248201527f53414645545920434845434b3a20746869732073686f756c64206e657665722060448201527f68617070656e2e2054686973206d65616e73207468657265206973206120627560648201527f67000000000000000000000000000000000000000000000000000000000000006084820152fd5b7f497231a7000000000000000000000000000000000000000000000000000000005f5260045ffd5b634e487b7160e01b5f52602160045260245ffd5b7f9fbfc589000000000000000000000000000000000000000000000000000000005f5260045ffd5b7f642fee6e000000000000000000000000000000000000000000000000000000005f5260045260245ffd5b34610ba9576020600319360112610ba957612ada612ac5613bb6565b612acd614559565b612ad56145ca565b614051565b6040518091602082016020835281518091526020604084019201905f5b818110612b05575050500390f35b9193509160206080600192826040885180518452828101518385015201518051604084015201516060820152019401910191849392612af7565b34610ba9575f600319360112610ba9576001600160a01b037f0000000000000000000000000000000000000000000000000000000000000000163003612ba95760206040517f360894a13ba1a3210667c828492db98dca3e2076cc3735a920a3ca505d382bbc8152f35b7fe07c8dba000000000000000000000000000000000000000000000000000000005f5260045ffd5b34610ba9576020600319360112610ba9576001600160a01b03612bf2613bb6565b165f526001602052602060ff60405f2054166040519015158152f35b6040600319360112610ba957612c22613bb6565b6024359067ffffffffffffffff8211610ba95736602383011215610ba957816004013567ffffffffffffffff81116105de5760405192612c6c601f8301601f191660200185613c04565b8184523660248383010111610ba957815f926024602093018387013784010152612c94614559565b612c9c614a53565b6001600160a01b038116916040517f52d1902d000000000000000000000000000000000000000000000000000000008152602081600481875afa5f9181612e65575b50612d0f57837f4c9c8ce3000000000000000000000000000000000000000000000000000000005f5260045260245ffd5b807f360894a13ba1a3210667c828492db98dca3e2076cc3735a920a3ca505d382bbc859203612e3a5750823b15612e0f57807fffffffffffffffffffffffff00000000000000000000000000000000000000007f360894a13ba1a3210667c828492db98dca3e2076cc3735a920a3ca505d382bbc5416177f360894a13ba1a3210667c828492db98dca3e2076cc3735a920a3ca505d382bbc557fbc7cd75a20ee27fd9adebab32041f755214dbc6bffa90cc0225b39da2e5c2d3b5f80a2805115612dde57612ddc9161566e565b005b505034612de757005b7fb398979f000000000000000000000000000000000000000000000000000000005f5260045ffd5b7f4c9c8ce3000000000000000000000000000000000000000000000000000000005f5260045260245ffd5b7faa1d49a4000000000000000000000000000000000000000000000000000000005f5260045260245ffd5b9091506020813d602011612e91575b81612e8160209383613c04565b81010312610ba957519085612cde565b3d9150612e74565b34610ba9575f600319360112610ba957602061ffff60035460a01c16604051908152f35b34610ba9576020600319360112610ba9576001600160a01b03612ede613bb6565b612ee6614559565b612eee6145ca565b612ef66145fe565b16805f52600760205260405f20815f52600660205260405f20600b81019160ff8354166006811015612a425780612a7e5750612f366020610efe83613cad565b038173__$cd8e5b0fce2a2098a77e7e270995adb554$__5af4908115612949575f91613026575b50612ffa57612fc99160026005925f81555f6001820155017fffffffffffffffffffffffffffffffffffffffffffffffffffffffff000000008154169055612fb761ffff60035460b01c16612fb0613ec4565b90836152fc565b612fc36001820161451f565b01613d60565b600560ff198254161790557f80289566e41bae426a6ba7392c3b723699ac38c2b5bbeab84f247b0d5a44a9bd5f80a2005b837ffbf20062000000000000000000000000000000000000000000000000000000005f5260045260245ffd5b61303f915060203d6020116107bd576107af8183613c04565b85612f5d565b34610ba9575f600319360112610ba957602060ff5f54166040519015158152f35b34610ba9576020600319360112610ba9576001600160a01b03613087613bb6565b61308f614559565b6130976145ca565b16805f52600660205260405f2090600b820160ff8154166006811015612a425760038103612a7e57506130c8614ab2565b90600a840160ff6130d98483613d42565b90549060031b1c16612a56578260409261311a6121067f8a1df8d1089dbf7577f56d95c8833f55846e6aeced87f49135c725f9f177c0fc9661ffff95613d42565b90556008870163ffffffff815460201c169761313581614af0565b61314e575b5050508251956003875260208701521693a3005b63ffffffff613216928a155f1461322657875161316a81613bcc565b61317660068501613cad565b8152826002818d60208501905f82525f52600760205260208d5f20955180518755015160018601555116920191167fffffffffffffffffffffffffffffffffffffffffffffffffffffffff000000008254161790555b6131dc6004840160058501613e64565b5460201c16887feca0bbf88a7c4e57f429bd1e6f708ad696c4dd4bd2ec9a50e916868f14abf5a45f80a38460035460b01c1661178a613ec4565b60ff19815416905586808061313a565b895f5260076020526002885f2001828c167fffffffffffffffffffffffffffffffffffffffffffffffffffffffff000000008254161790556131cc565b34610ba9576020600319360112610ba95760043567ffffffffffffffff8111610ba95736602382011215610ba957806004013567ffffffffffffffff8111610ba9576024820191602436918360051b010111610ba9576132c1614559565b6132c96149f8565b6132d1614a53565b61ffff60035460b01c168082036135ac57505f5b81811061352c57506004545f5b8281106134915750505f5b60045481101561333657806001600160a01b0361331b600193613c27565b90549060031b1c165f5260056020525f6040812055016132fd565b505f5b61ffff8116828110156133de5760405161ffff929161335782613bcc565b600182526001600160a01b0361337d6133786020850193808552888a613d08565b613d18565b165f52600560205260405f209151151560ff60ff198454169116178255517fffffffffffffffffffffffffffffffffffffffffffffffffffffffffff0000ff62ffff0083549260081b1691161790551661ffff811461248e57600101613339565b82846801000000000000000082116105de5760045482600455808310613457575b509060045f525f5b81811061341c575f805460ff19166001179055005b600190602061342a85613d18565b940193817f8a35acfbc15ff81a39ae7d344fd709f28e8600b4aa8c65c6b64bfe7fe36bd19b015501613407565b60045f5261348b907f8a35acfbc15ff81a39ae7d344fd709f28e8600b4aa8c65c6b64bfe7fe36bd19b908101908401613d2c565b826133ff565b60019080831115613526576001600160a01b036134ad82613c27565b90549060031b1c165b6001600160a01b03806134cd61337885898b613d08565b1691169081036134df575b50016132f2565b6001600160a01b036134f561337884888a613d08565b169061ffff83167f32d8bdd3774d2fdfb6cdfb8ba11ad024564aaaeea77accaac61c584aded4c2535f80a4856134d8565b5f6134b6565b6001810180821161248e575b82811061354857506001016132e5565b613559613378838587959697613d08565b6001600160a01b0380613570613378858988613d08565b169116146135845760010192919092613538565b7f06c849db000000000000000000000000000000000000000000000000000000005f5260045ffd5b7fa3b5ca39000000000000000000000000000000000000000000000000000000005f5260045260245ffd5b34610ba9576020600319360112610ba9576135f0613bb6565b6135f8614559565b6136006149f8565b335f52600160205260ff60405f205416336001600160a01b037f9016d09d72d40fdae2fd8ceac6b6234c7706214fd39c1cd1e609a0528c199300541614901590816136e1575b506136b9576001600160a01b0316805f52600160205260ff60405f2054161561366b57005b805f52600160205260405f20600160ff198254161790556002546001810180911161248e576002557fd0b2dc01fde9dadcf94234b55ed077e429dfd7b35d12816e25bae4fcbe2d083c5f80a2005b7f47556579000000000000000000000000000000000000000000000000000000005f5260045ffd5b90501582613646565b34610ba9576020600319360112610ba9576001600160a01b0361370b613bb6565b613713614559565b61371b6145ca565b6137236145fe565b16805f52600660205260405f2090600b82019160ff8354166006811015612a425760058114613b8a57612a5657815f52600760205260405f2061376a6020610efe83613cad565b038173__$cd8e5b0fce2a2098a77e7e270995adb554$__5af4908115612949575f91613b6b575b50613b3f576137b363ffffffff600261ffff60035460b01c1693015416613ce3565b936137c06001840161451f565b600160ff1982541617905560088201937fffffffffffffffffffffffffffffffffffffffffffffffff00000000ffffffff67ffffffff0000000086549260201b16911617845561380f81614615565b600283016020825192613822848461469b565b01905f5260205f205f915b838310613b01575050505061384181614715565b6003830190602081519161385583856147cc565b01825f5260205f205f915b838310613ae457505050505f5b828110613acf57505061387f816142c5565b6004830160208251926138928484613dc2565b01905f5260205f205f915b838310613aaf57505050506138b18161493a565b8051600984019167ffffffffffffffff82116105de576020906138d48385614992565b01915f5260205f208160051c915f5b838110613a6a5750601f198116900380613a1e575b50505050613907600a9161493a565b91019080519067ffffffffffffffff82116105de576020906139298385614992565b01915f5260205f208160051c915f5b8381106139d95750601f198116900380613990575b85857f14eaa713eb50a295c5ed8153c207f61790d7389b647d65e96ea38b199f4d79fe602063ffffffff61ffff60035460a01c169454821c1693604051908152a3005b925f935f5b8181106139aa5750505001558280808061394d565b90919460206139cf6001928489511515919060ff809160031b9316831b921b19161790565b9601929101613995565b5f5f5b602081106139f1575083820155600101613938565b95906020613a156001928985511515919060ff809160031b9316831b921b19161790565b920196016139dc565b925f935f5b818110613a3b575050500155613907600a86806138f8565b9091946020613a606001928489511515919060ff809160031b9316831b921b19161790565b9601929101613a23565b5f5f5b60208110613a825750838201556001016138e3565b95906020613aa66001928985511515919060ff809160031b9316831b921b19161790565b92019601613a6d565b60026020828160019451805187550151848601550192019201919061389d565b600190613ade6112fe85613f47565b0161386d565b6001602082613af583945186614818565b01920192019190613860565b60056020828160406001955182815180518a55015187890155828101516002890155015180516003880155015160048601550192019201919061382d565b827ffbf20062000000000000000000000000000000000000000000000000000000005f5260045260245ffd5b613b84915060203d6020116107bd576107af8183613c04565b85613791565b827f1b02ded7000000000000000000000000000000000000000000000000000000005f5260045260245ffd5b600435906001600160a01b0382168203610ba957565b6040810190811067ffffffffffffffff8211176105de57604052565b6060810190811067ffffffffffffffff8211176105de57604052565b90601f601f19910116810190811067ffffffffffffffff8211176105de57604052565b600454811015613c3f5760045f5260205f2001905f90565b634e487b7160e01b5f52603260045260245ffd5b8054821015613c3f575f5260205f2001905f90565b60206040818301928281528451809452019201905f5b818110613c8b5750505090565b8251805185526020908101518186015260409094019390920191600101613c7e565b90604051613cba81613bcc565b602060018294805484520154910152565b90816020910312610ba957518015158103610ba95790565b63ffffffff60019116019063ffffffff821161248e57565b9190820180921161248e57565b9190811015613c3f5760051b0190565b356001600160a01b0381168103610ba95790565b818110613d37575050565b5f8155600101613d2c565b9190918054831015613c3f575f52601f60205f208360051c01921690565b8054905f815581613d6f575050565b7f7fffffffffffffffffffffffffffffffffffffffffffffffffffffffffffffff8216820361248e575f5260205f209060011b8101905b818110613db1575050565b5f8082556001820155600201613da6565b6801000000000000000082116105de57805490828155818310613de457505050565b7f7fffffffffffffffffffffffffffffffffffffffffffffffffffffffffffffff8216820361248e577f7fffffffffffffffffffffffffffffffffffffffffffffffffffffffffffffff8316830361248e575f5260205f209060011b81019160011b015b818110613e53575050565b5f8082556001820155600201613e48565b818114613ec057815491613e788383613dc2565b5f5260205f20905f5260205f205f915b838310613e955750505050565b600280826001938503613eaf575b01920192019190613e88565b805485558381015484860155613ea3565b5050565b60405190600454808352826020810160045f5260205f20925f5b818110613ef5575050613ef392500383613c04565b565b84546001600160a01b0316835260019485019487945060209093019201613ede565b67ffffffffffffffff81116105de5760051b60200190565b60405190613f3c82613bcc565b5f6020838281520152565b90613f5182613f17565b613f5e6040519182613c04565b828152601f19613f6e8294613f17565b01905f5b828110613f7e57505050565b602090604051613f8d81613be8565b5f81525f83820152604051613fa181613bcc565b5f81525f84820152604082015282828501015201613f72565b8054821015613c3f575f5260205f209060021b01905f90565b5f19811461248e5760010190565b805115613c3f5760200190565b805160011015613c3f5760400190565b805160021015613c3f5760600190565b8051821015613c3f5760209160051b010190565b9060405161402f81613be8565b604061404c60028395805485526001810154602086015201613cad565b910152565b335f52600560205260405f20906040519161406b83613bcc565b549161ffff602060ff8516159283158152019360081c1683526141e7576001600160a01b03165f52600660205260405f2060ff600b820154166006811015612a425760038103612a7e5750600881015460201c63ffffffff1661413157600361ffff6140da9351169101613c53565b5080546140e681613f17565b916140f46040519384613c04565b81835260208301905f5260205f205f915b838310614113575050505090565b6004602060019261412385614022565b815201920192019190614105565b60035461414461ffff8260a01c16613f47565b925f61ffff5f9360b01c16925b83811061416057505050505090565b6001600160a01b038061417283613c27565b90549060031b1c16165f528460205260ff60405f205416906003821015612a425760019182146141a3575b01614151565b6141e16141bc826120dc61ffff88511660038b01613c53565b50936141d06141ca82613fd3565b95614022565b6141da828b61400e565b528861400e565b5061419d565b7f179e806d000000000000000000000000000000000000000000000000000000005f5260045ffd5b906018811015613c3f5760051b0190565b60809093929193816103808201958237015f905b6018821061424157505050565b6020806001928551815201930191019091614234565b7fffffffffffffffffffffffffffffffffffffffffffffffffffffffffffffffdc6040910112610ba9576040519061428e82613bcc565b60243582526044356020830152565b9190826040910312610ba9576040516142b581613bcc565b6020808294803584520135910152565b906142cf82613f17565b6142dc6040519182613c04565b828152601f196142ec8294613f17565b01905f5b8281106142fc57505050565b60209060405161430b81613bcc565b5f81525f83820152828285010152016142f0565b6001600160a01b03811680602c146144d957602b036144bd575060405161434581613bcc565b7f1c58c52bbf3356d04d8f4c4182392de66a28aaf9a5cdab1f3e0f8cd47c14886881527f25bc1adf6b8cb4b6eff334b2b164df876bdf124c621ee8de555c9085d344dde8602082015260405161439a81613bcc565b7f03bb75e80a39e8afcee4f396477440968975a58b1a5f2222f48e7895bf4d553781527f2d21805332ed46c9a5b57834e87c0395bc07a7c4ded911184427cc0c1cae8e376020820152604051906143f082613bcc565b7e66c9114c24ee2c19d1f994df7870948a33058ed2d8cbef9c2e4dac58fc154e82527f24f24561eb1defd2913e752e1deeef1aacfef6ef46a4a0360e2a0ed5a3b84a0b60208301526040519260806144488186613c04565b60038552601f19015f5b81811061449a57505061446484613fe1565b5261446e83613fe1565b5061447883613fee565b5261448282613fee565b5061448c82613ffe565b5261449681613ffe565b5090565b6020906040516144a981613bcc565b5f81525f8382015282828901015201614452565b6144d6906144c96145ca565b6144d1614559565b615224565b90565b7f642fee6e000000000000000000000000000000000000000000000000000000005f52600360045260245ffd5b8054821015613c3f575f5260205f209060011b01905f90565b80545f82558061452d575050565b613ef3915f5260205f2090810190613d2c565b8054821015613c3f575f52600560205f20910201905f90565b6001600160a01b037f000000000000000000000000000000000000000000000000000000000000000016803014908115614595575b50612ba957565b90506001600160a01b037f360894a13ba1a3210667c828492db98dca3e2076cc3735a920a3ca505d382bbc541614155f61458e565b60ff5f5416156145d657565b7f9488aaa6000000000000000000000000000000000000000000000000000000005f5260045ffd5b335f52600160205260ff60405f205416156136b957565b9061461f82613f17565b61462c6040519182613c04565b828152601f1961463c8294613f17565b01905f5b82811061464c57505050565b60209060405161465b81613be8565b60405161466781613bcc565b5f81525f8482015281525f8382015260405161468281613bcc565b5f81525f84820152604082015282828501015201614640565b906801000000000000000081116105de578154918181558282106146be57505050565b8260050292600584040361248e578160050291600583040361248e575f5260205f2091820191015b8181106146f1575050565b6005905f81555f60018201555f60028201555f60038201555f6004820155016146e6565b9061471f82613f17565b61472c6040519182613c04565b828152601f1961473c8294613f17565b01905f5b82811061474c57505050565b806060602080938501015201614740565b8054905f81558161476c575050565b7f3fffffffffffffffffffffffffffffffffffffffffffffffffffffffffffffff8216820361248e575f5260205f209060021b8101905b8181106147ae575050565b805f600492555f60018201555f60028201555f6003820155016147a3565b906801000000000000000081116105de578154918181558282106147ef57505050565b5f5260205f2091820191015b818110614806575050565b8061481260019261475d565b016147fb565b8151916801000000000000000083116105de578154838355808410614887575b50602001905f5260205f205f915b8383106148535750505050565b6004602082816040600195518051885582810151878901550151805160028801550151600386015501920192019190614846565b7f3fffffffffffffffffffffffffffffffffffffffffffffffffffffffffffffff8116810361248e577f3fffffffffffffffffffffffffffffffffffffffffffffffffffffffffffffff8416840361248e57825f5260205f209060021b8101908460021b015b8181106148fa5750614838565b805f600492555f60018201555f60028201555f6003820155016148ed565b919061492757613ef391614818565b634e487b7160e01b5f525f60045260245ffd5b9061494482613f17565b6149516040519182613c04565b828152601f196149618294613f17565b0190602036910137565b80545f825580614979575050565b613ef3915f52601f60205f20910160051c810190613d2c565b906801000000000000000081116105de5781548183558082106149b457505050565b613ef3925f52601f60205f20918180850160051c84019416806149de575b500160051c0190613d2c565b5f198501905f1982549160200360031b1c1690555f6149d2565b67ffffffffffffffff7ff0c57e16840df040f15088dc2f81fe391c3923bec73e23a9662efc9c229c6a00541615614a2b57565b7f0206032a000000000000000000000000000000000000000000000000000000005f5260045ffd5b6001600160a01b037f9016d09d72d40fdae2fd8ceac6b6234c7706214fd39c1cd1e609a0528c19930054163303614a8657565b7f118cdaa7000000000000000000000000000000000000000000000000000000005f523360045260245ffd5b335f52600560205260405f2060405190614acb82613bcc565b549061ffff602060ff8416159283158152019260081c1682526141e7575161ffff1690565b60035460b01c61ffff16905f5b828110614b0c57505050600190565b60ff614b1b82600a8501613d42565b90549060031b1c1615614b3057600101614afd565b5050505f90565b9035907fffffffffffffffffffffffffffffffffffffffffffffffffffffffffffffffe181360301821215610ba9570180359067ffffffffffffffff8211610ba957602001918160071b36038313610ba957565b9190811015613c3f5760071b0190565b90816040910312610ba957602060405191614bb583613bcc565b805183520151602082015290565b91906149275760608160039235845560208101356001850155604081013560028501550135910155565b906024811015613c3f5760051b0190565b61ffff5f199116019061ffff821161248e57565b61ffff60039116029061ffff821691820361248e57565b61ffff60059116029061ffff821691820361248e57565b61ffff166005019061ffff821161248e57565b61ffff60019116019061ffff821161248e57565b6040517fe8c8742800000000000000000000000000000000000000000000000000000000815281516004820152602080830151602483015290919073__$cd8e5b0fce2a2098a77e7e270995adb554$__9083604481845af4928315612949575f93614dd5575b508215614d5d575b8215614ce4575b5050612a1a57565b6040517fe128c1aa0000000000000000000000000000000000000000000000000000000081528251600482015260209283015160248201529250829060449082905af4908115612949575f91614d3e575b50155f80614cdc565b614d57915060203d6020116107bd576107af8183613c04565b5f614d35565b6040517f8071469c0000000000000000000000000000000000000000000000000000000081528251600482015260208084015160248301529193509081604481865af4908115612949575f91614db6575b501591614cd5565b614dcf915060203d6020116107bd576107af8183613c04565b5f614dae565b614def91935060203d6020116107bd576107af8183613c04565b915f614ccd565b6001600160a01b0390614e0d61038536608461429d565b165f52600660205260405f209060ff600b830154166006811015612a425760018103612a7e57506002820190614e4b6020610efe6103938486614540565b038173__$cd8e5b0fce2a2098a77e7e270995adb554$__5af4908115612949575f91614ead575b5015612a5657614e8191614540565b614927576024358155604435600182015560643560028201556084356003820155600460a43591015590565b614ec6915060203d6020116107bd576107af8183613c04565b5f614e72565b614ed581613cad565b6040517f8a9088a300000000000000000000000000000000000000000000000000000000815281516004820152602091820151602482015273__$cd8e5b0fce2a2098a77e7e270995adb554$__9181604481855af4908115612949575f91614fe0575b50614fce579060406084928151938480927f9679db0d00000000000000000000000000000000000000000000000000000000825285546004830152602060018701988954602485015280516044850152015160648301525af4908115612949576020925f92614fad575b508151905501519055565b614fc791925060403d604011612942576129348183613c04565b905f614fa2565b50906020816001925184550151910155565b614ff9915060203d6020116107bd576107af8183613c04565b5f614f38565b90600b83019260ff8454166006811015612a425760010361511c57615023816155bc565b1561511c57600881019163ffffffff835416105f146150785750506001600160a01b03167ffc3b5c81fbd3f5eaaf811aef4c5147873723d4d017233e4a5513fc05f02da9435f80a2600460ff19825416179055565b909192600260ff19825416179055600461509a61ffff60035460b01c166142c5565b910160208251926150ab8484613dc2565b01905f5260205f205f915b8383106150fc575050505063ffffffff6001600160a01b03915460201c1691167fa5af724b9b00615e3776eacfb6aaed5a999936645a0d9486067ebaaaf1f746085f80a3565b6002602082816001945180518755015184860155019201920191906150b6565b50505050565b7fffffffffffffffffffffffff00000000000000000000000000000000000000007f237e158222e3e6968b72b9db0d8043aacf074ad9f650f0d1606b4d82ee432c0054167f237e158222e3e6968b72b9db0d8043aacf074ad9f650f0d1606b4d82ee432c00556001600160a01b03807f9016d09d72d40fdae2fd8ceac6b6234c7706214fd39c1cd1e609a0528c19930054921691827fffffffffffffffffffffffff00000000000000000000000000000000000000008216177f9016d09d72d40fdae2fd8ceac6b6234c7706214fd39c1cd1e609a0528c19930055167f8be0079c531659141344cd1fd0a4f28419497f9722a3daafe3b4186f6b6457e05f80a3565b335f52600560205260405f206040519061523d82613bcc565b5490602061ffff60ff841615938415845260081c169101526141e7576001600160a01b03165f52600660205260405f2060ff600b820154166006811015612a425760028103612a7e57506001600160a01b0333165f528060205260ff60405f2054166003811015612a42576001036152b8576144d690615426565b506040516152c7602082613c04565b5f81525f805b8181106152d957505090565b6020906040516152e881613bcc565b5f81525f83820152828286010152016152cd565b909291925f60068301555f60078301556153186009830161496b565b615324600a830161496b565b600282018054905f8155816153e1575b5050600382018054905f8155816153bc575b5050600882017fffffffffffffffffffffffffffffffffffffffffffffffff000000000000000081541690555f5b81811061538b575050613ef3919250600401613d60565b806001600160a01b03806153a16001948961400e565b5116165f528360205260405f2060ff19815416905501615374565b5f5260205f20908101905b8181101561534657806153db60019261475d565b016153c7565b8160050291600583040361248e575f5260205f20908101905b81811015615334576005905f81555f60018201555f60028201555f60038201555f6004820155016153fa565b61ffff60035460b01c16615439816142c5565b915f5b8281106154495750505090565b80615465600361545e60019460028701614540565b5001613cad565b61546f828761400e565b5261547a818661400e565b500161543c565b90600b83019060ff8254166006811015612a425760020361511c576003545f9060b01c61ffff1660098601825b828110615589575050500361558457805460ff19166003179055600882015460201c63ffffffff16918261550e57506001600160a01b039150167f7f44e24aecdf5952e755e1b91c7a7e576343b3764b9e08161a629f2898b4d80f5f80a2565b60010190604051906020820160208352835480915260408301935f5260205f20905f5b81811061556e5750505090806001600160a01b037f76a6be7fc584ce6005b8f9e767f06b6684986dd5768e774c15d9c5af5a45a3049316930390a3565b8254865260209095019460019283019201615531565b505050565b60ff6155958284613d42565b90549060031b1c166155aa575b6001016154ae565b926001810180911161248e57926155a2565b60035460b01c61ffff16905f5b8281106155d857505050600190565b6001600160a01b03806155ea83613c27565b90549060031b1c16165f528160205260ff60405f2054166003811015612a425715614b30576001016155c9565b60ff7ff0c57e16840df040f15088dc2f81fe391c3923bec73e23a9662efc9c229c6a005460401c161561564657565b7fd7e6bcf8000000000000000000000000000000000000000000000000000000005f5260045ffd5b905f8091602081519101845af48080615715575b156156a25750506040513d81523d5f602083013e60203d82010160405290565b156156dc576001600160a01b03907f9996b315000000000000000000000000000000000000000000000000000000005f521660045260245ffd5b3d156156ed576040513d5f823e3d90fd5b7fd6bda275000000000000000000000000000000000000000000000000000000005f5260045ffd5b503d1515806156825750813b151561568256fea2646970667358221220864a59323694dd199cf458c28c7bf9970a6423337376ff7a538b741f4ef6de9a64736f6c634300081e0033f0c57e16840df040f15088dc2f81fe391c3923bec73e23a9662efc9c229c6a00","linkReferences":{"src/BabyJubJub.sol":{"BabyJubJub":[{"start":808,"length":20},{"start":4109,"length":20},{"start":6544,"length":20},{"start":7208,"length":20},{"start":10487,"length":20},{"start":12289,"length":20},{"start":14389,"length":20},{"start":19819,"length":20},{"start":20246,"length":20},{"start":20438,"length":20}]}}},"methodIdentifiers":{"UPGRADE_INTERFACE_VERSION()":"ad3cb1cc","abortKeyGen(uint160)":"9d49d672","acceptOwnership()":"79ba5097","addKeyGenAdmin(address)":"222c211e","addRound1KeyGenContribution(uint160,((uint256,uint256),uint256,(uint256,uint256)))":"64a97889","addRound1ReshareContribution(uint160,((uint256,uint256),uint256,(uint256,uint256)))":"ffb96673","addRound2Contribution(uint160,(uint256[4],(uint256,uint256,(uint256,uint256))[]))":"5fd59919","addRound3Contribution(uint160)":"3892750a","amountKeygenAdmins()":"d46a3ac6","checkIsParticipantAndReturnRound2Ciphers(uint160)":"53fac9ad","deleteOprfPublicKey(uint160)":"3bcc1630","emitDeleteEvent(uint160)":"ff3a3588","emitSecretGenFinalize(uint160,uint32)":"afb915d8","getOprfPublicKey(uint160)":"7488e8e7","getOprfPublicKeyAndEpoch(uint160)":"8f065f8d","getPartyIdForParticipant(address)":"f720fce3","initKeyGen(uint160)":"be28b7a8","initReshare(uint160)":"1acc6e09","initialize(address,address,address,uint16,uint16)":"fd1bae58","isContractReady()":"3a02230d","keyGenVerifier()":"9f249044","keygenAdmins(address)":"513c72f1","loadPeerPublicKeysForConsumers(uint160)":"b13590ec","loadPeerPublicKeysForProducers(uint160)":"90ea46f5","numPeers()":"79a4753c","owner()":"8da5cb5b","peerAddresses(uint256)":"79ad89e8","pendingOwner()":"e30c3978","proxiableUUID()":"52d1902d","registerOprfPeers(address[])":"32c7e3b6","renounceOwnership()":"715018a6","revokeKeyGenAdmin(address)":"ea2ca963","threshold()":"42cde4e8","transferOwnership(address)":"f2fde38b","upgradeToAndCall(address,bytes)":"4f1ef286"},"id":18}