{"abi":[{"type":"function","name":"compressProof","inputs":[{"name":"proof","type":"uint256[8]","internalType":"uint256[8]"}],"outputs":[{"name":"compressed","type":"uint256[4]","internalType":"uint256[4]"}],"stateMutability":"view"},{"type":"function","name":"verifyCompressedProof","inputs":[{"name":"compressedProof","type":"uint256[4]","internalType":"uint256[4]"},{"name":"input","type":"uint256[24]","internalType":"uint256[24]"}],"outputs":[],"stateMutability":"view"},{"type":"function","name":"verifyProof","inputs":[{"name":"proof","type":"uint256[8]","internalType":"uint256[8]"},{"name":"input","type":"uint256[24]","internalType":"uint256[24]"}],"outputs":[],"stateMutability":"view"},{"type":"error","name":"ProofInvalid","inputs":[]},{"type":"error","name":"PublicInputNotInField","inputs":[]}],"bytecode":{"object":"0x60808060405234601557612425908161001a8239f35b5f80fdfe60806040526004361015610011575f80fd5b5f3560e01c806304bb1c1b14610de657806344f6369214610d335763a18cb3051461003a575f80fd5b34610d2f576104007ffffffffffffffffffffffffffffffffffffffffffffffffffffffffffffffffc360112610d2f573661010411610d2f573661040411610d2f5760405160408101907f2786b3a8edbcd780d1aced03dd8b471890f018e0c9671ba804541d52a2de7511815260208101917f1bcd9ba4dd5a93ac84d6721c02bba144fde4b2f44826aee7de4b9bea958a46b483527f23690f5c311da35e5fbaebbfac66ccf3571c0ba3ec7a6efa1c63710bb44e62d18152606082017f261af65edf393a7a6951e2132755d06a4ff5d4595ceac5d0a1b604e1b584f0ff81527f30644e72e131a029b85045b68181585d2833e84879b9709143e1f593f0000001604061010435937f11506e6702d05e61c50b5671f9692426bdcb20bf7d60f03b8145c26d8bc53ed2608087019580875284848460608160075afa911016838860808160065afa167f0774d2d987d035e9d093d5d5f3768251363c025cfd41623c6914c4499fc0d9b583527f23e0b831433fd55cf89afe5de82616ee699296dbfa509442a53fff59340c3cfb86526001610124359182895286868660608160075afa9310161616838860808160065afa167f045f0603477113716ac7b2de1f94865b82a7cfddeb90c45c0aaef5c1d50e129183527f181f8fc0e5591f91ab3f0dada8ba6ce768220c151002d622f0baefe4e07ec31f8652610144359081885285858560608160075afa92101616838860808160065afa167f1eafbcd3b2a9c9d7e2f222f7753c212b52fa081dea3e8f5a3f0e9827493c0feb83527f0df9f8950b3435d0dc01c6a92477b4b489fe5bcdc46a58486d70d5405fa482388652610164359081885285858560608160075afa92101616838860808160065afa167f270f787b1214880873f5793a048919310290b42c65ff5d51deaef7d310065c3983527f2308c26b01936bacc1fd80cf8a41ceb4741ffabf0ad78db5f8308aec9bb97e788652610184359081885285858560608160075afa92101616838860808160065afa167f0b2c1df9f2d7954c59d0cd63390abdafea36039c2760238b270dc4d54d2c681b83527f04cbe2c290fc670ffdf225ceafa1981b17298ee942d201d0019ab4f032aa108386526101a4359081885285858560608160075afa92101616838860808160065afa167f06eb08330b1041fcf53d4bf7da243a6ecb3002994b257519c34836c0c3fb4b8283527f27547ee99c1dcab322be55aabe75f1b5342992bb294f121bb9036ccf668606cd86526101c4359081885285858560608160075afa92101616838860808160065afa167f2b4d0bbe626180cd11783b24c4bfc3d0683ec7e8553dfe5a84dcb702fba9a91483527f1c2f7538d19d41689b286e45ce256329aafdf0e2d0db073015035a6d066e663e86526101e4359081885285858560608160075afa92101616838860808160065afa167f1cc7173ee22e6cf1c1a1b22282e33da72e93784f3e8bf2f7b0684d2a2f1b612183527f29bd05b080e425a02af3544dd2f9d014d718aa56336b39779b9f3acda0b6c6468652610204359081885285858560608160075afa92101616838860808160065afa167f01c5604fc910688e40eb1c1253d0c76d4ef403a8ba938568dbb0d8e1b0bdd78183527f1291b346cfbdef6f3db96ccb73a38cbb2df93e008f511d990091cbfb9da988b68652610224359081885285858560608160075afa92101616838860808160065afa167f0f8714eef5e33edd38180a5c58b231ca684a6523af386461f579a86dfd76acf383527f2e7aa1b493863fbe82475c23026404809cd0fa04cb06102b88a89ce1d2386cf08652610244359081885285858560608160075afa92101616838860808160065afa167f2c2c241032d7ad93581d5aa06a742bcffd9759f39a0b462faafae141a6a7e5d283527f21325070da51dc7dac02d2417274738c9aa74bada1a4069bc9c7329460e055868652610264359081885285858560608160075afa92101616838860808160065afa167f037e30942a23981108b8ee4f1be45609bf7d53f9ac5998f0c08629f77b727a4e83527f2005614e96bd39546ce8b6b1a67a4553d8425a7aa9376f787d3ac688eab29a1f8652610284359081885285858560608160075afa92101616838860808160065afa167f1a5e25936a5c1040b5515cb20dc590a907a7768da3ed0a5e104b42969da16b8383527f19fe4203432601f3eac540cb0742113656da6dfe9f3ffbb111e2d8011675740a86526102a4359081885285858560608160075afa92101616838860808160065afa167f220276788757dacd912d690c1a22e472eafe213e7400c7ea7bd77473eb61fd0283527f1786cfa4677a76fc5f51f00b515945aa5de74668774fac4c1af97dacf758d58486526102c4359081885285858560608160075afa92101616838860808160065afa167f29db36db1e42f180431db223b199816744a54e3b9d83407a858fd3810815330d83527f281b73d9acc34b1627f5537eeea7d03913a8503453ffe2cf4092b2f9e95801ef86526102e4359081885285858560608160075afa92101616838860808160065afa167f2c991a084711ecda212a22d0682f78c755a4c5faab989203ca3603c3bc920b6183527f062f92723b656b090fc9e176318a86eed57c12290b2ab577845d49a534f0b08d8652610304359081885285858560608160075afa92101616838860808160065afa167f190183f2b47b6f082a47541047ab6e7070daf8e19ecd011569093f0cc66121f383527e7a73f6f4ad7765423eb2ea20ee0687f47ca8b9b84cef1e0084a3b39ee2569e8652610324359081885285858560608160075afa92101616838860808160065afa167f0acafc74d93721522a3086aa7c527cb9e53affc9142ca1f3fdf7ace7898092e483527f0c8165f124fac6eb471eaeb4295f84894e5e617118b695e71b6d7c865eb488488652610344359081885285858560608160075afa92101616838860808160065afa167f153ac2ba44b790bb86043b63bd931baaa2dcf39d7e643bde883891e82673a06f83527f0834e29768b686373f33d2dd4a8bc751389830f05e418320dad8585ae4ce8a628652610364359081885285858560608160075afa92101616838860808160065afa167f281410d497dee2663d418eb69c27e7ff9fd04a083995986581eb50bccaa5c3ad83527f2cab589bdd1345ac215fe1592a5aba0b7a44183804f42dd15b973c2688f6ef758652610384359081885285858560608160075afa92101616838860808160065afa167f045b613789182e15e8813ab6aa553b3bbd2e032433e4dd563e2ea2068ec274e183527f053ad5beeab9bc8f407c83af78dc2e0e5b9ca8e6add375fdf92e41795f70467886526103a4359081885285858560608160075afa92101616838860808160065afa167f1beeee977de3d57c4edf7d86428a939f3f9bedfdbc18d55dd825774eed8e69ca83527f19c1ffa93c1c502abfd6f6172fd00628f30111604557ac9c50d1603843f746c086526103c4359081885285858560608160075afa92101616838860808160065afa16947f2be0d6f03301b8ff93601ddd2a414f1934a9446963891cf4c67eae52e9e6b1118352526103e43580955260608160075afa9210161660408260808160065afa16905191519015610d075760405191610100600484377f06df9eb974bbdd9109122158bc0da88ca9e607965438564d4be9c51f8f10d5016101008401527f178a3fcf2ca4915ceeaba6c96ba31e530463e3b3f8ef8bc576505c92dfc1f0906101208401527f1d3fefb466cda562af0191ab1654e75c6786f780ddf7bc6bcd0fa18d2ff59f7d6101408401527efcca49e902368d0e8e915118121bb8648fb2e7c6fd7b4311b10f752f8114366101608401527f2d4d9aa7e302d9df41749d5507949d05dbea33fbb16c643b22f599a2be6df2e26101808401527f14bedd503c37ceb061d8ec60209fe345ce89830a19230301f076caff004d19266101a08401527f0967032fcbf776d1afc985f88877f182d38480a653f2decaa9794cbc3bf3060c6101c08401527f0e187847ad4c798374d0d6732bf501847dd68bc0e071241e0213bc7fc13db7ab6101e08401527e1752a100a72fdf1e5a5d6ea841cc20ec838bccfcf7bd559e79f1c9c759b6a06102008401527f192a8cc13cd9f762871f21e43451c6ca9eeab2cb2987c4e366a185c25dac2e7f6102208401526102408301526102608201527f198e9393920d483a7260bfb731fb5d25f1aa493335a9e71297e485b7aef312c26102808201527f1800deef121f1e76426a00665e5c4479674322d4f75edadd46debd5cd992f6ed6102a08201527f275dc4a288d1afb3cbb1ac09187524c7db36395df7be3b99e673b13a075a65ec6102c08201527f1d9befcd05a5323e6da4d435f3b617cdb3af83285c2df711ef39c01571827f9d6102e08201526020816103008160085afa90511615610cdf57005b7f7fcdd1f4000000000000000000000000000000000000000000000000000000005f5260045ffd5b7fa54f8e27000000000000000000000000000000000000000000000000000000005f5260045ffd5b5f80fd5b34610d2f576101007ffffffffffffffffffffffffffffffffffffffffffffffffffffffffffffffffc360112610d2f573661010411610d2f57610d766080611aff565b6080368237610d89602435600435611d99565b8152610d9f60843560a435604435606435611e86565b60208301526040820152610db760e43560c435611d99565b6060820152604051905f825b60048210610dd057608084f35b6020806001928551815201930191019091610dc3565b34610d2f576103807ffffffffffffffffffffffffffffffffffffffffffffffffffffffffffffffffc360112610d2f5736608411610d2f573661038411610d2f57610300610e3381611aff565b81368237610e42600435611b70565b610e53602493929335604435611c14565b91939290610e62606435611b70565b9390926040519660408801967f2786b3a8edbcd780d1aced03dd8b471890f018e0c9671ba804541d52a2de751189528860208101987f1bcd9ba4dd5a93ac84d6721c02bba144fde4b2f44826aee7de4b9bea958a46b48a527f23690f5c311da35e5fbaebbfac66ccf3571c0ba3ec7a6efa1c63710bb44e62d181527f30644e72e131a029b85045b68181585d2833e84879b9709143e1f593f0000001604060608401927f261af65edf393a7a6951e2132755d06a4ff5d4595ceac5d0a1b604e1b584f0ff84527f11506e6702d05e61c50b5671f9692426bdcb20bf7d60f03b8145c26d8bc53ed26084359583608082019780895286828660608160075afa911016818360808160065afa167f0774d2d987d035e9d093d5d5f3768251363c025cfd41623c6914c4499fc0d9b585527f23e0b831433fd55cf89afe5de82616ee699296dbfa509442a53fff59340c3cfb8852600160a43591828b5288848860608160075afa9310161616818360808160065afa167f045f0603477113716ac7b2de1f94865b82a7cfddeb90c45c0aaef5c1d50e129185527f181f8fc0e5591f91ab3f0dada8ba6ce768220c151002d622f0baefe4e07ec31f885260c43590818a5287838760608160075afa92101616818360808160065afa167f1eafbcd3b2a9c9d7e2f222f7753c212b52fa081dea3e8f5a3f0e9827493c0feb85527f0df9f8950b3435d0dc01c6a92477b4b489fe5bcdc46a58486d70d5405fa48238885260e43590818a5287838760608160075afa92101616818360808160065afa167f270f787b1214880873f5793a048919310290b42c65ff5d51deaef7d310065c3985527f2308c26b01936bacc1fd80cf8a41ceb4741ffabf0ad78db5f8308aec9bb97e7888526101043590818a5287838760608160075afa92101616818360808160065afa167f0b2c1df9f2d7954c59d0cd63390abdafea36039c2760238b270dc4d54d2c681b85527f04cbe2c290fc670ffdf225ceafa1981b17298ee942d201d0019ab4f032aa108388526101243590818a5287838760608160075afa92101616818360808160065afa167f06eb08330b1041fcf53d4bf7da243a6ecb3002994b257519c34836c0c3fb4b8285527f27547ee99c1dcab322be55aabe75f1b5342992bb294f121bb9036ccf668606cd88526101443590818a5287838760608160075afa92101616818360808160065afa167f2b4d0bbe626180cd11783b24c4bfc3d0683ec7e8553dfe5a84dcb702fba9a91485527f1c2f7538d19d41689b286e45ce256329aafdf0e2d0db073015035a6d066e663e88526101643590818a5287838760608160075afa92101616818360808160065afa167f1cc7173ee22e6cf1c1a1b22282e33da72e93784f3e8bf2f7b0684d2a2f1b612185527f29bd05b080e425a02af3544dd2f9d014d718aa56336b39779b9f3acda0b6c64688526101843590818a5287838760608160075afa92101616818360808160065afa167f01c5604fc910688e40eb1c1253d0c76d4ef403a8ba938568dbb0d8e1b0bdd78185527f1291b346cfbdef6f3db96ccb73a38cbb2df93e008f511d990091cbfb9da988b688526101a43590818a5287838760608160075afa92101616818360808160065afa167f0f8714eef5e33edd38180a5c58b231ca684a6523af386461f579a86dfd76acf385527f2e7aa1b493863fbe82475c23026404809cd0fa04cb06102b88a89ce1d2386cf088526101c43590818a5287838760608160075afa92101616818360808160065afa167f2c2c241032d7ad93581d5aa06a742bcffd9759f39a0b462faafae141a6a7e5d285527f21325070da51dc7dac02d2417274738c9aa74bada1a4069bc9c7329460e0558688526101e43590818a5287838760608160075afa92101616818360808160065afa167f037e30942a23981108b8ee4f1be45609bf7d53f9ac5998f0c08629f77b727a4e85527f2005614e96bd39546ce8b6b1a67a4553d8425a7aa9376f787d3ac688eab29a1f88526102043590818a5287838760608160075afa92101616818360808160065afa167f1a5e25936a5c1040b5515cb20dc590a907a7768da3ed0a5e104b42969da16b8385527f19fe4203432601f3eac540cb0742113656da6dfe9f3ffbb111e2d8011675740a88526102243590818a5287838760608160075afa92101616818360808160065afa167f220276788757dacd912d690c1a22e472eafe213e7400c7ea7bd77473eb61fd0285527f1786cfa4677a76fc5f51f00b515945aa5de74668774fac4c1af97dacf758d58488526102443590818a5287838760608160075afa92101616818360808160065afa167f29db36db1e42f180431db223b199816744a54e3b9d83407a858fd3810815330d85527f281b73d9acc34b1627f5537eeea7d03913a8503453ffe2cf4092b2f9e95801ef88526102643590818a5287838760608160075afa92101616818360808160065afa167f2c991a084711ecda212a22d0682f78c755a4c5faab989203ca3603c3bc920b6185527f062f92723b656b090fc9e176318a86eed57c12290b2ab577845d49a534f0b08d88526102843590818a5287838760608160075afa92101616818360808160065afa167f190183f2b47b6f082a47541047ab6e7070daf8e19ecd011569093f0cc66121f385527e7a73f6f4ad7765423eb2ea20ee0687f47ca8b9b84cef1e0084a3b39ee2569e88526102a43590818a5287838760608160075afa92101616818360808160065afa167f0acafc74d93721522a3086aa7c527cb9e53affc9142ca1f3fdf7ace7898092e485527f0c8165f124fac6eb471eaeb4295f84894e5e617118b695e71b6d7c865eb4884888526102c43590818a5287838760608160075afa92101616818360808160065afa167f153ac2ba44b790bb86043b63bd931baaa2dcf39d7e643bde883891e82673a06f85527f0834e29768b686373f33d2dd4a8bc751389830f05e418320dad8585ae4ce8a6288526102e43590818a5287838760608160075afa92101616818360808160065afa167f281410d497dee2663d418eb69c27e7ff9fd04a083995986581eb50bccaa5c3ad85527f2cab589bdd1345ac215fe1592a5aba0b7a44183804f42dd15b973c2688f6ef7588526103043590818a5287838760608160075afa92101616818360808160065afa167f045b613789182e15e8813ab6aa553b3bbd2e032433e4dd563e2ea2068ec274e185527f053ad5beeab9bc8f407c83af78dc2e0e5b9ca8e6add375fdf92e41795f70467888526103243590818a5287838760608160075afa92101616818360808160065afa167f1beeee977de3d57c4edf7d86428a939f3f9bedfdbc18d55dd825774eed8e69ca85527f19c1ffa93c1c502abfd6f6172fd00628f30111604557ac9c50d1603843f746c088526103443590818a5287838760608160075afa921016169160808160065afa16947f2be0d6f03301b8ff93601ddd2a414f1934a9446963891cf4c67eae52e9e6b1118352526103643580955260608160075afa9210161660408a60808160065afa16985197519815610d075760209a8a528a8a015260408901526060880152608087015260a086015260c085015260e08401527f06df9eb974bbdd9109122158bc0da88ca9e607965438564d4be9c51f8f10d5016101008401527f178a3fcf2ca4915ceeaba6c96ba31e530463e3b3f8ef8bc576505c92dfc1f0906101208401527f1d3fefb466cda562af0191ab1654e75c6786f780ddf7bc6bcd0fa18d2ff59f7d6101408401527efcca49e902368d0e8e915118121bb8648fb2e7c6fd7b4311b10f752f8114366101608401527f2d4d9aa7e302d9df41749d5507949d05dbea33fbb16c643b22f599a2be6df2e26101808401527f14bedd503c37ceb061d8ec60209fe345ce89830a19230301f076caff004d19266101a08401527f0967032fcbf776d1afc985f88877f182d38480a653f2decaa9794cbc3bf3060c6101c08401527f0e187847ad4c798374d0d6732bf501847dd68bc0e071241e0213bc7fc13db7ab6101e08401527e1752a100a72fdf1e5a5d6ea841cc20ec838bccfcf7bd559e79f1c9c759b6a06102008401527f192a8cc13cd9f762871f21e43451c6ca9eeab2cb2987c4e366a185c25dac2e7f6102208401526102408301526102608201527f198e9393920d483a7260bfb731fb5d25f1aa493335a9e71297e485b7aef312c26102808201527f1800deef121f1e76426a00665e5c4479674322d4f75edadd46debd5cd992f6ed6102a08201527f275dc4a288d1afb3cbb1ac09187524c7db36395df7be3b99e673b13a075a65ec6102c08201527f1d9befcd05a5323e6da4d435f3b617cdb3af83285c2df711ef39c01571827f9d6102e0820152611ad782611aff565b9283918336843760085afa15908115611af2575b50610cdf57005b6001915051141581611aeb565b907fffffffffffffffffffffffffffffffffffffffffffffffffffffffffffffffe0601f604051930116820182811067ffffffffffffffff821117611b4357604052565b7f4e487b71000000000000000000000000000000000000000000000000000000005f52604160045260245ffd5b8015611c0d578060011c917f30644e72e131a029b85045b68181585d97816a916871ca8d3c208c16d87cfd47831015610cdf57600180611bd97f30644e72e131a029b85045b68181585d97816a916871ca8d3c208c16d87cfd4760038188818180090908612165565b931614611be257565b907f30644e72e131a029b85045b68181585d97816a916871ca8d3c208c16d87cfd4780910681030690565b505f905f90565b801580611d91575b611d85578060021c92827f30644e72e131a029b85045b68181585d97816a916871ca8d3c208c16d87cfd478510801590611d5b575b610cdf5784817f30644e72e131a029b85045b68181585d97816a916871ca8d3c208c16d87cfd4780808080808080807f30644e72e131a029b85045b68181585d97816a916871ca8d3c208c16d87cfd4481611d129d8d0909998a0981898181800909087f2fcd3ac2a640a154eb23960892a85a68f031ca0c8344b23a577dcf1052b9e7750806810306936002808a16149509818a8181800909087f2b149d40ceb8aaae81be18991be06ac3b5b4c5e559dbefa33267e6dc24a138e50861219b565b80929160018082961614611d24575050565b7f30644e72e131a029b85045b68181585d97816a916871ca8d3c208c16d87cfd478093945080929550809106810306930681030690565b507f30644e72e131a029b85045b68181585d97816a916871ca8d3c208c16d87cfd47811015611c51565b50505f905f905f905f90565b508115611c1c565b907f30644e72e131a029b85045b68181585d97816a916871ca8d3c208c16d87cfd478210801590611e5c575b610cdf57811580611e54575b611e4e57611e087f30644e72e131a029b85045b68181585d97816a916871ca8d3c208c16d87cfd4760038185818180090908612165565b818103611e1757505060011b90565b7f30644e72e131a029b85045b68181585d97816a916871ca8d3c208c16d87cfd47809106810306145f14610cdf57600190811b1790565b50505f90565b508015611dd1565b507f30644e72e131a029b85045b68181585d97816a916871ca8d3c208c16d87cfd47811015611dc5565b919093927f30644e72e131a029b85045b68181585d97816a916871ca8d3c208c16d87cfd47831080159061213b575b8015612111575b80156120e7575b610cdf5780828685171717156120dc579082916120197f30644e72e131a029b85045b68181585d97816a916871ca8d3c208c16d87cfd4780808080888180808f9d7f30644e72e131a029b85045b68181585d97816a916871ca8d3c208c16d87cfd448f839290839109099d8e0981848181800909087f2b149d40ceb8aaae81be18991be06ac3b5b4c5e559dbefa33267e6dc24a138e5089a09818c8181800909087f2fcd3ac2a640a154eb23960892a85a68f031ca0c8344b23a577dcf1052b9e7750806810306947f30644e72e131a029b85045b68181585d97816a916871ca8d3c208c16d87cfd477f183227397098d014dc2822db40c0ac2ecbc0b548b438e5469e10460b6c3e7ea481611fe081808b80098187800908612165565b8408097f30644e72e131a029b85045b68181585d97816a916871ca8d3c208c16d87cfd4761200d82612374565b8009141595869161219b565b9290808214806120d3575b1561204b5750505050905f146120435760ff60025b169060021b179190565b60ff5f612039565b7f30644e72e131a029b85045b68181585d97816a916871ca8d3c208c16d87cfd478091068103061491826120a1575b505015610cdf57600191156120995760ff60025b169060021b17179190565b60ff5f61208e565b7f30644e72e131a029b85045b68181585d97816a916871ca8d3c208c16d87cfd47919250819006810306145f8061207a565b50838314612024565b50505090505f905f90565b507f30644e72e131a029b85045b68181585d97816a916871ca8d3c208c16d87cfd47811015611ec3565b507f30644e72e131a029b85045b68181585d97816a916871ca8d3c208c16d87cfd47821015611ebc565b507f30644e72e131a029b85045b68181585d97816a916871ca8d3c208c16d87cfd47851015611eb5565b9061216f82612374565b917f30644e72e131a029b85045b68181585d97816a916871ca8d3c208c16d87cfd4783800903610cdf57565b917f30644e72e131a029b85045b68181585d97816a916871ca8d3c208c16d87cfd477f183227397098d014dc2822db40c0ac2ecbc0b548b438e5469e10460b6c3e7ea481612206939694966121f882808a8009818a800908612165565b90612368575b860809612165565b927f30644e72e131a029b85045b68181585d97816a916871ca8d3c208c16d87cfd47600285096040519060208252602080830152602060408301528060608301527f30644e72e131a029b85045b68181585d97816a916871ca8d3c208c16d87cfd4560808301527f30644e72e131a029b85045b68181585d97816a916871ca8d3c208c16d87cfd4760a083015260208260c08160055afa91519115610cdf577f30644e72e131a029b85045b68181585d97816a916871ca8d3c208c16d87cfd47826001920903610cdf577f30644e72e131a029b85045b68181585d97816a916871ca8d3c208c16d87cfd47908209927f30644e72e131a029b85045b68181585d97816a916871ca8d3c208c16d87cfd478080808780090681030681878009081490811591612336575b50610cdf57565b90507f30644e72e131a029b85045b68181585d97816a916871ca8d3c208c16d87cfd478084860960020914155f61232f565b818091068103066121fe565b9060405191602083526020808401526020604084015260608301527f0c19139cb84c680a6e14116da060561765e05aa45a1c72a34f082305b61f3f5260808301527f30644e72e131a029b85045b68181585d97816a916871ca8d3c208c16d87cfd4760a083015260208260c08160055afa91519115610cdf5756fea2646970667358221220bc27da7f5c1ad336c5dd951507e67bdd70f234f889290c80f2cb4cd1b80cffac64736f6c634300081e0033","linkReferences":{}},"methodIdentifiers":{"compressProof(uint256[8])":"44f63692","verifyCompressedProof(uint256[4],uint256[24])":"04bb1c1b","verifyProof(uint256[8],uint256[24])":"a18cb305"},"id":55}