{"abi":[{"type":"function","name":"compressProof","inputs":[{"name":"proof","type":"uint256[8]","internalType":"uint256[8]"}],"outputs":[{"name":"compressed","type":"uint256[4]","internalType":"uint256[4]"}],"stateMutability":"view"},{"type":"function","name":"verifyCompressedProof","inputs":[{"name":"compressedProof","type":"uint256[4]","internalType":"uint256[4]"},{"name":"input","type":"uint256[36]","internalType":"uint256[36]"}],"outputs":[],"stateMutability":"view"},{"type":"function","name":"verifyProof","inputs":[{"name":"proof","type":"uint256[8]","internalType":"uint256[8]"},{"name":"input","type":"uint256[36]","internalType":"uint256[36]"}],"outputs":[],"stateMutability":"view"},{"type":"error","name":"ProofInvalid","inputs":[]},{"type":"error","name":"PublicInputNotInField","inputs":[]}],"bytecode":{"object":"0x60808060405234601557612db9908161001a8239f35b5f80fdfe60806040526004361015610011575f80fd5b5f3560e01c806344f63692146123e057806363c6504614611271576395a1463f1461003a575f80fd5b3461126d576105007ffffffffffffffffffffffffffffffffffffffffffffffffffffffffffffffffc36011261126d573660841161126d57366105041161126d5761030061008781612493565b813682376100966004356128d0565b6100a7602493929335604435612974565b919392906100b66064356128d0565b9390926040519660408801967f2ec07f71c637c8579940fe5b530b9f02a995691d6c6680d64aa3319805f6d73889528860208101987f14ee17a0404bfbfb55952898fcb54642acb758bc9fa50ed824ec4459bc03ef288a527f05a9fa4aceb3a02223cb984702d8c41315b63ca9737d56067cc04d16e8886d3d81527f30644e72e131a029b85045b68181585d2833e84879b9709143e1f593f0000001604060608401927f080a43a77f45efce60a323f34c136b109c5ba789aaa6c4a85dd0ec367f4c80ab84527f0fbfe24179edd46f3106f6dff63099efd43efebd77d2592f7b8434f153154f596084359583608082019780895286828660608160075afa911016818360808160065afa167f25296aa375c6d4d2e032dba74d877916b39cd7bf18402c49e990a69af070d91f85527f0faebb33359dd8758b2e480a1c0905cdb2f444743a9f83e3cbda9a28580b0fd98852600160a43591828b5288848860608160075afa9310161616818360808160065afa167f1707d2e3eafbc0ce9215ff978c69dabb42a83ded013cc00576bd318659dbd68885527f05eeb02000b932a28617e2d4077715ea432b8c1aad3cd45a0c82ed06141097a5885260c43590818a5287838760608160075afa92101616818360808160065afa167f20024a570f8b8b81d2399c6c777b5914bc16da127edd814c259b0a3d1a8fad8285527f03a4774794b70e206ab31437a79f8ca3c82bb03eaff338661eaaf0cf4bdc2b96885260e43590818a5287838760608160075afa92101616818360808160065afa167f2a9ad765ed5aa42d1026bb1ff1a75fd0a0623b55867b22e9bcf0ad174601685485527f0c69e2785d0e92f5e72a3b96e05b05e4f2d4f76ce82baae5d54d0e079092ae0f88526101043590818a5287838760608160075afa92101616818360808160065afa167f10078e7d31a1348c0ea37cb3e29e0eb92c52745dc98beb374862490ba74cb9c885527f2af2cf24edb0f0fa9a99a9448785c4b01d2767c8283a2dc459b7bb7289147f9488526101243590818a5287838760608160075afa92101616818360808160065afa167f1e77bbffe491b0cd7ad9812e671ef89d5d1826cee6f7c994996b39112b2dd8bb85527f04d6f5302e3e9d1458fa7c14cf7bc4045e0a2238bc7039aa8882f3bdc6fd2d4e88526101443590818a5287838760608160075afa92101616818360808160065afa167f2a3d53008dec98168d7459d6e24903be8960de8d1a7bf3b268d2ab9a6ed0d07085527f19433d05d8eb237df8323158e9a77ea0184f23590920e6e28c886efdf0480a0a88526101643590818a5287838760608160075afa92101616818360808160065afa167f016693ec6a901214c5f1af4ac9ed17f798d20abb45259716fcab97cf39bd27ad85527f0d2a2efb267d4026b0322cf49823278e2adaee94c8f0641c443f3c979abd471288526101843590818a5287838760608160075afa92101616818360808160065afa167f290b18b34a124263dfe4b17902b5b4ac321ebe8b17c99f0df6d79e4b11d3c30e85527f26412f11a194af26baf7feb4bc4ebb8d3661b5d4c9b8650e5885aaef6a697c4788526101a43590818a5287838760608160075afa92101616818360808160065afa167f26a6cb3a90b4e3d01f0dd5bd9a5aadcae7d7deb6f4ed86ad5c7c5ce8d4b759c485527f089a441972f7cf1257ea99afa68626d34c5f43c8466f5ea64d87666b1512e10e88526101c43590818a5287838760608160075afa92101616818360808160065afa167f21b3fe3f352445ac656ca6d3d51d5887e437bef85801cc3c4a1475328ce1c4c485527f2af34a2279b6ad5145a482206775e50fac80bf21d6753933ad446e96ef68d75188526101e43590818a5287838760608160075afa92101616818360808160065afa167f080d165ca8b04017c6951725c6dd38df830b40f55920cfa40792b030464f06ac85527f1f5ad54e513c4d2f737f330ad72d20203f4635e7a8c164b2bee222c9fc429a7388526102043590818a5287838760608160075afa92101616818360808160065afa167f293c0dc68af2c8103b504ec70adbe68bae4e1c226baf868a017279b6808f679e85527f1fae2bbf9d4c2e33d21fe92282651fcd2ff5b2fc96a10f2ba4a71284eecafa8988526102243590818a5287838760608160075afa92101616818360808160065afa167f01508f8ad34144b06cf04238d9e0c9bd99221a85b127ed20cd393375faa15a3685527f11f6c11ace839633c806a324b42e506e9e67f34e489b4545ce80711a18ba4f6288526102443590818a5287838760608160075afa92101616818360808160065afa167f21726a5bc271eeaf6f7603a1ebff93f6615536bc72a17c1b107eb27ee26818b685527f274e90ce392d80f1a7e60d78f775aa11ec118498a3d077cc165c242bbaa7983f88526102643590818a5287838760608160075afa92101616818360808160065afa167f0d1e01104bdb09bc44c61f44521d2720124522959b764584e7f077cf982851a185527f1f54631387b4ff3bdef67b10541afdc2738f3b7909ee5f865e710c547581550288526102843590818a5287838760608160075afa92101616818360808160065afa167f18c93eb9024b80c193748367e107a808c8a931e6fa746f29a481deb25da332da85527f17578ece082194eb47e30d885fe710ed6caf620eed58481e181bdb77762983b888526102a43590818a5287838760608160075afa92101616818360808160065afa167f0d690790892f638fcb7337caa26a7091317d1ca6fb30f9b1393a8b004c35741985527f0c4ab8c96e998bff3bb4d7ce726ddb6936d368ec6e82a9cfd1a21c41b3ff5d4b88526102c43590818a5287838760608160075afa92101616818360808160065afa167f1f588a531579cf010050fa66a772a55e99b17599322ab739d2f1afbfa7fafaa785527f2fc8b581c0bc47fe6a048e81493a5412ecf86cc367f059fe129f58dfa0f5807788526102e43590818a5287838760608160075afa92101616818360808160065afa167f0a1774f49b575fec187a3f59945ca781ed2ae227e45445283d73414fdb25e83985527f1db7801506a2f42507ff92446871841ace84e888041b6de59215e717856ff1e888526103043590818a5287838760608160075afa92101616818360808160065afa167f17599d590e730b42ca2cfad6ac52d1ba12f8b69b874a410bce6cb98cb1847b5485527f2a76f8da36bb5b53e98818de43dd1b7b2be1de27ffa60177492a8b6d90a1da6788526103243590818a5287838760608160075afa92101616818360808160065afa167f217f67613d4214b70a4b87e0dd8cdcc31f437fcdeb9a45b20727f9656e5e54f585527f24acdac780207bc5d112ab82c9d9e98cab9163d282152601da494bffb14081c888526103443590818a5287838760608160075afa92101616818360808160065afa167f16fda001fe1075069fa7228681acece2b47676a93c041ecb9c55a0596158c13f85527f0ff523b0efce68b57d1530ff5437b521ece4a102bed87c8b8188c0485e86f22088526103643590818a5287838760608160075afa92101616818360808160065afa167f0cf906ccd70ce0fc10cbbb2c35ee4d80aaeb9fbce7c5bfc1827150f542bee94985527f0a4dfac0accb38c97cfffc23cec73816b7124ff1b412f43df4fcf01e0137fb4c88526103843590818a5287838760608160075afa92101616818360808160065afa167f0d1842f7af15883013d2b02a9de3473a859e5ce922156bf7de5e5eb1e177f63685527f218774c2746cc3b41cae548e71f2a10061af35becc25d08ff684c8fa8cb5b67e88526103a43590818a5287838760608160075afa92101616818360808160065afa167f0dd1e232a52d3c3fab7ce092b6a6f1e4859036f4638dda69d67849a7a399e0de85527f2a3de4b5f90afc3e81dc8c2a65a344a15005f953239c3920e9f7f0c6dab702aa88526103c43590818a5287838760608160075afa92101616818360808160065afa167f1bd9d44b5eac128aa8baed40ba05552554b22d140e1922999ec28317074519e085527f0faf48e29d117905c55eb3536a0e8a312aeb0c2a515062fe8d01d43b16f6972288526103e43590818a5287838760608160075afa92101616818360808160065afa167f195350f29c1c9e130d1d8fd752ab3b2fa0c8d30088901b3691505ce7eb75e7e385527f2bc3b52711b3aa561b5d19c68faf2735ad30015d6b380e78bfe0ff8e5850b2e688526104043590818a5287838760608160075afa92101616818360808160065afa167f12d55983fe618244ef97764ad608e5838469c5fc56af1d8e8de3d65f7103ca7085527f1cfaef2e49d724ae9c232ea0881a5872d3627d34d868ffeddb45707578bf8e9b88526104243590818a5287838760608160075afa92101616818360808160065afa167f0bbbb00a4da79b540f1ad9b23a3c34dd2dfde4ac8e04534408f743ff9644265085527f15d3c074a8b0756b5f0e8cff3a9bee911085fcc741749d7a48b101a5ee92012188526104443590818a5287838760608160075afa92101616818360808160065afa167f126997edb80b8149ef6b267bab51aff07b826b5b3a8b4db0e0e1dececc5776ca85527f17ee9654bace18e00bde61588d0a3bea53796d848b49eb0f11ac73068813670c88526104643590818a5287838760608160075afa92101616818360808160065afa167f0be1459dc063f93a7ffda387bf3a66d3eef815de69fced132aede785994b162185527f29b49fe5081537594bd980d37cd529a135880768616191b63aecd31c2becd59188526104843590818a5287838760608160075afa92101616818360808160065afa167f0f9562a340b7a07e7cf5d629a4db6c05c9b1951d7405474406561d2e3f16d98985527f1dd156d068b43a525d3d91c5e7e1156679d5c65ddd91ccdd5b73f077c988337688526104a43590818a5287838760608160075afa92101616818360808160065afa167f0f58c9de3c97630dc07e28b761ad085eb9e4c70949b322950beaab95829fe90f85527f01cf95a61bd6c7c04cf4864f84df8fb795bc5f34aa64eee3d91a832a3151af4288526104c43590818a5287838760608160075afa921016169160808160065afa16947f0ba874881257a88fe74593a67ed0b546829eb6626f2bd567d9228d4e106e9e838352526104e43580955260608160075afa9210161660408a60808160065afa169851975198156112455760209a8a528a8a015260408901526060880152608087015260a086015260c085015260e08401527f140b15bcd709f817ef0c596c337c5fd929ff0c39ae43175d0a956d3cacebf72b6101008401527f26076b219af5f61c59424e7396c15a18b32448cb66857c9cdaa5cc082b5c0bd76101208401527f084964fe936c97a294148f8b8b0ce649e5633b3de0e8739153261c787d1cd4cd6101408401527f0f8d4df7eac3ccfbc93775e96acaef6d9dea69756201ded433a8fdf4fc1ee4f06101608401527f2d4d9aa7e302d9df41749d5507949d05dbea33fbb16c643b22f599a2be6df2e26101808401527f14bedd503c37ceb061d8ec60209fe345ce89830a19230301f076caff004d19266101a08401527f0967032fcbf776d1afc985f88877f182d38480a653f2decaa9794cbc3bf3060c6101c08401527f0e187847ad4c798374d0d6732bf501847dd68bc0e071241e0213bc7fc13db7ab6101e08401527e1752a100a72fdf1e5a5d6ea841cc20ec838bccfcf7bd559e79f1c9c759b6a06102008401527f192a8cc13cd9f762871f21e43451c6ca9eeab2cb2987c4e366a185c25dac2e7f6102208401526102408301526102608201527f198e9393920d483a7260bfb731fb5d25f1aa493335a9e71297e485b7aef312c26102808201527f1800deef121f1e76426a00665e5c4479674322d4f75edadd46debd5cd992f6ed6102a08201527f275dc4a288d1afb3cbb1ac09187524c7db36395df7be3b99e673b13a075a65ec6102c08201527f1d9befcd05a5323e6da4d435f3b617cdb3af83285c2df711ef39c01571827f9d6102e08201526111f582612493565b9283918336843760085afa15908115611238575b5061121057005b7f7fcdd1f4000000000000000000000000000000000000000000000000000000005f5260045ffd5b600191505114155f611209565b7fa54f8e27000000000000000000000000000000000000000000000000000000005f5260045ffd5b5f80fd5b3461126d576105807ffffffffffffffffffffffffffffffffffffffffffffffffffffffffffffffffc36011261126d57366101041161126d57366105841161126d5760405160408101907f2ec07f71c637c8579940fe5b530b9f02a995691d6c6680d64aa3319805f6d738815260208101917f14ee17a0404bfbfb55952898fcb54642acb758bc9fa50ed824ec4459bc03ef2883527f05a9fa4aceb3a02223cb984702d8c41315b63ca9737d56067cc04d16e8886d3d8152606082017f080a43a77f45efce60a323f34c136b109c5ba789aaa6c4a85dd0ec367f4c80ab81527f30644e72e131a029b85045b68181585d2833e84879b9709143e1f593f0000001604061010435937f0fbfe24179edd46f3106f6dff63099efd43efebd77d2592f7b8434f153154f59608087019580875284848460608160075afa911016838860808160065afa167f25296aa375c6d4d2e032dba74d877916b39cd7bf18402c49e990a69af070d91f83527f0faebb33359dd8758b2e480a1c0905cdb2f444743a9f83e3cbda9a28580b0fd986526001610124359182895286868660608160075afa9310161616838860808160065afa167f1707d2e3eafbc0ce9215ff978c69dabb42a83ded013cc00576bd318659dbd68883527f05eeb02000b932a28617e2d4077715ea432b8c1aad3cd45a0c82ed06141097a58652610144359081885285858560608160075afa92101616838860808160065afa167f20024a570f8b8b81d2399c6c777b5914bc16da127edd814c259b0a3d1a8fad8283527f03a4774794b70e206ab31437a79f8ca3c82bb03eaff338661eaaf0cf4bdc2b968652610164359081885285858560608160075afa92101616838860808160065afa167f2a9ad765ed5aa42d1026bb1ff1a75fd0a0623b55867b22e9bcf0ad174601685483527f0c69e2785d0e92f5e72a3b96e05b05e4f2d4f76ce82baae5d54d0e079092ae0f8652610184359081885285858560608160075afa92101616838860808160065afa167f10078e7d31a1348c0ea37cb3e29e0eb92c52745dc98beb374862490ba74cb9c883527f2af2cf24edb0f0fa9a99a9448785c4b01d2767c8283a2dc459b7bb7289147f9486526101a4359081885285858560608160075afa92101616838860808160065afa167f1e77bbffe491b0cd7ad9812e671ef89d5d1826cee6f7c994996b39112b2dd8bb83527f04d6f5302e3e9d1458fa7c14cf7bc4045e0a2238bc7039aa8882f3bdc6fd2d4e86526101c4359081885285858560608160075afa92101616838860808160065afa167f2a3d53008dec98168d7459d6e24903be8960de8d1a7bf3b268d2ab9a6ed0d07083527f19433d05d8eb237df8323158e9a77ea0184f23590920e6e28c886efdf0480a0a86526101e4359081885285858560608160075afa92101616838860808160065afa167f016693ec6a901214c5f1af4ac9ed17f798d20abb45259716fcab97cf39bd27ad83527f0d2a2efb267d4026b0322cf49823278e2adaee94c8f0641c443f3c979abd47128652610204359081885285858560608160075afa92101616838860808160065afa167f290b18b34a124263dfe4b17902b5b4ac321ebe8b17c99f0df6d79e4b11d3c30e83527f26412f11a194af26baf7feb4bc4ebb8d3661b5d4c9b8650e5885aaef6a697c478652610224359081885285858560608160075afa92101616838860808160065afa167f26a6cb3a90b4e3d01f0dd5bd9a5aadcae7d7deb6f4ed86ad5c7c5ce8d4b759c483527f089a441972f7cf1257ea99afa68626d34c5f43c8466f5ea64d87666b1512e10e8652610244359081885285858560608160075afa92101616838860808160065afa167f21b3fe3f352445ac656ca6d3d51d5887e437bef85801cc3c4a1475328ce1c4c483527f2af34a2279b6ad5145a482206775e50fac80bf21d6753933ad446e96ef68d7518652610264359081885285858560608160075afa92101616838860808160065afa167f080d165ca8b04017c6951725c6dd38df830b40f55920cfa40792b030464f06ac83527f1f5ad54e513c4d2f737f330ad72d20203f4635e7a8c164b2bee222c9fc429a738652610284359081885285858560608160075afa92101616838860808160065afa167f293c0dc68af2c8103b504ec70adbe68bae4e1c226baf868a017279b6808f679e83527f1fae2bbf9d4c2e33d21fe92282651fcd2ff5b2fc96a10f2ba4a71284eecafa8986526102a4359081885285858560608160075afa92101616838860808160065afa167f01508f8ad34144b06cf04238d9e0c9bd99221a85b127ed20cd393375faa15a3683527f11f6c11ace839633c806a324b42e506e9e67f34e489b4545ce80711a18ba4f6286526102c4359081885285858560608160075afa92101616838860808160065afa167f21726a5bc271eeaf6f7603a1ebff93f6615536bc72a17c1b107eb27ee26818b683527f274e90ce392d80f1a7e60d78f775aa11ec118498a3d077cc165c242bbaa7983f86526102e4359081885285858560608160075afa92101616838860808160065afa167f0d1e01104bdb09bc44c61f44521d2720124522959b764584e7f077cf982851a183527f1f54631387b4ff3bdef67b10541afdc2738f3b7909ee5f865e710c54758155028652610304359081885285858560608160075afa92101616838860808160065afa167f18c93eb9024b80c193748367e107a808c8a931e6fa746f29a481deb25da332da83527f17578ece082194eb47e30d885fe710ed6caf620eed58481e181bdb77762983b88652610324359081885285858560608160075afa92101616838860808160065afa167f0d690790892f638fcb7337caa26a7091317d1ca6fb30f9b1393a8b004c35741983527f0c4ab8c96e998bff3bb4d7ce726ddb6936d368ec6e82a9cfd1a21c41b3ff5d4b8652610344359081885285858560608160075afa92101616838860808160065afa167f1f588a531579cf010050fa66a772a55e99b17599322ab739d2f1afbfa7fafaa783527f2fc8b581c0bc47fe6a048e81493a5412ecf86cc367f059fe129f58dfa0f580778652610364359081885285858560608160075afa92101616838860808160065afa167f0a1774f49b575fec187a3f59945ca781ed2ae227e45445283d73414fdb25e83983527f1db7801506a2f42507ff92446871841ace84e888041b6de59215e717856ff1e88652610384359081885285858560608160075afa92101616838860808160065afa167f17599d590e730b42ca2cfad6ac52d1ba12f8b69b874a410bce6cb98cb1847b5483527f2a76f8da36bb5b53e98818de43dd1b7b2be1de27ffa60177492a8b6d90a1da6786526103a4359081885285858560608160075afa92101616838860808160065afa167f217f67613d4214b70a4b87e0dd8cdcc31f437fcdeb9a45b20727f9656e5e54f583527f24acdac780207bc5d112ab82c9d9e98cab9163d282152601da494bffb14081c886526103c4359081885285858560608160075afa92101616838860808160065afa167f16fda001fe1075069fa7228681acece2b47676a93c041ecb9c55a0596158c13f83527f0ff523b0efce68b57d1530ff5437b521ece4a102bed87c8b8188c0485e86f22086526103e4359081885285858560608160075afa92101616838860808160065afa167f0cf906ccd70ce0fc10cbbb2c35ee4d80aaeb9fbce7c5bfc1827150f542bee94983527f0a4dfac0accb38c97cfffc23cec73816b7124ff1b412f43df4fcf01e0137fb4c8652610404359081885285858560608160075afa92101616838860808160065afa167f0d1842f7af15883013d2b02a9de3473a859e5ce922156bf7de5e5eb1e177f63683527f218774c2746cc3b41cae548e71f2a10061af35becc25d08ff684c8fa8cb5b67e8652610424359081885285858560608160075afa92101616838860808160065afa167f0dd1e232a52d3c3fab7ce092b6a6f1e4859036f4638dda69d67849a7a399e0de83527f2a3de4b5f90afc3e81dc8c2a65a344a15005f953239c3920e9f7f0c6dab702aa8652610444359081885285858560608160075afa92101616838860808160065afa167f1bd9d44b5eac128aa8baed40ba05552554b22d140e1922999ec28317074519e083527f0faf48e29d117905c55eb3536a0e8a312aeb0c2a515062fe8d01d43b16f697228652610464359081885285858560608160075afa92101616838860808160065afa167f195350f29c1c9e130d1d8fd752ab3b2fa0c8d30088901b3691505ce7eb75e7e383527f2bc3b52711b3aa561b5d19c68faf2735ad30015d6b380e78bfe0ff8e5850b2e68652610484359081885285858560608160075afa92101616838860808160065afa167f12d55983fe618244ef97764ad608e5838469c5fc56af1d8e8de3d65f7103ca7083527f1cfaef2e49d724ae9c232ea0881a5872d3627d34d868ffeddb45707578bf8e9b86526104a4359081885285858560608160075afa92101616838860808160065afa167f0bbbb00a4da79b540f1ad9b23a3c34dd2dfde4ac8e04534408f743ff9644265083527f15d3c074a8b0756b5f0e8cff3a9bee911085fcc741749d7a48b101a5ee92012186526104c4359081885285858560608160075afa92101616838860808160065afa167f126997edb80b8149ef6b267bab51aff07b826b5b3a8b4db0e0e1dececc5776ca83527f17ee9654bace18e00bde61588d0a3bea53796d848b49eb0f11ac73068813670c86526104e4359081885285858560608160075afa92101616838860808160065afa167f0be1459dc063f93a7ffda387bf3a66d3eef815de69fced132aede785994b162183527f29b49fe5081537594bd980d37cd529a135880768616191b63aecd31c2becd5918652610504359081885285858560608160075afa92101616838860808160065afa167f0f9562a340b7a07e7cf5d629a4db6c05c9b1951d7405474406561d2e3f16d98983527f1dd156d068b43a525d3d91c5e7e1156679d5c65ddd91ccdd5b73f077c98833768652610524359081885285858560608160075afa92101616838860808160065afa167f0f58c9de3c97630dc07e28b761ad085eb9e4c70949b322950beaab95829fe90f83527f01cf95a61bd6c7c04cf4864f84df8fb795bc5f34aa64eee3d91a832a3151af428652610544359081885285858560608160075afa92101616838860808160065afa16947f0ba874881257a88fe74593a67ed0b546829eb6626f2bd567d9228d4e106e9e838352526105643580955260608160075afa9210161660408260808160065afa169051915190156112455760405191610100600484377f140b15bcd709f817ef0c596c337c5fd929ff0c39ae43175d0a956d3cacebf72b6101008401527f26076b219af5f61c59424e7396c15a18b32448cb66857c9cdaa5cc082b5c0bd76101208401527f084964fe936c97a294148f8b8b0ce649e5633b3de0e8739153261c787d1cd4cd6101408401527f0f8d4df7eac3ccfbc93775e96acaef6d9dea69756201ded433a8fdf4fc1ee4f06101608401527f2d4d9aa7e302d9df41749d5507949d05dbea33fbb16c643b22f599a2be6df2e26101808401527f14bedd503c37ceb061d8ec60209fe345ce89830a19230301f076caff004d19266101a08401527f0967032fcbf776d1afc985f88877f182d38480a653f2decaa9794cbc3bf3060c6101c08401527f0e187847ad4c798374d0d6732bf501847dd68bc0e071241e0213bc7fc13db7ab6101e08401527e1752a100a72fdf1e5a5d6ea841cc20ec838bccfcf7bd559e79f1c9c759b6a06102008401527f192a8cc13cd9f762871f21e43451c6ca9eeab2cb2987c4e366a185c25dac2e7f6102208401526102408301526102608201527f198e9393920d483a7260bfb731fb5d25f1aa493335a9e71297e485b7aef312c26102808201527f1800deef121f1e76426a00665e5c4479674322d4f75edadd46debd5cd992f6ed6102a08201527f275dc4a288d1afb3cbb1ac09187524c7db36395df7be3b99e673b13a075a65ec6102c08201527f1d9befcd05a5323e6da4d435f3b617cdb3af83285c2df711ef39c01571827f9d6102e08201526020816103008160085afa9051161561121057005b3461126d576101007ffffffffffffffffffffffffffffffffffffffffffffffffffffffffffffffffc36011261126d57366101041161126d576124236080612493565b6080368237612436602435600435612504565b815261244c60843560a4356044356064356125f1565b6020830152604082015261246460e43560c435612504565b6060820152604051905f825b6004821061247d57608084f35b6020806001928551815201930191019091612470565b907fffffffffffffffffffffffffffffffffffffffffffffffffffffffffffffffe0601f604051930116820182811067ffffffffffffffff8211176124d757604052565b7f4e487b71000000000000000000000000000000000000000000000000000000005f52604160045260245ffd5b907f30644e72e131a029b85045b68181585d97816a916871ca8d3c208c16d87cfd4782108015906125c7575b611210578115806125bf575b6125b9576125737f30644e72e131a029b85045b68181585d97816a916871ca8d3c208c16d87cfd4760038185818180090908612af9565b81810361258257505060011b90565b7f30644e72e131a029b85045b68181585d97816a916871ca8d3c208c16d87cfd47809106810306145f1461121057600190811b1790565b50505f90565b50801561253c565b507f30644e72e131a029b85045b68181585d97816a916871ca8d3c208c16d87cfd47811015612530565b919093927f30644e72e131a029b85045b68181585d97816a916871ca8d3c208c16d87cfd4783108015906128a6575b801561287c575b8015612852575b611210578082868517171715612847579082916127847f30644e72e131a029b85045b68181585d97816a916871ca8d3c208c16d87cfd4780808080888180808f9d7f30644e72e131a029b85045b68181585d97816a916871ca8d3c208c16d87cfd448f839290839109099d8e0981848181800909087f2b149d40ceb8aaae81be18991be06ac3b5b4c5e559dbefa33267e6dc24a138e5089a09818c8181800909087f2fcd3ac2a640a154eb23960892a85a68f031ca0c8344b23a577dcf1052b9e7750806810306947f30644e72e131a029b85045b68181585d97816a916871ca8d3c208c16d87cfd477f183227397098d014dc2822db40c0ac2ecbc0b548b438e5469e10460b6c3e7ea48161274b81808b80098187800908612af9565b8408097f30644e72e131a029b85045b68181585d97816a916871ca8d3c208c16d87cfd4761277882612d08565b80091415958691612b2f565b92908082148061283e575b156127b65750505050905f146127ae5760ff60025b169060021b179190565b60ff5f6127a4565b7f30644e72e131a029b85045b68181585d97816a916871ca8d3c208c16d87cfd4780910681030614918261280c575b50501561121057600191156128045760ff60025b169060021b17179190565b60ff5f6127f9565b7f30644e72e131a029b85045b68181585d97816a916871ca8d3c208c16d87cfd47919250819006810306145f806127e5565b5083831461278f565b50505090505f905f90565b507f30644e72e131a029b85045b68181585d97816a916871ca8d3c208c16d87cfd4781101561262e565b507f30644e72e131a029b85045b68181585d97816a916871ca8d3c208c16d87cfd47821015612627565b507f30644e72e131a029b85045b68181585d97816a916871ca8d3c208c16d87cfd47851015612620565b801561296d578060011c917f30644e72e131a029b85045b68181585d97816a916871ca8d3c208c16d87cfd47831015611210576001806129397f30644e72e131a029b85045b68181585d97816a916871ca8d3c208c16d87cfd4760038188818180090908612af9565b93161461294257565b907f30644e72e131a029b85045b68181585d97816a916871ca8d3c208c16d87cfd4780910681030690565b505f905f90565b801580612af1575b612ae5578060021c92827f30644e72e131a029b85045b68181585d97816a916871ca8d3c208c16d87cfd478510801590612abb575b6112105784817f30644e72e131a029b85045b68181585d97816a916871ca8d3c208c16d87cfd4780808080808080807f30644e72e131a029b85045b68181585d97816a916871ca8d3c208c16d87cfd4481612a729d8d0909998a0981898181800909087f2fcd3ac2a640a154eb23960892a85a68f031ca0c8344b23a577dcf1052b9e7750806810306936002808a16149509818a8181800909087f2b149d40ceb8aaae81be18991be06ac3b5b4c5e559dbefa33267e6dc24a138e508612b2f565b80929160018082961614612a84575050565b7f30644e72e131a029b85045b68181585d97816a916871ca8d3c208c16d87cfd478093945080929550809106810306930681030690565b507f30644e72e131a029b85045b68181585d97816a916871ca8d3c208c16d87cfd478110156129b1565b50505f905f905f905f90565b50811561297c565b90612b0382612d08565b917f30644e72e131a029b85045b68181585d97816a916871ca8d3c208c16d87cfd478380090361121057565b917f30644e72e131a029b85045b68181585d97816a916871ca8d3c208c16d87cfd477f183227397098d014dc2822db40c0ac2ecbc0b548b438e5469e10460b6c3e7ea481612b9a93969496612b8c82808a8009818a800908612af9565b90612cfc575b860809612af9565b927f30644e72e131a029b85045b68181585d97816a916871ca8d3c208c16d87cfd47600285096040519060208252602080830152602060408301528060608301527f30644e72e131a029b85045b68181585d97816a916871ca8d3c208c16d87cfd4560808301527f30644e72e131a029b85045b68181585d97816a916871ca8d3c208c16d87cfd4760a083015260208260c08160055afa91519115611210577f30644e72e131a029b85045b68181585d97816a916871ca8d3c208c16d87cfd47826001920903611210577f30644e72e131a029b85045b68181585d97816a916871ca8d3c208c16d87cfd47908209927f30644e72e131a029b85045b68181585d97816a916871ca8d3c208c16d87cfd478080808780090681030681878009081490811591612cca575b5061121057565b90507f30644e72e131a029b85045b68181585d97816a916871ca8d3c208c16d87cfd478084860960020914155f612cc3565b81809106810306612b92565b9060405191602083526020808401526020604084015260608301527f0c19139cb84c680a6e14116da060561765e05aa45a1c72a34f082305b61f3f5260808301527f30644e72e131a029b85045b68181585d97816a916871ca8d3c208c16d87cfd4760a083015260208260c08160055afa915191156112105756fea2646970667358221220292e16fa794b82e46296d6c3e0c3dfaa131c54098ee096a84e659f4eaed411df64736f6c634300081e0033","linkReferences":{}},"methodIdentifiers":{"compressProof(uint256[8])":"44f63692","verifyCompressedProof(uint256[4],uint256[36])":"95a1463f","verifyProof(uint256[8],uint256[36])":"63c65046"},"id":56}