{"abi":[{"type":"function","name":"A","inputs":[],"outputs":[{"name":"","type":"uint256","internalType":"uint256"}],"stateMutability":"view"},{"type":"function","name":"D","inputs":[],"outputs":[{"name":"","type":"uint256","internalType":"uint256"}],"stateMutability":"view"},{"type":"function","name":"Q","inputs":[],"outputs":[{"name":"","type":"uint256","internalType":"uint256"}],"stateMutability":"view"},{"type":"function","name":"R","inputs":[],"outputs":[{"name":"","type":"uint256","internalType":"uint256"}],"stateMutability":"view"},{"type":"function","name":"add","inputs":[{"name":"lhs","type":"tuple","internalType":"struct BabyJubJub.Affine","components":[{"name":"x","type":"uint256","internalType":"uint256"},{"name":"y","type":"uint256","internalType":"uint256"}]},{"name":"rhs","type":"tuple","internalType":"struct BabyJubJub.Affine","components":[{"name":"x","type":"uint256","internalType":"uint256"},{"name":"y","type":"uint256","internalType":"uint256"}]}],"outputs":[{"name":"res","type":"tuple","internalType":"struct BabyJubJub.Affine","components":[{"name":"x","type":"uint256","internalType":"uint256"},{"name":"y","type":"uint256","internalType":"uint256"}]}],"stateMutability":"pure"},{"type":"function","name":"computeLagrangeCoefficiants","inputs":[{"name":"ids","type":"uint256[]","internalType":"uint256[]"},{"name":"threshold","type":"uint256","internalType":"uint256"},{"name":"numPeers","type":"uint256","internalType":"uint256"}],"outputs":[{"name":"lagrange","type":"uint256[]","internalType":"uint256[]"}],"stateMutability":"pure"},{"type":"function","name":"generator","inputs":[],"outputs":[{"name":"p","type":"tuple","internalType":"struct BabyJubJub.Affine","components":[{"name":"x","type":"uint256","internalType":"uint256"},{"name":"y","type":"uint256","internalType":"uint256"}]}],"stateMutability":"pure"},{"type":"function","name":"identity","inputs":[],"outputs":[{"name":"p","type":"tuple","internalType":"struct BabyJubJub.Affine","components":[{"name":"x","type":"uint256","internalType":"uint256"},{"name":"y","type":"uint256","internalType":"uint256"}]}],"stateMutability":"pure"},{"type":"function","name":"isEmpty","inputs":[{"name":"p","type":"tuple","internalType":"struct BabyJubJub.Affine","components":[{"name":"x","type":"uint256","internalType":"uint256"},{"name":"y","type":"uint256","internalType":"uint256"}]}],"outputs":[{"name":"","type":"bool","internalType":"bool"}],"stateMutability":"pure"},{"type":"function","name":"isEqual","inputs":[{"name":"lhs","type":"tuple","internalType":"struct BabyJubJub.Affine","components":[{"name":"x","type":"uint256","internalType":"uint256"},{"name":"y","type":"uint256","internalType":"uint256"}]},{"name":"rhs","type":"tuple","internalType":"struct BabyJubJub.Affine","components":[{"name":"x","type":"uint256","internalType":"uint256"},{"name":"y","type":"uint256","internalType":"uint256"}]}],"outputs":[{"name":"","type":"bool","internalType":"bool"}],"stateMutability":"pure"},{"type":"function","name":"isIdentity","inputs":[{"name":"p","type":"tuple","internalType":"struct BabyJubJub.Affine","components":[{"name":"x","type":"uint256","internalType":"uint256"},{"name":"y","type":"uint256","internalType":"uint256"}]}],"outputs":[{"name":"","type":"bool","internalType":"bool"}],"stateMutability":"pure"},{"type":"function","name":"isInCorrectSubgroupAssumingOnCurve","inputs":[{"name":"p","type":"tuple","internalType":"struct BabyJubJub.Affine","components":[{"name":"x","type":"uint256","internalType":"uint256"},{"name":"y","type":"uint256","internalType":"uint256"}]}],"outputs":[{"name":"","type":"bool","internalType":"bool"}],"stateMutability":"pure"},{"type":"function","name":"isOnCurve","inputs":[{"name":"p","type":"tuple","internalType":"struct BabyJubJub.Affine","components":[{"name":"x","type":"uint256","internalType":"uint256"},{"name":"y","type":"uint256","internalType":"uint256"}]}],"outputs":[{"name":"","type":"bool","internalType":"bool"}],"stateMutability":"pure"},{"type":"function","name":"scalarMul","inputs":[{"name":"scalar","type":"uint256","internalType":"uint256"},{"name":"p","type":"tuple","internalType":"struct BabyJubJub.Affine","components":[{"name":"x","type":"uint256","internalType":"uint256"},{"name":"y","type":"uint256","internalType":"uint256"}]}],"outputs":[{"name":"","type":"tuple","internalType":"struct BabyJubJub.Affine","components":[{"name":"x","type":"uint256","internalType":"uint256"},{"name":"y","type":"uint256","internalType":"uint256"}]}],"stateMutability":"pure"}],"bytecode":{"object":"0x60808060405234601957611d4d908161001e823930815050f35b5f80fdfe6080806040526004361015610012575f80fd5b5f3560e01c9081630f529ba2146112ff575080632ba6bab9146112c95780632c159a1a1461128c57806337d2224c14610ec85780634980e1be14610e935780637afa1eed14610e175780638071469c14610df75780638a9088a314610dca5780639679db0d14610db5578063e0d29faa14610d50578063e128c1aa14610136578063e493ef8c14610101578063e8c87428146100d25763f446c1d0146100b6575f80fd5b5f6003193601126100ce576020604051620292fc8152f35b5f80fd5b60406003193601126100ce5760043515806100f5575b6040519015158152602090f35b506024356001146100e8565b5f6003193601126100ce5760206040517f30644e72e131a029b85045b68181585d2833e84879b9709143e1f593f00000018152f35b60406003193601126100ce57611f608061014f8161137b565b36903760405190810181811067ffffffffffffffff821117610d235760405260018152600160208201525f60408201525f60608201525f60808201525f60a08201525f60c0820152600160e082015260016101008201525f6101208201525f61014082015260016101608201525f6101808201525f6101a08201525f6101c082015260016101e08201525f6102008201525f6102208201526001610240820152600161026082015260016102808201525f6102a08201525f6102c082015260016102e0820152600161030082015260016103208201525f6103408201525f61036082015260016103808201525f6103a082015260016103c082015260016103e082015260016104008201525f6104208201525f6104408201525f6104608201525f61048082015260016104a08201525f6104c08201525f6104e0820152600161050082015260016105208201525f6105408201525f6105608201525f61058082015260016105a082015260016105c08201525f6105e082015260016106008201525f6106208201525f6106408201525f6106608201525f6106808201525f6106a08201525f6106c08201525f6106e082015260016107008201525f61072082015260016107408201525f6107608201525f61078082015260016107a082015260016107c08201525f6107e08201526001610800820152600161082082015260016108408201525f6108608201525f6108808201525f6108a08201525f6108c082015260016108e08201525f61090082015260016109208201525f6109408201525f6109608201525f6109808201525f6109a08201525f6109c082015260016109e08201525f610a008201525f610a208201525f610a408201526001610a608201525f610a808201526001610aa08201526001610ac08201525f610ae08201526001610b008201526001610b208201525f610b408201526001610b608201526001610b808201525f610ba08201526001610bc08201525f610be08201525f610c008201525f610c208201525f610c408201525f610c608201525f610c808201526001610ca08201526001610cc08201525f610ce08201525f610d008201525f610d208201525f610d408201525f610d608201525f610d808201526001610da08201525f610dc08201526001610de08201525f610e008201526001610e208201526001610e408201525f610e608201525f610e808201525f610ea08201525f610ec08201526001610ee08201525f610f008201526001610f208201526001610f408201526001610f608201525f610f808201526001610fa08201525f610fc08201526001610fe08201525f611000820152600161102082015260016110408201525f6110608201525f61108082015260016110a082015260016110c082015260016110e0820152600161110082015260016111208201525f6111408201526001611160820152600161118082015260016111a08201525f6111c082015260016111e082015260016112008201525f611220820152600161124082015260016112608201525f61128082015260016112a082015260016112c082015260016112e08201525f6113008201525f6113208201525f6113408201525f6113608201525f61138082015260016113a082015260016113c082015260016113e08201525f6114008201525f61142082015260016114408201525f6114608201525f61148082015260016114a08201525f6114c08201525f6114e08201525f6115008201525f6115208201525f6115408201526001611560820152600161158082015260016115a08201525f6115c082015260016115e0820152600161160082015260016116208201525f6116408201525f6116608201525f6116808201525f6116a08201525f6116c082015260016116e08201525f61170082015260016117208201525f6117408201525f611760820152600161178082015260016117a08201525f6117c08201525f6117e08201526001611800820152600161182082015260016118408201525f611860820152600161188082015260016118a082015260016118c08201525f6118e08201525f61190082015260016119208201525f61194082015260016119608201525f6119808201525f6119a082015260016119c08201525f6119e08201526001611a008201526001611a208201526001611a408201526001611a608201526001611a808201525f611aa08201526001611ac08201526001611ae08201526001611b008201525f611b208201525f611b408201525f611b608201525f611b808201526001611ba08201526001611bc08201526001611be08201525f611c008201525f611c208201526001611c408201525f611c608201525f611c808201526001611ca08201525f611cc08201525f611ce08201525f611d008201525f611d208201526001611d408201525f611d608201525f611d808201526001611da08201525f611dc08201525f611de08201526001611e008201526001611e208201525f611e408201526001611e608201526001611e808201526001611ea08201526001611ec08201525f611ee08201525f611f008201525f611f208201526001611f40820152600435906024355f9260019081935f915f5b60fb841061090657505050506020939092901592836108fc575b5050816108f2575b506040519015158152f35b90501515826108e7565b14915083806108df565b95929395610cf6577f30644e72e131a029b85045b68181585d2833e84879b9709143e1f593f00000018780097f30644e72e131a029b85045b68181585d2833e84879b9709143e1f593f0000001878009937f7fffffffffffffffffffffffffffffffffffffffffffffffffffffffffffffff81168103610cc9576109b97f30644e72e131a029b85045b68181585d2833e84879b9709143e1f593f000000182819360011b099882620292fc85099a6113cf565b800990808210610cb7576109cc91611c3f565b83808210610ca4576109dd91611c3f565b965b6109e984826113cf565b9687818110610c9157906109fc91611c3f565b935b808210610c7e57610a0e91611c3f565b935b7f30644e72e131a029b85045b68181585d2833e84879b9709143e1f593f0000001848909977f30644e72e131a029b85045b68181585d2833e84879b9709143e1f593f000000180878a09985f96099780968a600160ff610a70878a611c4c565b511614610a85575b50505050600101926108c5565b91975092995087847f30644e72e131a029b85045b68181585d2833e84879b9709143e1f593f000000181849c959c099a7f30644e72e131a029b85045b68181585d2833e84879b9709143e1f593f0000001838b09957f30644e72e131a029b85045b68181585d2833e84879b9709143e1f593f000000191097f30644e72e131a029b85045b68181585d2833e84879b9709143e1f593f000000190620292f809907f30644e72e131a029b85045b68181585d2833e84879b9709143e1f593f00000019109907f30644e72e131a029b85045b68181585d2833e84879b9709143e1f593f0000001910996610b76916113cf565b610b8088856113cf565b7f30644e72e131a029b85045b68181585d2833e84879b9709143e1f593f000000191096001927f30644e72e131a029b85045b68181585d2833e84879b9709143e1f593f000000192918391908290610c0d908d808210610c6c57610be391611c3f565b83808210610c5957610bf491611c3f565b9a5b808610610c4c57610c078187611c3f565b956113cf565b9b620292fc09808210610c3557610c2391611c3f565b818b84099a0996099790898080610a78565b610c4791610c4291611c3f565b611bf3565b610c23565b610c07610c428783611c3f565b610c6691610c4291611c3f565b9a610bf6565b610c7991610c4291611c3f565b610be3565b610c8b91610c4291611c3f565b93610a10565b610c4290610c9e92611c3f565b936109fe565b610cb191610c4291611c3f565b966109df565b610cc491610c4291611c3f565b6109cc565b7f4e487b71000000000000000000000000000000000000000000000000000000005f52601160045260245ffd5b7f4e487b71000000000000000000000000000000000000000000000000000000005f52601260045260245ffd5b7f4e487b71000000000000000000000000000000000000000000000000000000005f52604160045260245ffd5b60606003193601126100ce5760407fffffffffffffffffffffffffffffffffffffffffffffffffffffffffffffffdc3601126100ce57610db1610d946004356116b2565b604051918291829190916020806040830194805184520151910152565b0390f35b610db1610d94610dc436611315565b906114fe565b60406003193601126100ce576004351580610ded575b6020906040519015158152f35b5060243515610de0565b60406003193601126100ce576020610e0d6113f4565b6040519015158152f35b5f6003193601126100ce57610db1610e2d61135b565b7f0bb77a6ad63e739b4eacb2e09d6277c12ab8d8010534e0b62893f3f6bb95705181527f25797203f7a0b24925572e1cd16bf9edfce0051fb9e133774b3c257a872d7d8b6020820152604051918291829190916020806040830194805184520151910152565b5f6003193601126100ce5760206040517f060c89ce5c263405370a08b6d0302b0bab3eedb83920ee0a677297dc392126f18152f35b60606003193601126100ce5760043567ffffffffffffffff81116100ce57366023820112156100ce5780600401359067ffffffffffffffff82116100ce576024810190602436918460051b0101116100ce5760243590604435928281036100ce575f5b838110611238575090610f51610f48610f43866113dc565b61137b565b948086526113dc565b927fffffffffffffffffffffffffffffffffffffffffffffffffffffffffffffffe06020860194013685375f92835b828110610fcb578587604051918291602083019060208452518091526040830191905f5b818110610fb2575050500390f35b8251845285945060209384019390920191600101610fa4565b60019081610fda8285886113bf565b35838101809111610cc9575f5b868110611129575050867f060c89ce5c263405370a08b6d0302b0bab3eedb83920ee0a677297dc392126ef807f060c89ce5c263405370a08b6d0302b0bab3eedb83920ee0a677297dc392126f160019406905b6110bd575050610cf65761104f8285886113bf565b35908951821015611090577f060c89ce5c263405370a08b6d0302b0bab3eedb83920ee0a677297dc392126f1602091600195099160051b8a01015201610f80565b7f4e487b71000000000000000000000000000000000000000000000000000000005f52603260045260245ffd5b9091506001808316146110fb575b807f060c89ce5c263405370a08b6d0302b0bab3eedb83920ee0a677297dc392126f19109889160011c908161103a565b917f060c89ce5c263405370a08b6d0302b0bab3eedb83920ee0a677297dc392126f1838192099290506110cb565b61113481878a6113bf565b3560018101809111610cc957808303611151575b50600101610fe7565b94909298610cf6577f060c89ce5c263405370a08b6d0302b0bab3eedb83920ee0a677297dc392126f185839209948181106111bd576111b36001927f060c89ce5c263405370a08b6d0302b0bab3eedb83920ee0a677297dc392126f192611c3f565b5f9a099290611148565b6111c691611c3f565b7f060c89ce5c263405370a08b6d0302b0bab3eedb83920ee0a677297dc392126f1037f060c89ce5c263405370a08b6d0302b0bab3eedb83920ee0a677297dc392126f18111610cc9577f060c89ce5c263405370a08b6d0302b0bab3eedb83920ee0a677297dc392126f16001916111b3565b846112448284866113bf565b3510156100ce5760018101808211610cc9575b8481106112675750600101610f2b565b6112728284866113bf565b3561127e8285876113bf565b35146100ce57600101611257565b5f6003193601126100ce57610db16112a261135b565b5f815260016020820152604051918291829190916020806040830194805184520151910152565b60206112d436611315565b90813581351491826112ed575b50506040519015158152f35b839192508101359101351482806112e1565b5f6003193601126100ce5780620292f860209252f35b906003198201608081126100ce576040136100ce5760407fffffffffffffffffffffffffffffffffffffffffffffffffffffffffffffffbc60049301126100ce57604490565b604051906040820182811067ffffffffffffffff821117610d2357604052565b907fffffffffffffffffffffffffffffffffffffffffffffffffffffffffffffffe0601f604051930116820182811067ffffffffffffffff821117610d2357604052565b91908110156110905760051b0190565b91908201809211610cc957565b67ffffffffffffffff8111610d235760051b60200190565b6004358015806114ce575b6114c8577f30644e72e131a029b85045b68181585d2833e84879b9709143e1f593f0000001811080159061149c575b61149757807f30644e72e131a029b85045b68181585d2833e84879b9709143e1f593f000000191097f30644e72e131a029b85045b68181585d2833e84879b9709143e1f593f000000180602435800981808080848709620292f80960010893620292fc09081490565b505f90565b507f30644e72e131a029b85045b68181585d2833e84879b9709143e1f593f0000001602435101561142e565b50600190565b506001602435146113ff565b91908260409103126100ce5760206114f061135b565b928035845201356020830152565b91909161150961135b565b5f81525f60208201529261151c82611bda565b6116a35761152981611bda565b61169257602082359201359061157f60208235920135937f30644e72e131a029b85045b68181585d2833e84879b9709143e1f593f000000180848309958180828809958180888b09620292f809970992096113cf565b90826001019384600111610cc9577f30644e72e131a029b85045b68181585d2833e84879b9709143e1f593f000000190620292fc0980821061167f576115c491611c3f565b915b6001811161161c576001039260018411610cc9577f30644e72e131a029b85045b68181585d2833e84879b9709143e1f593f00000016116139261160a829693611c5d565b90098652611c5d565b90096020830152565b927fffffffffffffffffffffffffffffffffffffffffffffffffffffffffffffffff8401938411610cc9577f30644e72e131a029b85045b68181585d2833e84879b9709143e1f593f00000016116139261160a6116798397611bf3565b93611c5d565b61168c91610c4291611c3f565b916115c6565b506116a091925036906114da565b90565b90506116a091925036906114da565b6116ba61135b565b5f81525f6020820152507f060c89ce5c263405370a08b6d0302b0bab3eedb83920ee0a677297dc392126f18110156100ce578015611bc457611f60906116ff8261137b565b913683376101009060051b5f5b60fb8110611b70575060019283925f925090604435602435845b60fb85106117c4575050505050919061173d61135b565b925f845260208401915f83528115806117bb575b806117b0575b15611769575050600191505f83525290565b60018103611778575083525290565b927f30644e72e131a029b85045b68181585d2833e84879b9709143e1f593f00000016117a5819495611c5d565b809309855209905290565b506001841415611757565b50808414611751565b959395610cf6577f30644e72e131a029b85045b68181585d2833e84879b9709143e1f593f00000018580097f30644e72e131a029b85045b68181585d2833e84879b9709143e1f593f0000001888009947f7fffffffffffffffffffffffffffffffffffffffffffffffffffffffffffffff81168103610cc9576118767f30644e72e131a029b85045b68181585d2833e84879b9709143e1f593f000000182819360011b099982620292fc8509986113cf565b800990808210611b5e5761188991611c3f565b84808210611b4b5761189a91611c3f565b945b6118a685826113cf565b9788818110611b3857906118b991611c3f565b945b808210611b25576118cb91611c3f565b955b7f30644e72e131a029b85045b68181585d2833e84879b9709143e1f593f0000001858709977f30644e72e131a029b85045b68181585d2833e84879b9709143e1f593f000000180898309915f97099781998098600160ff61192e878b611c4c565b511614611943575b5050505060010193611726565b839b5081929499508590879b947f30644e72e131a029b85045b68181585d2833e84879b9709143e1f593f0000001838a95099c7f30644e72e131a029b85045b68181585d2833e84879b9709143e1f593f00000019109957f30644e72e131a029b85045b68181585d2833e84879b9709143e1f593f000000191097f30644e72e131a029b85045b68181585d2833e84879b9709143e1f593f000000190620292f809907f30644e72e131a029b85045b68181585d2833e84879b9709143e1f593f00000019109907f30644e72e131a029b85045b68181585d2833e84879b9709143e1f593f0000001910999611a36916113cf565b611a4085856113cf565b7f30644e72e131a029b85045b68181585d2833e84879b9709143e1f593f000000191096001927f30644e72e131a029b85045b68181585d2833e84879b9709143e1f593f000000192918391908290611ac6908d808210611b1357611aa391611c3f565b83808210611b0057611ab491611c3f565b9d808610610c4c57610c078187611c3f565b9b620292fc09808210611aee57611adc91611c3f565b818b84099a09990995905f8080611936565b611afb91610c4291611c3f565b611adc565b611b0d91610c4291611c3f565b9d610bf6565b611b2091610c4291611c3f565b611aa3565b611b3291610c4291611c3f565b956118cd565b610c4290611b4592611c3f565b946118bb565b611b5891610c4291611c3f565b9461189c565b611b6b91610c4291611c3f565b611889565b8060ff0360ff8111610cc957826001911c16611b8c8286611c4c565b52600160ff611b9b8387611c4c565b51161480611bb9575b611bb1575b60010161170c565b915081611ba9565b506101008314611ba4565b50611bcd61135b565b5f81526001602082015290565b8035159081611be7575090565b60019150602001351490565b7f30644e72e131a029b85045b68181585d2833e84879b9709143e1f593f000000103907f30644e72e131a029b85045b68181585d2833e84879b9709143e1f593f00000018211610cc957565b91908203918211610cc957565b9060fb8110156110905760051b0190565b907f30644e72e131a029b85045b68181585d2833e84879b9709143e1f593efffffff807f30644e72e131a029b85045b68181585d2833e84879b9709143e1f593f000000160019406905b611caf575050565b600180831614611ce9575b807f30644e72e131a029b85045b68181585d2833e84879b9709143e1f593f000000191099060011c9081611ca7565b927f30644e72e131a029b85045b68181585d2833e84879b9709143e1f593f000000184819209939050611cba56fea264697066735822122015b53720e9a6e63d2e138ab39731648a70689e6307749c324e164b9ef224511b64736f6c634300081e0033","linkReferences":{}},"methodIdentifiers":{"A()":"f446c1d0","D()":"0f529ba2","Q()":"e493ef8c","R()":"4980e1be","add(BabyJubJub.Affine,BabyJubJub.Affine)":"9679db0d","computeLagrangeCoefficiants(uint256[],uint256,uint256)":"37d2224c","generator()":"7afa1eed","identity()":"2c159a1a","isEmpty(BabyJubJub.Affine)":"8a9088a3","isEqual(BabyJubJub.Affine,BabyJubJub.Affine)":"2ba6bab9","isIdentity(BabyJubJub.Affine)":"e8c87428","isInCorrectSubgroupAssumingOnCurve(BabyJubJub.Affine)":"e128c1aa","isOnCurve(BabyJubJub.Affine)":"8071469c","scalarMul(uint256,BabyJubJub.Affine)":"e0d29faa"},"storageLayout":{"storage":[],"types":{}},"id":0}