{"abi":[{"type":"function","name":"UPGRADE_INTERFACE_VERSION","inputs":[],"outputs":[{"name":"","type":"string","internalType":"string"}],"stateMutability":"view"},{"type":"function","name":"abortKeyGen","inputs":[{"name":"oprfKeyId","type":"uint160","internalType":"uint160"}],"outputs":[],"stateMutability":"nonpayable"},{"type":"function","name":"acceptOwnership","inputs":[],"outputs":[],"stateMutability":"nonpayable"},{"type":"function","name":"addKeyGenAdmin","inputs":[{"name":"_keygenAdmin","type":"address","internalType":"address"}],"outputs":[],"stateMutability":"nonpayable"},{"type":"function","name":"addRound1KeyGenContribution","inputs":[{"name":"oprfKeyId","type":"uint160","internalType":"uint160"},{"name":"data","type":"tuple","internalType":"struct OprfKeyGen.Round1Contribution","components":[{"name":"commShare","type":"tuple","internalType":"struct BabyJubJub.Affine","components":[{"name":"x","type":"uint256","internalType":"uint256"},{"name":"y","type":"uint256","internalType":"uint256"}]},{"name":"commCoeffs","type":"uint256","internalType":"uint256"},{"name":"ephPubKey","type":"tuple","internalType":"struct BabyJubJub.Affine","components":[{"name":"x","type":"uint256","internalType":"uint256"},{"name":"y","type":"uint256","internalType":"uint256"}]}]}],"outputs":[],"stateMutability":"nonpayable"},{"type":"function","name":"addRound1ReshareContribution","inputs":[{"name":"oprfKeyId","type":"uint160","internalType":"uint160"},{"name":"data","type":"tuple","internalType":"struct OprfKeyGen.Round1Contribution","components":[{"name":"commShare","type":"tuple","internalType":"struct BabyJubJub.Affine","components":[{"name":"x","type":"uint256","internalType":"uint256"},{"name":"y","type":"uint256","internalType":"uint256"}]},{"name":"commCoeffs","type":"uint256","internalType":"uint256"},{"name":"ephPubKey","type":"tuple","internalType":"struct BabyJubJub.Affine","components":[{"name":"x","type":"uint256","internalType":"uint256"},{"name":"y","type":"uint256","internalType":"uint256"}]}]}],"outputs":[],"stateMutability":"nonpayable"},{"type":"function","name":"addRound2Contribution","inputs":[{"name":"oprfKeyId","type":"uint160","internalType":"uint160"},{"name":"data","type":"tuple","internalType":"struct OprfKeyGen.Round2Contribution","components":[{"name":"compressedProof","type":"uint256[4]","internalType":"uint256[4]"},{"name":"ciphers","type":"tuple[]","internalType":"struct OprfKeyGen.SecretGenCiphertext[]","components":[{"name":"nonce","type":"uint256","internalType":"uint256"},{"name":"cipher","type":"uint256","internalType":"uint256"},{"name":"commitment","type":"tuple","internalType":"struct BabyJubJub.Affine","components":[{"name":"x","type":"uint256","internalType":"uint256"},{"name":"y","type":"uint256","internalType":"uint256"}]}]}]}],"outputs":[],"stateMutability":"nonpayable"},{"type":"function","name":"addRound3Contribution","inputs":[{"name":"oprfKeyId","type":"uint160","internalType":"uint160"}],"outputs":[],"stateMutability":"nonpayable"},{"type":"function","name":"amountKeygenAdmins","inputs":[],"outputs":[{"name":"","type":"uint256","internalType":"uint256"}],"stateMutability":"view"},{"type":"function","name":"changeVerifierContract","inputs":[{"name":"newKeyGenVerifier","type":"address","internalType":"address"}],"outputs":[],"stateMutability":"nonpayable"},{"type":"function","name":"checkIsParticipantAndReturnRound2Ciphers","inputs":[{"name":"oprfKeyId","type":"uint160","internalType":"uint160"}],"outputs":[{"name":"","type":"tuple[]","internalType":"struct OprfKeyGen.SecretGenCiphertext[]","components":[{"name":"nonce","type":"uint256","internalType":"uint256"},{"name":"cipher","type":"uint256","internalType":"uint256"},{"name":"commitment","type":"tuple","internalType":"struct BabyJubJub.Affine","components":[{"name":"x","type":"uint256","internalType":"uint256"},{"name":"y","type":"uint256","internalType":"uint256"}]}]}],"stateMutability":"view"},{"type":"function","name":"deleteOprfPublicKey","inputs":[{"name":"oprfKeyId","type":"uint160","internalType":"uint160"}],"outputs":[],"stateMutability":"nonpayable"},{"type":"function","name":"emitDeleteEvent","inputs":[{"name":"oprfKeyId","type":"uint160","internalType":"uint160"}],"outputs":[],"stateMutability":"nonpayable"},{"type":"function","name":"emitSecretGenFinalize","inputs":[{"name":"oprfKeyId","type":"uint160","internalType":"uint160"},{"name":"epoch","type":"uint32","internalType":"uint32"}],"outputs":[],"stateMutability":"nonpayable"},{"type":"function","name":"getOprfPublicKey","inputs":[{"name":"oprfKeyId","type":"uint160","internalType":"uint160"}],"outputs":[{"name":"","type":"tuple","internalType":"struct BabyJubJub.Affine","components":[{"name":"x","type":"uint256","internalType":"uint256"},{"name":"y","type":"uint256","internalType":"uint256"}]}],"stateMutability":"view"},{"type":"function","name":"getOprfPublicKeyAndEpoch","inputs":[{"name":"oprfKeyId","type":"uint160","internalType":"uint160"}],"outputs":[{"name":"","type":"tuple","internalType":"struct OprfKeyGen.RegisteredOprfPublicKey","components":[{"name":"key","type":"tuple","internalType":"struct BabyJubJub.Affine","components":[{"name":"x","type":"uint256","internalType":"uint256"},{"name":"y","type":"uint256","internalType":"uint256"}]},{"name":"epoch","type":"uint32","internalType":"uint32"}]}],"stateMutability":"view"},{"type":"function","name":"getPartyIdForParticipant","inputs":[{"name":"participant","type":"address","internalType":"address"}],"outputs":[{"name":"","type":"uint256","internalType":"uint256"}],"stateMutability":"view"},{"type":"function","name":"initKeyGen","inputs":[{"name":"oprfKeyId","type":"uint160","internalType":"uint160"}],"outputs":[],"stateMutability":"nonpayable"},{"type":"function","name":"initReshare","inputs":[{"name":"oprfKeyId","type":"uint160","internalType":"uint160"}],"outputs":[],"stateMutability":"nonpayable"},{"type":"function","name":"initialize","inputs":[{"name":"_owner","type":"address","internalType":"address"},{"name":"_keygenAdmin","type":"address","internalType":"address"},{"name":"_keyGenVerifierAddress","type":"address","internalType":"address"},{"name":"_threshold","type":"uint16","internalType":"uint16"},{"name":"_numPeers","type":"uint16","internalType":"uint16"}],"outputs":[],"stateMutability":"nonpayable"},{"type":"function","name":"isContractReady","inputs":[],"outputs":[{"name":"","type":"bool","internalType":"bool"}],"stateMutability":"view"},{"type":"function","name":"keyGenVerifier","inputs":[],"outputs":[{"name":"","type":"address","internalType":"address"}],"stateMutability":"view"},{"type":"function","name":"keygenAdmins","inputs":[{"name":"","type":"address","internalType":"address"}],"outputs":[{"name":"","type":"bool","internalType":"bool"}],"stateMutability":"view"},{"type":"function","name":"loadPeerPublicKeysForConsumers","inputs":[{"name":"oprfKeyId","type":"uint160","internalType":"uint160"}],"outputs":[{"name":"","type":"tuple[]","internalType":"struct BabyJubJub.Affine[]","components":[{"name":"x","type":"uint256","internalType":"uint256"},{"name":"y","type":"uint256","internalType":"uint256"}]}],"stateMutability":"view"},{"type":"function","name":"loadPeerPublicKeysForProducers","inputs":[{"name":"oprfKeyId","type":"uint160","internalType":"uint160"}],"outputs":[{"name":"","type":"tuple[]","internalType":"struct BabyJubJub.Affine[]","components":[{"name":"x","type":"uint256","internalType":"uint256"},{"name":"y","type":"uint256","internalType":"uint256"}]}],"stateMutability":"view"},{"type":"function","name":"numPeers","inputs":[],"outputs":[{"name":"","type":"uint16","internalType":"uint16"}],"stateMutability":"view"},{"type":"function","name":"owner","inputs":[],"outputs":[{"name":"","type":"address","internalType":"address"}],"stateMutability":"view"},{"type":"function","name":"peerAddresses","inputs":[{"name":"","type":"uint256","internalType":"uint256"}],"outputs":[{"name":"","type":"address","internalType":"address"}],"stateMutability":"view"},{"type":"function","name":"pendingOwner","inputs":[],"outputs":[{"name":"","type":"address","internalType":"address"}],"stateMutability":"view"},{"type":"function","name":"proxiableUUID","inputs":[],"outputs":[{"name":"","type":"bytes32","internalType":"bytes32"}],"stateMutability":"view"},{"type":"function","name":"registerOprfPeers","inputs":[{"name":"_peerAddresses","type":"address[]","internalType":"address[]"}],"outputs":[],"stateMutability":"nonpayable"},{"type":"function","name":"renounceOwnership","inputs":[],"outputs":[],"stateMutability":"nonpayable"},{"type":"function","name":"revokeKeyGenAdmin","inputs":[{"name":"_keygenAdmin","type":"address","internalType":"address"}],"outputs":[],"stateMutability":"nonpayable"},{"type":"function","name":"threshold","inputs":[],"outputs":[{"name":"","type":"uint16","internalType":"uint16"}],"stateMutability":"view"},{"type":"function","name":"transferOwnership","inputs":[{"name":"newOwner","type":"address","internalType":"address"}],"outputs":[],"stateMutability":"nonpayable"},{"type":"function","name":"upgradeToAndCall","inputs":[{"name":"newImplementation","type":"address","internalType":"address"},{"name":"data","type":"bytes","internalType":"bytes"}],"outputs":[],"stateMutability":"payable"},{"type":"event","name":"Initialized","inputs":[{"name":"version","type":"uint64","indexed":false,"internalType":"uint64"}],"anonymous":false},{"type":"event","name":"KeyDeletion","inputs":[{"name":"oprfKeyId","type":"uint160","indexed":true,"internalType":"uint160"}],"anonymous":false},{"type":"event","name":"KeyGenAbort","inputs":[{"name":"oprfKeyId","type":"uint160","indexed":true,"internalType":"uint160"}],"anonymous":false},{"type":"event","name":"KeyGenAdminRegistered","inputs":[{"name":"admin","type":"address","indexed":true,"internalType":"address"}],"anonymous":false},{"type":"event","name":"KeyGenAdminRevoked","inputs":[{"name":"admin","type":"address","indexed":true,"internalType":"address"}],"anonymous":false},{"type":"event","name":"KeyGenConfirmation","inputs":[{"name":"oprfKeyId","type":"uint160","indexed":true,"internalType":"uint160"},{"name":"partyId","type":"uint16","indexed":true,"internalType":"uint16"},{"name":"round","type":"uint8","indexed":false,"internalType":"uint8"},{"name":"epoch","type":"uint32","indexed":false,"internalType":"uint32"}],"anonymous":false},{"type":"event","name":"NotEnoughProducers","inputs":[{"name":"oprfKeyId","type":"uint160","indexed":true,"internalType":"uint160"}],"anonymous":false},{"type":"event","name":"OprfPeerChanged","inputs":[{"name":"partyId","type":"uint16","indexed":true,"internalType":"uint16"},{"name":"oldPeer","type":"address","indexed":true,"internalType":"address"},{"name":"newPeer","type":"address","indexed":true,"internalType":"address"}],"anonymous":false},{"type":"event","name":"OwnershipTransferStarted","inputs":[{"name":"previousOwner","type":"address","indexed":true,"internalType":"address"},{"name":"newOwner","type":"address","indexed":true,"internalType":"address"}],"anonymous":false},{"type":"event","name":"OwnershipTransferred","inputs":[{"name":"previousOwner","type":"address","indexed":true,"internalType":"address"},{"name":"newOwner","type":"address","indexed":true,"internalType":"address"}],"anonymous":false},{"type":"event","name":"ReshareRound1","inputs":[{"name":"oprfKeyId","type":"uint160","indexed":true,"internalType":"uint160"},{"name":"threshold","type":"uint256","indexed":false,"internalType":"uint256"},{"name":"epoch","type":"uint32","indexed":true,"internalType":"uint32"}],"anonymous":false},{"type":"event","name":"ReshareRound3","inputs":[{"name":"oprfKeyId","type":"uint160","indexed":true,"internalType":"uint160"},{"name":"lagrange","type":"uint256[]","indexed":false,"internalType":"uint256[]"},{"name":"epoch","type":"uint32","indexed":true,"internalType":"uint32"}],"anonymous":false},{"type":"event","name":"SecretGenFinalize","inputs":[{"name":"oprfKeyId","type":"uint160","indexed":true,"internalType":"uint160"},{"name":"epoch","type":"uint32","indexed":true,"internalType":"uint32"}],"anonymous":false},{"type":"event","name":"SecretGenRound1","inputs":[{"name":"oprfKeyId","type":"uint160","indexed":true,"internalType":"uint160"},{"name":"threshold","type":"uint256","indexed":false,"internalType":"uint256"}],"anonymous":false},{"type":"event","name":"SecretGenRound2","inputs":[{"name":"oprfKeyId","type":"uint160","indexed":true,"internalType":"uint160"},{"name":"epoch","type":"uint32","indexed":true,"internalType":"uint32"}],"anonymous":false},{"type":"event","name":"SecretGenRound3","inputs":[{"name":"oprfKeyId","type":"uint160","indexed":true,"internalType":"uint160"}],"anonymous":false},{"type":"event","name":"Upgraded","inputs":[{"name":"implementation","type":"address","indexed":true,"internalType":"address"}],"anonymous":false},{"type":"event","name":"VerifierContractChanged","inputs":[{"name":"oldContract","type":"address","indexed":true,"internalType":"address"},{"name":"newContract","type":"address","indexed":true,"internalType":"address"}],"anonymous":false},{"type":"error","name":"AddressEmptyCode","inputs":[{"name":"target","type":"address","internalType":"address"}]},{"type":"error","name":"AlreadySubmitted","inputs":[]},{"type":"error","name":"BadContribution","inputs":[]},{"type":"error","name":"DeletedId","inputs":[{"name":"id","type":"uint160","internalType":"uint160"}]},{"type":"error","name":"ERC1967InvalidImplementation","inputs":[{"name":"implementation","type":"address","internalType":"address"}]},{"type":"error","name":"ERC1967NonPayable","inputs":[]},{"type":"error","name":"FailedCall","inputs":[]},{"type":"error","name":"ImplementationNotInitialized","inputs":[]},{"type":"error","name":"InvalidInitialization","inputs":[]},{"type":"error","name":"LastAdmin","inputs":[]},{"type":"error","name":"NotAParticipant","inputs":[]},{"type":"error","name":"NotAProducer","inputs":[]},{"type":"error","name":"NotInitializing","inputs":[]},{"type":"error","name":"NotReady","inputs":[]},{"type":"error","name":"OnlyAdmin","inputs":[]},{"type":"error","name":"OwnableInvalidOwner","inputs":[{"name":"owner","type":"address","internalType":"address"}]},{"type":"error","name":"OwnableUnauthorizedAccount","inputs":[{"name":"account","type":"address","internalType":"address"}]},{"type":"error","name":"PartiesNotDistinct","inputs":[]},{"type":"error","name":"UUPSUnauthorizedCallContext","inputs":[]},{"type":"error","name":"UUPSUnsupportedProxiableUUID","inputs":[{"name":"slot","type":"bytes32","internalType":"bytes32"}]},{"type":"error","name":"UnexpectedAmountPeers","inputs":[{"name":"expectedParties","type":"uint256","internalType":"uint256"}]},{"type":"error","name":"UnknownId","inputs":[{"name":"id","type":"uint160","internalType":"uint160"}]},{"type":"error","name":"UnsupportedNumPeersThreshold","inputs":[]},{"type":"error","name":"WrongRound","inputs":[{"name":"","type":"uint8","internalType":"enum OprfKeyGen.Round"}]}],"bytecode":{"object":"0x60a080604052346100c257306080525f5160206156e85f395f51905f525460ff8160401c166100b3576002600160401b03196001600160401b03821601610060575b60405161562190816100c78239608051818181612acc01526145380152f35b6001600160401b0319166001600160401b039081175f5160206156e85f395f51905f525581527fc7f505b2f371ae2175ee4913f4499e1f2633a7b5936321eed1cdaeb6115181d290602090a15f80610041565b63f92ee8a960e01b5f5260045ffd5b5f80fdfe60806040526004361015610011575f80fd5b5f5f3560e01c80631acc6e09146136ec57806321fe366e1461365d578063222c211e1461354a57806332c7e3b6146131d65780633892750a14612fd95780633a02230d14612fb85780633bcc163014612e3057806342cde4e814612e0c5780634f1ef28614612b81578063513c72f114612b4457806352d1902d14612ab257806353fac9ad14612a1c5780635fd5991914611ea457806364a9788914611d1b578063715018a614611c045780637488e8e714611b2157806379a4753c14611afc57806379ad89e814611ab957806379ba509714611a3f5780638da5cb5b146119f95780638f065f8d1461186b57806390ea46f51461182a5780639d49d672146117205780639f249044146116f9578063ad3cb1cc14611685578063afb915d814611625578063b13590ec1461145e578063be28b7a814610e87578063d46a3ac614610e69578063e30c397814610e23578063ea2ca96314610d3e578063f2fde38b14610c59578063f720fce314610bb8578063fd1bae5814610874578063ff3a35881461082a5763ffb96673146101a6575f80fd5b346108275760c0600319360112610827576101bf613bb8565b60a07fffffffffffffffffffffffffffffffffffffffffffffffffffffffffffffffdc360112610825576101f161452e565b6101f961459f565b610201614a74565b9061ffff8216916102128383614f60565b600881019163ffffffff835460201c161561077857859061023236614248565b6040517f8a9088a300000000000000000000000000000000000000000000000000000000815281516004820152602091820151602482015273__$fd1bbc507ebce9bb0449be7c85ea578f4f$__9181604481855af490811561081a5784916107fb575b50606435159080806107f4575b80156107da575b1561034a575050507f8a1df8d1089dbf7577f56d95c8833f55846e6aeced87f49135c725f9f177c0fc936103326040946001600160a01b0394600261031e63ffffffff968833165f5284602052895f208360ff198254161790558285015f60016103138484614345565b508281550155614345565b5001555b61ffff60035460a01c1688615136565b5460201c16938251946001865260208601521692a380f35b9193509015151461037d576004877f497231a7000000000000000000000000000000000000000000000000000000008152fd5b61039e6103a49161039561039036614248565b614af9565b600585016142de565b50613caf565b6020604051917f2ba6bab9000000000000000000000000000000000000000000000000000000008352805160048401520151602482015260243560448201526044356064820152602081608481855af49081156107cf5787916107a0575b5015610778576001600160a01b0333165f528160205260405f20600160ff1982541617905563ffffffff61043881855416613ce5565b167fffffffffffffffffffffffffffffffffffffffffffffffffffffffff0000000084541617835563ffffffff835416906003549161ffff8360a01c168091146104ba575b5050506001600160a01b0363ffffffff7f8a1df8d1089dbf7577f56d95c8833f55846e6aeced87f49135c725f9f177c0fc93610332604094610322565b9187916104c684613f19565b916104d46040519384613c06565b8483526104e085613f19565b90601f1960208501920136833760b01c61ffff1684805b8281106106d55750506040519586947f37d2224c00000000000000000000000000000000000000000000000000000000865260648601906060600488015251809152608486019390875b8181106106b957505050602485015260448401528290039082905af49081156106ae578691610611575b506001820181519167ffffffffffffffff83116105fd576801000000000000000083116105e95760209082548484558085106105ce575b500190875260208720875b8381106105ba575061047d565b6001906020845194019381840155016105ad565b6105e390845f5285845f209182019101613d2e565b5f6105a2565b634e487b7160e01b5f52604160045260245ffd5b602488634e487b7160e01b81526041600452fd5b90503d8087833e6106228183613c06565b8101906020818303126106a65780519067ffffffffffffffff82116106aa57019080601f830112156106a657815161065981613f19565b926106676040519485613c06565b81845260208085019260051b8201019283116106a257602001905b828210610692575050505f61056b565b8151815260209182019101610682565b8880fd5b8680fd5b8780fd5b6040513d88823e3d90fd5b825186528e985089975060209586019590920191600101610541565b90919395506001600160a01b036106ef8298949698613c29565b90549060031b1c166001600160a01b0381165f528860205260ff60405f205416600381101561076457600192918e918414610736575b505001908b959391969492966104f7565b81526005602052604090205460081c61ffff1661075c61075585613fd5565b948a613fe3565b528c5f610725565b60248e634e487b7160e01b81526021600452fd5b6004867f497231a7000000000000000000000000000000000000000000000000000000008152fd5b6107c2915060203d6020116107c8575b6107ba8183613c06565b810190613ccd565b5f610402565b503d6107b0565b6040513d89823e3d90fd5b5063ffffffff87541661ffff60035460a01c1611156102a9565b50816102a2565b610814915060203d6020116107c8576107ba8183613c06565b5f610295565b6040513d86823e3d90fd5b505b80fd5b5034610827576020600319360112610827576001600160a01b0361084c613bb8565b167f80289566e41bae426a6ba7392c3b723699ac38c2b5bbeab84f247b0d5a44a9bd8280a280f35b50346108275760a06003193601126108275761088e613bb8565b6024356001600160a01b038116809103610bb4576044356001600160a01b038116809103610bb4576064359061ffff82168203610bb4576084359261ffff84168403610bb4577ff0c57e16840df040f15088dc2f81fe391c3923bec73e23a9662efc9c229c6a00549460ff8660401c16159567ffffffffffffffff811680159081610bac575b6001149081610ba2575b159081610b99575b50610b71578660017fffffffffffffffffffffffffffffffffffffffffffffffff00000000000000008316177ff0c57e16840df040f15088dc2f81fe391c3923bec73e23a9662efc9c229c6a0055610b1c575b506109826154da565b61098a6154da565b6001600160a01b03811615610af0576109a290615253565b6109aa6154da565b8552600160205260408520600160ff1982541617905560025460018101809111610adc579075ffff0000000000000000000000000000000000000000916002557fffffffffffffffff00000000000000000000000000000000000000000000000077ffff000000000000000000000000000000000000000000006003549560b01b169416179160a01b16171760035560ff198254168255610a485780f35b7fffffffffffffffffffffffffffffffffffffffffffffff00ffffffffffffffff7ff0c57e16840df040f15088dc2f81fe391c3923bec73e23a9662efc9c229c6a0054167ff0c57e16840df040f15088dc2f81fe391c3923bec73e23a9662efc9c229c6a00557fc7f505b2f371ae2175ee4913f4499e1f2633a7b5936321eed1cdaeb6115181d2602060405160018152a180f35b602486634e487b7160e01b81526011600452fd5b6024877f1e4fbdf700000000000000000000000000000000000000000000000000000000815280600452fd5b7fffffffffffffffffffffffffffffffffffffffffffffff0000000000000000001668010000000000000001177ff0c57e16840df040f15088dc2f81fe391c3923bec73e23a9662efc9c229c6a00555f610979565b6004887ff92ee8a9000000000000000000000000000000000000000000000000000000008152fd5b9050155f610926565b303b15915061091e565b889150610914565b5f80fd5b5034610827576020600319360112610827576001600160a01b03610bda613bb8565b610be261459f565b610bea61452e565b1681526005602052604081209060405191610c0483613bce565b549161ffff602060ff8516159283158152019360081c168352610c3157602061ffff835116604051908152f35b807f179e806d0000000000000000000000000000000000000000000000000000000060049252fd5b5034610827576020600319360112610827576001600160a01b03610c7b613bb8565b610c83614a15565b16807fffffffffffffffffffffffff00000000000000000000000000000000000000007f237e158222e3e6968b72b9db0d8043aacf074ad9f650f0d1606b4d82ee432c005416177f237e158222e3e6968b72b9db0d8043aacf074ad9f650f0d1606b4d82ee432c00556001600160a01b037f9016d09d72d40fdae2fd8ceac6b6234c7706214fd39c1cd1e609a0528c19930054167f38d16b8cac22d99fc7c124b9cd0de2d3fa1faef420bfe791d8c362d765e227008380a380f35b5034610827576020600319360112610827576001600160a01b03610d60613bb8565b610d6861452e565b610d706149ba565b610d786145d3565b16808252600160205260ff604083205416610d91575080f35b600160025414610dfb5780825260016020526040822060ff1981541690556002545f198101908111610de7576002557f91a41cb54dfb87bb7e56c71460111884f994581486eee7500b246b87ff23543a8280a280f35b602483634e487b7160e01b81526011600452fd5b6004827fdf0e465e000000000000000000000000000000000000000000000000000000008152fd5b503461082757806003193601126108275760206001600160a01b037f237e158222e3e6968b72b9db0d8043aacf074ad9f650f0d1606b4d82ee432c005416604051908152f35b50346108275780600319360112610827576020600254604051908152f35b5034610827576020600319360112610827576001600160a01b03610ea9613bb8565b610eb161452e565b610eb961459f565b610ec16145d3565b1680156114365780825260076020526040822081835260066020526040832090600b82019060ff8254166006811015611422576005146113f6576020610f09610f4d92613caf565b6040517f8a9088a300000000000000000000000000000000000000000000000000000000815281516004820152602090910151602482015291829081906044820190565b038173__$fd1bbc507ebce9bb0449be7c85ea578f4f$__5af49081156113eb5785916113cc575b501580156113a2575b61137a5761ffff60035460b01c1690600160ff19825416179055600882017fffffffffffffffffffffffffffffffffffffffffffffffff00000000ffffffff8154169055610fca816145ea565b600283016020825192610fdd8484614670565b019086526020862086915b83831061133c5750505050610ffc816146ea565b6003830190602081519161101083856147a1565b018287526020872087915b83831061131f5750505050845b8281106112fa57505061103a816143d8565b60048301602082519261104d8484613dc4565b019086526020862086915b8383106112da575050505061106c816143d8565b60058301602082519261107f8484613dc4565b019086526020862086915b8383106112ba575050505061109e816148fc565b8051600984019167ffffffffffffffff82116112a6576020906110c18385614954565b01918652602086208160051c91875b8381106112615750601f198116900380611215575b505050506110f4600a916148fc565b91019080519067ffffffffffffffff8211611201576020906111168385614954565b01918452602084208160051c91855b8381106111bc5750601f198116900380611173575b85857f26f21388e5d2b26dd079f0818b44f6f37c89dbf5950f6e4bfc2bd54301eb6103602061ffff60035460a01c16604051908152a280f35b928593865b81811061118d5750505001555f80808061113a565b90919460206111b26001928489511515919060ff809160031b9316831b921b19161790565b9601929101611178565b86875b602081106111d4575083820155600101611125565b959060206111f86001928985511515919060ff809160031b9316831b921b19161790565b920196016111bf565b602485634e487b7160e01b81526041600452fd5b928793885b8181106112325750505001556110f4600a5f806110e5565b90919460206112576001928489511515919060ff809160031b9316831b921b19161790565b960192910161121a565b88895b602081106112795750838201556001016110d0565b9590602061129d6001928985511515919060ff809160031b9316831b921b19161790565b92019601611264565b602487634e487b7160e01b81526041600452fd5b60026020828160019451805187550151848601550192019201919061108a565b600260208281600194518051875501518486015501920192019190611058565b60019061131961130985613f49565b6113138386613c55565b906148ed565b01611028565b6001602082611330839451866147ed565b0192019201919061101b565b60056020828160406001955182815180518a550151878901558281015160028901550151805160038801550151600486015501920192019190610fe8565b6004847f9fbfc589000000000000000000000000000000000000000000000000000000008152fd5b5060ff81541660068110156113b8571515610f7d565b602485634e487b7160e01b81526021600452fd5b6113e5915060203d6020116107c8576107ba8183613c06565b5f610f74565b6040513d87823e3d90fd5b602485857f1b02ded7000000000000000000000000000000000000000000000000000000008252600452fd5b602486634e487b7160e01b81526021600452fd5b6004827f497231a7000000000000000000000000000000000000000000000000000000008152fd5b503461082757602060031936011261082757611478613bb8565b61148061459f565b61148861452e565b338252600560205260408220604051906114a182613bce565b5490602061ffff60ff841615938415845260081c169101526115fd576001600160a01b031681526006602052604081209060ff600b8301541660068110156115e957600381036115bd57506114ff63ffffffff6008840154166143d8565b9080928161ffff60035460b01c16925b83811061152857604051806115248782613c6a565b0390f35b6001600160a01b038061153a83613c29565b90549060031b1c16165f528260205260ff60405f20541660038110156115a95790600191821461156b575b0161150f565b6115a361157b8260028701614345565b5097611592600361158b83613fd5565b9a01613caf565b61159c828a613fe3565b5287613fe3565b50611565565b602483634e487b7160e01b81526021600452fd5b602492507f642fee6e000000000000000000000000000000000000000000000000000000008252600452fd5b602482634e487b7160e01b81526021600452fd5b6004827f179e806d000000000000000000000000000000000000000000000000000000008152fd5b50346108275760406003193601126108275761163f613bb8565b6024359063ffffffff8216809203611681576001600160a01b03167feca0bbf88a7c4e57f429bd1e6f708ad696c4dd4bd2ec9a50e916868f14abf5a48380a380f35b8280fd5b5034610827578060031936011261082757604080516116a48282613c06565b60058152601f19601f602083017f352e302e3000000000000000000000000000000000000000000000000000000081528451958694602086525180928160208801528787015e85828601015201168101030190f35b503461082757806003193601126108275760206001600160a01b0360035416604051908152f35b5034610827576020600319360112610827576001600160a01b03611742613bb8565b61174a61452e565b61175261459f565b61175a6145d3565b16808252600660205260408220600b81019060ff82541660068110156113b85780156117fe576005146117d2576117a39061ffff60035460b01c1661179d613ec6565b91615355565b60ff1981541690557fdf933a8df15dc090bc507418777d1c44e6926238d8e2e6594bde03c1da3cfa778280a280f35b602484847f1b02ded7000000000000000000000000000000000000000000000000000000008252600452fd5b602485857ffbf20062000000000000000000000000000000000000000000000000000000008252600452fd5b50346108275760206003193601126108275761152461185f61184a613bb8565b61185261459f565b61185a61452e565b614432565b60405191829182613c6a565b5034610827576020600319360112610827576001600160a01b0361188d613bb8565b82602060405161189c81613bce565b6040516118a881613bce565b5f81525f83820152815201526118bc61452e565b6118c461459f565b1690818152600660205260ff600b6040832001541660068110156115e9576005146119ce57818152600760205260408120916119046020610f0985613caf565b038173__$fd1bbc507ebce9bb0449be7c85ea578f4f$__5af49081156119c35783916119a4575b506119785760608363ffffffff60405161194481613bce565b602082600261195286613caf565b958685520154169101908152602060405193805185520151602084015251166040820152f35b602492507ffbf20062000000000000000000000000000000000000000000000000000000008252600452fd5b6119bd915060203d6020116107c8576107ba8183613c06565b5f61192b565b6040513d85823e3d90fd5b6024917f1b02ded7000000000000000000000000000000000000000000000000000000008252600452fd5b503461082757806003193601126108275760206001600160a01b037f9016d09d72d40fdae2fd8ceac6b6234c7706214fd39c1cd1e609a0528c1993005416604051908152f35b5034610827578060031936011261082757336001600160a01b037f237e158222e3e6968b72b9db0d8043aacf074ad9f650f0d1606b4d82ee432c00541603611a8d57611a8a33615253565b80f35b807f118cdaa7000000000000000000000000000000000000000000000000000000006024925233600452fd5b503461082757602060031936011261082757600435906004548210156108275760206001600160a01b03611aec84613c29565b90549060031b1c16604051908152f35b5034610827578060031936011261082757602061ffff60035460b01c16604051908152f35b5034610827576020600319360112610827576001600160a01b03611b43613bb8565b611b4b613f31565b50611b5461452e565b611b5c61459f565b1690818152600660205260ff600b6040832001541660068110156115e9576005146119ce5781815260076020526040812091611b9c6020610f0985613caf565b038173__$fd1bbc507ebce9bb0449be7c85ea578f4f$__5af49081156119c3578391611be5575b50611978576040611bd384613caf565b60208251918051835201516020820152f35b611bfe915060203d6020116107c8576107ba8183613c06565b5f611bc3565b5034610827578060031936011261082757611c1d614a15565b7fffffffffffffffffffffffff00000000000000000000000000000000000000007f237e158222e3e6968b72b9db0d8043aacf074ad9f650f0d1606b4d82ee432c0054167f237e158222e3e6968b72b9db0d8043aacf074ad9f650f0d1606b4d82ee432c00555f6001600160a01b037f9016d09d72d40fdae2fd8ceac6b6234c7706214fd39c1cd1e609a0528c199300547fffffffffffffffffffffffff000000000000000000000000000000000000000081167f9016d09d72d40fdae2fd8ceac6b6234c7706214fd39c1cd1e609a0528c19930055167f8be0079c531659141344cd1fd0a4f28419497f9722a3daafe3b4186f6b6457e08280a380f35b50346108275760c060031936011261082757611d35613bb8565b60a07fffffffffffffffffffffffffffffffffffffffffffffffffffffffffffffffdc36011261082557611d6761452e565b611d6f61459f565b611d77614a74565b611d8361039036614248565b60643515611e7c5761ffff1690611d9a8282614f60565b600881019063ffffffff825460201c16611e54576001600160a01b0363ffffffff7f8a1df8d1089dbf7577f56d95c8833f55846e6aeced87f49135c725f9f177c0fc936103326040948433165f5280602052855f20600160ff1982541617905583611e0781855416613ce5565b167fffffffffffffffffffffffffffffffffffffffffffffffffffffffff00000000845416178355611e44611e3b36614248565b60068301614c88565b61ffff60035460b01c1688615136565b6004857f497231a7000000000000000000000000000000000000000000000000000000008152fd5b6004837f497231a7000000000000000000000000000000000000000000000000000000008152fd5b5034610bb4576040600319360112610bb457611ebe613bb8565b6024359167ffffffffffffffff8311610bb457826004019260a06003198236030112610bb457608490611eef61452e565b611ef761459f565b01611f0281856141e4565b905061ffff60035460b01c160361298d576001600160a01b03831693845f52600660205260405f209360ff600b8601541660068110156129b557600281036129f15750611f4d614a74565b93600986019660ff611f5f878a613d44565b90549060031b1c166129c9576001600160a01b0333165f528660205260ff60405f20541660038110156129b55760010361298d5760088701805460201c63ffffffff1661277c5760038801989760048101945f5b61ffff60035460b01c1681101561204e57806120488d6120428d61203c858f8f988f828b61202b6120118560019f9561200c610390836040612006611ffe6120369e6120309d6141e4565b369491614238565b0161428e565b6142de565b50612025866040612006611ffe88886141e4565b90614c88565b6141e4565b90614238565b94613c55565b50613fbc565b906142f7565b01611fb3565b5094509491969761207e91969399508861206791613d44565b819291549060031b9060ff6001831b921b19161790565b90556003549061ffff8260b01c1692600384148061276b575b1561244e576040516001600160a01b038416916103006120b78184613c06565b3683378a60206120e261ffff6120cc8c614dc4565b93166120d88185613fe3565b5151865283613fe3565b5101516020840152600261211d8d828c016120fd8282614345565b5054604088015260016121108383614345565b5001546060880152614345565b500154608084015261ffff612136818860a01c1661435e565b1661215561ffff61214e6121498b614372565b6143a0565b16856143c7565b528c915b87831061227757505050813b1561227357908a92916080604051937f04bb1c1b000000000000000000000000000000000000000000000000000000008552600485013783608484015b6018821061225957505050816103848185935afa801561224e57612230575b50509361220c60409461ffff948563ffffffff957f8a1df8d1089dbf7577f56d95c8833f55846e6aeced87f49135c725f9f177c0fc995b865460201c881661222457505b1690614e1f565b5460201c16948251956002875260208701521693a380f35b82915060a01c16612205565b9061223e9196929396613c06565b875f126106aa579390875f6121c1565b6040513d84823e3d90fd5b825181528d955060209283019260019290920191016121a2565b8a80fd5b90919c8d602061228b82612030868b6141e4565b01359060050180600511610de757908f92916122a790876143c7565b5260406122b883612030868b6141e4565b0135906122c48a6143a0565b8360011b938085046002149015171561243a576122e68461ffff849316613cfd565b9161242657508f6060926122fd61230893896143c7565b52612030858a6141e4565b01356123208261ffff61231a8c6143a0565b16613cfd565b9060018201809211612412578f9161233890876143c7565b526123439084613fe3565b51519d816123508a614372565b612359906143a0565b612362906143b3565b61ffff169061237091613cfd565b9e5f9f61237d90876143c7565b526123888185613fe3565b5160200151916123978a614372565b6123a0906143a0565b6123a9906143b3565b61ffff16906123b791613cfd565b60018101809111612412576124096124038361ffff61231a6123fe8f966123f78f6120308f88928f919e60019f612149976123f1916143c7565b526141e4565b3597614389565b6143b3565b876143c7565b52019190612159565b634e487b7160e01b5f52601160045260245ffd5b80634e487b7160e01b602492526011600452fd5b602482634e487b7160e01b81526011600452fd5b600584148061275a575b15612732576040516001600160a01b038416916104806124788184613c06565b3683378a602061248d61ffff6120cc8c614dc4565b510151602084015260026124a88d828c016120fd8282614345565b500154608084015261ffff6124c1818860a01c1661435e565b166124db61ffff6124d46121498b614372565b1685614334565b525f915b8783106125ba57505050813b1561227357908a92916080604051937f95a1463f000000000000000000000000000000000000000000000000000000008552600485013783608484015b602482106125a057505050816105048185935afa801561224e57612582575b50509361220c60409461ffff948563ffffffff957f8a1df8d1089dbf7577f56d95c8833f55846e6aeced87f49135c725f9f177c0fc996121f8565b906125909196929396613c06565b875f126106aa579390875f612547565b825181528d95506020928301926001929092019101612528565b90919c8d60206125ce82612030868b6141e4565b01359060050180600511610de757908f92916125ea9087614334565b5260406125fb83612030868b6141e4565b0135906126078a6143a0565b8360011b938085046002149015171561243a576126298461ffff849316613cfd565b9161242657508f6060926122fd6126409389614334565b01356126528261ffff61231a8c6143a0565b9060018201809211612412578f9161266a9087614334565b526126759084613fe3565b51519d816126828a614372565b61268b906143a0565b612694906143b3565b61ffff16906126a291613cfd565b9e5f9f6126af9087614334565b526126ba8185613fe3565b5160200151916126c98a614372565b6126d2906143a0565b6126db906143b3565b61ffff16906126e991613cfd565b60018101809111612412576127296127238361ffff61231a6123fe8f966123f78f6120308f88928f919e60019f612149976123f191614334565b87614334565b520191906124df565b7f05f7fa12000000000000000000000000000000000000000000000000000000005f5260045ffd5b50600361ffff8460a01c1614612458565b50600261ffff8460a01c1614612097565b969794916127908760018b99969901613c55565b90549060031b1c9182156128e357959873__$fd1bbc507ebce9bb0449be7c85ea578f4f$__986004820198600383019892905f5b61ffff60035460b01c168110156128ca579b8c6040829f9e6127fd816120308f808f91610390889788612006611ffe8761202b966141e4565b0160648251809581937fe0d29faa0000000000000000000000000000000000000000000000000000000083528d600484015260208060248501928035845201359101525af49182156128bf578c6120428f61203c8f8f928f612030899391849261202b6120369560019e866128849e5f9261288d575b5061287e91926142de565b50614c88565b019c9b9c6127c4565b61287e92506128b29060403d81116128b8575b6128aa8183613c06565b8101906142b6565b91612873565b503d6128a0565b6040513d5f823e3d90fd5b50969a5096935096509650976120678861207e92613d44565b60a46040517f08c379a000000000000000000000000000000000000000000000000000000000815260206004820152604160248201527f53414645545920434845434b3a20746869732073686f756c64206e657665722060448201527f68617070656e2e2054686973206d65616e73207468657265206973206120627560648201527f67000000000000000000000000000000000000000000000000000000000000006084820152fd5b7f497231a7000000000000000000000000000000000000000000000000000000005f5260045ffd5b634e487b7160e01b5f52602160045260245ffd5b7f9fbfc589000000000000000000000000000000000000000000000000000000005f5260045ffd5b7f642fee6e000000000000000000000000000000000000000000000000000000005f5260045260245ffd5b34610bb4576020600319360112610bb457612a4d612a38613bb8565b612a4061452e565b612a4861459f565b614026565b6040518091602082016020835281518091526020604084019201905f5b818110612a78575050500390f35b9193509160206080600192826040885180518452828101518385015201518051604084015201516060820152019401910191849392612a6a565b34610bb4575f600319360112610bb4576001600160a01b037f0000000000000000000000000000000000000000000000000000000000000000163003612b1c5760206040517f360894a13ba1a3210667c828492db98dca3e2076cc3735a920a3ca505d382bbc8152f35b7fe07c8dba000000000000000000000000000000000000000000000000000000005f5260045ffd5b34610bb4576020600319360112610bb4576001600160a01b03612b65613bb8565b165f526001602052602060ff60405f2054166040519015158152f35b6040600319360112610bb457612b95613bb8565b6024359067ffffffffffffffff8211610bb45736602383011215610bb457816004013567ffffffffffffffff81116105e95760405192612bdf601f8301601f191660200185613c06565b8184523660248383010111610bb457815f926024602093018387013784010152612c0761452e565b612c0f614a15565b6001600160a01b038116916040517f52d1902d000000000000000000000000000000000000000000000000000000008152602081600481875afa5f9181612dd8575b50612c8257837f4c9c8ce3000000000000000000000000000000000000000000000000000000005f5260045260245ffd5b807f360894a13ba1a3210667c828492db98dca3e2076cc3735a920a3ca505d382bbc859203612dad5750823b15612d8257807fffffffffffffffffffffffff00000000000000000000000000000000000000007f360894a13ba1a3210667c828492db98dca3e2076cc3735a920a3ca505d382bbc5416177f360894a13ba1a3210667c828492db98dca3e2076cc3735a920a3ca505d382bbc557fbc7cd75a20ee27fd9adebab32041f755214dbc6bffa90cc0225b39da2e5c2d3b5f80a2805115612d5157612d4f91615531565b005b505034612d5a57005b7fb398979f000000000000000000000000000000000000000000000000000000005f5260045ffd5b7f4c9c8ce3000000000000000000000000000000000000000000000000000000005f5260045260245ffd5b7faa1d49a4000000000000000000000000000000000000000000000000000000005f5260045260245ffd5b9091506020813d602011612e04575b81612df460209383613c06565b81010312610bb457519085612c51565b3d9150612de7565b34610bb4575f600319360112610bb457602061ffff60035460a01c16604051908152f35b34610bb4576020600319360112610bb4576001600160a01b03612e51613bb8565b612e5961452e565b612e6161459f565b612e696145d3565b16805f52600760205260405f20815f52600660205260405f20600b81019160ff83541660068110156129b557806129f15750612ea96020610f0983613caf565b038173__$fd1bbc507ebce9bb0449be7c85ea578f4f$__5af49081156128bf575f91612f99575b50612f6d57612f3c9160026005925f81555f6001820155017fffffffffffffffffffffffffffffffffffffffffffffffffffffffff000000008154169055612f2a61ffff60035460b01c16612f23613ec6565b9083615355565b612f366001820161450d565b01613d62565b600560ff198254161790557f80289566e41bae426a6ba7392c3b723699ac38c2b5bbeab84f247b0d5a44a9bd5f80a2005b837ffbf20062000000000000000000000000000000000000000000000000000000005f5260045260245ffd5b612fb2915060203d6020116107c8576107ba8183613c06565b85612ed0565b34610bb4575f600319360112610bb457602060ff5f54166040519015158152f35b34610bb4576020600319360112610bb4576001600160a01b03612ffa613bb8565b61300261452e565b61300a61459f565b16805f52600660205260405f2090600b820160ff81541660068110156129b557600381036129f1575061303b614a74565b90600a840160ff61304c8483613d44565b90549060031b1c166129c9578260409261308d6120677f8a1df8d1089dbf7577f56d95c8833f55846e6aeced87f49135c725f9f177c0fc9661ffff95613d44565b90556008870163ffffffff815460201c16976130a881614ab2565b6130c1575b5050508251956003875260208701521693a3005b63ffffffff613189928a155f146131995787516130dd81613bce565b6130e960068501613caf565b8152826002818d60208501905f82525f52600760205260208d5f20955180518755015160018601555116920191167fffffffffffffffffffffffffffffffffffffffffffffffffffffffff000000008254161790555b61314f6004840160058501613e66565b5460201c16887feca0bbf88a7c4e57f429bd1e6f708ad696c4dd4bd2ec9a50e916868f14abf5a45f80a38460035460b01c1661179d613ec6565b60ff1981541690558680806130ad565b895f5260076020526002885f2001828c167fffffffffffffffffffffffffffffffffffffffffffffffffffffffff0000000082541617905561313f565b34610bb4576020600319360112610bb45760043567ffffffffffffffff8111610bb45736602382011215610bb457806004013567ffffffffffffffff8111610bb4576024820191602436918360051b010111610bb45761323461452e565b61323c6149ba565b613244614a15565b61ffff60035460b01c1680820361351f57505f5b81811061349f57506004545f5b8281106134045750505f5b6004548110156132a957806001600160a01b0361328e600193613c29565b90549060031b1c165f5260056020525f604081205501613270565b505f5b61ffff8116828110156133515760405161ffff92916132ca82613bce565b600182526001600160a01b036132f06132eb6020850193808552888a613d0a565b613d1a565b165f52600560205260405f209151151560ff60ff198454169116178255517fffffffffffffffffffffffffffffffffffffffffffffffffffffffffff0000ff62ffff0083549260081b1691161790551661ffff8114612412576001016132ac565b82846801000000000000000082116105e957600454826004558083106133ca575b509060045f525f5b81811061338f575f805460ff19166001179055005b600190602061339d85613d1a565b940193817f8a35acfbc15ff81a39ae7d344fd709f28e8600b4aa8c65c6b64bfe7fe36bd19b01550161337a565b60045f526133fe907f8a35acfbc15ff81a39ae7d344fd709f28e8600b4aa8c65c6b64bfe7fe36bd19b908101908401613d2e565b82613372565b60019080831115613499576001600160a01b0361342082613c29565b90549060031b1c165b6001600160a01b03806134406132eb85898b613d0a565b169116908103613452575b5001613265565b6001600160a01b036134686132eb84888a613d0a565b169061ffff83167f32d8bdd3774d2fdfb6cdfb8ba11ad024564aaaeea77accaac61c584aded4c2535f80a48561344b565b5f613429565b60018101808211612412575b8281106134bb5750600101613258565b6134cc6132eb838587959697613d0a565b6001600160a01b03806134e36132eb858988613d0a565b169116146134f757600101929190926134ab565b7f06c849db000000000000000000000000000000000000000000000000000000005f5260045ffd5b7fa3b5ca39000000000000000000000000000000000000000000000000000000005f5260045260245ffd5b34610bb4576020600319360112610bb457613563613bb8565b61356b61452e565b6135736149ba565b335f52600160205260ff60405f205416336001600160a01b037f9016d09d72d40fdae2fd8ceac6b6234c7706214fd39c1cd1e609a0528c19930054161490159081613654575b5061362c576001600160a01b0316805f52600160205260ff60405f205416156135de57005b805f52600160205260405f20600160ff1982541617905560025460018101809111612412576002557fd0b2dc01fde9dadcf94234b55ed077e429dfd7b35d12816e25bae4fcbe2d083c5f80a2005b7f47556579000000000000000000000000000000000000000000000000000000005f5260045ffd5b905015826135b9565b34610bb4576020600319360112610bb457613676613bb8565b61367e61452e565b6136866149ba565b61368e614a15565b6001600160a01b0380600354921691827fffffffffffffffffffffffff0000000000000000000000000000000000000000821617600355167f4caa2f0b6436d44d51dd220c974535ca1ee23334685580038c72d58152b16d455f80a3005b34610bb4576020600319360112610bb4576001600160a01b0361370d613bb8565b61371561452e565b61371d61459f565b6137256145d3565b16805f52600660205260405f2090600b82019160ff83541660068110156129b55760058114613b8c576129c957815f52600760205260405f2061376c6020610f0983613caf565b038173__$fd1bbc507ebce9bb0449be7c85ea578f4f$__5af49081156128bf575f91613b6d575b50613b41576137b563ffffffff600261ffff60035460b01c1693015416613ce5565b936137c26001840161450d565b600160ff1982541617905560088201937fffffffffffffffffffffffffffffffffffffffffffffffff00000000ffffffff67ffffffff0000000086549260201b169116178455613811816145ea565b6002830160208251926138248484614670565b01905f5260205f205f915b838310613b035750505050613843816146ea565b6003830190602081519161385783856147a1565b01825f5260205f205f915b838310613ae657505050505f5b828110613ad1575050613881816143d8565b6004830160208251926138948484613dc4565b01905f5260205f205f915b838310613ab157505050506138b3816148fc565b8051600984019167ffffffffffffffff82116105e9576020906138d68385614954565b01915f5260205f208160051c915f5b838110613a6c5750601f198116900380613a20575b50505050613909600a916148fc565b91019080519067ffffffffffffffff82116105e95760209061392b8385614954565b01915f5260205f208160051c915f5b8381106139db5750601f198116900380613992575b85857f14eaa713eb50a295c5ed8153c207f61790d7389b647d65e96ea38b199f4d79fe602063ffffffff61ffff60035460a01c169454821c1693604051908152a3005b925f935f5b8181106139ac5750505001558280808061394f565b90919460206139d16001928489511515919060ff809160031b9316831b921b19161790565b9601929101613997565b5f5f5b602081106139f357508382015560010161393a565b95906020613a176001928985511515919060ff809160031b9316831b921b19161790565b920196016139de565b925f935f5b818110613a3d575050500155613909600a86806138fa565b9091946020613a626001928489511515919060ff809160031b9316831b921b19161790565b9601929101613a25565b5f5f5b60208110613a845750838201556001016138e5565b95906020613aa86001928985511515919060ff809160031b9316831b921b19161790565b92019601613a6f565b60026020828160019451805187550151848601550192019201919061389f565b600190613ae061130985613f49565b0161386f565b6001602082613af7839451866147ed565b01920192019190613862565b60056020828160406001955182815180518a55015187890155828101516002890155015180516003880155015160048601550192019201919061382f565b827ffbf20062000000000000000000000000000000000000000000000000000000005f5260045260245ffd5b613b86915060203d6020116107c8576107ba8183613c06565b85613793565b827f1b02ded7000000000000000000000000000000000000000000000000000000005f5260045260245ffd5b600435906001600160a01b0382168203610bb457565b6040810190811067ffffffffffffffff8211176105e957604052565b6060810190811067ffffffffffffffff8211176105e957604052565b90601f601f19910116810190811067ffffffffffffffff8211176105e957604052565b600454811015613c415760045f5260205f2001905f90565b634e487b7160e01b5f52603260045260245ffd5b8054821015613c41575f5260205f2001905f90565b60206040818301928281528451809452019201905f5b818110613c8d5750505090565b8251805185526020908101518186015260409094019390920191600101613c80565b90604051613cbc81613bce565b602060018294805484520154910152565b90816020910312610bb457518015158103610bb45790565b63ffffffff60019116019063ffffffff821161241257565b9190820180921161241257565b9190811015613c415760051b0190565b356001600160a01b0381168103610bb45790565b818110613d39575050565b5f8155600101613d2e565b9190918054831015613c41575f52601f60205f208360051c01921690565b8054905f815581613d71575050565b7f7fffffffffffffffffffffffffffffffffffffffffffffffffffffffffffffff82168203612412575f5260205f209060011b8101905b818110613db3575050565b5f8082556001820155600201613da8565b6801000000000000000082116105e957805490828155818310613de657505050565b7f7fffffffffffffffffffffffffffffffffffffffffffffffffffffffffffffff82168203612412577f7fffffffffffffffffffffffffffffffffffffffffffffffffffffffffffffff83168303612412575f5260205f209060011b81019160011b015b818110613e55575050565b5f8082556001820155600201613e4a565b818114613ec257815491613e7a8383613dc4565b5f5260205f20905f5260205f205f915b838310613e975750505050565b600280826001938503613eb1575b01920192019190613e8a565b805485558381015484860155613ea5565b5050565b60405190600454808352826020810160045f5260205f20925f5b818110613ef7575050613ef592500383613c06565b565b84546001600160a01b0316835260019485019487945060209093019201613ee0565b67ffffffffffffffff81116105e95760051b60200190565b60405190613f3e82613bce565b5f6020838281520152565b90613f5382613f19565b613f606040519182613c06565b828152601f19613f708294613f19565b01905f5b828110613f8057505050565b602090604051613f8f81613bea565b5f81525f83820152604051613fa381613bce565b5f81525f84820152604082015282828501015201613f74565b8054821015613c41575f5260205f209060021b01905f90565b5f1981146124125760010190565b8051821015613c415760209160051b010190565b9060405161400481613bea565b604061402160028395805485526001810154602086015201613caf565b910152565b335f52600560205260405f20906040519161404083613bce565b549161ffff602060ff8516159283158152019360081c1683526141bc576001600160a01b03165f52600660205260405f2060ff600b8201541660068110156129b557600381036129f15750600881015460201c63ffffffff1661410657600361ffff6140af9351169101613c55565b5080546140bb81613f19565b916140c96040519384613c06565b81835260208301905f5260205f205f915b8383106140e8575050505090565b600460206001926140f885613ff7565b8152019201920191906140da565b60035461411961ffff8260a01c16613f49565b925f61ffff5f9360b01c16925b83811061413557505050505090565b6001600160a01b038061414783613c29565b90549060031b1c16165f528460205260ff60405f2054169060038210156129b5576001918214614178575b01614126565b6141b66141918261203c61ffff88511660038b01613c55565b50936141a561419f82613fd5565b95613ff7565b6141af828b613fe3565b5288613fe3565b50614172565b7f179e806d000000000000000000000000000000000000000000000000000000005f5260045ffd5b9035907fffffffffffffffffffffffffffffffffffffffffffffffffffffffffffffffe181360301821215610bb4570180359067ffffffffffffffff8211610bb457602001918160071b36038313610bb457565b9190811015613c415760071b0190565b7fffffffffffffffffffffffffffffffffffffffffffffffffffffffffffffffdc6040910112610bb4576040519061427f82613bce565b60243582526044356020830152565b9190826040910312610bb4576040516142a681613bce565b6020808294803584520135910152565b90816040910312610bb4576020604051916142d083613bce565b805183520151602082015290565b8054821015613c41575f5260205f209060011b01905f90565b91906143215760608160039235845560208101356001850155604081013560028501550135910155565b634e487b7160e01b5f525f60045260245ffd5b906024811015613c415760051b0190565b8054821015613c41575f52600560205f20910201905f90565b61ffff5f199116019061ffff821161241257565b61ffff60039116029061ffff821691820361241257565b61ffff60059116029061ffff821691820361241257565b61ffff166005019061ffff821161241257565b61ffff60019116019061ffff821161241257565b906018811015613c415760051b0190565b906143e282613f19565b6143ef6040519182613c06565b828152601f196143ff8294613f19565b01905f5b82811061440f57505050565b60209060405161441e81613bce565b5f81525f8382015282828501015201614403565b335f52600560205260405f206040519061444b82613bce565b5490602061ffff60ff841615938415845260081c169101526141bc576001600160a01b03165f52600660205260405f2060ff600b8201541660068110156129b557600281036129f157506001600160a01b0333165f528060205260ff60405f20541660038110156129b5576001036144c9576144c690614dc4565b90565b506040516144d8602082613c06565b5f81525f805b8181106144ea57505090565b6020906040516144f981613bce565b5f81525f83820152828286010152016144de565b80545f82558061451b575050565b613ef5915f5260205f2090810190613d2e565b6001600160a01b037f00000000000000000000000000000000000000000000000000000000000000001680301490811561456a575b50612b1c57565b90506001600160a01b037f360894a13ba1a3210667c828492db98dca3e2076cc3735a920a3ca505d382bbc541614155f614563565b60ff5f5416156145ab57565b7f9488aaa6000000000000000000000000000000000000000000000000000000005f5260045ffd5b335f52600160205260ff60405f2054161561362c57565b906145f482613f19565b6146016040519182613c06565b828152601f196146118294613f19565b01905f5b82811061462157505050565b60209060405161463081613bea565b60405161463c81613bce565b5f81525f8482015281525f8382015260405161465781613bce565b5f81525f84820152604082015282828501015201614615565b906801000000000000000081116105e95781549181815582821061469357505050565b826005029260058404036124125781600502916005830403612412575f5260205f2091820191015b8181106146c6575050565b6005905f81555f60018201555f60028201555f60038201555f6004820155016146bb565b906146f482613f19565b6147016040519182613c06565b828152601f196147118294613f19565b01905f5b82811061472157505050565b806060602080938501015201614715565b8054905f815581614741575050565b7f3fffffffffffffffffffffffffffffffffffffffffffffffffffffffffffffff82168203612412575f5260205f209060021b8101905b818110614783575050565b805f600492555f60018201555f60028201555f600382015501614778565b906801000000000000000081116105e9578154918181558282106147c457505050565b5f5260205f2091820191015b8181106147db575050565b806147e7600192614732565b016147d0565b8151916801000000000000000083116105e957815483835580841061485c575b50602001905f5260205f205f915b8383106148285750505050565b600460208281604060019551805188558281015187890155015180516002880155015160038601550192019201919061481b565b7f3fffffffffffffffffffffffffffffffffffffffffffffffffffffffffffffff81168103612412577f3fffffffffffffffffffffffffffffffffffffffffffffffffffffffffffffff8416840361241257825f5260205f209060021b8101908460021b015b8181106148cf575061480d565b805f600492555f60018201555f60028201555f6003820155016148c2565b919061432157613ef5916147ed565b9061490682613f19565b6149136040519182613c06565b828152601f196149238294613f19565b0190602036910137565b80545f82558061493b575050565b613ef5915f52601f60205f20910160051c810190613d2e565b906801000000000000000081116105e957815481835580821061497657505050565b613ef5925f52601f60205f20918180850160051c84019416806149a0575b500160051c0190613d2e565b5f198501905f1982549160200360031b1c1690555f614994565b67ffffffffffffffff7ff0c57e16840df040f15088dc2f81fe391c3923bec73e23a9662efc9c229c6a005416156149ed57565b7f0206032a000000000000000000000000000000000000000000000000000000005f5260045ffd5b6001600160a01b037f9016d09d72d40fdae2fd8ceac6b6234c7706214fd39c1cd1e609a0528c19930054163303614a4857565b7f118cdaa7000000000000000000000000000000000000000000000000000000005f523360045260245ffd5b335f52600560205260405f2060405190614a8d82613bce565b549061ffff602060ff8416159283158152019260081c1682526141bc575161ffff1690565b60035460b01c61ffff16905f5b828110614ace57505050600190565b60ff614add82600a8501613d44565b90549060031b1c1615614af257600101614abf565b5050505f90565b6040517fe8c8742800000000000000000000000000000000000000000000000000000000815281516004820152602080830151602483015290919073__$fd1bbc507ebce9bb0449be7c85ea578f4f$__9083604481845af49283156128bf575f93614c67575b508215614bef575b8215614b76575b505061298d57565b6040517fe128c1aa0000000000000000000000000000000000000000000000000000000081528251600482015260209283015160248201529250829060449082905af49081156128bf575f91614bd0575b50155f80614b6e565b614be9915060203d6020116107c8576107ba8183613c06565b5f614bc7565b6040517f8071469c0000000000000000000000000000000000000000000000000000000081528251600482015260208084015160248301529193509081604481865af49081156128bf575f91614c48575b501591614b67565b614c61915060203d6020116107c8576107ba8183613c06565b5f614c40565b614c8191935060203d6020116107c8576107ba8183613c06565b915f614b5f565b90614c9282613caf565b6040517f8a9088a300000000000000000000000000000000000000000000000000000000815281516004820152602091820151602482015273__$fd1bbc507ebce9bb0449be7c85ea578f4f$__929181604481865af49081156128bf575f91614da5575b50614d935760206084604092835194859384927f9679db0d000000000000000000000000000000000000000000000000000000008452614d44600485018a6001602091805484520154910152565b80516044850152015160648301525af49081156128bf576001916020915f91614d74575b50805184550151910155565b614d8d915060403d6040116128b8576128aa8183613c06565b5f614d68565b60019150806020915184550151910155565b614dbe915060203d6020116107c8576107ba8183613c06565b5f614cf6565b61ffff60035460b01c16614dd7816143d8565b915f5b828110614de75750505090565b80614e036003614dfc60019460028701614345565b5001613caf565b614e0d8287613fe3565b52614e188186613fe3565b5001614dda565b90600b83019060ff82541660068110156129b557600203614f5a576003545f9060b01c61ffff1660098601825b828110614f275750505003614f2257805460ff19166003179055600882015460201c63ffffffff169182614eac57506001600160a01b039150167f7f44e24aecdf5952e755e1b91c7a7e576343b3764b9e08161a629f2898b4d80f5f80a2565b60010190604051906020820160208352835480915260408301935f5260205f20905f5b818110614f0c5750505090806001600160a01b037f76a6be7fc584ce6005b8f9e767f06b6684986dd5768e774c15d9c5af5a45a3049316930390a3565b8254865260209095019460019283019201614ecf565b505050565b60ff614f338284613d44565b90549060031b1c16614f48575b600101614e4c565b92600181018091116124125792614f40565b50505050565b6001600160a01b0390614f7761039036608461428e565b165f52600660205260405f209060ff600b8301541660068110156129b557600181036129f15750915f9073__$fd1bbc507ebce9bb0449be7c85ea578f4f$__9060028401906084359460a435945b61ffff60035460b01c1681101561507157614fe08185614345565b50615023604051917f2ba6bab900000000000000000000000000000000000000000000000000000000835260036004840191016001602091805484520154910152565b876044820152866064820152602081608481895af49081156128bf575f91615053575b5061298d57600101614fc5565b61506b915060203d81116107c8576107ba8183613c06565b5f615046565b50949260206150d09197929761508a61039e8587614345565b9060405180809581947f8a9088a3000000000000000000000000000000000000000000000000000000008352600483019190916020806040830194805184520151910152565b03915af49081156128bf575f91615117575b50156129c9576150f191614345565b614321576004916024358255604435600183015560643560028301556003820155015590565b615130915060203d6020116107c8576107ba8183613c06565b5f6150e2565b90600b83019260ff84541660068110156129b557600103614f5a5761515a8161547f565b15614f5a57600881019163ffffffff835416105f146151af5750506001600160a01b03167ffc3b5c81fbd3f5eaaf811aef4c5147873723d4d017233e4a5513fc05f02da9435f80a2600460ff19825416179055565b909192600260ff1982541617905560046151d161ffff60035460b01c166143d8565b910160208251926151e28484613dc4565b01905f5260205f205f915b838310615233575050505063ffffffff6001600160a01b03915460201c1691167fa5af724b9b00615e3776eacfb6aaed5a999936645a0d9486067ebaaaf1f746085f80a3565b6002602082816001945180518755015184860155019201920191906151ed565b7fffffffffffffffffffffffff00000000000000000000000000000000000000007f237e158222e3e6968b72b9db0d8043aacf074ad9f650f0d1606b4d82ee432c0054167f237e158222e3e6968b72b9db0d8043aacf074ad9f650f0d1606b4d82ee432c00556001600160a01b03807f9016d09d72d40fdae2fd8ceac6b6234c7706214fd39c1cd1e609a0528c19930054921691827fffffffffffffffffffffffff00000000000000000000000000000000000000008216177f9016d09d72d40fdae2fd8ceac6b6234c7706214fd39c1cd1e609a0528c19930055167f8be0079c531659141344cd1fd0a4f28419497f9722a3daafe3b4186f6b6457e05f80a3565b909291925f60068301555f60078301556153716009830161492d565b61537d600a830161492d565b600282018054905f81558161543a575b5050600382018054905f815581615415575b5050600882017fffffffffffffffffffffffffffffffffffffffffffffffff000000000000000081541690555f5b8181106153e4575050613ef5919250600401613d62565b806001600160a01b03806153fa60019489613fe3565b5116165f528360205260405f2060ff198154169055016153cd565b5f5260205f20908101905b8181101561539f5780615434600192614732565b01615420565b81600502916005830403612412575f5260205f20908101905b8181101561538d576005905f81555f60018201555f60028201555f60038201555f600482015501615453565b60035460b01c61ffff16905f5b82811061549b57505050600190565b6001600160a01b03806154ad83613c29565b90549060031b1c16165f528160205260ff60405f20541660038110156129b55715614af25760010161548c565b60ff7ff0c57e16840df040f15088dc2f81fe391c3923bec73e23a9662efc9c229c6a005460401c161561550957565b7fd7e6bcf8000000000000000000000000000000000000000000000000000000005f5260045ffd5b905f8091602081519101845af480806155d8575b156155655750506040513d81523d5f602083013e60203d82010160405290565b1561559f576001600160a01b03907f9996b315000000000000000000000000000000000000000000000000000000005f521660045260245ffd5b3d156155b0576040513d5f823e3d90fd5b7fd6bda275000000000000000000000000000000000000000000000000000000005f5260045ffd5b503d1515806155455750813b151561554556fea26469706673582212200d4e52af19ca38a698e71a6f8c369c1f1b45dbc1241e4c5cc9bf200fb41644dc64736f6c634300081e0033f0c57e16840df040f15088dc2f81fe391c3923bec73e23a9662efc9c229c6a00","linkReferences":{"lib/babyjubjub-solidity/src/BabyJubJub.sol":{"BabyJubJub":[{"start":819,"length":20},{"start":4120,"length":20},{"start":6607,"length":20},{"start":7271,"length":20},{"start":10345,"length":20},{"start":12148,"length":20},{"start":14391,"length":20},{"start":19453,"length":20},{"start":19859,"length":20},{"start":20586,"length":20}]}}},"methodIdentifiers":{"UPGRADE_INTERFACE_VERSION()":"ad3cb1cc","abortKeyGen(uint160)":"9d49d672","acceptOwnership()":"79ba5097","addKeyGenAdmin(address)":"222c211e","addRound1KeyGenContribution(uint160,((uint256,uint256),uint256,(uint256,uint256)))":"64a97889","addRound1ReshareContribution(uint160,((uint256,uint256),uint256,(uint256,uint256)))":"ffb96673","addRound2Contribution(uint160,(uint256[4],(uint256,uint256,(uint256,uint256))[]))":"5fd59919","addRound3Contribution(uint160)":"3892750a","amountKeygenAdmins()":"d46a3ac6","changeVerifierContract(address)":"21fe366e","checkIsParticipantAndReturnRound2Ciphers(uint160)":"53fac9ad","deleteOprfPublicKey(uint160)":"3bcc1630","emitDeleteEvent(uint160)":"ff3a3588","emitSecretGenFinalize(uint160,uint32)":"afb915d8","getOprfPublicKey(uint160)":"7488e8e7","getOprfPublicKeyAndEpoch(uint160)":"8f065f8d","getPartyIdForParticipant(address)":"f720fce3","initKeyGen(uint160)":"be28b7a8","initReshare(uint160)":"1acc6e09","initialize(address,address,address,uint16,uint16)":"fd1bae58","isContractReady()":"3a02230d","keyGenVerifier()":"9f249044","keygenAdmins(address)":"513c72f1","loadPeerPublicKeysForConsumers(uint160)":"b13590ec","loadPeerPublicKeysForProducers(uint160)":"90ea46f5","numPeers()":"79a4753c","owner()":"8da5cb5b","peerAddresses(uint256)":"79ad89e8","pendingOwner()":"e30c3978","proxiableUUID()":"52d1902d","registerOprfPeers(address[])":"32c7e3b6","renounceOwnership()":"715018a6","revokeKeyGenAdmin(address)":"ea2ca963","threshold()":"42cde4e8","transferOwnership(address)":"f2fde38b","upgradeToAndCall(address,bytes)":"4f1ef286"},"storageLayout":{"storage":[{"astId":3988,"contract":"test/TestOprfKeyRegistry.sol:TestOprfKeyRegistry","label":"isContractReady","offset":0,"slot":"0","type":"t_bool"},{"astId":3992,"contract":"test/TestOprfKeyRegistry.sol:TestOprfKeyRegistry","label":"keygenAdmins","offset":0,"slot":"1","type":"t_mapping(t_address,t_bool)"},{"astId":3994,"contract":"test/TestOprfKeyRegistry.sol:TestOprfKeyRegistry","label":"amountKeygenAdmins","offset":0,"slot":"2","type":"t_uint256"},{"astId":3996,"contract":"test/TestOprfKeyRegistry.sol:TestOprfKeyRegistry","label":"keyGenVerifier","offset":0,"slot":"3","type":"t_address"},{"astId":3998,"contract":"test/TestOprfKeyRegistry.sol:TestOprfKeyRegistry","label":"threshold","offset":20,"slot":"3","type":"t_uint16"},{"astId":4000,"contract":"test/TestOprfKeyRegistry.sol:TestOprfKeyRegistry","label":"numPeers","offset":22,"slot":"3","type":"t_uint16"},{"astId":4003,"contract":"test/TestOprfKeyRegistry.sol:TestOprfKeyRegistry","label":"peerAddresses","offset":0,"slot":"4","type":"t_array(t_address)dyn_storage"},{"astId":4008,"contract":"test/TestOprfKeyRegistry.sol:TestOprfKeyRegistry","label":"addressToPeer","offset":0,"slot":"5","type":"t_mapping(t_address,t_struct(OprfPeer)3379_storage)"},{"astId":4013,"contract":"test/TestOprfKeyRegistry.sol:TestOprfKeyRegistry","label":"runningKeyGens","offset":0,"slot":"6","type":"t_mapping(t_uint160,t_struct(OprfKeyGenState)3453_storage)"},{"astId":4018,"contract":"test/TestOprfKeyRegistry.sol:TestOprfKeyRegistry","label":"oprfKeyRegistry","offset":0,"slot":"7","type":"t_mapping(t_uint160,t_struct(RegisteredOprfPublicKey)3385_storage)"}],"types":{"t_address":{"encoding":"inplace","label":"address","numberOfBytes":"20"},"t_array(t_address)dyn_storage":{"encoding":"dynamic_array","label":"address[]","numberOfBytes":"32","base":"t_address"},"t_array(t_array(t_struct(SecretGenCiphertext)3411_storage)dyn_storage)dyn_storage":{"encoding":"dynamic_array","label":"struct OprfKeyGen.SecretGenCiphertext[][]","numberOfBytes":"32","base":"t_array(t_struct(SecretGenCiphertext)3411_storage)dyn_storage"},"t_array(t_bool)dyn_storage":{"encoding":"dynamic_array","label":"bool[]","numberOfBytes":"32","base":"t_bool"},"t_array(t_struct(Affine)25_storage)dyn_storage":{"encoding":"dynamic_array","label":"struct BabyJubJub.Affine[]","numberOfBytes":"32","base":"t_struct(Affine)25_storage"},"t_array(t_struct(Round1Contribution)3394_storage)dyn_storage":{"encoding":"dynamic_array","label":"struct OprfKeyGen.Round1Contribution[]","numberOfBytes":"32","base":"t_struct(Round1Contribution)3394_storage"},"t_array(t_struct(SecretGenCiphertext)3411_storage)dyn_storage":{"encoding":"dynamic_array","label":"struct OprfKeyGen.SecretGenCiphertext[]","numberOfBytes":"32","base":"t_struct(SecretGenCiphertext)3411_storage"},"t_array(t_uint256)dyn_storage":{"encoding":"dynamic_array","label":"uint256[]","numberOfBytes":"32","base":"t_uint256"},"t_bool":{"encoding":"inplace","label":"bool","numberOfBytes":"1"},"t_enum(KeyGenRole)3367":{"encoding":"inplace","label":"enum OprfKeyGen.KeyGenRole","numberOfBytes":"1"},"t_enum(Round)3374":{"encoding":"inplace","label":"enum OprfKeyGen.Round","numberOfBytes":"1"},"t_mapping(t_address,t_bool)":{"encoding":"mapping","key":"t_address","label":"mapping(address => bool)","numberOfBytes":"32","value":"t_bool"},"t_mapping(t_address,t_enum(KeyGenRole)3367)":{"encoding":"mapping","key":"t_address","label":"mapping(address => enum OprfKeyGen.KeyGenRole)","numberOfBytes":"32","value":"t_enum(KeyGenRole)3367"},"t_mapping(t_address,t_struct(OprfPeer)3379_storage)":{"encoding":"mapping","key":"t_address","label":"mapping(address => struct OprfKeyGen.OprfPeer)","numberOfBytes":"32","value":"t_struct(OprfPeer)3379_storage"},"t_mapping(t_uint160,t_struct(OprfKeyGenState)3453_storage)":{"encoding":"mapping","key":"t_uint160","label":"mapping(uint160 => struct OprfKeyGen.OprfKeyGenState)","numberOfBytes":"32","value":"t_struct(OprfKeyGenState)3453_storage"},"t_mapping(t_uint160,t_struct(RegisteredOprfPublicKey)3385_storage)":{"encoding":"mapping","key":"t_uint160","label":"mapping(uint160 => struct OprfKeyGen.RegisteredOprfPublicKey)","numberOfBytes":"32","value":"t_struct(RegisteredOprfPublicKey)3385_storage"},"t_struct(Affine)25_storage":{"encoding":"inplace","label":"struct BabyJubJub.Affine","numberOfBytes":"64","members":[{"astId":22,"contract":"test/TestOprfKeyRegistry.sol:TestOprfKeyRegistry","label":"x","offset":0,"slot":"0","type":"t_uint256"},{"astId":24,"contract":"test/TestOprfKeyRegistry.sol:TestOprfKeyRegistry","label":"y","offset":0,"slot":"1","type":"t_uint256"}]},"t_struct(OprfKeyGenState)3453_storage":{"encoding":"inplace","label":"struct OprfKeyGen.OprfKeyGenState","numberOfBytes":"384","members":[{"astId":3416,"contract":"test/TestOprfKeyRegistry.sol:TestOprfKeyRegistry","label":"nodeRoles","offset":0,"slot":"0","type":"t_mapping(t_address,t_enum(KeyGenRole)3367)"},{"astId":3419,"contract":"test/TestOprfKeyRegistry.sol:TestOprfKeyRegistry","label":"lagrangeCoeffs","offset":0,"slot":"1","type":"t_array(t_uint256)dyn_storage"},{"astId":3423,"contract":"test/TestOprfKeyRegistry.sol:TestOprfKeyRegistry","label":"round1","offset":0,"slot":"2","type":"t_array(t_struct(Round1Contribution)3394_storage)dyn_storage"},{"astId":3428,"contract":"test/TestOprfKeyRegistry.sol:TestOprfKeyRegistry","label":"round2","offset":0,"slot":"3","type":"t_array(t_array(t_struct(SecretGenCiphertext)3411_storage)dyn_storage)dyn_storage"},{"astId":3432,"contract":"test/TestOprfKeyRegistry.sol:TestOprfKeyRegistry","label":"shareCommitments","offset":0,"slot":"4","type":"t_array(t_struct(Affine)25_storage)dyn_storage"},{"astId":3436,"contract":"test/TestOprfKeyRegistry.sol:TestOprfKeyRegistry","label":"prevShareCommitments","offset":0,"slot":"5","type":"t_array(t_struct(Affine)25_storage)dyn_storage"},{"astId":3439,"contract":"test/TestOprfKeyRegistry.sol:TestOprfKeyRegistry","label":"keyAggregate","offset":0,"slot":"6","type":"t_struct(Affine)25_storage"},{"astId":3441,"contract":"test/TestOprfKeyRegistry.sol:TestOprfKeyRegistry","label":"numProducers","offset":0,"slot":"8","type":"t_uint32"},{"astId":3443,"contract":"test/TestOprfKeyRegistry.sol:TestOprfKeyRegistry","label":"generatedEpoch","offset":4,"slot":"8","type":"t_uint32"},{"astId":3446,"contract":"test/TestOprfKeyRegistry.sol:TestOprfKeyRegistry","label":"round2Done","offset":0,"slot":"9","type":"t_array(t_bool)dyn_storage"},{"astId":3449,"contract":"test/TestOprfKeyRegistry.sol:TestOprfKeyRegistry","label":"round3Done","offset":0,"slot":"10","type":"t_array(t_bool)dyn_storage"},{"astId":3452,"contract":"test/TestOprfKeyRegistry.sol:TestOprfKeyRegistry","label":"currentRound","offset":0,"slot":"11","type":"t_enum(Round)3374"}]},"t_struct(OprfPeer)3379_storage":{"encoding":"inplace","label":"struct OprfKeyGen.OprfPeer","numberOfBytes":"32","members":[{"astId":3376,"contract":"test/TestOprfKeyRegistry.sol:TestOprfKeyRegistry","label":"isParticipant","offset":0,"slot":"0","type":"t_bool"},{"astId":3378,"contract":"test/TestOprfKeyRegistry.sol:TestOprfKeyRegistry","label":"partyId","offset":1,"slot":"0","type":"t_uint16"}]},"t_struct(RegisteredOprfPublicKey)3385_storage":{"encoding":"inplace","label":"struct OprfKeyGen.RegisteredOprfPublicKey","numberOfBytes":"96","members":[{"astId":3382,"contract":"test/TestOprfKeyRegistry.sol:TestOprfKeyRegistry","label":"key","offset":0,"slot":"0","type":"t_struct(Affine)25_storage"},{"astId":3384,"contract":"test/TestOprfKeyRegistry.sol:TestOprfKeyRegistry","label":"epoch","offset":0,"slot":"2","type":"t_uint32"}]},"t_struct(Round1Contribution)3394_storage":{"encoding":"inplace","label":"struct OprfKeyGen.Round1Contribution","numberOfBytes":"160","members":[{"astId":3388,"contract":"test/TestOprfKeyRegistry.sol:TestOprfKeyRegistry","label":"commShare","offset":0,"slot":"0","type":"t_struct(Affine)25_storage"},{"astId":3390,"contract":"test/TestOprfKeyRegistry.sol:TestOprfKeyRegistry","label":"commCoeffs","offset":0,"slot":"2","type":"t_uint256"},{"astId":3393,"contract":"test/TestOprfKeyRegistry.sol:TestOprfKeyRegistry","label":"ephPubKey","offset":0,"slot":"3","type":"t_struct(Affine)25_storage"}]},"t_struct(SecretGenCiphertext)3411_storage":{"encoding":"inplace","label":"struct OprfKeyGen.SecretGenCiphertext","numberOfBytes":"128","members":[{"astId":3405,"contract":"test/TestOprfKeyRegistry.sol:TestOprfKeyRegistry","label":"nonce","offset":0,"slot":"0","type":"t_uint256"},{"astId":3407,"contract":"test/TestOprfKeyRegistry.sol:TestOprfKeyRegistry","label":"cipher","offset":0,"slot":"1","type":"t_uint256"},{"astId":3410,"contract":"test/TestOprfKeyRegistry.sol:TestOprfKeyRegistry","label":"commitment","offset":0,"slot":"2","type":"t_struct(Affine)25_storage"}]},"t_uint16":{"encoding":"inplace","label":"uint16","numberOfBytes":"2"},"t_uint160":{"encoding":"inplace","label":"uint160","numberOfBytes":"20"},"t_uint256":{"encoding":"inplace","label":"uint256","numberOfBytes":"32"},"t_uint32":{"encoding":"inplace","label":"uint32","numberOfBytes":"4"}}},"id":18}