{"abi":[{"type":"function","name":"compressProof","inputs":[{"name":"proof","type":"uint256[8]","internalType":"uint256[8]"}],"outputs":[{"name":"compressed","type":"uint256[4]","internalType":"uint256[4]"}],"stateMutability":"view"},{"type":"function","name":"verifyCompressedProof","inputs":[{"name":"compressedProof","type":"uint256[4]","internalType":"uint256[4]"},{"name":"input","type":"uint256[24]","internalType":"uint256[24]"}],"outputs":[],"stateMutability":"view"},{"type":"function","name":"verifyProof","inputs":[{"name":"proof","type":"uint256[8]","internalType":"uint256[8]"},{"name":"input","type":"uint256[24]","internalType":"uint256[24]"}],"outputs":[],"stateMutability":"view"},{"type":"error","name":"ProofInvalid","inputs":[]},{"type":"error","name":"PublicInputNotInField","inputs":[]}],"bytecode":{"object":"0x60808060405234601557612427908161001a8239f35b5f80fdfe60806040526004361015610011575f80fd5b5f3560e01c806304bb1c1b14610de757806344f6369214610d345763a18cb3051461003a575f80fd5b34610d30576104007ffffffffffffffffffffffffffffffffffffffffffffffffffffffffffffffffc360112610d30573661010411610d30573661040411610d305760405160408101907f0a40663ffd9964c683be268d58c21cb75b6c0016bfb2510a4eee9a1b53e176c5815260208101917f2a86cbfd2cf20d59e4d691a616799aaaa3ef522c3603faa55445acbb5aca090a83527f1bc937810b837a132133db71227cc1654fce2d4c9df7d73443bf1c9bf49f011f8152606082017f0e5386dc8b0b89cad5520123ee839f78e77a6e0c95bd9695f9f84708cff92f2781527f30644e72e131a029b85045b68181585d2833e84879b9709143e1f593f0000001604061010435937f169d53cfd78fa375875f1aacd7e88ec0fd3f03c673d4275d40b4fca7d3e7a9a2608087019580875284848460608160075afa911016838860808160065afa167f2c87d7ce0f3e2b3bde826b74c8f0fe49271a0829aef00987c03f9c1b29b1721d83527f1a56b4120f2c6b9d89eb3554509d393ee483102edc067fc33a5651536c4dc15586526001610124359182895286868660608160075afa9310161616838860808160065afa167f1789fe799510cc1a580d866cc6df5f6e0d1323ced160be82948858a849405e1c83527f21da5a6047108568a7124173aeb4a1f8c9ec7bd927d5458d8a88814e4418cd038652610144359081885285858560608160075afa92101616838860808160065afa167f29c20ac52f6b15aa8ec3328e06157d915d4a34b2d726aeec1a2515afaead0d7f83527f0a61eded9d7e0f27e11736580ca9256f4dda0a50bd9e625d9bf15c645576c5a68652610164359081885285858560608160075afa92101616838860808160065afa167ebaa9c8b6f234afcdb2cb3b6301fd0313ce69dafc242219b149bb913c6ab97883527f0f6dadd0481199d89594704f77eb982043cc8ba086d745b0b3b759d8fb5165df8652610184359081885285858560608160075afa92101616838860808160065afa167f1eb3154ce0dc0b0d8b3baf85d5698cfa6df7954cc5db7428cc48a2c8df2b92f983527f0adaceb9679f7168e182fb599556a7b7bb6f8c5a037e5b9567adba899a35439486526101a4359081885285858560608160075afa92101616838860808160065afa167f1a7cf7a259becda25a94ac59670e611ed29596b23392bafa4356579fae414cae83527f0b9dcdbda7688302d1f0733c308317c347422972f93c19193e10bf5a0691d77f86526101c4359081885285858560608160075afa92101616838860808160065afa167f2057aab2600b205eb831e3e498e513906d2e7a12c315cf49d5a0762cc943a02e83527f25d2bcd5b6d87fedf03d9f0eae7ab887f3c414f5c739bf78af621a4a1a0ba19c86526101e4359081885285858560608160075afa92101616838860808160065afa167f09be5e20e5191e3dbfc8ec2dd282a6b23d4e99c02cc3e1f2d9dcc5b166a21fb083527f05c403e381f9afd0e6bb24138e4775d8f5f8a5fde9f5eb0fdea01e629ecd79a58652610204359081885285858560608160075afa92101616838860808160065afa167f2f8f8b422873fa507f80a69d9ca6d4d9c5217e46bc0423ac74fb679667b0a19483527f1b4b1a357febd5b730701a927cfa4fa27815059a0753713c1f2fdfad421a18798652610224359081885285858560608160075afa92101616838860808160065afa167f1edeb563b12e29c024d24143277d3681f61812226d38fbcbbb2b138a14e7096483527f1dc4866abdbbbc9c019526f4292b68e58918689cfd1a2886dadd5a9ea145fad38652610244359081885285858560608160075afa92101616838860808160065afa167f079694c6aa556de877ebe23cf0f4a28c91dbd9f3d147b92ec1e9d810a82191e883527f138a1faea8362ffa30ffe8807980f332e6869656b87a1470f8dd1cb7334e1a0a8652610264359081885285858560608160075afa92101616838860808160065afa167f1007d14c854dd4e1daaec8718118e16d3d521a14caa552e2dfc8063c9822d96a83527f097bfc15dba85cabbb505857d9b398862333bf6763409403dc5e38a81bc5ebe58652610284359081885285858560608160075afa92101616838860808160065afa167f2aa5f24ce45d3d92b5e7425e9352539e11d7fdb167a398154200655db49932a683527f056966b71fc0b65a2188d2ecbc839cb7c72e10a2301f15c9a3918f329bc60df886526102a4359081885285858560608160075afa92101616838860808160065afa167f0548259a3cdd69caa3bbae63a65b8ea44857e676080c250a28e79409a4a5329583527f2154bd88b0218c860cb7aeb1465f03fafa8255b8f6f3ff29d46a043ac19f5dd286526102c4359081885285858560608160075afa92101616838860808160065afa167f0da2fa52f3695346f5e8b2c6d18b165ecd627fbb312c78fb6292a9d8a9f36b0783527f26b1fe06e872696e4f901df8ad5952082ca84d02c96815a76149b85729714f6f86526102e4359081885285858560608160075afa92101616838860808160065afa167f0ed7bbc443965209f08627d16057e0997c6ddd0c25658cb395149bc83c15bb3083527f2948f7d59fd8dd28afa7a83c4dc0e534d200323263feae233148937e03157ab38652610304359081885285858560608160075afa92101616838860808160065afa167e42b1b016231333899ccafd44c629f33eb5af2ed08a7cb41a72b0200887a71383527f175d70d7c760ecc83474972bd6b667d1279d33c2b4ec3209c7784554a9b04df68652610324359081885285858560608160075afa92101616838860808160065afa167f19abe5ac8a2c99cfa010e0bb3cb864442a237c8b86ac35780c20a11a7fdf91d783527f1f80b33e6f18223c3ee27547b50cea72b337bd734e93bedd938b32498371e0b48652610344359081885285858560608160075afa92101616838860808160065afa167f0982fbbc7b6e313490a82f0eec237c6cf794d93b1d34950540efbb1c3d9ac24683527f2768a4f4e6586f15b3b589ccf1dde0c7dba0f7dd9eb0bfed052ab60c418e87068652610364359081885285858560608160075afa92101616838860808160065afa167f1c94cf4bb019572e3353332ef0eb25035a1435a1596a734ac48f659e7a7b12f683527f1289c262e135314dad412c997fd921a6b5123f0fed78095ec66af4737c4068c38652610384359081885285858560608160075afa92101616838860808160065afa167f0289dd842b0f8205ad1d54750ae3f23ff08319aa4a731300eb663651eeed306983527f1f3503e60d1bcc3f0330d2feb3d3af6e4e20c22239cd89590fcef799a90aea1986526103a4359081885285858560608160075afa92101616838860808160065afa167f28df853506af6b3ae5262e5304317d2c439446d226c59f7a6876bcafccc199a383527f11dc245520f8b23e06df96bd1af79187c12a7f08759e334a1338931c62da399886526103c4359081885285858560608160075afa92101616838860808160065afa16947f116add76d7af2904e7cc9226f2f3d507a0e05b6186779a3ecb383d238dab572a8352526103e43580955260608160075afa9210161660408260808160065afa16905191519015610d085760405191610100600484377f06da9a268673ddc3faad48e90b465b9518d91107d3af5625580ebdb592f095c66101008401527f2d23214b348921df438920309ffb29a5116eaf07bd51cff37092784bb328822e6101208401527f159a413b48f89a3d5040fa765b9bb16a644791f54ece2cfc4349a9853d7ea4716101408401527f1ed5c5848dabb5f888133b781a76397ec9c1034b4a961b948d95f7885d25abd86101608401527f245229d9b076b3c0e8a4d70bde8c1cccffa08a9fae7557b165b3b0dbd653e2c76101808401527f253ec85988dbb84e46e94b5efa3373b47a000b4ac6c86b2d4b798d274a1823026101a08401527f07090a82e8fabbd39299be24705b92cf208ee8b3487f6f2b39ff27978a29a1db6101c08401527f2424bcc1f60a5472685fd50705b2809626e170120acaf441e133a2bd5e61d2446101e08401527f25833b15e156ae01f2741f4f4120ddb466c52eb83a959f79eb99b23caa7fbf1d6102008401527f04ddc8d30d5c438ca34091c5d2c6ded571382cba2b3c4fdc4222df2938b4e51e6102208401526102408301526102608201527f198e9393920d483a7260bfb731fb5d25f1aa493335a9e71297e485b7aef312c26102808201527f1800deef121f1e76426a00665e5c4479674322d4f75edadd46debd5cd992f6ed6102a08201527f275dc4a288d1afb3cbb1ac09187524c7db36395df7be3b99e673b13a075a65ec6102c08201527f1d9befcd05a5323e6da4d435f3b617cdb3af83285c2df711ef39c01571827f9d6102e08201526020816103008160085afa90511615610ce057005b7f7fcdd1f4000000000000000000000000000000000000000000000000000000005f5260045ffd5b7fa54f8e27000000000000000000000000000000000000000000000000000000005f5260045ffd5b5f80fd5b34610d30576101007ffffffffffffffffffffffffffffffffffffffffffffffffffffffffffffffffc360112610d30573661010411610d3057610d776080611b01565b6080368237610d8a602435600435611d9b565b8152610da060843560a435604435606435611e88565b60208301526040820152610db860e43560c435611d9b565b6060820152604051905f825b60048210610dd157608084f35b6020806001928551815201930191019091610dc4565b34610d30576103807ffffffffffffffffffffffffffffffffffffffffffffffffffffffffffffffffc360112610d305736608411610d30573661038411610d3057610300610e3481611b01565b81368237610e43600435611b72565b610e54602493929335604435611c16565b91939290610e63606435611b72565b9390926040519660408801967f0a40663ffd9964c683be268d58c21cb75b6c0016bfb2510a4eee9a1b53e176c589528860208101987f2a86cbfd2cf20d59e4d691a616799aaaa3ef522c3603faa55445acbb5aca090a8a527f1bc937810b837a132133db71227cc1654fce2d4c9df7d73443bf1c9bf49f011f81527f30644e72e131a029b85045b68181585d2833e84879b9709143e1f593f0000001604060608401927f0e5386dc8b0b89cad5520123ee839f78e77a6e0c95bd9695f9f84708cff92f2784527f169d53cfd78fa375875f1aacd7e88ec0fd3f03c673d4275d40b4fca7d3e7a9a26084359583608082019780895286828660608160075afa911016818360808160065afa167f2c87d7ce0f3e2b3bde826b74c8f0fe49271a0829aef00987c03f9c1b29b1721d85527f1a56b4120f2c6b9d89eb3554509d393ee483102edc067fc33a5651536c4dc1558852600160a43591828b5288848860608160075afa9310161616818360808160065afa167f1789fe799510cc1a580d866cc6df5f6e0d1323ced160be82948858a849405e1c85527f21da5a6047108568a7124173aeb4a1f8c9ec7bd927d5458d8a88814e4418cd03885260c43590818a5287838760608160075afa92101616818360808160065afa167f29c20ac52f6b15aa8ec3328e06157d915d4a34b2d726aeec1a2515afaead0d7f85527f0a61eded9d7e0f27e11736580ca9256f4dda0a50bd9e625d9bf15c645576c5a6885260e43590818a5287838760608160075afa92101616818360808160065afa167ebaa9c8b6f234afcdb2cb3b6301fd0313ce69dafc242219b149bb913c6ab97885527f0f6dadd0481199d89594704f77eb982043cc8ba086d745b0b3b759d8fb5165df88526101043590818a5287838760608160075afa92101616818360808160065afa167f1eb3154ce0dc0b0d8b3baf85d5698cfa6df7954cc5db7428cc48a2c8df2b92f985527f0adaceb9679f7168e182fb599556a7b7bb6f8c5a037e5b9567adba899a35439488526101243590818a5287838760608160075afa92101616818360808160065afa167f1a7cf7a259becda25a94ac59670e611ed29596b23392bafa4356579fae414cae85527f0b9dcdbda7688302d1f0733c308317c347422972f93c19193e10bf5a0691d77f88526101443590818a5287838760608160075afa92101616818360808160065afa167f2057aab2600b205eb831e3e498e513906d2e7a12c315cf49d5a0762cc943a02e85527f25d2bcd5b6d87fedf03d9f0eae7ab887f3c414f5c739bf78af621a4a1a0ba19c88526101643590818a5287838760608160075afa92101616818360808160065afa167f09be5e20e5191e3dbfc8ec2dd282a6b23d4e99c02cc3e1f2d9dcc5b166a21fb085527f05c403e381f9afd0e6bb24138e4775d8f5f8a5fde9f5eb0fdea01e629ecd79a588526101843590818a5287838760608160075afa92101616818360808160065afa167f2f8f8b422873fa507f80a69d9ca6d4d9c5217e46bc0423ac74fb679667b0a19485527f1b4b1a357febd5b730701a927cfa4fa27815059a0753713c1f2fdfad421a187988526101a43590818a5287838760608160075afa92101616818360808160065afa167f1edeb563b12e29c024d24143277d3681f61812226d38fbcbbb2b138a14e7096485527f1dc4866abdbbbc9c019526f4292b68e58918689cfd1a2886dadd5a9ea145fad388526101c43590818a5287838760608160075afa92101616818360808160065afa167f079694c6aa556de877ebe23cf0f4a28c91dbd9f3d147b92ec1e9d810a82191e885527f138a1faea8362ffa30ffe8807980f332e6869656b87a1470f8dd1cb7334e1a0a88526101e43590818a5287838760608160075afa92101616818360808160065afa167f1007d14c854dd4e1daaec8718118e16d3d521a14caa552e2dfc8063c9822d96a85527f097bfc15dba85cabbb505857d9b398862333bf6763409403dc5e38a81bc5ebe588526102043590818a5287838760608160075afa92101616818360808160065afa167f2aa5f24ce45d3d92b5e7425e9352539e11d7fdb167a398154200655db49932a685527f056966b71fc0b65a2188d2ecbc839cb7c72e10a2301f15c9a3918f329bc60df888526102243590818a5287838760608160075afa92101616818360808160065afa167f0548259a3cdd69caa3bbae63a65b8ea44857e676080c250a28e79409a4a5329585527f2154bd88b0218c860cb7aeb1465f03fafa8255b8f6f3ff29d46a043ac19f5dd288526102443590818a5287838760608160075afa92101616818360808160065afa167f0da2fa52f3695346f5e8b2c6d18b165ecd627fbb312c78fb6292a9d8a9f36b0785527f26b1fe06e872696e4f901df8ad5952082ca84d02c96815a76149b85729714f6f88526102643590818a5287838760608160075afa92101616818360808160065afa167f0ed7bbc443965209f08627d16057e0997c6ddd0c25658cb395149bc83c15bb3085527f2948f7d59fd8dd28afa7a83c4dc0e534d200323263feae233148937e03157ab388526102843590818a5287838760608160075afa92101616818360808160065afa167e42b1b016231333899ccafd44c629f33eb5af2ed08a7cb41a72b0200887a71385527f175d70d7c760ecc83474972bd6b667d1279d33c2b4ec3209c7784554a9b04df688526102a43590818a5287838760608160075afa92101616818360808160065afa167f19abe5ac8a2c99cfa010e0bb3cb864442a237c8b86ac35780c20a11a7fdf91d785527f1f80b33e6f18223c3ee27547b50cea72b337bd734e93bedd938b32498371e0b488526102c43590818a5287838760608160075afa92101616818360808160065afa167f0982fbbc7b6e313490a82f0eec237c6cf794d93b1d34950540efbb1c3d9ac24685527f2768a4f4e6586f15b3b589ccf1dde0c7dba0f7dd9eb0bfed052ab60c418e870688526102e43590818a5287838760608160075afa92101616818360808160065afa167f1c94cf4bb019572e3353332ef0eb25035a1435a1596a734ac48f659e7a7b12f685527f1289c262e135314dad412c997fd921a6b5123f0fed78095ec66af4737c4068c388526103043590818a5287838760608160075afa92101616818360808160065afa167f0289dd842b0f8205ad1d54750ae3f23ff08319aa4a731300eb663651eeed306985527f1f3503e60d1bcc3f0330d2feb3d3af6e4e20c22239cd89590fcef799a90aea1988526103243590818a5287838760608160075afa92101616818360808160065afa167f28df853506af6b3ae5262e5304317d2c439446d226c59f7a6876bcafccc199a385527f11dc245520f8b23e06df96bd1af79187c12a7f08759e334a1338931c62da399888526103443590818a5287838760608160075afa921016169160808160065afa16947f116add76d7af2904e7cc9226f2f3d507a0e05b6186779a3ecb383d238dab572a8352526103643580955260608160075afa9210161660408a60808160065afa16985197519815610d085760209a8a528a8a015260408901526060880152608087015260a086015260c085015260e08401527f06da9a268673ddc3faad48e90b465b9518d91107d3af5625580ebdb592f095c66101008401527f2d23214b348921df438920309ffb29a5116eaf07bd51cff37092784bb328822e6101208401527f159a413b48f89a3d5040fa765b9bb16a644791f54ece2cfc4349a9853d7ea4716101408401527f1ed5c5848dabb5f888133b781a76397ec9c1034b4a961b948d95f7885d25abd86101608401527f245229d9b076b3c0e8a4d70bde8c1cccffa08a9fae7557b165b3b0dbd653e2c76101808401527f253ec85988dbb84e46e94b5efa3373b47a000b4ac6c86b2d4b798d274a1823026101a08401527f07090a82e8fabbd39299be24705b92cf208ee8b3487f6f2b39ff27978a29a1db6101c08401527f2424bcc1f60a5472685fd50705b2809626e170120acaf441e133a2bd5e61d2446101e08401527f25833b15e156ae01f2741f4f4120ddb466c52eb83a959f79eb99b23caa7fbf1d6102008401527f04ddc8d30d5c438ca34091c5d2c6ded571382cba2b3c4fdc4222df2938b4e51e6102208401526102408301526102608201527f198e9393920d483a7260bfb731fb5d25f1aa493335a9e71297e485b7aef312c26102808201527f1800deef121f1e76426a00665e5c4479674322d4f75edadd46debd5cd992f6ed6102a08201527f275dc4a288d1afb3cbb1ac09187524c7db36395df7be3b99e673b13a075a65ec6102c08201527f1d9befcd05a5323e6da4d435f3b617cdb3af83285c2df711ef39c01571827f9d6102e0820152611ad982611b01565b9283918336843760085afa15908115611af4575b50610ce057005b6001915051141581611aed565b907fffffffffffffffffffffffffffffffffffffffffffffffffffffffffffffffe0601f604051930116820182811067ffffffffffffffff821117611b4557604052565b7f4e487b71000000000000000000000000000000000000000000000000000000005f52604160045260245ffd5b8015611c0f578060011c917f30644e72e131a029b85045b68181585d97816a916871ca8d3c208c16d87cfd47831015610ce057600180611bdb7f30644e72e131a029b85045b68181585d97816a916871ca8d3c208c16d87cfd4760038188818180090908612167565b931614611be457565b907f30644e72e131a029b85045b68181585d97816a916871ca8d3c208c16d87cfd4780910681030690565b505f905f90565b801580611d93575b611d87578060021c92827f30644e72e131a029b85045b68181585d97816a916871ca8d3c208c16d87cfd478510801590611d5d575b610ce05784817f30644e72e131a029b85045b68181585d97816a916871ca8d3c208c16d87cfd4780808080808080807f30644e72e131a029b85045b68181585d97816a916871ca8d3c208c16d87cfd4481611d149d8d0909998a0981898181800909087f2fcd3ac2a640a154eb23960892a85a68f031ca0c8344b23a577dcf1052b9e7750806810306936002808a16149509818a8181800909087f2b149d40ceb8aaae81be18991be06ac3b5b4c5e559dbefa33267e6dc24a138e50861219d565b80929160018082961614611d26575050565b7f30644e72e131a029b85045b68181585d97816a916871ca8d3c208c16d87cfd478093945080929550809106810306930681030690565b507f30644e72e131a029b85045b68181585d97816a916871ca8d3c208c16d87cfd47811015611c53565b50505f905f905f905f90565b508115611c1e565b907f30644e72e131a029b85045b68181585d97816a916871ca8d3c208c16d87cfd478210801590611e5e575b610ce057811580611e56575b611e5057611e0a7f30644e72e131a029b85045b68181585d97816a916871ca8d3c208c16d87cfd4760038185818180090908612167565b818103611e1957505060011b90565b7f30644e72e131a029b85045b68181585d97816a916871ca8d3c208c16d87cfd47809106810306145f14610ce057600190811b1790565b50505f90565b508015611dd3565b507f30644e72e131a029b85045b68181585d97816a916871ca8d3c208c16d87cfd47811015611dc7565b919093927f30644e72e131a029b85045b68181585d97816a916871ca8d3c208c16d87cfd47831080159061213d575b8015612113575b80156120e9575b610ce05780828685171717156120de5790829161201b7f30644e72e131a029b85045b68181585d97816a916871ca8d3c208c16d87cfd4780808080888180808f9d7f30644e72e131a029b85045b68181585d97816a916871ca8d3c208c16d87cfd448f839290839109099d8e0981848181800909087f2b149d40ceb8aaae81be18991be06ac3b5b4c5e559dbefa33267e6dc24a138e5089a09818c8181800909087f2fcd3ac2a640a154eb23960892a85a68f031ca0c8344b23a577dcf1052b9e7750806810306947f30644e72e131a029b85045b68181585d97816a916871ca8d3c208c16d87cfd477f183227397098d014dc2822db40c0ac2ecbc0b548b438e5469e10460b6c3e7ea481611fe281808b80098187800908612167565b8408097f30644e72e131a029b85045b68181585d97816a916871ca8d3c208c16d87cfd4761200f82612376565b8009141595869161219d565b9290808214806120d5575b1561204d5750505050905f146120455760ff60025b169060021b179190565b60ff5f61203b565b7f30644e72e131a029b85045b68181585d97816a916871ca8d3c208c16d87cfd478091068103061491826120a3575b505015610ce0576001911561209b5760ff60025b169060021b17179190565b60ff5f612090565b7f30644e72e131a029b85045b68181585d97816a916871ca8d3c208c16d87cfd47919250819006810306145f8061207c565b50838314612026565b50505090505f905f90565b507f30644e72e131a029b85045b68181585d97816a916871ca8d3c208c16d87cfd47811015611ec5565b507f30644e72e131a029b85045b68181585d97816a916871ca8d3c208c16d87cfd47821015611ebe565b507f30644e72e131a029b85045b68181585d97816a916871ca8d3c208c16d87cfd47851015611eb7565b9061217182612376565b917f30644e72e131a029b85045b68181585d97816a916871ca8d3c208c16d87cfd4783800903610ce057565b917f30644e72e131a029b85045b68181585d97816a916871ca8d3c208c16d87cfd477f183227397098d014dc2822db40c0ac2ecbc0b548b438e5469e10460b6c3e7ea481612208939694966121fa82808a8009818a800908612167565b9061236a575b860809612167565b927f30644e72e131a029b85045b68181585d97816a916871ca8d3c208c16d87cfd47600285096040519060208252602080830152602060408301528060608301527f30644e72e131a029b85045b68181585d97816a916871ca8d3c208c16d87cfd4560808301527f30644e72e131a029b85045b68181585d97816a916871ca8d3c208c16d87cfd4760a083015260208260c08160055afa91519115610ce0577f30644e72e131a029b85045b68181585d97816a916871ca8d3c208c16d87cfd47826001920903610ce0577f30644e72e131a029b85045b68181585d97816a916871ca8d3c208c16d87cfd47908209927f30644e72e131a029b85045b68181585d97816a916871ca8d3c208c16d87cfd478080808780090681030681878009081490811591612338575b50610ce057565b90507f30644e72e131a029b85045b68181585d97816a916871ca8d3c208c16d87cfd478084860960020914155f612331565b81809106810306612200565b9060405191602083526020808401526020604084015260608301527f0c19139cb84c680a6e14116da060561765e05aa45a1c72a34f082305b61f3f5260808301527f30644e72e131a029b85045b68181585d97816a916871ca8d3c208c16d87cfd4760a083015260208260c08160055afa91519115610ce05756fea2646970667358221220740c308ce09642f4f3c101d9d3dbe592f371a5ca3b434b80ad2c0616f4aac45764736f6c634300081e0033","linkReferences":{}},"methodIdentifiers":{"compressProof(uint256[8])":"44f63692","verifyCompressedProof(uint256[4],uint256[24])":"04bb1c1b","verifyProof(uint256[8],uint256[24])":"a18cb305"},"storageLayout":{"storage":[],"types":{}},"id":37}