{"abi":[{"type":"function","name":"compressProof","inputs":[{"name":"proof","type":"uint256[8]","internalType":"uint256[8]"}],"outputs":[{"name":"compressed","type":"uint256[4]","internalType":"uint256[4]"}],"stateMutability":"view"},{"type":"function","name":"verifyCompressedProof","inputs":[{"name":"compressedProof","type":"uint256[4]","internalType":"uint256[4]"},{"name":"input","type":"uint256[36]","internalType":"uint256[36]"}],"outputs":[],"stateMutability":"view"},{"type":"function","name":"verifyProof","inputs":[{"name":"proof","type":"uint256[8]","internalType":"uint256[8]"},{"name":"input","type":"uint256[36]","internalType":"uint256[36]"}],"outputs":[],"stateMutability":"view"},{"type":"error","name":"ProofInvalid","inputs":[]},{"type":"error","name":"PublicInputNotInField","inputs":[]}],"bytecode":{"object":"0x60808060405234601557612db5908161001a8239f35b5f80fdfe60806040526004361015610011575f80fd5b5f3560e01c806344f63692146123dc57806363c650461461126f576395a1463f1461003a575f80fd5b3461126b576105007ffffffffffffffffffffffffffffffffffffffffffffffffffffffffffffffffc36011261126b573660841161126b57366105041161126b576103006100878161248f565b813682376100966004356128cc565b6100a7602493929335604435612970565b919392906100b66064356128cc565b9390926040519660408801967f2af7086f613657ade374d2268528cefff016ec24665da09ff8d1dea212121f7789528860208101987f0a9ef050f301ba01f85a410e47bf6ddee04487ce6efa26f7f59c940ce33b494c8a527f2965c751221c425c500e743f3131e95401ca73b928ef622b69db4f62b6fde9a981527f30644e72e131a029b85045b68181585d2833e84879b9709143e1f593f0000001604060608401927f03005f9c3bc16fef85fe3af8bb309925821c7be775b15161ce855d3c0636b40b84527f0bf3612f62f4910358727532d4c4d5d1cd90e5eab944a17200d6b32cf6d6af6f6084359583608082019780895286828660608160075afa911016818360808160065afa167f045e7b0d098bc1880689738f3e85ed013e787e84a26a3148a1a49526a8ee43ea85527f0d54bea8ffe216ded971311d28b7afba8b9bcb96c72a01f9394e22de9d036ece8852600160a43591828b5288848860608160075afa9310161616818360808160065afa167f0e25331626edb3054c4d79ea394eb32e8e8dc7636406cc8068a6a8bcc2cc892585527f28a18d0db0cef6e83a614541bd44d6702b7f0d4cdc02306bdddfeffddaa70062885260c43590818a5287838760608160075afa92101616818360808160065afa167f074a582cee98735802c3742e44a1fb02bed8c3db46b2f4d87924a561cdc222da85527f187584335f5a2062aa8f166667bd31dd2cb4d5a368e9db5a60f64b09050ffdb4885260e43590818a5287838760608160075afa92101616818360808160065afa167f21c11fbda7ae9b5a8b232b6e269ce3c8913e717defffdada2a02a8b4ae550ba585527f129b4f20bac926957aa359ed852cac525bddd8df5cea06a2981fc948edc44df488526101043590818a5287838760608160075afa92101616818360808160065afa167f068b084ef5263c99813112ab3fe8a793d5c7096feff4aad1208739643619d2c685527f02ef8b9b22ac23f3d5fd3e95bccf318cbc8f12ded1b9f78a53dca4495deeb99488526101243590818a5287838760608160075afa92101616818360808160065afa167f2176c92c7891a6751bc54fb8baa5ece58427f43d14370b0be35ac23281dbed1f85527f2498fcd36e7111c84ad30428cb0db312054db8b075e0ccd09a11e8b1f5756dd488526101443590818a5287838760608160075afa92101616818360808160065afa167f214c4f3917da89a544e7f10e56dd01c4ecc9d39acdc5907752d6f946ffeb06b685527f0abac558c1cee36e446a2dc281b6cdb23bd6aeda733aefdd7ec94af6f94be05688526101643590818a5287838760608160075afa92101616818360808160065afa167e59a3d420955d6ead3d8d0747e0951509599bca4dd9f3fd41887ab34d13e10e85527f0129dc84b00f3ae07a6e956821eccd5bb7ff64df7adaa5a76499b1c8c8835efe88526101843590818a5287838760608160075afa92101616818360808160065afa167f12dd33ad61c454370d9b00f9249b511992049011895ceb5ec1f56fb2f52c102285527f0a46bf95555e72cc82268dbea84be4f6b17632ff3286175a08d139db4ab09dc988526101a43590818a5287838760608160075afa92101616818360808160065afa167f1f5506281a170040e6b7c81ec21a255f5d62d33f3f706baba41eb273ab8e929785527f1ce88eb1e6fab7a20b7f9136e84a8c84f00127fa3ab69597373b6e492f1cd74c88526101c43590818a5287838760608160075afa92101616818360808160065afa167f21215f9024a0d6acbe3e0b20063a09f859441bdea4c46ad4dab45cb91a35cd5785527f1de6ee7671c53b72b03971f73c47f8eaad96b478fb452d08cb071d00ff52c66488526101e43590818a5287838760608160075afa92101616818360808160065afa167f2b6d78d9d320b8a16a44130ee88fbe49eb42cfc15f3a0d886a9519f6cdd0f2eb85527f135cb67d58b642e0dc4ac406612dcf781e40b7af3fdcfddc0c1ad23f1ac865dc88526102043590818a5287838760608160075afa92101616818360808160065afa167f204fe3fb2081975a5d2d85e50dcc954ef19bfe2d7b391cfa17ee63025b4c163685527f2dff27f5b7123abcda0cb7a5f3389ebe9f72ce6c4d33a310bc4623a6fb4d6a2688526102243590818a5287838760608160075afa92101616818360808160065afa167f09947c11df32765363c3e4a7403a7fed2398a7cec5615a351558f7aab29fd1a585527f0be7a8d84aa40684d2e66de166d582c4ca2b2afce5859faca3ce16c76eb91ae688526102443590818a5287838760608160075afa92101616818360808160065afa167f1b721241617d3a1e3c7c031084e542729bc7d9dfa861fb1bc8a3db509a85b19885527f07f1d47fe0ff0b0e7d410401681237617c690a59e76c99e87ff968dca8444df388526102643590818a5287838760608160075afa92101616818360808160065afa167f0706712d90c5a469eb61331b05ce50823011b53395e3ac547ef6e4377cd9232385527f2b7b96dd5c3d3b99b75f755a9c847257d635e3031dfafc71e3a806b2c62d6d1388526102843590818a5287838760608160075afa92101616818360808160065afa167f297df09e170f260de670a6ab619edaa0b7a4d4ebe66c1bed843c0db56294d6e285527f2629976b6b9fe320a5d6df80b1a79314bf2899d1047e45b35f800a4840e3338788526102a43590818a5287838760608160075afa92101616818360808160065afa167e34b4632f0948b07430f2665d8bd395ecd248fe046c6bfbc788c45fedac421b85527f267a45486e2004ed95cbed27e974aa5817c17caba3f528e05a4ea5d4b61c0bf388526102c43590818a5287838760608160075afa92101616818360808160065afa167f0d8bc3f2a1bbe3f4e75a21b7dd5c82fe1fcd5f170ec8dd53e9465ea63590f88b85527f209be5a720324abd2b843fa90fe07878faa0f34abd7e97df25bba966a6274da988526102e43590818a5287838760608160075afa92101616818360808160065afa167f2dc69a187625c797bf3b61871a14e823422961259bd071928a510e3169921e0485527f256c3c5329de82f95c8278bb5ae7ae9eeafb540916dde646dbdd5129f5618b6588526103043590818a5287838760608160075afa92101616818360808160065afa167f297c81e5b9badd46bd06cbd4f597978033e0e53d78c05377480fdd7a6775440385527f294283880b4dd23edc0a962f531a5376de1032127f6a8586308ee73634e969c288526103243590818a5287838760608160075afa92101616818360808160065afa167f179ed874c8752b45c117f6f9901ca1aa813441e749cdfe89d9c71e0ef2881be085527f1192635430cf971e6ff092872c4251cf3fec031338eb448706a438c8c53ef3aa88526103443590818a5287838760608160075afa92101616818360808160065afa167f2c319448e285cb30ca600d34455d5bee7c235bfe8e391baa76063b67bcee5ee185527f14c82821aefc5f722be8481bd9e4a7d43dca2e09dde526fc68b306d5f40e314f88526103643590818a5287838760608160075afa92101616818360808160065afa167f2233f2653f930bab2ab6672c31907550edf0fd39deaa5d227e5cb362330d63c985527f11e354af2e6aacfa7fb149719ef5ff82bafbe509d24b484072b46e4fdba5e58788526103843590818a5287838760608160075afa92101616818360808160065afa167f2aa2de41e91c5f71e2591b671752656eab40eb8a76fe8faa4d289f250933875185527f157167babbb7122865fec05cdd110e395ba1f656aa55324073e6f9f73cb30f3d88526103a43590818a5287838760608160075afa92101616818360808160065afa167f128f7af71240c6dc3389fd012122737cd10298d5efe2ed9ca500010687d19a9f85527f0f8fa914abc79416186b3d59b1b22a8241712bf4df41f45feeb3a8f4570caf4288526103c43590818a5287838760608160075afa92101616818360808160065afa167f25c763ff171717540e3389b4e041dc75dde00a2a3179ddf172bec1e698ea846285527ecf5eeb9b6f343d4e77c3629ddc15724d31f2f83874423f86532a69f88b423188526103e43590818a5287838760608160075afa92101616818360808160065afa167f0f4b0ffa6167e694f8328723e2f7bd7f0f22cbe0d329355c0e346c5e96454e5285527f1f30e5b58feafe99bcfb3ab56ef2a8584c06980f5dee84acbe0c2b1c607c321a88526104043590818a5287838760608160075afa92101616818360808160065afa167f1e7146469dfc62f62b4b6c4b8d3deea58ba602b34d1fa9a2cc67f5ed3324a4bf85527f054d4a793f9a3d449565e26aca9602a81dc13ae07a2fa7b6c2259a479a28a30a88526104243590818a5287838760608160075afa92101616818360808160065afa167f128eeb4333e044f93df326b77df7948d237d667759160ca52885d5e5292a2f7e85527f263cb7c180bfd899a2f74605823197cca8019b9f55c8826da5275f512b40617c88526104443590818a5287838760608160075afa92101616818360808160065afa167f0a5e6af65cba866bba73089b3347c9025ba19a7db9e536f55d50cf41a868209685527f2026785902924ac8ce1629f5268436364c19742eabd7bbfaced95a0cf2ea7c6288526104643590818a5287838760608160075afa92101616818360808160065afa167f121263222710a6ebf5ede22cc82dbcb3d89f88087db23d34268b567de8d109da85527f1d99ea1176740b6c441aee05a07a8a53d6f9c70ce06cbee2ed418754b6f9cce088526104843590818a5287838760608160075afa92101616818360808160065afa167f0f28f559a8f06efe2f3a31e861f3a4652ca4155eb2f593970a4ea39cfa93659685527f171dfc8a7bafcc4bd12167fee141dec86123cc622b750cae6b6bf12a18478f1588526104a43590818a5287838760608160075afa92101616818360808160065afa167f245817296eb9f6809b18538e5ebef9df88e337579b93fa7c81a7bbd8e79909bc85527f1dcd5c7bd1309a72ee9f03aa4a1c66835bcdc21c471e70720d3f9e406c490e0188526104c43590818a5287838760608160075afa921016169160808160065afa16947f1a57ec5e80b5bb4e1dda1ec685f82b687a5c3df9a5866ee43e570d778f49ae6f8352526104e43580955260608160075afa9210161660408a60808160065afa169851975198156112435760209a8a528a8a015260408901526060880152608087015260a086015260c085015260e08401527f1af6b5633d28b6d92b02897c371b7b54a412a21409592ba9f5c02a17b32634816101008401527f19863f8b177cb2c8d76851aebb40a2d6fd82155975cd3535826ef78e1b2fb7e76101208401527f19db3c559431e0125ce1bf34a351cb19c0b1f686b578e63ea35c948c5190a9586101408401527f286ab20c55af346fc77fc13f5eb741a247b0d5d11163da3577ec172a4e2a07a06101608401527f245229d9b076b3c0e8a4d70bde8c1cccffa08a9fae7557b165b3b0dbd653e2c76101808401527f253ec85988dbb84e46e94b5efa3373b47a000b4ac6c86b2d4b798d274a1823026101a08401527f07090a82e8fabbd39299be24705b92cf208ee8b3487f6f2b39ff27978a29a1db6101c08401527f2424bcc1f60a5472685fd50705b2809626e170120acaf441e133a2bd5e61d2446101e08401527f25833b15e156ae01f2741f4f4120ddb466c52eb83a959f79eb99b23caa7fbf1d6102008401527f04ddc8d30d5c438ca34091c5d2c6ded571382cba2b3c4fdc4222df2938b4e51e6102208401526102408301526102608201527f198e9393920d483a7260bfb731fb5d25f1aa493335a9e71297e485b7aef312c26102808201527f1800deef121f1e76426a00665e5c4479674322d4f75edadd46debd5cd992f6ed6102a08201527f275dc4a288d1afb3cbb1ac09187524c7db36395df7be3b99e673b13a075a65ec6102c08201527f1d9befcd05a5323e6da4d435f3b617cdb3af83285c2df711ef39c01571827f9d6102e08201526111f38261248f565b9283918336843760085afa15908115611236575b5061120e57005b7f7fcdd1f4000000000000000000000000000000000000000000000000000000005f5260045ffd5b600191505114155f611207565b7fa54f8e27000000000000000000000000000000000000000000000000000000005f5260045ffd5b5f80fd5b3461126b576105807ffffffffffffffffffffffffffffffffffffffffffffffffffffffffffffffffc36011261126b57366101041161126b57366105841161126b5760405160408101907f2af7086f613657ade374d2268528cefff016ec24665da09ff8d1dea212121f77815260208101917f0a9ef050f301ba01f85a410e47bf6ddee04487ce6efa26f7f59c940ce33b494c83527f2965c751221c425c500e743f3131e95401ca73b928ef622b69db4f62b6fde9a98152606082017f03005f9c3bc16fef85fe3af8bb309925821c7be775b15161ce855d3c0636b40b81527f30644e72e131a029b85045b68181585d2833e84879b9709143e1f593f0000001604061010435937f0bf3612f62f4910358727532d4c4d5d1cd90e5eab944a17200d6b32cf6d6af6f608087019580875284848460608160075afa911016838860808160065afa167f045e7b0d098bc1880689738f3e85ed013e787e84a26a3148a1a49526a8ee43ea83527f0d54bea8ffe216ded971311d28b7afba8b9bcb96c72a01f9394e22de9d036ece86526001610124359182895286868660608160075afa9310161616838860808160065afa167f0e25331626edb3054c4d79ea394eb32e8e8dc7636406cc8068a6a8bcc2cc892583527f28a18d0db0cef6e83a614541bd44d6702b7f0d4cdc02306bdddfeffddaa700628652610144359081885285858560608160075afa92101616838860808160065afa167f074a582cee98735802c3742e44a1fb02bed8c3db46b2f4d87924a561cdc222da83527f187584335f5a2062aa8f166667bd31dd2cb4d5a368e9db5a60f64b09050ffdb48652610164359081885285858560608160075afa92101616838860808160065afa167f21c11fbda7ae9b5a8b232b6e269ce3c8913e717defffdada2a02a8b4ae550ba583527f129b4f20bac926957aa359ed852cac525bddd8df5cea06a2981fc948edc44df48652610184359081885285858560608160075afa92101616838860808160065afa167f068b084ef5263c99813112ab3fe8a793d5c7096feff4aad1208739643619d2c683527f02ef8b9b22ac23f3d5fd3e95bccf318cbc8f12ded1b9f78a53dca4495deeb99486526101a4359081885285858560608160075afa92101616838860808160065afa167f2176c92c7891a6751bc54fb8baa5ece58427f43d14370b0be35ac23281dbed1f83527f2498fcd36e7111c84ad30428cb0db312054db8b075e0ccd09a11e8b1f5756dd486526101c4359081885285858560608160075afa92101616838860808160065afa167f214c4f3917da89a544e7f10e56dd01c4ecc9d39acdc5907752d6f946ffeb06b683527f0abac558c1cee36e446a2dc281b6cdb23bd6aeda733aefdd7ec94af6f94be05686526101e4359081885285858560608160075afa92101616838860808160065afa167e59a3d420955d6ead3d8d0747e0951509599bca4dd9f3fd41887ab34d13e10e83527f0129dc84b00f3ae07a6e956821eccd5bb7ff64df7adaa5a76499b1c8c8835efe8652610204359081885285858560608160075afa92101616838860808160065afa167f12dd33ad61c454370d9b00f9249b511992049011895ceb5ec1f56fb2f52c102283527f0a46bf95555e72cc82268dbea84be4f6b17632ff3286175a08d139db4ab09dc98652610224359081885285858560608160075afa92101616838860808160065afa167f1f5506281a170040e6b7c81ec21a255f5d62d33f3f706baba41eb273ab8e929783527f1ce88eb1e6fab7a20b7f9136e84a8c84f00127fa3ab69597373b6e492f1cd74c8652610244359081885285858560608160075afa92101616838860808160065afa167f21215f9024a0d6acbe3e0b20063a09f859441bdea4c46ad4dab45cb91a35cd5783527f1de6ee7671c53b72b03971f73c47f8eaad96b478fb452d08cb071d00ff52c6648652610264359081885285858560608160075afa92101616838860808160065afa167f2b6d78d9d320b8a16a44130ee88fbe49eb42cfc15f3a0d886a9519f6cdd0f2eb83527f135cb67d58b642e0dc4ac406612dcf781e40b7af3fdcfddc0c1ad23f1ac865dc8652610284359081885285858560608160075afa92101616838860808160065afa167f204fe3fb2081975a5d2d85e50dcc954ef19bfe2d7b391cfa17ee63025b4c163683527f2dff27f5b7123abcda0cb7a5f3389ebe9f72ce6c4d33a310bc4623a6fb4d6a2686526102a4359081885285858560608160075afa92101616838860808160065afa167f09947c11df32765363c3e4a7403a7fed2398a7cec5615a351558f7aab29fd1a583527f0be7a8d84aa40684d2e66de166d582c4ca2b2afce5859faca3ce16c76eb91ae686526102c4359081885285858560608160075afa92101616838860808160065afa167f1b721241617d3a1e3c7c031084e542729bc7d9dfa861fb1bc8a3db509a85b19883527f07f1d47fe0ff0b0e7d410401681237617c690a59e76c99e87ff968dca8444df386526102e4359081885285858560608160075afa92101616838860808160065afa167f0706712d90c5a469eb61331b05ce50823011b53395e3ac547ef6e4377cd9232383527f2b7b96dd5c3d3b99b75f755a9c847257d635e3031dfafc71e3a806b2c62d6d138652610304359081885285858560608160075afa92101616838860808160065afa167f297df09e170f260de670a6ab619edaa0b7a4d4ebe66c1bed843c0db56294d6e283527f2629976b6b9fe320a5d6df80b1a79314bf2899d1047e45b35f800a4840e333878652610324359081885285858560608160075afa92101616838860808160065afa167e34b4632f0948b07430f2665d8bd395ecd248fe046c6bfbc788c45fedac421b83527f267a45486e2004ed95cbed27e974aa5817c17caba3f528e05a4ea5d4b61c0bf38652610344359081885285858560608160075afa92101616838860808160065afa167f0d8bc3f2a1bbe3f4e75a21b7dd5c82fe1fcd5f170ec8dd53e9465ea63590f88b83527f209be5a720324abd2b843fa90fe07878faa0f34abd7e97df25bba966a6274da98652610364359081885285858560608160075afa92101616838860808160065afa167f2dc69a187625c797bf3b61871a14e823422961259bd071928a510e3169921e0483527f256c3c5329de82f95c8278bb5ae7ae9eeafb540916dde646dbdd5129f5618b658652610384359081885285858560608160075afa92101616838860808160065afa167f297c81e5b9badd46bd06cbd4f597978033e0e53d78c05377480fdd7a6775440383527f294283880b4dd23edc0a962f531a5376de1032127f6a8586308ee73634e969c286526103a4359081885285858560608160075afa92101616838860808160065afa167f179ed874c8752b45c117f6f9901ca1aa813441e749cdfe89d9c71e0ef2881be083527f1192635430cf971e6ff092872c4251cf3fec031338eb448706a438c8c53ef3aa86526103c4359081885285858560608160075afa92101616838860808160065afa167f2c319448e285cb30ca600d34455d5bee7c235bfe8e391baa76063b67bcee5ee183527f14c82821aefc5f722be8481bd9e4a7d43dca2e09dde526fc68b306d5f40e314f86526103e4359081885285858560608160075afa92101616838860808160065afa167f2233f2653f930bab2ab6672c31907550edf0fd39deaa5d227e5cb362330d63c983527f11e354af2e6aacfa7fb149719ef5ff82bafbe509d24b484072b46e4fdba5e5878652610404359081885285858560608160075afa92101616838860808160065afa167f2aa2de41e91c5f71e2591b671752656eab40eb8a76fe8faa4d289f250933875183527f157167babbb7122865fec05cdd110e395ba1f656aa55324073e6f9f73cb30f3d8652610424359081885285858560608160075afa92101616838860808160065afa167f128f7af71240c6dc3389fd012122737cd10298d5efe2ed9ca500010687d19a9f83527f0f8fa914abc79416186b3d59b1b22a8241712bf4df41f45feeb3a8f4570caf428652610444359081885285858560608160075afa92101616838860808160065afa167f25c763ff171717540e3389b4e041dc75dde00a2a3179ddf172bec1e698ea846283527ecf5eeb9b6f343d4e77c3629ddc15724d31f2f83874423f86532a69f88b42318652610464359081885285858560608160075afa92101616838860808160065afa167f0f4b0ffa6167e694f8328723e2f7bd7f0f22cbe0d329355c0e346c5e96454e5283527f1f30e5b58feafe99bcfb3ab56ef2a8584c06980f5dee84acbe0c2b1c607c321a8652610484359081885285858560608160075afa92101616838860808160065afa167f1e7146469dfc62f62b4b6c4b8d3deea58ba602b34d1fa9a2cc67f5ed3324a4bf83527f054d4a793f9a3d449565e26aca9602a81dc13ae07a2fa7b6c2259a479a28a30a86526104a4359081885285858560608160075afa92101616838860808160065afa167f128eeb4333e044f93df326b77df7948d237d667759160ca52885d5e5292a2f7e83527f263cb7c180bfd899a2f74605823197cca8019b9f55c8826da5275f512b40617c86526104c4359081885285858560608160075afa92101616838860808160065afa167f0a5e6af65cba866bba73089b3347c9025ba19a7db9e536f55d50cf41a868209683527f2026785902924ac8ce1629f5268436364c19742eabd7bbfaced95a0cf2ea7c6286526104e4359081885285858560608160075afa92101616838860808160065afa167f121263222710a6ebf5ede22cc82dbcb3d89f88087db23d34268b567de8d109da83527f1d99ea1176740b6c441aee05a07a8a53d6f9c70ce06cbee2ed418754b6f9cce08652610504359081885285858560608160075afa92101616838860808160065afa167f0f28f559a8f06efe2f3a31e861f3a4652ca4155eb2f593970a4ea39cfa93659683527f171dfc8a7bafcc4bd12167fee141dec86123cc622b750cae6b6bf12a18478f158652610524359081885285858560608160075afa92101616838860808160065afa167f245817296eb9f6809b18538e5ebef9df88e337579b93fa7c81a7bbd8e79909bc83527f1dcd5c7bd1309a72ee9f03aa4a1c66835bcdc21c471e70720d3f9e406c490e018652610544359081885285858560608160075afa92101616838860808160065afa16947f1a57ec5e80b5bb4e1dda1ec685f82b687a5c3df9a5866ee43e570d778f49ae6f8352526105643580955260608160075afa9210161660408260808160065afa169051915190156112435760405191610100600484377f1af6b5633d28b6d92b02897c371b7b54a412a21409592ba9f5c02a17b32634816101008401527f19863f8b177cb2c8d76851aebb40a2d6fd82155975cd3535826ef78e1b2fb7e76101208401527f19db3c559431e0125ce1bf34a351cb19c0b1f686b578e63ea35c948c5190a9586101408401527f286ab20c55af346fc77fc13f5eb741a247b0d5d11163da3577ec172a4e2a07a06101608401527f245229d9b076b3c0e8a4d70bde8c1cccffa08a9fae7557b165b3b0dbd653e2c76101808401527f253ec85988dbb84e46e94b5efa3373b47a000b4ac6c86b2d4b798d274a1823026101a08401527f07090a82e8fabbd39299be24705b92cf208ee8b3487f6f2b39ff27978a29a1db6101c08401527f2424bcc1f60a5472685fd50705b2809626e170120acaf441e133a2bd5e61d2446101e08401527f25833b15e156ae01f2741f4f4120ddb466c52eb83a959f79eb99b23caa7fbf1d6102008401527f04ddc8d30d5c438ca34091c5d2c6ded571382cba2b3c4fdc4222df2938b4e51e6102208401526102408301526102608201527f198e9393920d483a7260bfb731fb5d25f1aa493335a9e71297e485b7aef312c26102808201527f1800deef121f1e76426a00665e5c4479674322d4f75edadd46debd5cd992f6ed6102a08201527f275dc4a288d1afb3cbb1ac09187524c7db36395df7be3b99e673b13a075a65ec6102c08201527f1d9befcd05a5323e6da4d435f3b617cdb3af83285c2df711ef39c01571827f9d6102e08201526020816103008160085afa9051161561120e57005b3461126b576101007ffffffffffffffffffffffffffffffffffffffffffffffffffffffffffffffffc36011261126b57366101041161126b5761241f608061248f565b6080368237612432602435600435612500565b815261244860843560a4356044356064356125ed565b6020830152604082015261246060e43560c435612500565b6060820152604051905f825b6004821061247957608084f35b602080600192855181520193019101909161246c565b907fffffffffffffffffffffffffffffffffffffffffffffffffffffffffffffffe0601f604051930116820182811067ffffffffffffffff8211176124d357604052565b7f4e487b71000000000000000000000000000000000000000000000000000000005f52604160045260245ffd5b907f30644e72e131a029b85045b68181585d97816a916871ca8d3c208c16d87cfd4782108015906125c3575b61120e578115806125bb575b6125b55761256f7f30644e72e131a029b85045b68181585d97816a916871ca8d3c208c16d87cfd4760038185818180090908612af5565b81810361257e57505060011b90565b7f30644e72e131a029b85045b68181585d97816a916871ca8d3c208c16d87cfd47809106810306145f1461120e57600190811b1790565b50505f90565b508015612538565b507f30644e72e131a029b85045b68181585d97816a916871ca8d3c208c16d87cfd4781101561252c565b919093927f30644e72e131a029b85045b68181585d97816a916871ca8d3c208c16d87cfd4783108015906128a2575b8015612878575b801561284e575b61120e578082868517171715612843579082916127807f30644e72e131a029b85045b68181585d97816a916871ca8d3c208c16d87cfd4780808080888180808f9d7f30644e72e131a029b85045b68181585d97816a916871ca8d3c208c16d87cfd448f839290839109099d8e0981848181800909087f2b149d40ceb8aaae81be18991be06ac3b5b4c5e559dbefa33267e6dc24a138e5089a09818c8181800909087f2fcd3ac2a640a154eb23960892a85a68f031ca0c8344b23a577dcf1052b9e7750806810306947f30644e72e131a029b85045b68181585d97816a916871ca8d3c208c16d87cfd477f183227397098d014dc2822db40c0ac2ecbc0b548b438e5469e10460b6c3e7ea48161274781808b80098187800908612af5565b8408097f30644e72e131a029b85045b68181585d97816a916871ca8d3c208c16d87cfd4761277482612d04565b80091415958691612b2b565b92908082148061283a575b156127b25750505050905f146127aa5760ff60025b169060021b179190565b60ff5f6127a0565b7f30644e72e131a029b85045b68181585d97816a916871ca8d3c208c16d87cfd47809106810306149182612808575b50501561120e57600191156128005760ff60025b169060021b17179190565b60ff5f6127f5565b7f30644e72e131a029b85045b68181585d97816a916871ca8d3c208c16d87cfd47919250819006810306145f806127e1565b5083831461278b565b50505090505f905f90565b507f30644e72e131a029b85045b68181585d97816a916871ca8d3c208c16d87cfd4781101561262a565b507f30644e72e131a029b85045b68181585d97816a916871ca8d3c208c16d87cfd47821015612623565b507f30644e72e131a029b85045b68181585d97816a916871ca8d3c208c16d87cfd4785101561261c565b8015612969578060011c917f30644e72e131a029b85045b68181585d97816a916871ca8d3c208c16d87cfd4783101561120e576001806129357f30644e72e131a029b85045b68181585d97816a916871ca8d3c208c16d87cfd4760038188818180090908612af5565b93161461293e57565b907f30644e72e131a029b85045b68181585d97816a916871ca8d3c208c16d87cfd4780910681030690565b505f905f90565b801580612aed575b612ae1578060021c92827f30644e72e131a029b85045b68181585d97816a916871ca8d3c208c16d87cfd478510801590612ab7575b61120e5784817f30644e72e131a029b85045b68181585d97816a916871ca8d3c208c16d87cfd4780808080808080807f30644e72e131a029b85045b68181585d97816a916871ca8d3c208c16d87cfd4481612a6e9d8d0909998a0981898181800909087f2fcd3ac2a640a154eb23960892a85a68f031ca0c8344b23a577dcf1052b9e7750806810306936002808a16149509818a8181800909087f2b149d40ceb8aaae81be18991be06ac3b5b4c5e559dbefa33267e6dc24a138e508612b2b565b80929160018082961614612a80575050565b7f30644e72e131a029b85045b68181585d97816a916871ca8d3c208c16d87cfd478093945080929550809106810306930681030690565b507f30644e72e131a029b85045b68181585d97816a916871ca8d3c208c16d87cfd478110156129ad565b50505f905f905f905f90565b508115612978565b90612aff82612d04565b917f30644e72e131a029b85045b68181585d97816a916871ca8d3c208c16d87cfd478380090361120e57565b917f30644e72e131a029b85045b68181585d97816a916871ca8d3c208c16d87cfd477f183227397098d014dc2822db40c0ac2ecbc0b548b438e5469e10460b6c3e7ea481612b9693969496612b8882808a8009818a800908612af5565b90612cf8575b860809612af5565b927f30644e72e131a029b85045b68181585d97816a916871ca8d3c208c16d87cfd47600285096040519060208252602080830152602060408301528060608301527f30644e72e131a029b85045b68181585d97816a916871ca8d3c208c16d87cfd4560808301527f30644e72e131a029b85045b68181585d97816a916871ca8d3c208c16d87cfd4760a083015260208260c08160055afa9151911561120e577f30644e72e131a029b85045b68181585d97816a916871ca8d3c208c16d87cfd4782600192090361120e577f30644e72e131a029b85045b68181585d97816a916871ca8d3c208c16d87cfd47908209927f30644e72e131a029b85045b68181585d97816a916871ca8d3c208c16d87cfd478080808780090681030681878009081490811591612cc6575b5061120e57565b90507f30644e72e131a029b85045b68181585d97816a916871ca8d3c208c16d87cfd478084860960020914155f612cbf565b81809106810306612b8e565b9060405191602083526020808401526020604084015260608301527f0c19139cb84c680a6e14116da060561765e05aa45a1c72a34f082305b61f3f5260808301527f30644e72e131a029b85045b68181585d97816a916871ca8d3c208c16d87cfd4760a083015260208260c08160055afa9151911561120e5756fea26469706673582212206a28d8faa442b8c970e8d314b9f68149a4ba72bebec5cc32e3750434f1ee509a64736f6c634300081e0033","linkReferences":{}},"methodIdentifiers":{"compressProof(uint256[8])":"44f63692","verifyCompressedProof(uint256[4],uint256[36])":"95a1463f","verifyProof(uint256[8],uint256[36])":"63c65046"},"storageLayout":{"storage":[],"types":{}},"id":38}